:020000040000FA
:06000000020A390201C3EF
:03002B0002074C7D
:03004300020707AA
:03005300020102A5
:03006B0002083F49
:1000830002015F0101FF01010503010F10FEFFCF14
:1000930012CF12CF12CF1285117F11CF12EA210096
:1000A300000000AE22000000000C0000000C000164
:1000B3000000A3140000000000005D150000000014
:1000C300000000000000FFFF0101010100D0050056
:1000D30000004506E80364006400B8010202001052
:1000E3000000050203051E02051E020A0A02B80BE0
:1000F3000260EA010278110196511800020206C05B
:10010300E074F21203DCA2AFE433FED2AFE5A7FF43
:10011300E5A1F5085F54106006121C9B75A1EFE57D
:10012300085F54086008121CA175A1F78024E50834
:10013300A2E092F0EFA2E082F05017906198E0F80D
:10014300900922E0C398A2D265D0335002E8F0753B
:10015300A1FEEEA2E092AF7F0102043BC0E074F285
:100163001203DCA2AFE433FED2AF9061A4E0F875D2
:100173009B00E59158540860087591F7121CE980BB
:1001830023E59158541060087591EF121CEF801409
:10019300E591A2E092F0E8A2E082F05007E0C2E02D
:1001A300F0121E339061A3E0F8E5E9585404600EA1
:1001B300121E0975E9FB906193E0A2E640F280927A
:1001C300C0E074F21203DCA2AFE433FED2AF90615D
:1001D300A5E0F8E5BF585404600675BFFB121E4B3B
:1001E300020155C3E498F8E499F91202278026C363
:1001F300E49AFAE49BFBE920E7E9120227E498F882
:10020300E499F922C3E498F8E499F9120227E498EF
:10021300F8E499F9C3E49AFAE49BFB22EB20E7CFD5
:10022300E920E7E0B90010BB0008E88AF084F8AAE7
:10023300F022E4FBC8FA22EB70227B10C833C8C952
:1002430033C9335007C39AC3DBF280069A50012A9D
:10025300DBEAC833F4C8C933F4C9FA2275F008E4F9
:10026300C833C8C933C933C99AC99B5004C92AC9F9
:100273003BD5F0ECFBC833F4C8E4C9FA22080808FC
:10028300EAC0E0EBC0E086F0E7A4FA180986F0E7DD
:10029300A42AFA180986F0E7A42AFA180986F0E7CF
:1002A300A42AFA1986F0E7A4FBE5F02AFA190886CE
:1002B300F0E7A42BFBE5F03AFA190886F0E7A42B44
:1002C300FBE5F03AFA18180986F0E7A4C5F02BFB12
:1002D300E43AFA1908E7C5F0C6A426F6E5F03BFBB5
:1002E300E43AFA1886F0E7A4F6E5F00826F6E43BCC
:1002F30008F6E43A08F6D0E0FBD0E0FA22E4CFC0F7
:10030300E0E4CEC0E0E4CDC0E0E4CCC0E075F02092
:10031300C3E633F608E633F608E633F608E633F6C3
:10032300181818EC33FCED33FDEE33FEEF33FFC347
:10033300EC9709ED9709EE9709EF97191919400FF3
:10034300FFEC97FC09ED97FD09EE97FE191906D509
:10035300F0BEECF709EDF709EEF709EFF7191919F4
:10036300D0E0FCD0E0FDD0E0FED0E0FF222518C5B0
:1003730082C0E0E51934FFC583C0E0E518C3958268
:1003830024F810AF0885831985821880088583199E
:10039300858218D2AFCEF0A3E520F0A37808E60853
:1003A300F0A3DEFAEFF0A3E58124FAF8E608F0A360
:1003B300E608F0A3E608F0A30808E608F0A3E608B9
:1003C300F0A315811581D0E0FED0E0F815811581E9
:1003D3001581E8C0E0EEC0E022C0D02518C582C078
:1003E300E0E51934FFC583C0E0E518C3958224F323
:1003F30010AF088583198582188008858319858243
:1004030018D2AFC8F0A3E9F0A3EAF0A3EBF0A37905
:1004130008E709F0A3D8FAECF0A3EDF0A3EEF0A3FC
:10042300EFF0A3D0E0F0A3D0E0F0A3D0E0F0A3E599
:1004330020F0A3E5F0F0A322851983851882E0C09C
:10044300E0A3E0F9A3E0FAA3E0FBA37808E0F60851
:10045300A3DFFAE0FCA3E0FDA3E0FEA3E0FFA3E03B
:10046300C0E0A3E0C0E0A3E0F5D0A3E0F520A3E063
:10047300A3F5F010AF08858319858218800885835A
:1004830019858218D2AFD082D083D0E0F8D0E03281
:10049300120A9BB900030204D5E490030178E979B9
:1004A3000C8002F0A3D8FCD9FA900EE9AA82AB83A0
:1004B300900086787D79018015E493A3AC82AD83A7
:1004C3008A828B83F0A3AA82AB838C828D83D8E943
:1004D300D9E775826F75838374041207EB7582F114
:1004E30075832074001207EB0975F0108E1A8F1BA9
:1004F30085821F85831E851882851983E0CEA3E03C
:10050300CF851F82851E83EBC9EAC8EDCBECCAC336
:10051300E833C8E933C9EA33CAEB33CBC3EA9EF500
:100523001DEB9FF51CB35004AB1CAA1DEC33CCEDA3
:1005330033CDD5F0DAAE1AAF1B22D083D082ECC014
:10054300E0EDC0E0E493A3FCE493A3FDED4C600D68
:10055300120615EC24FFFCED34FFFD80EFE493A3BA
:10056300FCE493A3FDED4C600D1206B2EC24FFFCFA
:10057300ED34FFFD80EFD0E0FDD0E0FCE493A3C0B9
:10058300E0E493C0E022D083D082E9C0E0E493A307
:10059300C386F0C5F095F0F908E493A386F0C5F09F
:1005A30095F0700BE493A3C3994005E9048002A37B
:1005B300E475F002A42582F582E5F03583F583D056
:1005C300E0F9E493A3C0E0E493C0E02285198385B6
:1005D3001882E0A3FEE0A3F5207808E0A3F608DF85
:1005E300FAE0A3FFE0A3C0E0E0A3C0E0E0A3C0E023
:1005F300E0A3C0E0E0A3C0E010AF088582188583C4
:10060300198008858218858319D2AFD083D08202DE
:1006130007F1C0E0C3E49396087401939618400F62
:10062300E49366700808740193661870007019A348
:10063300A3C3E49396087401939618A3A3400DD023
:10064300E0D0E0D0E0020579A3A3A3A3A3A3D0E065
:10065300227404800474028000CCC0E0EDC0E0E5A5
:1006630018C39CCCAD1950011D10AF068C188D1901
:1006730080068C188D19D2AF12076DD0E0FDD0E043
:10068300FC2274028000CCC0E0EDC0E0E518C39CFE
:10069300CCAD1950011D10AF068C188D1980068C36
:1006A300188D19D2AF12072AD0E0FDD0E0FC22C08A
:1006B300E0C0F088F0E4936670080874019366184C
:1006C3007000A8F0A3A3700BD0F0D0E0D0E0D0E08E
:1006D300020579A3A3D0F0D0E022D083D082CCC08E
:1006E300E0E493A3600612078E1470FAE493A36008
:1006F300061208D41470FAD0E0FCE493A3C0E0E43B
:1007030093C0E022C0E074F21203DCA2AFE433FE34
:10071300D2AFC2C0E5D1A2E45003121C11EEA2E095
:1007230092AF7F0102043BCAC0E0E493A3C582CC2D
:10073300C582C583CDC583F0A3C582CCC582C583DD
:10074300CDC583DAE5D0E0CA22C0E0C0D0E8C0E07E
:10075300E9C0E0E5A8D2AFC2C7A2E7A2E792AFD053
:10076300E0F9D0E0F8D0D0D0E032CAC0E0E0A3C5D1
:1007730082CCC582C583CDC583F0A3C582CCC58297
:10078300C583CDC583DAE6D0E0CA22C0E0E493A3F3
:10079300D39C5010E493A3C39C400AD0E0D0E0D094
:1007A300E00206FAA3A3A3D0E022C008C3E096F5B3
:1007B3000808A3E096420808A3E096420808A3E0CD
:1007C3009645087001D3D0082270090808082260F2
:1007D30016181818C6C333C608C633C608C633C6A8
:1007E30008C633C6D5E0EA22C09FF59FE473D09FC5
:1007F30022D083D082C09FE493C0E0740193C0E011
:10080300740293F59F227404800A740380067402B1
:1008130080027401C0E0F404120824D0E0120A76C6
:10082300222518F58210AF08F51840021519800823
:10083300F51840021519D2AF85198322C0E074F26E
:100843001203DCE589A2E75003121B63758900C21A
:10085300E87F0102043BBB0102E722C082C0838917
:10086300828A83BB0003E08002E493D083D0822298
:10087300C0D0251810AF08F518500205198008F5E7
:100883001850020519D2AFD0D0226016080808C646
:10089300C313C618C613C618C613C618C613C6D5BF
:1008A300E0EA22C3E0C696F608A3E0C696F608A3DC
:1008B300E0C696F608A3E0C696F622251810AF0800
:1008C300F518400215198008F51840021519D2AF22
:1008D30022C0E0E493A36C7009D0E0D0E0D0E00242
:1008E30006FAA3A3D0E022C3E09608A3E09608A3E8
:1008F300E09608A3E096A2D265D03322E06670109A
:1009030008A3E066700A08A3E066700408A3E06623
:1009130022E76670100809E766700A0809E766703F
:10092300040809E76622C3E096F008A3E096F008FE
:10093300A3E096F008A3E096F022E026F008A3E0F7
:1009430036F008A3E036F008A3E036F022E627F6F7
:100953000809E637F60809E637F60809E637F62206
:10096300E026F608A3E036F608A3E036F608A3E08F
:1009730036F622C0E0E8C0E0E58124FCF8E6A2E711
:10098300D0E0F8D0E022700422600D18C6C333C64D
:1009930008C633C6D5E0F41822E657F60809E65729
:1009A300F60809E657F60809E657F622E056F60870
:1009B300A3E056F608A3E056F608A3E056F622E0B5
:1009C30056F008A3E056F008A3E056F008A3E0565B
:1009D300F022E647F60809E647F60809E647F6086F
:1009E30009E647F622E4C396F608E496F608E49689
:1009F300F608E496F622C3E7960809E7960809E79E
:100A0300960809E79622C6F4C608C6F4C608C6F4D3
:100A1300C608C6F4C622600D08C6A2E713C618C6E8
:100A230013C6D5E0F322C3E09608A3E09608A3E03B
:100A33009608A3E0962275D000758140751801755C
:100A4300190300020493E0F608A3E0F608A3E0F616
:100A530008A3E0F622600C08C6C313C618C613C663
:100A6300D5E0F422E6F008A3E6F008A3E6F008A335
:100A7300E6F022CAC0E0E6F0A308DAFAD0E0FA22F0
:100A8300E0FAA3E0FBA3E0FCA3E0FD22EAF0A3EB82
:100A9300F0A3ECF0A3EDF022E5C754F84401F5C749
:100AA3007901222518F582E43519F58322C2AF7541
:100AB300D69F020000221207F42AE4021207F40967
:100AC30025001207F41B25001207F46D25001207F9
:100AD300F4CE25001207F45826001207F4FC260072
:100AE3001207F45027001207F46927001207F48F46
:100AF30027001207F4CA27001207F40E2800120772
:100B0300F43528001207F48628001207F43629006A
:100B13001207F4EE29001207F4B62A001207F4763E
:100B23002B001207F4BA2B001207F4DF2B00120775
:100B3300F4222C001207F46F2C001207F4C72D00C7
:100B43001207F44D2E001207F46B2E001207F495D2
:100B53002E001207F4AF2E001207F4BE2E00120768
:100B6300F4C92E001207F4892F001207F4E22F00B4
:100B73001207F4A430001207F4AC30001207F4702B
:100B830031001207F4DC31001207F40733001207B7
:100B9300F41833001207F48E33001207F4203400E4
:100BA3001207F47834001207F43835001207F45FA3
:100BB30035001207F47135001207F4C4350012072B
:100BC300F40136001207F40E36001207F4913700D1
:100BD3001207F4E638001207F41839001207F4ABD1
:100BE30039001207F4E439001207F4303A0012070F
:100BF300F44C3B001207F4953D001207F4A03D00AE
:100C03001207F4AB3D001207F4B53D001207F4C020
:100C13003D001207F4DA3D001207F4E43D00120729
:100C2300F4EE3D001207F4F93D001207F4213E00F3
:100C33001207F47C3E001207F4A03E001207F4C42E
:100C43003E001207F4223F001207F4663F0012072A
:100C5300F4823F001207F4F93F001207F431400019
:100C63001207F47D40001207F4DA40001207F494EF
:100C730041001207F47843001207F4D1430012072E
:100C8300F40145001207F42745001207F4B04600AB
:100C93001207F42C4A001207F4FE4B001207F4C7A4
:100CA3004D001207F4744E001207F4DF4F001207D1
:100CB300F47E50001207F4C350001207F42D5100C4
:100CC3001207F43C51001207F4C353001207F475E2
:100CD30055001207F4E255001207F4C1560012073B
:100CE300F4DA57001207F45759001207F476590043
:100CF3001207F4CB59001207F4D05A001207F4F884
:100D03005A001207F4505B001207F42F5C0012071D
:100D1300F4735C001207F4BE5C001207F4295D0053
:100D23001207F46A5E001207F4CE5E001207F41C89
:100D330060001207F47C62001207F4AD6200120730
:100D4300F46564001207F4BA64001207F4BE650088
:100D53001207F45B66001207F4B466001207F46727
:100D630067001207F40968001207F4A96800120764
:100D7300F44E69001207F4E481011207F42382019F
:100D83001207F46A84011207F4B484011207F4CF42
:100D930085011207F43F86011207F47486011207D6
:100DA300F4E887011207F46B8A011207F4948B01AC
:100DB3001207F42A8C011207F43295011207F4C7C3
:100DC30095011207F4AE98011207F4A199011207D5
:100DD300F4029A011207F41E9B011207F4039D010A
:100DE3001207F4149F011207F47E9F011207F450B7
:100DF300A0011207F407A1011207F411A1011207C0
:100E0300F43FA1011207F4FCA1011207F4D3A201DC
:100E13001207F49AA3011207F44CA4011207F47504
:100E2300A4011207F497A4011207F4EDA601120717
:100E3300F4C5A7011207F409A8011207F471A80168
:100E43001207F429A9011207F45BA9011207F49F01
:100E5300A9011207F4D5A9011207F421AA01120767
:100E6300F476AA011207F47BAA011207F4CEAA01B1
:100E73001207F4F3AA011207F402AC011207F46695
:100E8300AC011207F4D6AC011207F462AD011207EC
:100E9300F42FB0011207F413B1011207F496B20153
:100EA3001207F4CCB4011207F47AB5011207F42A3D
:100EB300B6011207F46BB8011207F40EB901120759
:100EC300F455B9011207F401BB011207F415BB0174
:100ED3001207F41FBB011207F447BB011207F453B7
:100EE300BB011207F472BB011207F457BD011207CD
:100EF300F48EBD011207F498BD011207F4CEBD01B3
:100F03001207F41DBF011207F461BF011207F409B0
:100F1300C0011207F4ECC0011207F497C1011207D4
:100F2300F4E3C2011207F4E1C3011207F487C40119
:100F33001207F417C5011207F42EC5011207F46551
:100F4300C5011207F46FC5011207F47AC501120730
:100F5300F498C5011207F4DCC5011207F439C60180
:100F63001207F45EC6011207F478C6011207F404EF
:100F7300C7011207F421C8011207F48EC801120732
:100F8300F475C9011207F49CC9011207F410CA01D0
:100F93001207F48BCA011207F48FCB011207F485F1
:100FA300CC011207F434CD011207F447CE01120726
:100FB300F4E3CE011207F470CF011207F44ED0010F
:100FC3001207F486D0011207F4DED0011207F4A74A
:100FD300D1011207F4C8D1011207F44FD20112074D
:100FE300F473D2011207F495D2011207F4DED20191
:100FF3001207F4F4D4011207F4DBD5011207F48CC1
:10100300D6011207F4C2D8011207F412D90112074C
:10101300F452D9011207F494D9011207F4F0D9015B
:101023001207F41EDA011207F442DA011207F495EB
:10103300DA011207F4C3DA011207F4FCDA0112072A
:10104300F451DB011207F4B7DB011207F40BDD01E6
:101053001207F42EDF011207F49BDF011207F4C419
:10106300DF011207F44FE0011207F4B6E0011207A3
:10107300F401E1011207F425E1011207F449E1014A
:101083001207F4A4E1011207F4BFE1011207F47897
:10109300E2011207F4D4A6041207F413A7041207FB
:1010A300F47880021207F4BE80021207F49E8102D4
:1010B3001207F4A082021207F4A383021207F42F8B
:1010C30085021207F48D85021207F44A860212077D
:1010D300F46887021207F4D987021207F41588020D
:1010E3001207F46388021207F46D88021207F4B141
:1010F30088021207F40D89021207F4A88902120765
:10110300F4258A021207F4F48A021207F48D8B0283
:101113001207F4AD8B021207F4E38B021207F414E7
:101123008C021207F4D58C021207F4E58C02120725
:10113300F4398D021207F4548D021207F4668D02FE
:101143001207F46F8D021207F4C98D021207F425FA
:101153008E021207F4718E021207F48C8E021207AC
:10116300F4BD8E021207F4DA8E021207F4E68E0241
:101173001207F45A90021207F47390021207F4DA7A
:1011830090021207F4ED90021207F4FB900212078B
:10119300F4AF91021207F49392021207F4999302A7
:1011A3001207F42394021207F42D94021207F49AFF
:1011B30094021207F4B194021207F4E394021207A3
:1011C300F41C95021207F44695021207F4A7950240
:1011D3001207F4C795021207F4E595021207F42BE0
:1011E30096021207F45197021207F49E9702120710
:1011F300F4CD97021207F44398021207F46B980296
:101203001207F4A498021207F4B298021207F40A20
:1012130099021207F45999021207F49899021207D6
:10122300F4C899021207F4F499021207F4FF990221
:101233001207F41D9A021207F4DF9A021207F4E967
:101243009A021207F4249B021207F43A9B02120734
:10125300F48F9B021207F4A39B021207F4B19C02C2
:101263001207F4C49C021207F4D99C021207F47B00
:101273009D021207F4FE9D021207F4BC9E021207A0
:10128300F4C79E021207F4F39F021207F40FA002A1
:101293001207F461A0021207F4A0A0021207F4B52A
:1012A300A0021207F417A1021207F4A6A102120763
:1012B300F4F1A1021207F442A4021207F4C0A4023B
:1012C3001207F435A5021207F457A7021207F46FA9
:1012D300A7021207F472A7021207F47EA7021207ED
:1012E300F492A7021207F49AA7021207F4CDA702F9
:1012F3001207F47DA8021207F4F3A8021207F4669A
:10130300A9021207F41AAA021207F4CFAA021207BB
:10131300F4EEAA021207F48EAB021207F49AAB02A0
:101323001207F4C5AB021207F4C8AB021207F4327A
:10133300AC021207F45AAD021207F432AE021207DE
:10134300F4BDAE021207F4D6AF021207F493B00253
:101353001207F4CCB0021207F4FDB0021207F4BB7B
:10136300B1021207F4EBB1021207F4C6B20212077C
:10137300F45FB3021207F4EAB3021207F49BB40258
:101383001207F41EB5021207F450B5021207F491C6
:10139300B5021207F404B7031207F465B703120783
:1013A300F4A2B7031207F4F5B7031207F42CBA0338
:1013B3001207F4FCBB031207F46BBF031207F4A27A
:1013C300BF031207F4C0BF031207F436C0031207AA
:1013D300F45EC0031207F48FC0031207F4BFC00307
:1013E3001207F41BC1031207F429AB031207F4A776
:1013F300AB031207F4DDAB031207F449AC03120786
:10140300F4BCAD031207F4D8AD031207F41DAE0309
:101413001207F4AAAE031207F403AF031207F42F63
:10142300B0031207F43DB1031207F49AB103120794
:10143300F406B2031207F467B2031207F4A8B20367
:101443001207F455B3031207F467B4031207F4AA9F
:10145300B4031207F4F8B4031207F42FB503120709
:10146300F4D2B5031207F48DB6031207F468A5048A
:101473001207F4617E001207F4727E001207F4C3B0
:101483007E001207F4087F001207F4B07F001207F2
:10149300F414A3041207F41B9A041207F4739B04B5
:1014A3001207F467C1031207F416C2031207F436D6
:1014B300C2031207F456C2031207F46AC2031207E7
:1014C300F4CAC2031207F4FAC2031207F484C40372
:1014D3001207F42DC5031207F40FC6031207F462B3
:1014E300C6031207F4A6C6031207F4E9C6031207DC
:1014F300F454C7031207F475C7031207F4F8C703BC
:101503001207F42DC8031207F49DC8031207F4341D
:10151300CA031207F40ACB031207F44CCB031207D6
:10152300F440DA021207F49B96041207F4BC960403
:101533001207F4F297041207F41C98041207F40D2F
:10154300FD031207F486FD031207F491FD0312074E
:10155300F4B2FD031207F4149F031207F4179F0359
:101563001207F4D19F031207F4FC9F031207F442FE
:10157300A0031207F467A0031207F488A00312075D
:10158300F40CE4021207F4F4A0031207F41DA203FF
:101593001207F44CA2031207F46CA2031207F4041B
:1015A300A3031207F4C7A3031207F4FCA303120750
:1015B300F464A5031207F407A6031207F4FFA603B6
:1015C3001207F434A7031207F494A7031207F45481
:1015D300A8031207F482A8031207F409AA03120747
:1015E300F48AAA031207F4BDAA031207F4BACB03C1
:1015F3001207F4C4CB031207F410CC031207F47ED2
:10160300CC031207F49FCC031207F4B6CC031207E2
:10161300F466CD031207F423D0031207F42CD0038E
:101623001207F47FD0031207F4A8D0031207F406BD
:10163300D1031207F497D1031207F4D3D10312078E
:10164300F41FD2031207F486D2031207F4BFD203A6
:101653001207F445D3031207F484D3031207F4C526
:10166300D3031207F4FCD3031207F40ED4031207B7
:10167300F420D4031207F43FD4031207F448D4032D
:101683001207F400D5031207F440D5031207F49EA2
:10169300ED031207F473EE031207F48DEE03120742
:1016A300F49EEE031207F4B7F0031207F4D6F00327
:1016B3001207F48092041207F4B692041207F4019D
:1016C30093041207F44F94041207F49A6900120763
:1016D300F4E56A001207F4216B001207F4D86C00DA
:1016E3001207F4016D001207F4996F001207F4D981
:1016F3006F001207F47A71001207F41472001207D4
:10170300F47C72001207F40973001207F4417300AA
:101713001207F48173001207F41475001207F4B36F
:1017230076001207F40279001207F43079001207E9
:10173300F45C79001207F46579001207F4C07900AC
:101743001207F4567A001207F47F7D001207F4049F
:101753007E001207F4F5A7041207F40BA80412077E
:10176300F40080041207F41580041207F4B2800415
:101773001207F4EE80041207F40581041207F42C17
:1017830081041207F47181041207F4A28104120781
:10179300F4DA81041207F46283041207F436A60410
:1017A3001207F4839E041207F4B99E041207F4D5BA
:1017B3009E041207F4179F041207F4239F041207D1
:1017C300F4B89F041207F4C29F041207F45492035F
:1017D3001207F47093031207F4BC94031207F47E08
:1017E30095031207F4BA95031207F45096031207F0
:1017F300F41197031207F42397031207F4FB9903D9
:101803001207F4689A031207F40A9B031207F459A8
:101813009C031207F4B09C031207F4379D031207CD
:10182300F4139E031207F4A19E031207F40080032E
:101833001207F45880031207F44481031207F4E6F5
:1018430081031207F43082031207F496820312070E
:10185300F40F83031207F42383031207F41E850393
:101863001207F49985031207F4D085031207F4B61F
:1018730087031207F4CD87031207F41888031207AE
:10188300F42E88031207F43B88031207F46F8803CE
:101893001207F48F88031207F42089031207F42B2D
:1018A30089031207F48989031207F4E389031207F2
:1018B300F4368A031207F4498B031207F4AD8D0340
:1018C3001207F4DE8D031207F4778E031207F4E197
:1018D3008E031207F4E68E031207F4228F03120716
:1018E300F47B8F031207F46190031207F48B9003C8
:1018F3001207F49590031207F49890031207F40863
:1019030091031207F43191031207F4449103120770
:10191300F47091031207F4AB91031207F4AE910331
:101923001207F4EA91031207F4FD91031207F4245A
:1019330092031207F486A6041207F49EA604120764
:10194300F4C9F7021207F418F8021207F4C7F902F0
:101953001207F48EFB021207F4D2FB021207F4F90A
:10196300FC021207F42AFE021207F44CFE021207CD
:10197300F4A8FE021207F42AFF021207F4B2E201EE
:101983001207F4DDE2011207F4C7E3011207F44D75
:10199300E4011207F4B6E4011207F4FEE4011207AE
:1019A300F48FE5011207F424E6011207F4B9E60106
:1019B3001207F4FAE6011207F485EB011207F41398
:1019C300ED011207F44CED011207F40EEE011207BC
:1019D300F411EE011207F4BEEE011207F4F8EF0161
:1019E3001207F465F2011207F40BF3011207F42155
:1019F300F4011207F4C3F4011207F48EF501120780
:101A0300F411F6011207F451E4021207F40DE50292
:101A13001207F48AE5021207F499E5021207F42289
:101A2300E6021207F49AE6021207F4A9E702120784
:101A3300F4D2E7021207F47AE8021207F4CDE802BF
:101A43001207F439E9021207F408EC021207F4A9A9
:101A5300EC021207F40DED021207F4A3EE021207D3
:101A6300F45BEF021207F4F8EF021207F459F002E5
:101A73001207F4D3F0021207F4D6F1021207F46C42
:101A8300F3021207F47CF4021207F421F5021207A1
:101A9300F492F5021207F463F6021207F4E18804E4
:101AA3001207F43189041207F48D89041207F4D85C
:101AB30089041207F4338A041207F4DB8A04120739
:101AC300F4448B041207F4518B041207F42A900494
:101AD3001207F45B90041207F41591041207F47BC8
:101AE30091041207F4EC91041207F403840412071F
:101AF300F48F85041207F407A4041207F418A4044E
:101B03001207F4B8A4041207F46C98041207F47AC9
:101B130098041207F433A8041207F4D2A40412079A
:101B2300F4E2A4041207F4FDA4041207F45EA5046E
:101B33001207F410A2041207F495A2041207F4FB8F
:101B4300A2041207F42D9D041207F44C9D041207FE
:101B5300F4A29D041207F4B79D041207F4059E0432
:101B63001207F4639E041207F4A9DA031207F4BE02
:101B7300DA031207F4E0DB031207F423DC03120792
:101B8300F43DDC031207F4BBDC031207F4DADD03D4
:101B93001207F43DDE031207F455DE031207F47C4B
:101BA300DE031207F490DE031207F4A9DE03120723
:101BB300F4C8DE031207F4ECDE031207F40FDF03AD
:101BC3001207F460DF031207F4FCF5031207F40AAB
:101BD300F6031207F484F6031207F468F7031207F7
:101BE300F421F9031207F4D3A7041207F469D50308
:101BF3001207F4D6D5031207F497D6031207F40796
:101C0300D7031207F412D8031207F493D903120768
:101C1300F4F7D9031207F44CDA031207F455DA0385
:101C23001207F464DA031207F477DA031207F48D68
:101C3300DA031207F496DA031207F495DF031207A7
:101C4300F4EADF031207F4E6E1031207F418E203F0
:101C53001207F43AE2031207F453E2031207F46C97
:101C6300E2031207F476E3031207F411E403120705
:101C7300F4C29B041207F4E69B041207F4FF9B04CF
:101C83001207F43E9C041207F4719C041207F4A19A
:101C93009C041207F4099D041207F40C9D04120717
:101CA300F4169D041207F4239D041207F43A8604E4
:101CB3001207F46286041207F4A386041207F4B52C
:101CC30086041207F4D086041207F4388704120737
:101CD300F44487041207F4A387041207F4C78704A4
:101CE3001207F48888041207F49588041207F4A6EF
:101CF30088041207F461A7041207F47EA7041207ED
:101D0300F494E4031207F4F4E5031207F4FAE50389
:101D13001207F411E6031207F432E6031207F4483C
:101D2300E6031207F45CE6031207F4DBE60312078B
:101D3300F440E7031207F4D6E7031207F4AFE8030E
:101D43001207F4BFE8031207F4CEE8031207F461A5
:101D5300FF021207F485FF021207F4ADFF02120718
:101D6300F4D5FF021207F4608B041207F4878B0487
:101D73001207F4A88B041207F41A8C041207F4CC8C
:101D83008D041207F4E58D041207F4FC8D04120789
:101D9300F4058E041207F4238E041207F42D8E0427
:101DA3001207F4378E041207F44A8E041207F49FC5
:101DB3008E041207F4D88E041207F4068F04120758
:101DC300F4578F041207F4A38F041207F4BE8F0491
:101DD3001207F4C88F041207F4D98F041207F41FF3
:101DE30090041207F4E5A5041207F4A1F601120703
:101DF300F4CDF6011207F4EBF6011207F4FEF60137
:101E03001207F419F7011207F478F7011207F4A681
:101E1300F7011207F4B5FB011207F4FAFC011207EC
:101E2300F42CFD011207F498FD011207F4E1FE0101
:101E33001207F409FF011207F41EFF011207F42E23
:101E4300FF011207F46EFF011207F4BAFF01120734
:101E5300F4CAFF011207F4C59F041207F4D59F04C7
:101E63001207F4F39F041207F40EA0041207F435CB
:101E7300A0041207F456A0041207F470A00412077A
:101E8300F4A8A0041207F4CBA0041207F41DA704BE
:101E93001207F486F9031207F48DF9031207F4AA63
:101EA300FA031207F4DAFA031207F400FB0312072A
:101EB300F433FB031207F445FB031207F481FB031E
:101EC3001207F4E7FB031207F423FC031207F46A77
:101ED300FC031207F497FC031207F4B8FC03120780
:101EE300F4B294041207F4CA94041207F4B89504E4
:101EF3001207F49896041207F4FDA0041207F46F76
:101F0300A1041207F4ADA1041207F4EEA104120711
:101F1300F42FF2031207F44EF2031207F49DF203B7
:101F23001207F4B9F2031207F4EAF2031207F4FA00
:101F3300F2031207F407F3031207F414F30312076F
:101F4300F4FCF3031207F43AF4031207F444F40322
:101F53001207F457F5031207F462F5031207F4743A
:101F6300F5031207F47DF5031207F487F50312074F
:101F7300F4FFE8031207F426ED031207F434ED032C
:101F83001207F4CD7F001207F49DA7041207F4D4BF
:101F9300FF031207F415A8041207F4A2D7021207CD
:101FA300F46BD6021207F4BFD5021207F405D4026C
:101FB3001207F4B5D1021207F43CD1021207F4E37D
:101FC300D0021207F473D0021207F44AD0021207A8
:101FD300F42ACE021207F4F6CD021207F4C3CD029F
:101FE3001207F4A7CD021207F4C0CC021207F4784B
:101FF300CC021207F4C3CA021207F443CA0212073F
:10200300F440CA021207F441C9021207F40FC902CD
:102013001207F44CC8021207F477C6021207F4D869
:10202300E2021207F435E2021207F4E8E0021207B3
:10203300F493DE021207F429DE021207F408C60243
:102043001207F4DAC5021207F4D7C5021207F4C463
:10205300C5021207F4E1DD021207F46FC50212078D
:10206300F45EC5021207F450C4021207F41AC40244
:102073001207F453DD021207F4BCA0031207F4C8DD
:10208300C3021207F469C3021207F438C30212072A
:10209300F400C0021207F4C0BF021207F4B4BF0277
:1020A3001207F414BF021207F454BE021207F4D647
:1020B300BB021207F467B9021207F425B90212072B
:1020C300F4F9B7021207F4AEB7021207F4EDB60241
:1020D3001207F430B6021207F4C6B5021207F40071
:1020E300B6021207F446DD021207F4A6CB03000082
:1020F3000080FBE473000136360101000102010098
:1021030001030100010401060605020000070100A6
:10211300340801000F090401010D0100FF0E08003E
:102123000017020000190100FF1A0100011B010042
:10213300FE1C0100081D0200001F01000120010018
:1021430001210200002301000F24020000260100E8
:102153000127010008280200FF2A0100072B0102C2
:10216300402C0100002D0100012E0100012F010070
:10217300FF30010B1C310800003A0100083B01004D
:102183000F2F01000003027102300160021102707F
:10219300020102020202028002100261023A0041BD
:1021A30000630273027202620243020002130238E6
:1021B30000000200020402120200020002000200F8
:1021C3000204020402370037003C024402000239D1
:1021D30000000200026502000235028102000205CE
:1021E30002820283020002030071003001600011C9
:1021F30000700031022003500480001000610000D1
:1022030000140063007300720062004300000013B7
:10221300000600000000000400120000000000009F
:1022230000000004000400370037003C02440000B3
:102233000000000000000065000000350081000080
:102243000005000000830000000304710402046021
:102253000411047004020402040104020410046162
:10226300040004140463047304720462044304004A
:10227300041304060400040004040412040004000C
:102283000400040004510464000004000400044436
:102293000400040004000400046504000435048100
:1022A30004640005040004830400040103710301B2
:1022B30003010301030103010322030203010310CA
:1022C30003000300030003000300030003000342B1
:1022D300030003240306030003000304031203257E
:1022E3000323032503230304030403000300030060
:1022F30003440300030003230300036503210035A4
:1023030003810300030503000300030003010171BC
:1023130001010101011101010131010101010180EB
:1023230001100161013B001400630173017201623A
:102333000143010001130106013D013500040112AF
:102343000100010001000100010401040133013314
:10235300013C014401320136000001000165010026
:10236300013500810100010501820183010001366D
:10237300000100060000000F000000000000000044
:10238300000000000003FFFF00000403FFFF000044
:10239300FFFF0FF4010005C4040320000100000B3C
:1023A300000000000000000003010F0000431A13A7
:1023B30000DD190100431A0200951903009B19045B
:1023C30000A1190500A7190600B3191100D11914AA
:1023D30000D7191500C519FFFF000001BF0D06E95D
:1023E3000D08E30D0B010E103B0D02C50D05D70DB6
:1023F30007CB0D0CA10D0DB30DFF000003EAF5E5AE
:10240300D5D5C5B5A5959585857575656555554529
:102413004535352525151505DF110F12E511EB118E
:102423000912FD11F71115121B1221122D12F111B0
:10243300D911D31100160F00000B150B0200022255
:102443000F32000006CF12E112E712A911ED12A319
:1024530011AF11E310DD1019111F111311CB102F40
:10246300134D135313351341133B133030161819FF
:1024730020231A1C1E300C0E020B040B0A07080043
:102483000F00383C3E363B3B352B432C303017187E
:102493001921301B1D1F300001191618161615239C
:1024A300030000034948424D18172505022313F37F
:1024B30012F9120513FF12031227124713331239AD
:1024C30012020402010101010902EF10F510E910E3
:1024D3002511000000000000FB100D1100BE040ACE
:1024E3000E00150004007F00E8030C002800000024
:1024F30000000308100C0A03080900040001FF1E72
:102503001E0C05040F08C082C0838A828B83E0D22D
:10251300E7F01218F30235BDC082C0837900122997
:10252300D5125926C082C0839003341246ACD0839F
:10253300D082C3E09CA3E09D500C125FFAFAA3E0A3
:1025430012254C6001090235BDFBEA75F00BA4FAB4
:10255300A8F075F00BEBA428FB900336E02AF8A350
:10256300E03B8882F583E0540F2274F712037089ED
:10257300081229D5122A7BACF075F00BE9A42CF9CB
:10258300900336E028FEA3E039FF74016508600676
:102593007402650870208A828B83122A6712399D20
:1025A30074026508701B122926122AAE70138E82DC
:1025B3008F83E4F0800BEA2403FCEB122A49122AEE
:1025C30055EEFAEFFB120ABF0238FA74F4120370E5
:1025D30012692179008E828F83E06076890A890BE4
:1025E3008065E50A75F00BA4FAA8F075F00BE50B0E
:1025F3001225597046E50A75F00BA4F8AAF075F098
:102603000BE50B122A8D8E828F83E0850882850964
:1026130083122B6F850882850983A312399DEE24CB
:1026230003FCEF122A5212377B1253A0AA08AB09FC
:10263300120ABF7901900334124DB5E50A2401F55E
:102643000AE50B3400F50B12292EE50A9AE50B9BDC
:102653004090023B4774F5120370EAFEEBFF740BE4
:10266300120AA6123780750A01EC4D602BEC126931
:102673003DED1259261239957901120ACBE5084529
:1026830009606F850882850983A312692B7902AAE1
:1026930008AB09120ACB805AE5084509602B125989
:1026A3002A123FF412377C122A98700CEEFAEFFBD1
:1026B300120AD1E9F50A80CBEE2403FA1229D0706D
:1026C300317903EEFAEFFB80CA8E828F83A3E06435
:1026D300FE7003A3E0F4700BEE24030A0A0A122926
:1026E300D0700CEEFAEFFB120AD1E9F50A800375FC
:1026F3000A00A90A7F030205CF74F712037090033F
:102703003412390AEA4B602FEA75F00BA4FAA8F0E9
:1027130075F00BEBA428FBEAFEEBFF1216BF900348
:102723003612390A900336124BFA6012EEFCEFFDB3
:1027330079001215FF8007900336E4F0A3F0023806
:10274300FA900334124364C3EE98EF9922C082C017
:1027530083EC4D6005121F0B80097C087D00790016
:102763001215FF0235BD74F61203707900EA4B604F
:102773001878008808125C6DEB125FF6600479012B
:10278300780808E8C3940840EA0239A674F71203EC
:102793007074F31208BEECFEEDFF85188285198371
:1027A300E4F004120AA6EAF0A3EB12512674031212
:1027B3000AA6AC82AD83EEFAEFFB120AE3EEFAEF60
:1027C300FB120AE90238F574F712037074F3120866
:1027D300BEECFEEDFF851882851983E4F0EAFCEB7D
:1027E300FD7403120AA6122B687401120AA6123989
:1027F300918E828F8312399D74FE68700374FF6912
:1028030060047901800279000238F574F7120370CD
:10281300EAFEEBFF12286C70141228778E828F83E6
:10282300E0F4F88A828B83E058F0120ABFA9080209
:1028330038FA74F7120370EAFEEBFF7508008E8214
:102843008F83E0602212286C701D1228778A828B96
:1028530083E08F838E82F8E058700CE0F88A828BD5
:1028630083E048F0120ABF80C4120AC5E9F5087470
:1028730001650822126936122A7F1229C1FAA3E0E0
:1028830039FB2274F41203708A088B097C007D00E3
:10289300122926122A551229E61269287900850879
:1028A30082850983A3E064FE7003A3E0F460717E74
:1028B300007F008062EEFAEF12254C6057EEFAEFCC
:1028C300FBEA75F00BA4FAA8F075F00BEBA428FB58
:1028D300900336E02AF50AA3E03BF50B85088285D1
:1028E3000983A3125074850A82850B83A3E06A705F
:1028F30003A3E06B701EE50A2403FAE50B1229D14A
:10290300700AE50A2403FCE50B122A521229DA792C
:102913000112593C1232C512292EEE9AEF9B4095B3
:10292300023B47EA24030A0A0AEB229003341255B6
:1029330013C32274F31203708A088B098A828B8370
:10294300A312692B1229D5126928750C00122926A6
:102953001229D170547E007F0080491229B3FAA353
:10296300E0398A82F583E0540F60361229B3F50A01
:10297300A3E039F50BE50A2403FCE50B122A5C34CA
:1029830000FB121F05E964017017850A82850B831A
:10299300A31255D4A312399D1229DA750C011259C9
:1029A3003C1232C512274440B2A90C7F050205CF61
:1029B300EEF8EFF9E875F00BA4F81229C122AAF09A
:1029C30075F00BE9A42AF9900336E02822EF122AC6
:1029D300A82212693CEB221229E6125937EEF0A322
:1029E300EFF022E50812693DE5092274F512037040
:1029F300EAFEEBFF8E828F83A312692B7C007D009E
:102A0300EE24030A0A0AEF122A55EEFAEFFB120A22
:102A1300C5E9F50A7401650A7029126936122A7B21
:102A2300AAF075F00BE9122A8D850882F583122A24
:102A330067122A98700DE5082403FCE509122A4958
:102A4300122A550226F53400FDEE2403FAEF221272
:102A53002A5C3400FB120AE3223400FDE508240358
:102A6300FAE50922A3122A6C22122A7022E0F8A3A3
:102A7300E0F98E828F83A322122A7F223400F5830A
:102A8300124368E875F00BA4F8221229C7F508A3CE
:102A9300E039F50922E8F0A3E9F0E5082403FAE5B3
:102AA30009122AA822122AAE6401223400FB120A58
:102AB300E9E92274F312037074E61208BE12692165
:102AC300750C01750800750900750A00750B008502
:102AD3001882851983E4F0EE2403FCEF3400FD74BF
:102AE30003120AA6122B68E964017023740B120AFD
:102AF300A61239957401120AA61250787003A3E046
:102B030069605185188285198385820885830974D4
:102B13000D120AA6E4122B6F740E120AA612399D27
:102B2300740D120AA6AA82AB83120B07E964017023
:102B33000B740D120AA685820A85830B780A120884
:102B430011AC08AD09EEFAEFFB120AD774021208B2
:102B530073E9F50CEEFAEFFB120B01A90C741A12D0
:102B630008730229AE122E3B120B0D2212390512E5
:102B7300436422C082C083780079008003122C66EC
:102B830012292EE89AE99B5029E8FAE9FBEA75F045
:102B93000BA4FAACF075F00BEBA42CFB900336E01E
:102BA3002AFCA3E03B8C82F583E0540F70CF7900BD
:102BB300800279010235BDC082C0839024E51243AF
:102BC300BAEC75F012A4FCA8F075F012EDA428FD80
:102BD30079FF7A917B091215FF0235BD74F7120351
:102BE30070E9FEEAFF7A007B00780079008028E82C
:102BF300FCE9FDEC75F012A4FC85F00875F012ED0C
:102C0300A4250812307BC39E400AE0FCEFC39C401E
:102C13000312319A122C6612306F40D30238FAC075
:102C230082C083780079008003122C66122C5A50DC
:102C33001F12307FF470F2E875F012A4F8AAF07551
:102C4300F012E9A42AF9749128FA740939FB800473
:102C53007A007B000235BD9024E5123130C3E89A37
:102C6300E99B22E8240108E93400F92274F01203F5
:102C73007074F31208BE8A0A8B0B8C0C8D0D8908B5
:102C8300EC450D6016AA0CAB0D120B5B8A0E8B0F75
:102C9300AE0EAF0FEE4F6003022D2D120B318A0ED5
:102CA3008B0FA80EA90FE8FEE9FFE849607C90248A
:102CB300F3122D8F6022740365086006740465089F
:102CC30070167A047903120B2B9024F3122DA6406D
:102CD300077A007B00022D8C9024F1122D8F601B4C
:102CE30074016508600674026508700F7A02790141
:102CF300120B2B9024F1122DA650D685188285191C
:102D0300837401F0120AA61253A0AC0CAD0D740328
:102D1300120AA6122E34740B120AA6123788123D19
:102D23007DE41253881210238004EE4F604A78002A
:102D330074FF2508C39404500278048E828F831293
:102D430053A08E828F83A3A3A3A3E508F0E88E820A
:102D53008F83A3A3A3A3A31253A812021F12314765
:102D63008E828F83A3A3A3A3A3A3A3F012313E1246
:102D73000A83125920120A8F122D944005900EEDEA
:102D8300E4F0120EFDEEFAEFFB02436E1254C24959
:102D9300227A047900120B2B9024E5125FDCEA9867
:102DA300EB9922122DBF7583247582E5E493C398B2
:102DB300F8A3E49399F9C3EA98EB9922E493F8749E
:102DC3000193F92274F212037074F31208BE8A0895
:102DD3008B09ECFEEDFF750A00EEFAEFFB120B5BBD
:102DE3008A0C8B0DA80CA90DE849603E8882898363
:102DF300E065087004A3E06509602F88828983A3D6
:102E0300A3A3A3E0C3940550211257CE851882854E
:102E130019837401F0120AA61257D2EEFCEFFD7467
:102E230003120AA6122E34750A01A90A740D024E62
:102E33006C122E3B120B1922AA82AB83120AE38572
:102E43001882851983AA82AB832274F61203701247
:102E53002E89600FA3A3A3A3E014C39404500479A1
:102E630001800279000239A674F6120370122E89CA
:102E7300600FA3A3A3A3E014C394025004790180B9
:102E83000279000239A6120B558A828B83E58245AB
:102E9300832274F6120370122E89600BA3A3A3A3DB
:102EA300E070047901800279000239A6C082C083F0
:102EB300EAFCEBFD7A007B000235BAC082C0837C5A
:102EC300007D000235BA74F412037074F31208BE65
:102ED300EAFEEBFF8C0A8D0BC3EC94F8ED94FF40F4
:102EE30007EE4F7003022F82750800750900802ECC
:102EF3008518828519837401F01232ED120AA61225
:102F030032FB60137403120AA6AC82AD83EEFAEFB0
:102F1300FB121F05E97049E508240112311B9024B7
:102F2300E5E41254CAE50898E509995052E5087595
:102F3300F012A4F8AAF075F012E509A42AF91260B8
:102F43000F60D4EE4F70A974FF650A700474FF65B7
:102F53000B60C41232DD650A7004A3E0650B70B721
:102F6300E50875F012A4F508A8F075F012E509A4B8
:102F730028F50974912508FA74093509FB80047A48
:102F8300007B00023B4274F412037074F31208BE18
:102F9300750800120B5B8A0A8B0BAE0AAF0BEE4F60
:102FA300602A85188285198374011238FFF8A3E01B
:102FB300F9740B120AA6123A20120AFB7C127D0046
:102FC30079FFEEFAEFFB1215FF750801122D9450ED
:102FD30009900EED7401F0120EFDA908023B427434
:102FE300F7120370E9FE74FE6A700374FF6B7800D6
:102FF300790070058052122C6612306F504AE8FC3B
:10300300E9FDEC75F012A4FCAFF075F012EDA42FFE
:1030130012307BF460E0E8FCE9FDEC75F012A4FCEF
:1030230075F012EDA42FFD74912CF58274093DF512
:1030330083E06A7003A3E06B70BC800912307F14D5
:10304300C394044017122C66122C5A5018EE70ECDD
:1030530012307F64016005E0640370E91232CEFA36
:10306300A3E0FB80047AFE7BFF0238FA9024E5128A
:1030730043BEC3E89CE99D221231CF22E8FAE9FB63
:10308300EA75F012A4FAACF075F012EBA42CFB7401
:10309300952AF58274093BF583E022120B6D023504
:1030A300BDC082C083790180F274F01203708A0A72
:1030B3008B0B7A047901120B2B8A0C8B0DEA450DCD
:1030C300603EEAC333FAEB33FB1216BF8A088B095F
:1030D300AE08AF09EE4F60237AFE7BFF120B7374C9
:1030E300FE6A700374FF6B601B8508828509831277
:1030F300390AE508240212311B80E1750C008004B3
:103103007E007F00850A82850B83E50CF0EEFAEFE3
:10311300FB024373E5082407F508E5093400F509C4
:10312300229024E51243BEC3EA9CEB9D22E493FA6A
:10313300740193FB221215F3740322125931E4F044
:103143009081D122E88E828F83A3A3A3A3A3A3A3F9
:10315300A31231697401123169A3F0EE24101259DC
:1031630034E4F0A3F022123D89A3A3A322C082C0BA
:10317300837A007B0080041912319A123124501093
:103183001231B9C3940550F0E970EC1231A38004F5
:103193007A007B000235BDEA24010AEB3400FB22EE
:1031A300EA75F012A4FA75F012EBA428FB74912AC5
:1031B300FA74093BFB22EAFCEBFDEC75F012A4FC6C
:1031C300A8F075F012EDA4281231CF22FD74952CCE
:1031D300F58274093DF583E02274F712037074F3EA
:1031E3001208BE7E007F00023281E50875F017A445
:1031F300F8A9F0126270FAA3E0FBEEF8EFF9E875B4
:10320300F012A4F8ACF075F012E9A42C1232DC6AC7
:103213007003A3E06B603FE50875F017A4F8AAF00C
:10322300EA12626FF8A3E0F97401120AA6E068706B
:1032330003A3E0696020E50875F017A4F8EAF974C0
:103243000D28FC740B39FD7403120AA6AA82AB8302
:10325300121F05E96014E50875F017A4F8A9F074C6
:103263000B28FA740B39FB12102F05089024F7E48E
:1032730093F8E508C39850030231ED1232C5902448
:10328300E51265B65039EEF8EFF91232CEF4700359
:10329300A3E0F460E68518828519837401F0EEF8E3
:1032A300EFF9E875F012A4F875F012E9A42AF912FF
:1032B30032ED120AA61232FB60C175080080AD021E
:1032C30038F5EE24010EEF3400FF22E875F012A466
:1032D300F8AAF075F012E9A42AF91232E1227491E6
:1032E30028F582740939F583E022749328F58274F2
:1032F3000939124362740B22E8F0A3E9123A281247
:103303000B13E922C082C08390034174D1F0A374EC
:103313000DF00235BD74F7120370EAFEEBFF900364
:1033230077E06408601BE0640460168E828F83E09C
:1033330054036401704812377B123E73E0640670D5
:103343003D8E828F83A3A3E064FE7003A3E0F46049
:103353002D8E828F83A3A3123991900368E0687046
:1033630003A3E069700BEE2415F582EF125FF6609C
:1033730008120E8BE9F5088008120E9180F6750885
:10338300C2EEFAEFFB1216C502283074F412037072
:103393008A088B098A828B83E0F8A3E0FAE82AFA89
:1033A300E43400FB1216BF8A0A8B0BAE0AAF0BEE96
:1033B3004F6063850882850983E0FC7D00790012F4
:1033C30015FF8E828F83A3A312692B120ECD8E82DB
:1033D3008F83A3A3A3A312390A850882850983E0F7
:1033E300F8EE28F8EF3400123999850882850983AD
:1033F300A3E0C0E0EE240D125923D0E0F0120EDF5B
:10340300EE240E125923E9124FD5E0C0E0EE241149
:10341300125923D0E0F0EEFAEFFB023B4774F412AB
:10342300037074EB1208BE8A088B098C0A8D0BE9B2
:10343300FE900377E064046005E06408700479C2D9
:10344300802EA37808120A67EE90037E1235FB12D2
:103453000A677405120AA6E9F07404120AA6740135
:10346300F07407120AA6E4F0900377740212355839
:103473007415023B4474F612037074EB1208BEEA2F
:10348300FEEBFF124BF7600302351C7A077B001239
:1034930016BF90033912390A124BF760788E828F68
:1034A30083120A8390033A123E76120A8F1267EF51
:1034B300C0E0123528D0E0F0EE2405FAEF3400FB2B
:1034C3008A088B098A82F583E0C0E0123523D0E0B5
:1034D300123B3EE0C0E0123523A3D0E012397E1246
:1034E3000A83851882851983120A8F88828983E06B
:1034F300C0E07405120AA6D0E0F08508828509832E
:10350300E0C0E07404120AA6D0E0F07407120AA621
:10351300123557800679108002790174150239A398
:10352300123528A322900339E0FAA3E0F5838A82B7
:10353300A3A3A3A322C082C083124BF7600D900301
:1035430039125501900339E4F0A3F0120DFB120F69
:10355300CF0235BDE4123A28121F3B22C082C0833A
:10356300900338E070031219CB120BB5804CC08264
:10357300C083900338E0900EEC7004E4F0802D7467
:1035830001F0900338E0F460237C41E0C3944150A0
:1035930002E0FCECF8E0C398F0EC75F0E8A4CCA8EA
:1035A300F075F003A428FD7A801243C67AEC7B0EF3
:1035B3007941121F238003120B61D083D08202074B
:1035C300F174F412037074EB1208BE8A088B098C31
:1035D3000A8D0B90037774011235FB120A67740589
:1035E300120AA6E9F07404120AA67403F07407120F
:1035F3000AA612355702347312398978082274F7F0
:103603001203707C01120BC70238FA74F2120370B2
:1036130074FC1208BEE9851882851983F0EAFEEB73
:10362300FF8C0A9003751246AC120DEF8A088B09C2
:10363300EA4509700579CA0237768A828B83A3A388
:10364300A3A3A3A3A3E064FE7003A3E0F47005792E
:10365300C3023776900375125074121035850882B1
:10366300850983A3A3A3A3A3A3A3A3A3A3E0049074
:1036730003881238D97402120AA67402F014120ACB
:10368300A6AA82AB83120F398A0C8B0DAE0CAF0D39
:10369300EE4F700302376D12377B123FE87406F06A
:1036A300A3A882A98390036212553E124341F0EE10
:1036B300241312592374011253807440F0A3E412AB
:1036C3004FCEA3A312378812399DEE24111259232A
:1036D300E50AF0EEFAEFFB120B91E9FE6003023705
:1036E3006F9003777409F0123117AA08FB794B1214
:1036F3001F238508828509831238CB12399D9003D5
:103703006AE0F8851882851983E068600CE090030D
:103713006A123A2479E1121F23900F3E12399190D5
:103723000F40E0687003A3E069601A90033B12390D
:103733009D900F40125074120EF7900F401246AC3A
:103743007A011243C67A007B049003C2E0F9121790
:1037530085900F4012378074027808120989AC08EB
:10376300AD09FA7B041243C880027E109005B9E4C8
:10377300F0EEF97404024E6CEE12593222E0F508B1
:10378300A3E0F5092212378C22122A70A32274F5C2
:1037930012037074E21208BE851882851983ECF057
:1037A300A3EDF0EAFEEBFF89087429120AA6E0F5FF
:1037B30009742C120AA6E0F50A900377E06404600A
:1037C30005E06408700579C20238C3742A120AA698
:1037D300E064FE7003A3E0F4700579C30238C3907C
:1037E30003777403123A247950121F23742A120A9E
:1037F300A6AA82AB83794B121F238518828519836E
:103803001238D212399DE50890036AF0742A120A1D
:10381300A61238CB12399DE5099003621238D97488
:10382300CE55094480C0E07412120AA6D0E0F074A9
:1038330001250A900388F0740F120AA67402F0742B
:103843002A120AA61239917407120AA6E8F0A3E90C
:103853001239107410120AA612399D7405120AA6A1
:10386300E508F0741B120AA6E4F090037D740FF0D0
:103873007A7D7B037954121F2390037C740FF07AB3
:103883007C7B037947121F2390037CE0C3940F5082
:10389300237405120AA6E0C0E07402120AA6D0E05F
:1038A300F07404120AA67401F004120AA6AA82ABE9
:1038B30083121F477405120AA6AA82AB83121F291B
:1038C300741E1208730226F712436490036B2212CC
:1038D300436490037522F0EEFCEFFD7A897B0312BB
:1038E3001F0B2274F7120370EB90037FF0120DDDB0
:1038F3008005740D1208737F010205CF123905A3E9
:10390300E02212397EA322EAF0A3EBF022123984DB
:10391300F8A3E0F92274F712037074F81208BEEAF0
:10392300FEEBFF7900900377E0640870448518820A
:1039330085198374FDF0A374FFF0120EC77402128D
:103943000AA612390A7405120AA6E4123905E0C060
:10395300E07404120AA6D0E0123979C0E0740612AA
:103963000AA6D0E0F07407120AA6E4123A24120F52
:103973001B74080238F712397EE022F08E828F839F
:1039830022123989E022F085188285198322124395
:103993006422E0F8A3E0F9125931E8F0A3E9F02238
:1039A3001208737F020205CFC082C083900349745B
:1039B30081F0A3740CF09003EF7475F0A3740FF00F
:1039C30090034D74B7F0A3740CF090034F7481F01F
:1039D300A3740CF090035174BDF0A3740CF0023582
:1039E300BD74F412037074F91208BE8A088B098C33
:1039F3000A8D0B8518828519837808120A67740467
:103A0300120AA6E9F07405120AA6E4F07406120A73
:103A1300A6E4123A24120BA37407023B44E8F0A372
:103A2300E9123A2822123989AA82AB832274F4124A
:103A330003708A088B098A828B8312593FEE4F7079
:103A430003023B3C900312124BFA60158A828B836C
:103A5300A3A3E0F9EEFAEFFB900313123E761220D4
:103A6300F68E828F83A3A3A3A3A3A3A3A3A3E0643C
:103A73000270748E828F83A3A3A3A3A3A3E0540233
:103A83007003023B0E850882850983A3A3E064E9E2
:103A930060798E828F83A3A3A3A3A3A3A3A3A3A3CA
:103AA300E07014900F53E0048E828F83A3A3A3A32B
:103AB300A3A3A3A3A3A3F08E828F83A3A3A3A3A3F0
:103AC300A3A3A3A3A3E014123B3EA3A3A37404F0F4
:103AD300900F5412537AE8F0A3E91264538B0BEA64
:103AE300450B7003125E318E828F83A3A3A3A3A31E
:103AF300A3A3A3A3E0640260128E828F83A3A3A374
:103B0300A3A3A3A3A3A3E06406702E8E828F83A333
:103B1300A3A3A3A3A3E0A2E0501F85088285098382
:103B2300A3A3E0F9EEFAEFFB121FDD8E828F83A3CE
:103B3300A3A3A3A3A3E054FEF08009123D8522743E
:103B43000D1208737F040205CF74EC12037074DD49
:103B53001208BEEAFEEBFF8C088D097437120AA621
:103B6300780C120A49750A007405120AA6AC82ADD4
:103B7300831220317412120AA6E070087415120A17
:103B8300A6E060207405120AA6E0A2E6501E8E820B
:103B93008F83A3A3A3A3A3A3A3A3A3125074120F5E
:103BA30051E960087903121EF3023D6B7405120A92
:103BB300A6E0540C64047005750B018003750B00BB
:103BC300E0A2E55035750A01E50BA2E0402C120E88
:103BD300CD8A108B11A810A91112377BE0687003EE
:103BE300A3E06960157405120AA6126932125070B7
:103BF300121FE9E96004790480AC7405120AA6E097
:103C0300A2E650227406120AA6E054037018740543
:103C1300120AA6E0540C640C600CE0540C640860B7
:103C23000575100180037510007405120AA6E0548F
:103C330003F8740268700C12693212507012201F5C
:103C4300023D6B740168703AE510A2E05003123D27
:103C5300737405120AA6A882A9837403120AA6E83C
:103C6300F0A3E9124358851882851983123D7DE03C
:103C7300C0E07402120AA6D0E0123A241220CD0248
:103C83003D6BE86003023D6B90035FE064017010DD
:103C93008E828F83A3A3A3A3A3A3E07003023BF9A4
:103CA3007422120AA67402124358741A120AA61234
:103CB300399DE510A2E050087405120AA6123D735F
:103CC300E50BA2E0506AEE240FF582EF125FF6C017
:103CD300E07417120AA6D0E0F0900314124BFA70A6
:103CE30003023D6B120ECD8A128B13A812A9137413
:103CF3001A120AA6E0687003A3E069706B780C12CD
:103D03000809780A1208157808120811A910740C0A
:103D1300120AA6AC82AD837421120AA6AA82AB83CF
:103D2300900314123E731220F6740712087380383E
:103D3300780C120809780A120815780812081190ED
:103D43000375120658EE2412F582EF125D247423D4
:103D5300120AA6AC82AD83740E120AA6AA82AB83A2
:103D6300121FD17409120873742312087302641E9C
:103D730012693212550F12202B22E8F0A3E9123DEB
:103D83008522123D8922F08E828F83A3A3A3A3A34E
:103D9300A32274F71203701218AB0238FA74F712E5
:103DA30003701218BD0238FAC082C0831218B7021A
:103DB30035BD74F71203701218C30238FA74F71280
:103DC30003707409120AA6E0F508780812081512A0
:103DD30018CF74010238F7C082C0831218DB023592
:103DE300BDC082C0831218E10235BD74F71203709F
:103DF3001218E70238FA74F7120370EAFEEBFF8930
:103E0300087401650870147900120CF9902502E416
:103E130093FC7900EEFAEFFB120C6F0238FA74F49C
:103E230012037074F91208BEE9FE8A088B098C0A22
:103E33008D0B7413120AA6125074900605124BFAD6
:103E43006027EE851882851983F07401120AA6781B
:103E530008120A67EAF8EBF97405120AA6123A2067
:103E6300900605123E731220F6023A1BFB90034B99
:103E7300E0F8A3E0F58388822274F7120370900EB2
:103E8300EFE0F97E00800B125FE2540D64017001D4
:103E9300190E1240765003E970ED0238FA74F712E6
:103EA3000370900EF0E0F97E00800B125FE2548DF8
:103EB30064817001190E1240765003E970ED0238E7
:103EC300FA74F2120370890BE975F006A4240CF559
:103ED30008E5F012311F8A0CE508250CFAE50934D0
:103EE30000FB1216BF8A0C8B0DAE0CAF0DEE4F60AC
:103EF30027AC08AD0979001215FF12377BE50BF0EB
:103F0300EE2508F8EF3509F98E828F83A3A3A3A3C7
:103F1300A3A3A3A3A312399DEEFAEFFB024E6F7482
:103F2300F6120370EAFEEBFF120C4B900EEEE0F874
:103F3300E9C3984009900345125074120C51EE24C2
:103F430002F8EF12568490034712553E900347E060
:103F530004F0EEFAEFFB120C57850882850983E023
:103F6300025B3AC082C08379009003458001091245
:103F730050748A828B83E582458370F20235BD7467
:103F8300F7120370EAFEEBFFEE4F60569003451203
:103F93004BFA604E888289837A007B00EE658270DB
:103FA30003EF6583600FAA82AB83123FE8E5824586
:103FB30083602F80E7900345123FF4687002EF6936
:103FC3008E828F83700812399190034580031264A7
:103FD3003012399DEEFAEFFB12209DEEFAEFFB1241
:103FE30016C50238FA123FEC22124368888289838D
:103FF30022124364EE22C082C0839003458004886A
:10400300828983124BFA600B888289831246ACEC57
:104013004D70EC8A828B83E4F0A3F0E84960068854
:10402300828983800390034512390A0235BD74F7F0
:1040330012037090034580048A828B831240714B74
:1040430060257E0080010E12407650ECEE75F0067E
:10405300A4FCADF0EA2CFCEB3DFDEC2410F582ED65
:104063001240C670E180047A007B000238FA1255D0
:1040730013EA221240CFEEC3982274F71203707D25
:104083000080010D1240CBEDC3985034ED75F0065E
:10409300A4FEA8F0E8FFEA2EFEEB3FFFEE2410F5A6
:1040A30082EF1240C670DCED75F006A4FEE8FFEA6D
:1040B3002EFAEB3FFBEA2411F582EB125FF64CF08C
:1040C3000238FA12600269221240CF2212693CEBD5
:1040D3003400F583E0F82274F6120370120D717A3E
:1040E300007B008025EAF8EBF9E875F006A4F8AC4C
:1040F300F075F006E9A42C1254E81267FDA3E4124C
:1041030055DEF0A312680312697A9024ED122D9EF6
:1041130040D37A007B00801C8A088B0974037808DB
:10412300120989124F9CA374FEF0A3041253BEA379
:10413300E412697A9024F612417940DC7A007B001C
:10414300801D8A088B097403780812098974331255
:104153005C6E740E1264B574FEF0A30412697A9057
:1041630024FC12417940DB902500E493900353F043
:104173001241830239A6E493F8C3EA98EB94002230
:104183007CE87D037A107B009003C2E0F912177F6D
:104193002274F012037074F51208BE8A088B098921
:1041A3000A8C0BE9A2E050147508FC7509FFA2E123
:1041B3005005D2E4024256D2E3024256124E5B70DD
:1041C30003A3E06970057900024323AC0A7902AACC
:1041D30008AB09120D4DE960EDE50AF50C780C12F8
:1041E300081579027CFE7DFFAA08AB09124BD61293
:1041F3000873E96003024321E50AC2E5F50A900367
:10420300B5E07051E50AA2E6404B7403120AA6AC6E
:1042130082AD83AA08AB09120AEFE970321244F7A0
:104223008A0C8B0DA80CA90DE8FEE9FFE84960256F
:10423300EE24020A0AEF122AAE601AEE2402FCEF01
:104243003400FD7403120AA6AA82AB83121F0BE586
:104253000AD2E5F50A900348E0F50C900368E0F50F
:104263000EA3E0F50F780E1208117D017C00900378
:1042730048E0F9AA0EAB0F120D057402120873E998
:10428300F8900348E004F0E86003024321E50AA242
:10429300E55004740E80027406C0E07401120AA68D
:1042A300D0E01259508A0E8B0FAE0EAF0FEE4F6057
:1042B30069124341124358888289837401F07478E8
:1042C300550AA3126942E50C126942A3E508F0E519
:1042D30009124330E4F0E50AA2E5500F7403120A11
:1042E300A6AC82AD83E824061243278E828F83A374
:1042F300A374FDF0A374FFF0E50B6015902503E4B0
:1043030093F8E50BC3985009EE2413125923E50BD8
:10431300F0EEFAEFFB120B9180067910800279C759
:10432300740B8049FAE93400FB121F0B228882893F
:1043330083A3A3A3A312433C221256B7A322EE24C2
:10434300171259347401F0120EC7EE241A1259349D
:10435300EAF0A3EB22F0126936340012436222F52D
:104363008312436822E0F8A3E0F922740D12087364
:104373007F080205CF74F61203707A007B10125E79
:104383003E60089003D47401F080299006A4E06491
:1043930001900F517006E0FC79018004E0FC790381
:1043A3007A007B00120C6F9024EB1243BA7A007BE5
:1043B300101243C80239A61243BE22E493FC7401CF
:1043C30093FD227B009003C2E0F91217792274EC6B
:1043D3001203708A088B098C0C8D0D890E741412CC
:1043E3000AA6124DB57416120AA6E0F510A3E0F55D
:1043F30011120F51E960077AFF7BFF0244F4900F1B
:1044030050E0640260030244E77900AA08AB091292
:104413000D53A90E120D478A128B13AE12AF13EE72
:104423004F70030244CF8E828F83A3A3A3A3A3E081
:1044330064018E828F83A3A370691250748E828F5E
:1044430083A3A3A3A3A3A3E054186043902501E48B
:10445300938E828F83A3A3A3A3F0EA650C7003EB6F
:10446300650D6014EA650A7003EB650B600AEA6583
:10447300107003EB6511701F7810120811AC0AADB0
:104483000BAA0CAB0D12104D740212087380089026
:104493000367125E28A3F074FE6A700374FF6B60F7
:1044A3001D804EA3A3A3E0640360298E828F83A3A0
:1044B300A3A3A3A3E0640470057AFE0243FC8E82E7
:1044C3008F83A3A3A3A3A3E0640270089003B4E0C3
:1044D300640270101244F78B0BEA450B6006AA08BE
:1044E300AB09800DAA08AB09900349123E73122051
:1044F300F602641E900375124BDC1210112274F73E
:10450300120370EAFEEBFF120B43E9700AEEFAEFB7
:10451300FB120B4FE96006EEFAEFFB80047AFE7B99
:10452300FF0238FA74F01203708A0A8B0B8C0E8D1B
:104533000F8909750800120F51E9790060030246DB
:104543009EAA0AAB0B120D53A909120D478A0C8BB5
:104553000DAE0CAF0DEE4F60198E828F83A3A3A314
:10456300A3A3E0640270559003B4E06402700302F5
:10457300469CAA0AAB0B90034F123E731220F6120D
:104583000B558A0C8B0DA80CA90DE8497003024644
:104593009C88828983A3A3A3A3A3E0A2E040030290
:1045A300469C750C01A2E150687901AC0AAD0BAAD7
:1045B3000EAB0F120C9FE9706402469C8E828F83B0
:1045C300A3A3A3A3A3E064037005750C0280528E1A
:1045D300828F83A3A3A3A3A3E06401600302469C89
:1045E3009003751246AC8E828F83124A018A0C8B1C
:1045F3000DA80CA90DE84960D19024FAE493FA8838
:10460300828983E0C39A50C2A3E0600302469C8080
:10461300B988828983A3A3A3A3A3D2E1F0EE4F6059
:104623003A8E828F83A3A3A3A3A3A3E05418602B82
:104633007508018E828F83A3A3120658750CFE752D
:104643000DFF780C1208117900AC0AAD0BAA0EAB62
:104653000F120D657404120873803E900368E065C1
:104663000E7004A3E0650F7014902502E493FCA977
:1046730009AA0AAB0B120C6F750801801CA90CACBC
:104683000AAD0BAA0EAB0F120C9FE9700C75080153
:10469300A909AA0AAB0B120CF9A908024373E50C8A
:1046A3002415F582E50D1259371253942274EA1238
:1046B300037074F01208BE8A0C8B0D8C088D09747C
:1046C30026120AA6E0F514A3E0F515751206900369
:1046D300F5124BFA60239003751246ACAA08AB0996
:1046E30012103B8A108B11EA4511600D8A828B836D
:1046F300A3E0700579000249E9E50C241DF50EE5F8
:104703000D3400F50F850E82124BE6F5138882896E
:1047130083A3A3A3E0FA88828983A3A3A3A3E0F9D5
:10472300EA2400FEE439FFAA08AB09120CFF850E48
:1047330082850F83124A24E029F50BE50AA2E5508E
:104743000375120E7487550A70177418550A641886
:10475300600FE50C2417F582E50D125FF665126014
:10476300077901121EF3808C530A78C3EE94F8EF95
:1047730094FF501D7900EEFAEFFB1249F3601288A3
:10478300828983A3A3A3A3A3A3E0541860030246CF
:10479300F778081208117D00124A17120873E9F816
:1047A30074036870030246F7E860030248627418F2
:1047B300550A7003024917E50AD2E0F50AA2E4504C
:1047C30004D2E1F50AA90A12506D1249F360538825
:1047D300828983A3A3A3A3A3A3E05418604488827C
:1047E3008983A3A3A3A3A3E064017036E510451155
:1047F30060309003751246AC88828983124A018A1D
:104803000E8B0FA80EA90FE849601788828983A32E
:10481300E0600F851082851183A3125B455003026C
:1048230046F7E50AF50E780E120815124A0A120821
:1048330073E9702B7C007D0085148285158374FFDA
:10484300F0A3F0850C82850D83A3A3A3A3A3A3A345
:10485300A3E060031246A1A90B12506D1218D5856F
:104863001482851583E0F47003A3E0F460399003A8
:10487300B4E0640270030246F7124DA6E0FAA3E027
:10488300123E6F1220F6EA65087003EB65096003B8
:104893000246F7EEFAEF123E6F1220F68514828578
:1048A3001583EAF0A3EBF078081208117D01124A90
:1048B30017120873A90AEEFAEFFB120D538A088B3D
:1048C30009A808A909900368E0687003A3E0696078
:1048D300030249DAEEFAEFFB120B558A088B09A89B
:1048E30008A909E849606E88828983A3A3A3A3E08A
:1048F3006401600D88828983A3A3A3A3E06402708B
:1049030054851882851983AC82AD83EEFAEFFB12CE
:104913000AEF8055900361E0600FE50AF50E780E0B
:10492300120815124A0A120873E50AF50E780E12D8
:10493300081579027CFE7DFFEEFAEFFB124BD612CF
:104943000873E9600302486285148285158374FF46
:10495300F0A30248A9120EC7EAFCEBFD8518828575
:104963001983AA82AB83121F0B850C82850D83A347
:10497300A3A3A3A3A3A3A3E06401700F1246A1748E
:1049830008120AA6AA82AB83121F0B124BB012574E
:10499300BC4430F50878081208157401120AA6857C
:1049A30082088583097808120811740B120AA685F8
:1049B30082088583097808120811E513F508780839
:1049C3001208157900EEFCEFFD12506D120C99746C
:1049D300061208730246F7124BB0125926124A24E4
:1049E300E50BF0120EDF74101208737F0E0205CF71
:1049F300120D478A0E8B0FA80EA90FE84922A3A315
:104A030012551312103B227901AC08AD0912550857
:104A1300124BD622AC0BA913125508120D057402C2
:104A2300221257C4A3A3A3A32274F012037074F039
:104A33001208BE8A0C8B0DECFAEDFB750F08900380
:104A4300F5124BFA6014125B3E8A828B83E5824532
:104A5300836007A3E07003024BAB124BB034001228
:104A63004BE6F50B88828983124BB9E0FBEC2400FB
:104A7300FEE43BFF88828983A3A3124BB9A3A3E07F
:104A8300FBECF508E43BF50988828983A3A3A3A380
:104A9300A3A3A3E0F50EE50AA2E45003750F10A249
:104AA300E550067408250FF50F748F550A700FE54E
:104AB3000C2417F582E50D125FF6650F6008790186
:104AC300121EF3024BAB530A707800E50AA2E450BE
:104AD30022124BB0125FF62408FCA3E03400FD74ED
:104AE30008120AA6AA82AB83121F0B7808E50AC232
:104AF300E4F50AE50AA2E55028124BB0125FF62846
:104B0300F8A3E03400F9E82408FCE93400FD851833
:104B130082851983AA82AB83121F0BE50AC2E5F5CE
:104B23000AAC0EA90BEEFAEFFB120D0BE9F87403B6
:104B3300686075900368E06E7003A3E06F605EE8E1
:104B43007054E50AF50F780F120815124BC71208B7
:104B530073E97054780A1208157401120AA6858243
:104B63000C85830D780C120811740B120AA685822A
:104B73000C85830D780C120811E50BF50A780A12DF
:104B83000815A90EAC08AD09EEFAEFFB120C9974E7
:104B9300061208738012740468700D80B7780A12C5
:104BA3000815124BC71208737410024370E50C24E6
:104BB3001DF582E50D22A3A3A3E0FC88828983A3CC
:104BC300A3A3A3227901124DAD125937124BDC1264
:104BD3004BD622120CC3740122E0FCA3E0FDAA0809
:104BE300AB0922F583123FECA3E0F50A888289839F
:104BF300A3A3E02290033912556F2274E8120370C5
:104C030074F51208BEEAFEEBFF8C088D0989147453
:104C130023120AA6E0F50F7424120AA6E0F512A3E4
:104C2300E0F5137426120AA6E0F516A3E0F517744F
:104C330028120AA6E0F50EA90F120D118A108B1186
:104C43007401120AA67408F0E50EA2E4500374106E
:104C5300F0E50EA2E55004E02408F08518828519DA
:104C630083AA82AB83120F398A0C8B0DEA450D7030
:104C730003024D8DEA2417F582EB124D9F120EC7E6
:104C8300E50C241AF582E50D12592612390A74032C
:104C9300120AA6AC82AD83AA10AB11120AEFE96027
:104CA3001D124D977403120AA6A882A983E50C244A
:104CB30018F582E50D125926E8F0A3E98024E50EE4
:104CC300A2E4501FE5106E7003E5116F7015124DCD
:104CD30097E50C2418F582E50D125926E512F0A389
:104CE300E513F0124DA6124DB5850A82F5837402C1
:104CF300F0A3E50E124DBDE50FF0EE850A82850B9C
:104D030083A3A3A3F0EF850A82850B83A3A3A3A3A5
:104D1300124DBDA3A3A3E508F0E509850A82850B1F
:104D230083A3A3A3A3A3A3F0AA10AB11120CFFE9BF
:104D33002514850A82850B83A3A3A3A3A3A3A3F0AE
:104D4300750800E50EA2E45011AC12AD13E50A2478
:104D530008FAE50B124329750808E50EA2E550147D
:104D6300AC16AD17E50A2508F8E50B3400F9E8247D
:104D730008124327850C82850D83A3A3E510F0A3B6
:104D8300E511F0AA0CAB0D120B91740B1208737F93
:104D9300100205CFE50C2416F582E50D1259377480
:104DA30001F022124DAD12593722E50C12693DE58F
:104DB3000D22E0F50AA3E0F50B22F0850A82850BAC
:104DC30083A3A32274F21203708A088B09ECFEED0D
:104DD300FF890A7900124E5B7003A3E069700479BE
:104DE300018073750B01900368E065087004A3E00C
:104DF3006509601F750B00780B120815A90AEEFCF4
:104E0300EFFDAA08AB09120F8D7401120873E9F5BF
:104E13000B80417900EEFAEFFB120D47EA4B602B52
:104E23008A828B83A3A3A3A3A3A3E05418601C7556
:104E330008FE7509FF78081208118A828B83A3A3E1
:104E430012065812675212087380097901EEFAEFBD
:104E5300FB120C27A90B8014120D538A0C8B0DA87F
:104E63000CA90D900368E068221208737F060205FF
:104E7300CF74F412037075087B75090C7A101264F1
:104E83005A8B0BEA450B7003124183900353E014D2
:104E9300F0700C902500E493900353F0120D5F7EA5
:104EA300007F00806C850882850983A3A3A3A3E008
:104EB3006059F46056E5082404F582E509125E2280
:104EC3007049850882850983A3A3A3A3A3E0640390
:104ED300701979028508828509831246AC85088298
:104EE300850983A3A3125074120C9F850882850938
:104EF30083A3A3A3A3A3E0640160108508828509AB
:104F03008374FEF0A304124FCEE4F01232C51231C3
:104F1300179024EF1265B6408C7E007F0080391213
:104F23000E6D8E088F097403780812098974F325AE
:104F330008FC740D3509FD7AAB7B0C120E5BEA4B52
:104F430070DD8E088F0974037808120989124F9C4B
:104F53001267FDE4F01232C59024F6E493F8C3EE31
:104F630098EF9400501B8E088F0974037808120978
:104F730089124FA4E82407F582E9125E2270D680D5
:104F8300A17E007F00800A124FAF600214F012323C
:104F9300C51265B340F1023B47124FA4888289834F
:104FA3002274F32508F8740D3509F922EEF8EFF9A8
:104FB300E875F006A4F8AAF075F006E9A42AF974D6
:104FC3009328F582740D39F583E022124FD5A3A3FC
:104FD300A322F0850882850983A3A32274F7120311
:104FE3007074E11208BEECFEEDFF750800EE4F6031
:104FF300728A828B83E0241C125E53124BFA606325
:105003008A828B83125074851882851983AC82AD92
:1050130083EA241BF582EB125D24EA241CF582EB60
:10502300125070120EAF740B120AA612507870034E
:10503300A3E069702E7402120AA6E064017024745E
:105043001D120AA6123E73E064017017741D120A42
:10505300A6123E75A3A3E0F88E828F83E0687003E7
:10506300750801A908741F0238F7124DAD3400F515
:105073008312551322122A6CE0682274F41203700F
:10508300E97024790090034D123E731220F68A0AC8
:105093008B0BAE0AAF0B74FE6E700374FF6F701A46
:1050A3009024FDE4936013790190034D123E731233
:1050B30020F68A0A8B0BAE0AAF0B120EFD023419CF
:1050C30074F612037074F31208BE1216178A088B53
:1050D30009AE08AF09900368E06E7003A3E06F6048
:1050E300E9120ED3EA6E7002EB6F60DEEEFAEFFBAD
:1050F300120F51E970D4EE4F60D085188285198361
:10510300E4F004120AA6EEF0A3EF125126E970BAF6
:1051130074FE6E700374FF6F60B0EEFAEFFB740DF4
:105123000239A3123A28120B0722C082C083120E3F
:10513300FD0235BD7F0A0205CF74F2120370EAFE49
:10514300EBFF8C0A8D0B8908740E120AA6E0F50991
:1051530074FC6E700374FF6F70057900024E6F79F3
:1051630000120D538A0C8B0DAE0CAF0D900368E04B
:105173006E7003A3E06F7006E509A2E650DCA9098F
:10518300126640706179007AFE7BFF1266407056AA
:105193007418550970030252737800790080031262
:1051A3002C669024EF122C5D4003025273E8FAE957
:1051B300FBEA75F007A4FAACF075F007EBA42CFB3F
:1051C30074812AF582740C3BF583E0541870D0E89F
:1051D30075F007A4F8AAF075F007E9A42AF9747B1F
:1051E30028F8740C39F988828983A3A3A3A3A3A302
:1051F300E05418600974185509700302515D8882E0
:105203008983EEF0A3EFF074FE650A700474FF6502
:105213000B600312539A88828983A3A3A3A3A3A336
:10522300E509F0A2E0500D88828983A3A3A3A3A379
:10523300A3D2E2F07401650888828983A3A3A3A3A0
:10524300A3703874011253BEE054186028902501EE
:10525300E49388828983A3A3A3A312538812103BE8
:105263008B0DEA450D600302515D780079008039AA
:10527300790202515F900367E080D7E06401700315
:1052830002515D88828983A3A3A3A3A3A3E0541837
:105293006007902501E4938004900366E012433095
:1052A300E508F002515D122C669024F7E493FAC3EB
:1052B300E89AE99400400302515D7A007B00804B39
:1052C300EAFCEBFDEC75F007A4FCAEF075F007ED1E
:1052D300A42EFD747D2CF582740C3DF58312593F89
:1052E300E8FCE9FDEC75F017A4FC85F00975F017EF
:1052F300EDA42509FD740B2CF582740B3DF583E0B9
:105303006E7003A3E06F609E12319A9024EF123106
:105313002740AD1243BAEC6A7002ED6B7088E875F2
:10532300F017A4F8AAF075F017E9A42AF9740B286A
:10533300FE740B39FF7C177D007900EEFAEFFB1248
:1053430015FF8E828F831253A090037512537AA395
:10535300A3A3A3A3A3E8F0A3E91253807401F0EE7F
:10536300240E12592374011253A812021FEE240DA6
:10537300125923E80252A512378CA3A322F0EE247C
:105383000F12593422F0125391AA0AAB0B22900345
:1053930075E0FCA3E0FD2288828983A3A3E50AF0DC
:1053A300A3E50BF022F01253AD229024FAE49324E8
:1053B30001F8E43400F97A027B002212433CA32271
:1053C30074ED1203708A088B09890E1254F140059B
:1053D30079050254BF12191DAA08AB091255C390CF
:1053E30024ED1254C2650A7003E9650B70077AFE57
:1053F3007BFF1255C39024EDE41254CAE50A98E5E5
:105403000B9940030254BD1254CE6012E50A75F0A5
:1054130006A4F875F006E50B1255191216C5E50E2C
:105423006018E50A75F006A4F8AAF075F006E50B16
:10543300125545701A79010254BFE50A75F006A4A6
:10544300F8AAF075F006E50B125526E4F0A3F0E593
:105453000A75F006A4F8AAF075F006E50B1254E6F7
:10546300A31257D288828983A3AA82AB83125534AD
:105473008A828B83E0603F1254CE603A8E108F1184
:10548300751200781012080DE50EC333FCE433FDEA
:10549300E50A75F006A4F50AA8F075F006E50BA475
:1054A30028F50B7497250AF582740D350B1250728B
:1054B3001231381208737900800279070266561296
:1054C3002DBFE8229024E5125FDD22E50A75F00680
:1054D300A4F8AAF075F006E50B125521F8A3E0F93C
:1054E300E84922A42A12567A88828983A322ECFEF1
:1054F300EDFF9024F8E493F8E9C39822F58312555D
:10550300131216C522E50C12693DE50D3400F5832F
:10551300E0FAA3E0FB22125521FAA3E0FB22125585
:1055230026E022A42AF9749728F582740D39F583AD
:1055330022E50EF0900F5212553E22E088828983B5
:10554300F02212569EF50CE93400F50DE50EC33337
:10555300FAE433FB1216BF850C82850D83EAF0A3B0
:10556300EBF0850C82850D8312556F22124368E898
:10557300492274F4120370ECFEEDFF740C120AA6B8
:10558300123991880889091255C3AC0AAD0BECF89E
:10559300EDF99024ED1255CB5021E875F006A4F8EF
:1055A300AAF075F006E91254E6E08E828F83125555
:1055B300DE1255D412399D790080027904023B47EB
:1055C300120CD58A0A8B0B22123130C3EC9AED9B55
:1055D30022124364850882850983221256B32274FA
:1055E300F61203707E007F008028EEF8EFF9E8756D
:1055F300F006A4F8ACF075F006E9A42CF97495282C
:10560300F582740D1262616A7003A3E06B60571236
:1056130032C51265B340D31265AE7002E96F7046AE
:1056230074FE6A700374FF6B703C7E007F0080031E
:105633001232C51265B3502E124FAF70F3EEF8EF6E
:10564300F9E875F006A4F81256701256A560171201
:10565300568CF8E912568488821254FF8508828595
:105663000983E4F0A3F0EEFAEFFB0239A675F00626
:10567300E912567822A42AF9749328F8740D39F99B
:10568300223400F98808890922EEF8EFF9E875F069
:1056930006A4F875F006E912569E22125678E824FD
:1056A3000422A3A374FE1256B012556F22F0A30472
:1056B3001256B722F088828983A3A3A3A32274F688
:1056C300120370EA241DF582EB1257BCF9604BEA12
:1056D300241DF582EB125FF62402FCA3E03400FDE7
:1056E3001254F540030257AF780080298C828D83D2
:1056F300E0F508A3E0FFE5082400E43FF509E833FB
:10570300FEE433FF74DB2EF582740D3FF5831257ED
:10571300D21257B208E8C39940D28A828B83A3A3DB
:10572300A3A3A3A3A3A3A31246AC900368E06C7046
:1057330003A3E06D700F7CDB7D0D1229D512507031
:10574300120CC98067EA2411F582EB125FF6605CE4
:10575300FC74FF2CF075080178081208157508DB36
:1057630075090D7808120811E9F50878081208156B
:10577300EA2412F582EB125FF6F508780812081591
:10578300EA2415F582EB125926120658ECF9122970
:10579300D51246A98A828B83A3A3A3A3A3A3A3A3FE
:1057A300A3125074120CE174071208730239A6ECA9
:1057B30024020C0CED3400FD221259371257C4E0B9
:1057C30022E0F8A3E0F5838882A32288828983E517
:1057D30008F0A3E509F02274EA12037074FD1208BD
:1057E300BE8A148B158C0E8D0F890D7419120AA69F
:1057F30012593F741B120AA6E0F511741C120AA673
:10580300E0F50C741D120AA6124DB5741F120AA6F8
:10581300E0F5106008E50CC333240480027402C071
:10582300E07401120AA6D0E01259508A088B09EAE3
:105833004509700302591B8A828B83A3A3E514F0E5
:10584300A3E515126449E50EF0A3E50FF0EA24136E
:10585300F582EB125926E50DF0EA2414F582EB12DA
:105863005926E511F0EA2417F582EB125FF664017D
:105873007040120ECD8A0E8B0FA80EA90F850882D9
:10588300850983A3A3A3A3E0687003A3E06960224F
:10589300EE4F6011E508241AF582E509125926EE48
:1058A300F0A3EF800CE5082417F582E509125926C9
:1058B300E4F012592A12593F8E828F837405F0A3A4
:1058C300E5107004E50C80487401250C1259497ADF
:1058D300008028850A82850B83E0125945850A8258
:1058E300850B83A3E08E828F83F0E50A2402F50AF9
:1058F300E50B3400F50BA30EAF830AEAC3950C4006
:10590300D2120ECDEA125945120ECDEB8E828F8341
:10591300F0AA08AB09120B9174030249EBEE240CB5
:10592300F582EF125937221229E612593722EE2453
:105933000BF582EF3400F58322900334E0FEA3E0FD
:10594300FF228E828F83F0A3AE82AF8322123A2886
:10595300120F3922C082C083E9C333FCE433FDEA6A
:105963002CFAEB3DFBEA24FEF582EB34FF12507276
:105973000235BD74F212037089098A0A1254F14088
:10598300047900804075080080020508E508C39586
:1059930009502AE508C333F8E433F9EE28F582EF1A
:1059A30039F583C082C083120ECD8A0C8B0DD08350
:1059B300D082E0650C7004A3E0650D70CDE50A6547
:1059C3000870BE7901024E6F74F012037074F31203
:1059D30008BE8A088B098C0A8D0B890C750D001281
:1059E3000F51E979006003025ACDAA08AB09120DE1
:1059F30053A90C120D478A0E8B0FAE0EAF0FEE4F4D
:105A03007003025ACB8E828F83A3A3A3A3A3A3E025
:105A1300A2E24003025ACB120ECDEA650A7003EBF1
:105A2300650B7011780D120815E4F50EF50F780E5D
:105A33001208118044AA0AAB0B120B49E9640170E6
:105A4300688518828519837404F07401120AA612FA
:105A530053A0851882851983AA82AB83120B07E9A9
:105A630064017045750D01780D120815E4F50EF506
:105A73000F780E120811750D00780D120815780DA8
:105A83001208157408120AA685820E85830F780EF4
:105A9300120811902503E493F9AC0AAD0BAA08ABE5
:105AA30009120CE174071208738E828F83A3A3A3D8
:105AB300A3A3A3E0A2E1400D8E828F83A3A3A3A39C
:105AC300A3A3C2E2F0750D01A90D02436E74F61291
:105AD3000370E9FE7900120D53EEF9120D478A089F
:105AE3008B09A808A909E8496006126984F98002AC
:105AF30079040239A674F61203707E0790035CE002
:105B03007034125B3E8A088B09A808A909E849602A
:105B130025900361E0640188828983A3A3700B123B
:105B23005B45888289835001A3A3E0F9121059E9E8
:105B3300FEEE70027E07EEF90239A612539112109F
