:020000040000FA
:06000000020A1E0201BB12
:03002B0002074485
:030043000206FFB3
:030053000200FAAE
:03006B0002085137
:100083000201570101FF0503010FF60FF60FF60FEB
:10009300F60FB20EAC0EF60F871E00000000E91E2D
:1000A300000000000C0000000C00010000CA110059
:1000B30000000000008412000000000000000000A7
:1000C30000FFFF0101010100A4050000001806E87C
:1000D3000364006400B8010202001000000502037B
:1000E300051E02051E0A02B80B02010278110296D0
:1000F30051180002020612C0E074F21203D4A2AF38
:10010300E433FED2AFE5A7FFE5A1F5085F54106025
:100113000612196275A1EFE5085F54086008121909
:100123006875A1F78024E508A2E092F0EFA2E082CF
:10013300F05017906198E0F89008F3E0C398A2D2CA
:1001430065D0335002E8F075A1FEEEA2E092AF7FD6
:1001530001020433C0E074F21203D4A2AFE433FE0D
:10016300D2AF9061A4E0F8759B00E5915854086004
:10017300087591F71219B08023E59158541060085F
:100183007591EF1219B68014E591A2E092F0E8A2FE
:10019300E082F05007E0C2E0F0121AFA9061A3E0A7
:1001A300F8E5E9585404600E121AD075E9FB906122
:1001B30093E0A2E640F28092C0E074F21203D4A26C
:1001C300AFE433FED2AF9061A5E0F8E5BF58540425
:1001D300600675BFFB121B1202014DC3E498F8E4DD
:1001E30099F912021F8026C3E49AFAE49BFBE920E3
:1001F300E7E912021FE498F8E499F922C3E498F8B6
:10020300E499F912021FE498F8E499F9C3E49AFA1D
:10021300E49BFB22EB20E7CFE920E7E0B90010BB2A
:100223000008E88AF084F8AAF022E4FBC8FA22EB7B
:1002330070227B10C833C8C933C9335007C39AC36C
:10024300DBF280069A50012ADBEAC833F4C8C933CB
:10025300F4C9FA2275F008E4C833C8C933C933C9ED
:100263009AC99B5004C92AC93BD5F0ECFBC833F4A7
:10027300C8E4C9FA22080808EAC0E0EBC0E086F047
:10028300E7A4FA180986F0E7A42AFA180986F0E722
:10029300A42AFA180986F0E7A42AFA1986F0E7A433
:1002A300FBE5F02AFA190886F0E7A42BFBE5F03A00
:1002B300FA190886F0E7A42BFBE5F03AFA181809B7
:1002C30086F0E7A4C5F02BFBE43AFA1908E7C5F07A
:1002D300C6A426F6E5F03BFBE43AFA1886F0E7A459
:1002E300F6E5F00826F6E43B08F6E43A08F6D0E033
:1002F300FBD0E0FA22E4CFC0E0E4CEC0E0E4CDC01E
:10030300E0E4CCC0E075F020C3E633F608E633F64C
:1003130008E633F608E633F6181818EC33FCED3329
:10032300FDEE33FEEF33FFC3EC9709ED9709EE972C
:1003330009EF97191919400FFFEC97FC09ED97FD89
:1003430009EE97FE191906D5F0BEECF709EDF7098A
:10035300EEF709EFF7191919D0E0FCD0E0FDD0E072
:10036300FED0E0FF222518C582C0E0E51934FFC5A1
:1003730083C0E0E518C3958224F810AF088583197C
:100383008582188008858319858218D2AFCEF0A3A1
:10039300E520F0A37808E608F0A3DEFAEFF0A3E582
:1003A3008124FAF8E608F0A3E608F0A3E608F0A330
:1003B3000808E608F0A3E608F0A315811581D0E04C
:1003C300FED0E0F8158115811581E8C0E0EEC0E0AC
:1003D30022C0D02518C582C0E0E51934FFC583C00B
:1003E300E0E518C3958224F310AF0885831985824D
:1003F300188008858319858218D2AFC8F0A3E9F065
:10040300A3EAF0A3EBF0A37908E709F0A3D8FAEC89
:10041300F0A3EDF0A3EEF0A3EFF0A3D0E0F0A3D0B0
:10042300E0F0A3D0E0F0A3E520F0A3E5F0F0A322F1
:10043300851983851882E0C0E0A3E0F9A3E0FAA35D
:10044300E0FBA37808E0F608A3DFFAE0FCA3E0FDF5
:10045300A3E0FEA3E0FFA3E0C0E0A3E0C0E0A3E0CD
:10046300F5D0A3E0F520A3E0A3F5F010AF08858352
:10047300198582188008858319858218D2AFD082A6
:10048300D083D0E0F8D0E032120A80B9000302042E
:10049300CDE4900301784A790B8002F0A3D8FCD90C
:1004A300FA900D4AAA82AB83900086787579018011
:1004B30015E493A3AC82AD838A828B83F0A3AA82D3
:1004C300AB838C828D83D8E9D9E77582AA7583A81B
:1004D30074031207E375828E75831D74001207E39C
:1004E3000875F0108E1A8F1B85821F85831E851851
:1004F30082851983E0CEA3E0CF851F82851E83EB1F
:10050300C9EAC8EDCBECCAC3E833C8E933C9EA3357
:10051300CAEB33CBC3EA9EF51DEB9FF51CB3500426
:10052300AB1CAA1DEC33CCED33CDD5F0DAAE1AAF4C
:100533001B22D083D082ECC0E0EDC0E0E493A3FCA7
:10054300E493A3FDED4C600D12060DEC24FFFCEDCE
:1005530034FFFD80EFE493A3FCE493A3FDED4C6033
:100563000D1206AAEC24FFFCED34FFFD80EFD0E072
:10057300FDD0E0FCE493A3C0E0E493C0E022D08389
:10058300D082E9C0E0E493A3C386F0C5F095F0F907
:1005930008E493A386F0C5F095F0700BE493A3C32E
:1005A300994005E9048002A3E475F002A42582F5CD
:1005B30082E5F03583F583D0E0F9E493A3C0E0E46A
:1005C30093C0E022851983851882E0A3FEE0A3F59A
:1005D300207808E0A3F608DFFAE0A3FFE0A3C0E079
:1005E300E0A3C0E0E0A3C0E0E0A3C0E0E0A3C0E07C
:1005F30010AF088582188583198008858218858342
:1006030019D2AFD083D0820207E9C0E0C3E4939646
:10061300087401939618400FE493667008087401F8
:1006230093661870007019A3A3C3E493960874012A
:10063300939618A3A3400DD0E0D0E0D0E00205715B
:10064300A3A3A3A3A3A3D0E0227404800474028011
:1006530000CCC0E0EDC0E0E518C39CCCAD1950015F
:100663001D10AF068C188D1980068C188D19D2AF0A
:10067300120765D0E0FDD0E0FC2274028000CCC0FC
:10068300E0EDC0E0E518C39CCCAD1950011D10AFDF
:10069300068C188D1980068C188D19D2AF1207227B
:1006A300D0E0FDD0E0FC22C0E0C0F088F0E4936627
:1006B30070080874019366187000A8F0A3A3700B68
:1006C300D0F0D0E0D0E0D0E0020571A3A3D0F0D009
:1006D300E022D083D082CCC0E0E493A3600612076B
:1006E300861470FAE493A360061208B61470FAD065
:1006F300E0FCE493A3C0E0E493C0E022C0E074F222
:100703001203D4A2AFE433FED2AFC2C0E5D1A2E458
:1007130050031218D8EEA2E092AF7F01020433CA4D
:10072300C0E0E493A3C582CCC582C583CDC583F065
:10073300A3C582CCC582C583CDC583DAE5D0E0CA23
:1007430022C0E0C0D0E8C0E0E9C0E0E5A8D2AFC273
:10075300C7A2E7A2E792AFD0E0F9D0E0F8D0D0D0BB
:10076300E032CAC0E0E0A3C582CCC582C583CDC553
:1007730083F0A3C582CCC582C583CDC583DAE6D019
:10078300E0CA22C0E0E493A3D39C5010E493A3C334
:100793009C400AD0E0D0E0D0E00206F2A3A3A3D0AD
:1007A300E022C008C3E096F50808A3E096420808D3
:1007B300A3E096420808A3E09645087001D3D00849
:1007C300227009080808226016181818C6C333C611
:1007D30008C633C608C633C608C633C6D5E0EA2200
:1007E300C09FF59FE473D09F22D083D082C09FE443
:1007F30093C0E0740193C0E0740293F59F2225181F
:10080300F58210AF08F518400215198008F5184055
:10081300021519D2AF851983227404800A740380E8
:1008230006740280027401C0E0F404120801D0E0EF
:10083300120A5B22C0D0251810AF08F51850020524
:10084300198008F51850020519D2AFD0D022C0E0A4
:1008530074F21203D4E589A2E75003121842758992
:1008630000C2E87F01020433BB0102E722C082C059
:100873008389828A83BB0003E08002E493D083D020
:1008830082226016080808C6C313C618C613C61802
:10089300C613C618C613C6D5E0EA22C3E0C696F649
:1008A30008A3E0C696F608A3E0C696F608A3E0C63A
:1008B30096F622C0E0E493A36C7009D0E0D0E0D0B8
:1008C300E00206F2A3A3D0E022251810AF08F51822
:1008D300400215198008F51840021519D2AF22C33A
:1008E300E09608A3E09608A3E09608A3E096A2D2B8
:1008F30065D03322E066701008A3E066700A08A38F
:10090300E066700408A3E06622E76670100809E752
:1009130066700A0809E76670040809E76622C3E0FF
:1009230096F008A3E096F008A3E096F008A3E096FB
:10093300F022E026F008A3E036F008A3E036F00842
:10094300A3E036F022700422600D18C6C333C60834
:10095300C633C6D5E0F41822E647F60809E647F69B
:100963000809E647F60809E647F622E026F608A353
:10097300E036F608A3E036F608A3E036F622E627CB
:10098300F60809E637F60809E637F60809E637F602
:1009930022E657F60809E657F60809E657F6080966
:1009A300E657F622E056F608A3E056F608A3E0560B
:1009B300F608A3E056F622E056F008A3E056F00846
:1009C300A3E056F008A3E056F022E4C396F608E449
:1009D30096F608E496F608E496F622C3E796080925
:1009E300E7960809E7960809E79622C6F4C608C6FB
:1009F300F4C608C6F4C608C6F4C622600D08C6A22B
:100A0300E713C618C613C6D5E0F322C3E09608A3BE
:100A1300E09608A3E09608A3E0962275D0007581BE
:100A2300407518017519030002048BE0F608A3E072
:100A3300F608A3E0F608A3E0F622600C08C6C31389
:100A4300C618C613C6D5E0F422E6F008A3E6F008FC
:100A5300A3E6F008A3E6F022CAC0E0E6F0A308DAB2
:100A6300FAD0E0FA22E0FAA3E0FBA3E0FCA3E0FD66
:100A730022EAF0A3EBF0A3ECF0A3EDF022E5C754D8
:100A8300F84401F5C77901222518F582E43519F5F3
:100A93008322C2AF75D69F020000221207EC0DAD70
:100AA300011207EC60AE011207EC03AF011207EC71
:100AB3003BB0011207EC59B0011207EC065B0012C0
:100AC30007EC185B001207EC6A5B001207ECCB5BC8
:100AD300001207EC555C001207ECF95C001207ECFE
:100AE3004D5D001207EC665D001207EC8C5D001291
:100AF30007ECC75D001207EC0B5E001207EC325ED9
:100B0300001207EC835E001207EC335F001207EC60
:100B1300EB5F001207ECB360001207EC9061001268
:100B230007EC1662001207EC2562001207EC306234
:100B3300001207EC3963001207EC4A63001207EC5A
:100B4300C063001207EC5264001207ECAA6400129F
:100B530007EC7065001207ECA165001207ECE6656F
:100B6300001207ECF365001207EC8767001207EC2D
:100B7300EA68001207EC2669001207EC426A0012C9
:100B830007ECAC6C001207ECB76C001207ECC16CFD
:100B9300001207ECCC6C001207ECD66C001207ECC9
:100BA300E06C001207ECEB6C001207ECF66C001221
:100BB30007EC276D001207EC4B6D001207EC6F6D0D
:100BC300001207ECD46D001207EC186E001207EC4C
:100BD300346E001207ECAB6E001207ECE36E0012EA
:100BE30007EC2F6F001207EC8C6F001207EC6E718D
:100BF300001207ECF471001207ECC572001207EC47
:100C0300D575001207EC2A76001207EC567600120F
:100C130007ECA277001207ECF277001207EC477893
:100C2300001207EC4879001207ECE079001207EC98
:100C3300627A001207EC027B001207EC112100120A
:100C430007EC4A21001207EC2423001207EC63236C
:100C5300001207ECAD23001207EC5224001207EC3C
:100C6300B124001207ECE524001207EC5225001210
:100C730007EC6F26001207EC7727001207EC0D280C
:100C8300001207EC542B001207ECFD2B001207ECAB
:100C9300D92C001207EC3A2D001207EC572E001244
:100CA30007EC8130001207EC3831001207EC4231B7
:100CB300001207EC7031001207EC4732001207EC08
:100CC3000E33001207ECA933001207EC0E340012A6
:100CD30007EC3734001207EC5934001207EC88365E
:100CE300001207EC5F37001207ECA337001207EC82
:100CF3001038001207ECCB38001207ECFD38001255
:100D030007EC4139001207EC7739001207ECCC39B4
:100D1300001207EC213A001207ECB53A001207EC77
:100D2300173B001207EC7F3B001207EC283D001233
:100D330007EC103E001207EC523F001207EC804113
:100D4300001207EC4042001207EC7544001207EC56
:100D53001845001207EC5645001207EC0247001233
:100D630007EC1647001207EC2047001207EC4A472E
:100D7300001207EC5647001207EC7547001207EC08
:100D83002C48001207EC6B48001207EC7548001260
:100D930007ECCE48001207EC7E49001207EC7D4AAF
:100DA300001207EC764B001207EC134C001207EC11
:100DB300B54C001207ECCC4C001207EC034D0012AB
:100DC30007EC214D001207EC654D001207EC8A4D2C
:100DD300001207EC704E001207ECDC4E001207EC19
:100DE300564F001207EC6550001207ECA451001295
:100DF30007EC8252001207ECE452001207EC9E53F8
:100E0300001207ECC153001207EC9554001207ECD3
:100E1300E054001207EC2255001207EC795500123A
:100E230007ECBE55001207ECEC55001207EC2556F3
:100E3300001207EC4A56001207ECD256001207ECD8
:100E4300F558001207EC5459001207ECE859001248
:100E530007EC545A001207EC9F5A001207ECCC5AC5
:100E6300001207ECCABC031207EC09BD031207EC1E
:100E73009EB1011207ECF8B1011207EC54B2011252
:100E830007ECA0B2011207ECBBB2011207ECECB203
:100E9300011207EC09B3011207EC15B3011207ECB9
:100EA30089B4011207ECA2B4011207EC09B50112CF
:100EB30007EC1CB5011207EC2AB5011207ECDEB5ED
:100EC300011207ECC2B6011207ECC8B7011207EC16
:100ED3004EB8011207EC58B8011207ECC5B801125D
:100EE30007ECDCB8011207EC0EB9011207EC47B9A5
:100EF300011207EC71B9011207ECD2B9011207EC28
:100F0300F2B9011207EC10BA011207EC56BA01123A
:100F130007EC7CBB011207ECC9BB011207ECF8BB61
:100F2300011207EC6EBC011207EC96BC011207EC30
:100F3300CFBC011207ECDDBC011207EC35BD011279
:100F430007EC84BD011207ECC3BD011207ECF3BD2E
:100F5300011207EC1FBE011207EC2ABE011207ECB7
:100F630048BE011207EC0ABF011207EC14BF0112BD
:100F730007EC4FBF011207EC65BF011207EC6EBF10
:100F8300011207ECC3BF011207ECD7BF011207EC34
:100F9300E5C0011207ECF8C0011207EC0DC1011204
:100FA30007ECAFC1011207EC32C2011207ECF0C229
:100FB300011207ECFBC2011207EC21C4011207EC7A
:100FC3003DC4011207EC8FC4011207ECCEC4011219
:100FD30007ECE3C4011207EC25C5011207EC72C745
:100FE300011207ECF0C7011207EC63C8011207EC0A
:100FF30085CA011207EC9DCA011207ECA0CA0112AF
:1010030007ECACCA011207ECC0CA011207ECC8CA4C
:10101300011207ECFBCA011207ECABCB011207EC80
:1010230021CC011207EC94CC011207EC48CD01123C
:1010330007ECFDCD011207EC1CCE011207ECBCCE70
:10104300011207ECC8CE011207ECF3CE011207EC34
:10105300F6CE011207EC60CF011207EC88D0011223
:1010630007EC60D1011207ECEBD1011207EC04D3BA
:10107300011207ECC1D3011207ECFAD3011207ECFA
:101083002BD4011207ECCBD4011207ECFBD40112D1
:1010930007ECD6D5011207EC6FD6011207ECFAD68E
:1010A300011207ECABD7011207EC2DD8011207ECA4
:1010B3005FD8011207ECA0D8011207EC61C6021237
:1010C30007ECC2C6021207ECFFC6021207EC52C7B6
:1010D300021207EC89C9021207EC59CB021207EC82
:1010E300C8CE021207ECFFCE021207EC1DCF02128C
:1010F30007EC93CF021207ECBBCF021207ECECCF45
:10110300021207EC1CD0021207EC78D0021207EC93
:101113002BAF021207ECA9AF021207ECDFAF0212EA
:1011230007EC4BB0021207ECBEB1021207ECDAB1C6
:10113300021207EC1FB2021207ECACB2021207EC68
:1011430005B3021207EC31B4021207EC3FB50212E9
:1011530007EC9CB5021207EC08B6021207EC69B65D
:10116300021207ECAAB6021207EC57B7021207ECF9
:1011730069B8021207ECACB8021207ECFAB8021213
:1011830007EC31B9021207ECD4B9021207EC8FBA9B
:10119300021207EC19BA031207ECDCAF031207ECD7
:1011A300EDAF031207EC3EB0031207EC83B003125A
:1011B30007EC2BB1031207EC5BB8031207EC35AE57
:1011C300031207EC8DAF031207ECC4D0021207EC35
:1011D30073D1021207EC93D1021207ECB3D10212BE
:1011E30007ECC7D1021207EC27D2021207EC57D241
:1011F300021207ECE1D3021207EC8AD4021207ECC5
:101203006CD5021207ECBFD5021207EC03D602120B
:1012130007EC46D6021207ECB1D6021207ECD2D67F
:10122300021207EC55D7021207EC8AD7021207EC19
:10123300FAD7021207EC91D9021207EC67DA02120D
:1012430007ECA9DA021207EC03DB021207ECB5AADA
:10125300031207ECD6AA031207EC0CAC031207EC3B
:1012630036AC031207EC6197031207ECDA9703120B
:1012730007ECE597031207EC0698031207EC16A395
:10128300021207EC19A3021207ECD3A3021207EC14
:10129300FEA3021207EC44A4021207EC69A4021293
:1012A30007EC8AA4021207ECBEA4021207ECF6A410
:1012B300021207EC1FA6021207EC4EA6021207EC5D
:1012C3006EA6021207EC06A7021207ECC9A70212C8
:1012D30007ECFEA7021207EC66A9021207EC09AAA3
:1012E300021207EC01AB021207EC36AB021207EC59
:1012F30096AB021207EC56AC021207EC84AC021256
:1013030007EC0BAE021207EC8CAE021207ECBFAE79
:10131300021207ECC5EB021207ECCFEB021207EC4B
:101323001BEC021207EC89EC021207ECAAEC021286
:1013330007ECC1EC021207EC71ED021207EC7AED37
:10134300021207ECCDED021207ECF6ED021207ECE8
:1013530054EE021207ECE5EE021207EC21EF021243
:1013630007EC6DEF021207EC36A0011207EC65F0F3
:10137300021207ECA4F0021207ECE5F0021207ECEC
:101383001CF1021207EC2EF1021207EC40F10212DB
:1013930007EC5FF1021207EC68F1021207EC20F28E
:1013A300021207EC60F2021207EC4589031207EC04
:1013B3001A8A031207EC348A031207EC458A0312D4
:1013C30007ECBEAA011207EC7D8C031207EC78A68A
:1013D300031207ECAEA6031207ECF9A6031207ECFF
:1013E30047A8031207ECD5D8011207EC20DA011243
:1013F30007EC5CDA011207EC13DC011207EC3CDCAE
:10140300011207ECD4DE011207EC14DF011207EC22
:10141300B5E0011207EC4FE1011207ECB7E101124D
:1014230007EC44E2011207EC7CE2011207ECBCE298
:10143300011207EC4FE4011207ECEEE5011207EC91
:101443003DE8011207EC6BE8011207EC97E8011283
:1014530007ECA0E8011207ECFBE8011207EC91E9A5
:10146300011207ECBAEC011207EC3FED011207EC95
:10147300E97F001207EC84FC021207EC99FC0212CC
:1014830007EC36FD021207EC72FD021207EC89FD30
:10149300021207ECB0FD021207ECF5FD021207EC95
:1014A30026FE021207EC5EFE021207ECE6FF0212B2
:1014B30007EC7ABC031207EC3F7F001207EC757F41
:1014C300001207EC917F001207ECD37F001207ECA8
:1014D300DF7F001207EC06BB021207EC19BC0212F5
:1014E30007EC63BD021207EC25BE021207EC74BEC3
:1014F300021207EC51BF021207EC12C0021207ECF2
:1015030028C0021207ECE2C0021207EC4FC102121C
:1015130007ECF1C1021207EC42C3021207EC99C3B4
:10152300021207EC20C4021207EC60C5021207EC9A
:10153300EEC5021207EC3193021207EC89930212F3
:1015430007EC3B94021207ECDF94021207EC399587
:10155300021207ECB295021207ECC695021207ECD1
:10156300A997021207EC2A98021207EC619802125B
:1015730007EC0D9A021207EC249A021207EC6F9AF9
:10158300021207EC859A021207EC929A021207ECF8
:10159300C69A021207ECDC9A021207EC629B021253
:1015A30007EC6D9B021207ECC69B021207EC209C12
:1015B300021207EC739C021207EC7D9D021207ECEA
:1015C300DB9F021207EC80A0021207ECC2A00212FA
:1015D30007EC4BA1021207EC6DA1021207EC70A1FC
:1015E300021207EC73A1021207EC06A2021207EC27
:1015F3002FA2021207EC42A2021207EC6EA2021201
:1016030007ECA9A2021207ECACA2021207ECBFA2DC
:10161300021207ECE6A2021207ECF5BB031207EC79
:1016230001BC031207EC3DBC031207EC6EE402128B
:1016330007ECBDE4021207EC6CE6021207EC31E89A
:10164300021207EC75E8021207EC62E9021207ECDA
:1016530093EA021207ECB5EA021207EC11EB02124D
:1016630007EC95EB021207EC0080021207EC2B80CB
:10167300021207ECEC80021207EC7281021207ECF3
:10168300DB81021207EC2382021207ECAD82021205
:1016930007EC4283021207ECD583021207EC16848F
:1016A300021207EC7A88021207EC088A021207EC8E
:1016B300418A021207ECEF8A021207ECB08B021286
:1016C30007ECFA8C021207ECF08E021207EC9E8FE5
:1016D300021207ECB990021207EC5B91021207ECBD
:1016E3001E92021207ECA192021207EC9CED01126A
:1016F30007EC58EE011207ECD5EE011207ECE4EE0D
:10170300011207EC6DEF011207ECE5EF011207EC94
:10171300F4F0011207EC1DF1011207ECC5F10112FF
:1017230007EC18F2011207EC84F2011207ECC2F382
:10173300011207EC63F4011207ECCBF4011207EC7E
:1017430061F6011207EC15F7011207ECB2F701126B
:1017530007EC13F8011207EC8DF8011207EC92F96C
:10176300011207EC1AFB011207EC35FC011207EC1E
:10177300CFFC011207EC40FD011207EC1AFE011227
:1017830007ECD99C031207EC299D031207EC859DF6
:10179300031207ECD09D031207EC2B9E031207ECF8
:1017A300D39E031207EC3C9F031207EC499F0312DD
:1017B30007EC22A4031207EC53A4031207EC0DA5B4
:1017C300031207EC73A5031207ECE4A5031207EC5D
:1017D30029A9031207EC4EB9031207EC5FB90312F0
:1017E30007ECFFB9031207EC86AC031207EC94ACC9
:1017F300031207ECDDBD031207EC5FBB031207EC1A
:101803006FBB031207EC8ABB031207ECEBBB03129B
:1018130007EC54B6031207ECD9B6031207EC3FB733
:10182300031207ECB3B2031207ECD2B2031207ECB4
:1018330028B3031207EC3DB3031207EC8BB3031277
:1018430007ECE9B3031207EC6F94031207EC8494DB
:10185300031207ECA695031207EC0996031207EC93
:101863002196031207EC4896031207EC5C960312C9
:1018730007EC7596031207EC9496031207ECB896DF
:10188300031207ECDB96031207EC2C97031207EC09
:10189300B57B001207ECC37B001207EC3D7C001202
:1018A30007EC217D001207ECDA7E001207ECD6FF6D
:1018B300011207EC89F2021207ECF6F2021207ECAE
:1018C300B7F3021207EC27F4021207EC32F5021207
:1018D30007ECB3F6021207EC17F7021207EC6CF7EA
:1018E300021207EC75F7021207EC84F7021207ECF9
:1018F30097F7021207ECADF7021207ECB6F70212E4
:1019030007ECC9F7021207EC1EF8021207EC1AFAE9
:10191300021207EC4CFA021207EC6EFA021207EC01
:1019230087FA021207ECA0FA021207ECAAFB0212D2
:1019330007EC45FC021207EC48B1031207EC6CB14B
:10194300031207EC85B1031207ECC4B1031207ECD1
:10195300F7B1031207EC27B2031207EC8FB203129D
:1019630007EC92B2031207EC9CB2031207ECA9B284
:10197300031207EC329A031207EC5A9A031207EC8C
:101983009B9A031207ECAD9A031207ECC89A031251
:1019930007EC309B031207EC3C9B031207EC9B9B69
:1019A300031207ECBF9B031207EC809C031207ECA6
:1019B3008D9C031207EC9E9C031207EC57BD031288
:1019C30007EC74BD031207EC4480031207ECA481F7
:1019D300031207ECAA81031207ECC181031207EC7F
:1019E300E281031207ECF881031207EC0C82031265
:1019F30007EC8B82031207ECF082031207EC868359
:101A0300031207EC5F84031207EC6F84031207ECE5
:101A13007E84031207ECC6BA031207ECEABA031278
:101A230007EC12BB031207EC3ABB031207EC589FF7
:101A3300031207EC7F9F031207ECA09F031207EC2E
:101A430012A0031207ECC4A1031207ECDDA10312D9
:101A530007ECF4A1031207ECFDA1031207EC1BA290
:101A6300031207EC25A2031207EC2FA2031207ECC3
:101A730042A2031207EC97A2031207ECD0A20312AF
:101A830007ECFEA2031207EC4FA3031207EC9BA380
:101A9300031207ECB6A3031207ECC0A3031207EC6F
:101AA300D1A3031207EC17A4031207EC85FF01125D
:101AB30007EC17DB021207EC43DB021207EC61DBD6
:101AC300021207EC74DB021207EC8FDB021207EC45
:101AD300EEDB021207EC1CDC021207EC2BE0021215
:101AE30007EC70E1021207ECA2E1021207EC0EE22E
:101AF300021207EC57E3021207EC7FE3021207EC32
:101B030094E3021207ECA4E3021207ECE4E30212EB
:101B130007EC30E4021207EC40E4021207EC09B4CC
:101B2300031207EC19B4031207EC37B4031207ECE2
:101B330052B4031207EC79B4031207EC9AB40312FC
:101B430007ECB4B4031207ECECB4031207EC0FB5C3
:101B5300031207EC13BD031207ECD68D031207EC37
:101B6300DD8D031207ECFA8E031207EC2A8F0312A2
:101B730007EC508F031207EC838F031207EC958F4A
:101B8300031207ECD18F031207EC3790031207EC13
:101B93007390031207ECBA90031207ECE790031259
:101BA30007EC0891031207EC58B7031207EC6AB766
:101BB300031207EC55B8031207EC58B8031207ECED
:101BC30041B5031207ECB3B5031207ECF1B50312E9
:101BD30007EC32B6031207EC5D91031207EC79911F
:101BE300031207ECC891031207ECE491031207EC0C
:101BF3001592031207EC2592031207EC0D930312BF
:101C030007EC1793031207EC2493031207EC3794A2
:101C1300031207EC4B94031207EC5494031207ECE2
:101C2300AF84031207ECD688031207ECDB88031298
:101C330007EC93BD031207ECBFBD031207ECF19D44
:101C4300011207EC789D011207EC1F9D011207ECAE
:101C5300B39C011207EC8A9C011207EC7D9A0112D6
:101C630007EC499A011207EC169A011207ECFA994C
:101C7300011207EC2099011207ECD898011207EC26
:101C83000D97011207EC8D96011207EC8A9601124B
:101C930007EC9595011207EC6395011207ECA094EC
:101CA300011207ECCB92011207EC5C92011207ECD4
:101CB3002E92011207EC2B92011207EC18920112DB
:101CC30007EC4FAA011207EC07AA011207EC6AA955
:101CD300011207EC5DA9011207EC6BA6011207ECD8
:101CE300B091011207EC9F91011207EC8090011251
:101CF30007EC4A90011207ECBDA3011207EC0D900B
:101D0300011207ECAE8F011207EC7D8F011207EC75
:101D1300388C011207EC91A2011207EC5E8C0312BE
:101D230007EC298B011207ECB88A011207EC7D8AB4
:101D3300011207EC488A011207EC3C8A011207ECF6
:101D43009C89011207ECE388011207ECB6860112A5
:101D530007EC4284011207EC0084011207ECCB82EA
:101D6300011207EC8082011207ECB281011207EC29
:101D73000981011207ECA580011207ECDF80011233
:101D830007ECE5A1011207ECDFEF0200000080FB86
:101D9300E473000136360101000102010001030171
:101DA30000010401060605020000070100340801D2
:101DB300000F090401010D0100FF0E0800001702C6
:101DC3000000190100FF1A0100011B0100FE1C01A4
:101DD30000081D0200001F01000120010001210273
:101DE30000002301000F2402000026010001270147
:101DF3000008280200FF2A0100072B0102402C01E2
:101E030000002D0100012E0100012F0100FF300110
:101E13000B1C310800003A0100083B01000F2F01A1
:101E230000000101710101010101110101013101F1
:101E3300010101018001100161013B0014006301F4
:101E430073017201620143010001130106013D01A7
:101E53003500040112010001000100010001040129
:101E63000401330133013C01440132013600000116
:101E730000016501000135008101000105018201B6
:101E83008301000103007100300160001100700044
:101E93003102200350048000100061000000140090
:101EA3006300730072006200430000001300060029
:101EB3000000000004001200000000000000000009
:101EC30004000400370037003C0244000000000017
:101ED30000000000650000003500810000000500DF
:101EE30000008300000001037103010301030103E8
:101EF3000103010322030203010310030003000390
:101F03000003000300030003000342030003240350
:101F1300060300030003040312032503230325031D
:101F23002303040304030003000300034403000327
:101F3300000323030003650321003503810300032A
:101F43000503000300030003030271023001600272
:101F530011027002010202020202800210026102F7
:101F63003A004100630273027202620243020002FA
:101F730013023800000200020402120200020002EF
:101F83000002000204020402370037003C0244024C
:101F930000023900000200026502000235028102DC
:101FA30000020502820283020002360001000600DD
:101FB30000000F000000000000000000000000000F
:101FC30003FFFF00000403FFFF0000FFFF0FF40106
:101FD3000005C4040320000100000B000000000002
:101FE30000000003010F000028171300C2160100B0
:101FF3002817020080160300861604008C160500BD
:10200300921606009E161100B6161400BC16150093
:10201300B016FFFF00000C0F3C0F120F180F360F06
:102023002A0F240F420F480F4E0F5A0F1E0F060F91
:10203300000F03EAF5E5D5D5C5B5A5959585857555
:1020430075656555554545353525251515050AC667
:102053000C028A0C059C0C07900C0C6C0C0D7E0C6E
:10206300FF000000160F00000B150B020002220FE9
:1020730032000006F60F08100E10D60E1410D00E04
:10208300DC0E561074107A105C10681062100C0E7F
:10209300020B040B0A0708000F00383C3E363B3B9B
:1020A300352B432C000119161816161523030000AF
:1020B300034948424D1817250502303017181921D6
:1020C300301B1D1F30303016181920231A1C1E30E8
:1020D3004A101A1020102C102610300F540F6E10B7
:1020E300600F660F020402010101010902000000F2
:1020F30000000000BE040AE803040015000E0028D7
:1021030000040C0A030908FF1E1E0F040C0574F7D4
:10211300120368E99003B0F0900365E4F0121BA882
:102123009003C4E4F0A3F09003B1F0A3F0120E0AFD
:10213300121BAE900334E4F0A3F090210D93FA79CF
:1021430002121C0E024ED774F2120368EAFEEBFF72
:10215300548060699003B0E0F91213508A088B0928
:10216300EA4509604F7C0080010CEC75F003A4F88C
:10217300A9F0745128F582742039F583E493F4604F
:102183002CE493F88508828B83E06870DCAA08EC62
:1021930075F003A4F8745228F582742039F583E4AA
:1021A30093C0E0740193F583D082121D93AA08AB08
:1021B30009121344EEFAEF6480FB022317EF542055
:1021C300601D120D208A088B09EA4509600A120C6A
:1021D3007EAA08AB09121344EEFAEF642080DAEE0C
:1021E300A2E0501A90036AE0640F700B7900120C9E
:1021F30048E9600312231AEE6401FAEF80BB54200E
:1022030070030222E5750C001238BE8B09EA4509FA
:1022130070107C027D007A207B009003B0E0F912FD
:1022230014947C0079047A007B00120CFC8A088BDE
:10223300098018850882850983A3A3A3A3A3A3A365
:10224300A3A37401F0850A08850B09E50845096015
:102253006D7C007904AA08AB09120CFC8A0A8B0B6B
:10226300750C01E5082404F8E50912366224FFF031
:10227300A3E034FF125AC370CC850882850983A377
:10228300A3A3A3A3A3A3A3A3A3E0640170A58508A9
:1022930082850983A3A3A3A3A3A3E0540470948515
:1022A3000882850983A3A3A3A3A3A3A3A3A374065B
:1022B300F07AB78508828509831224468087120C39
:1022C300CC7C0079017A007B00120CFC8B09EA4577
:1022D300097009E50C70057A20124821EE6420028A
:1022E30021FDEF5402600B120E04EEFAEF640202BA
:1022F30021BCEF54046019124A0D12492D79019043
:102303000363124C91120B8EEEFAEF64040221BCAC
:102313007A007B0002254D900D96122BE4120C607F
:1023230022C082C08374EA1208CC8518828519837F
:10233300AA82AB83794B121BE47408120A8B7402D2
:10234300F07409120A8BAA82AB837950121BE474CE
:1023530013120A8BE4124E60121C027416023DDF44
:1023630074F712036874E11208CCEAFEEBFFEE4F38
:102373006033851882851983AC82AD83120D447452
:1023830006120A8BE0601E7417120A8BE0FD7401BB
:10239300120A8BE0FCEEFAEFFB7900120AB0E96057
:1023A3000479A480027900024ED274F6120368EA1B
:1023B300FEEBFF8E828F83A3A3A3A3A3A3E05440CA
:1023C300601B12542D12251460067AFF7BFF801ABE
:1023D3008E828F83123A6BFAA3E0FB8003120D689F
:1023E30074FE6A700374FF6B604112542D124865CA
:1023F300120DC2E98E828F83600612243FE48005AA
:1024030012243F7401F07C4E7D0C8E828F83124C1C
:1024130091121C08E9F5087015EE4F60097901EE79
:10242300FAEFFB120CD8A9080248967508CDAA0842
:102433008E828F83122446E960DF80EAE0240D1246
:102443003F3A22E0240C123F3AE0F9120C5A22746C
:10245300F6120368E9FEEAFF7A0F7B0012133EEAE5
:102463004B60198A828B83740CF0EEA3A3F0EF8A7E
:10247300828B83A3F01249167900802FEEF9120D97
:10248300028A088B09A808A909E849601C8882897F
:1024930083A3A3A3A3A3A3A3A3A374061256C6E073
:1024A300F9120C12EEF9120CDE7910024896C08272
:1024B300C08390036AE0640F7014EA4B60109003CA
:1024C30065E064086005E0640470031224D4023EEE
:1024D30009EAFCEBFD7A017B009003B0E0F91214EA
:1024E3008E22C082C0837900EA241DF582EB123A62
:1024F3006824FD600B14600824FD600424FD700152
:1025030009023E098E828F83A3A3A3A3A3A3A3A33C
:10251300A312251822123AB0FB120DC2E9228E82B1
:102523008F83A3A3A3A3A3A3A3A3A3122518640226
:10253300228E828F83A3A3A3A3A3A3A3A3A3123E49
:1025430000900356E068221208377F060205C7741D
:10255300F412036874FD1208CC8A088B098A828BF3
:1025630083A3A3E0F9120D028A0A8B0BAE0AAF0B09
:10257300EE4F7003022659850882850983A3E06420
:10258300F16030850882850983A3E064CD602485EA
:102593000882850983A3E0641A6018850882850987
:1025A30083A3E064E9600C850882850983A3E06462
:1025B300E170087900120CD8E9706C8508828509EE
:1025C30083A3E0C0E07402120A8BD0E0123DE4EE74
:1025D300F0A3EF12303A851882851983AA82AB8360
:1025E3007005120B768003120DAA7402120A8BE097
:1025F30064E970338E828F83122665750A01780A27
:10260300120828750AE9780A120828E508240CF547
:1026130082E509122B2C123017FCA3E0FD8A828B72
:10262300831230311208378E828F83A3A3A3A3A30F
:10263300A3A3A3A3E0640270108E828F83A3A3A33A
:10264300A3A3A3A3A3A37406F0850882850983A388
:10265300A3E0F9120CDE120CCC900D9A12231D028A
:102663002BE9E0F8A3E0F9E8FAE9FB2274F412039A
:1026730068EAFEEBFF7508008E828F83A3A3A3A3F2
:10268300A3E060427508088E828F83A3A3A3A3A34C
:10269300A3A3A3123D138B0BEA450B601075082C03
:1026A3008E828F83A3A3A3A3A3E0D2E0F08E828FB5
:1026B30083A3A3A3A3A3E0540364016003022758E5
:1026C300430811022758EE2418122BF66033EE2428
:1026D3001A122BF6700F1225347003A3E06970757C
:1026E3007508228070EE241BF582EF12275D241AF1
:1026F300F582EF123042EE2419125461120C00805D
:102703005412252170037508011225347003A3E0C8
:10271300697006E508D2E1F508E50860158E828F39
:1027230083A3A3E07006E508D2E58004E508D2E6BA
:10273300F50812250764017006E508D2E0F5088E56
:10274300828F83A3A3E0600D12276B64016006E50B
:1027530008C2E0F508A908022BEE123A56122764C4
:1027630022E0FCA3E0FDEE22123A50123A88F9125D
:102773000DB0E922C082C08379018A828B83A3A32F
:10278300E0C394024001198A828B83A3A3A3A3E02D
:10279300C39402400279008A828B83A3A3A3A3A3D9
:1027A300A3A3A3A3E064F87003A3E0F460458A82C3
:1027B3008B83A3A3A3A3A3A3A3A3A3E064F970039D
:1027C300A3E0F4602E8A828B83A3A3A3A3A3A3A372
:1027D300A3A3E064FA7003A3E0F460178A828B83F7
:1027E300A3A3A3A3A3A3A3A3A3E064FB7003A3E0F6
:1027F300F4700279008A828B83A3A3A3E0F8900389
:1028030053E06860027900023E0974F012036874B1
:10281300DE1208CCEAFEEBFF8E828F83A3A3A3A371
:10282300E0600E900D9812488D6006900D9812236B
:102833001D7403120A8BAC82AD838E828F83A3A394
:10284300A312496412519DE9600F7403120A8BAA03
:1028530082AB83120C78E970087901121BBA022B40
:1028630021EE241B123A5B7410120A8B12492D7449
:1028730009120A8BE06021741A120A8BE0FD7404BA
:10288300120A8BE0FC8E828F83124C8F7901120A1D
:10289300B0E96004790280C37403120A8BAA82AB85
:1028A30083120C72E9F50A7409120A8BE0702A90FC
:1028B300034DE060247422550A6422601C7442555F
:1028C3000A644270CF7420120A8B122B3F600A7481
:1028D30020120A8B122B3870BBE9A2E65041740315
:1028E300120A8BAA82AB83120C66E9700302285C7E
:1028F3007420120A8B123A6B6403700F7420120A4D
:102903008BA312487FA3E0640D60147403120A8B37
:10291300AA82AB83120DD4E964017003022B21EE6A
:10292300242C122B29122E4D7003A3E069701C7501
:10293300080078081208287808120828EE242E12B6
:102943005461122B451230311208377409120A8B65
:10295300E070030229FE122B45124C91120E2E8AAF
:10296300088B09EA45097003022A9B7404120A8B37
:10297300E0F88E828F83A3A3E028F8A3E03400F964
:10298300E8240D122B308A828B83A3A3A3E0686013
:102993001CE88A828B83A3A3A3F090808A120A681F
:1029A300850882850983A3A3A3A3120A747904E982
:1029B300120A8B12517A2AF8A3E034008882F58335
:1029C300A3AA82AB831213328A0C8B0D8C0E8D0F4C
:1029D300850882850983A3A3A3A3780C1207A540C6
:1029E30003022B21908082780C12096E8508828560
:1029F3000983A3A3A3A3780C120A4C900365E06494
:102A0300046008E064096003022B21E50AA2E540A3
:102A130003022AD9EE242E122BF6851882851983F8
:102A2300F0EE242F122BF6C0E07401120A8BD0E0D3
:102A3300F0EE2430122BF6C0E07402120A8BD0E0C1
:102A4300F07414120A8BE064017027740E120A8B5F
:102A5300123A61EE2412122BF6687003A3E0697038
:102A630011740C120A8B12252E70077414120A8B20
:102A7300E4F0EE2424122B2912064C7404120A8B60
:102A8300AC82AD837407120A8BAA82AB83120B7CD0
:102A93007404120837022B219003AAE06401600337
:102AA3000229FE7420120A8B122B3F7009E50AA239
:102AB300E650030229FE7410120A8BE0F47003A39C
:102AC300E0F4605AEEFCEFFD7403120A8BAA82ABAA
:102AD30083120C848048A2E650447420120A8B129D
:102AE3004CA0701A741A120A8BE0640270307403DB
:102AF300120A8BAA82AB837900120D9E8020742068
:102B0300120A8B122B387016741A120A8BE06404A3
:102B1300700C7403120A8BAA82AB83120D98742271
:102B230002504CEE240BF582EF123A5622F582E95D
:102B3300124946F82212543FE0640722123A88648D
:102B43000622EE242A123A531227642412123A530D
:102B53002274F4120368EAFEEBFF8C088D099006D9
:102B630075E0600F1225347003A3E0697005120B42
:102B7300EE804F7900124C84120C1E8A828B83E5FF
:102B83008245836035A3A3A3A3A3A3E05418602ABB
:102B9300E508241BF582E509122B2C12065012328C
:102BA300FC122B2C120650EE2418125461122BC760
:102BB300120C30740412083780087900122BC712E4
:102BC3000BF480278E828F83A3A3A3A3A3A3A3A322
:102BD300A3122764240BF582EF122BE0223400F5B5
:102BE30083123AB0FB2274031208377F040205C72D
:102BF300EE2417F582EF1249462274F71203687424
:102C0300F71208CCEAFEEBFF900365E06403600D66
:102C1300E064016008E064096003022CC78E828FC0
:102C230083A3E0707E7C007D007A027B00121BB4DC
:102C3300EE2402FAEF123669123A619003561249F2
:102C43002D7953121BEA7900122CCCE0640960033E
:102C530012305F85188285198374011248AE900380
:102C6300657404F07401120A8BAA82AB83794A1249
:102C73001BE47401120A8BAC82AD837A5B7B031273
:102C83001BD29003561251937A031230699003506A
:102C9300E0A2E35004D2F08002C2F012489B122358
:102CA3001A801E8E828F83A3AE82AF83FC7D007A4F
:102CB300037B10121BB48E828F83E0F9122CCCE4B9
:102CC300F0120CAE7409024ED4900363122BE4127B
:102CD3000B8E90036522C082C08390033412488D0B
:102CE300701F900365E014600924FC600A14600CF3
:102CF300800F90033C8032900338802D90033A80FC
:102D030028E8496008900335123011700C8A828BD1
:102D130083A3E0F9120B82801B9003351233987062
:102D230005120DF8800E9003E112488D60061248DB
:102D33007F121D93023E0974F412036874FB120898
:102D4300CC8A088B097A0F7B0012133E8A0A8B0BFD
:102D5300AE0AAF0BEE4F7003022E418E828F8312A9
:102D63004E5E7950121BE4850882850983A3E060D7
:102D730003022E29900363E0F47003A3E0F46034AC
:102D8300900363E064FE7003A3E0F4602785188278
:102D9300851983122E4D7003A3E06960178508829D
:102DA300850983A374EA1230477A637B037950124F
:102DB3001BEA807285188285198312542012492DCB
:102DC3007A567B037953121BE490035612495E1221
:102DD300492D7A597B03794B121BE47A587B03798B
:102DE300E1121BE490036AE0C3940F50219003584F
:102DF300E0C0E07402120A8BD0E0F07404120A8B74
:102E03007401F004120A8BAA82AB83121BFC750AAD
:102E130000780A120828780A120828900DBCE0F9F5
:102E2300123028120837850882850983122E46A39B
:102E3300F09003657403F0EEFAEFFB124916740584
:102E4300022BEBA3E08E828F8322125424E06822AC
:102E5300123F412274F512036874D81208CC8A0811
:102E63008B098A828B83A3A3A3123A8D7415120A4A
:102E73008BAC82AD838A828B83A3A3A3A3A3A3A3D7
:102E8300A3123017FAA3E0FB120CBA7415120A8BC3
:102E9300E0706B850882850983A3A3A3A3A3A3A3DF
:102EA300A3E0C3940B40578E828F83A3A3A3A3A352
:102EB300A3A3A3E064027046EE240B122BF6F47076
:102EC3003D900365E06402603AE064066035900378
:102ED3003412488D6005123011604F900365E06431
:102EE300086005E0640470167417120A8BE0F97425
:102EF3001C120A8BAC82AD83124C84120CC0742852
:102F030002594C90033412488D701F7508007808DD
:102F13001208287808120828EE2410122B291254BC
:102F2300791237511230311208378E828F83124C47
:102F33000012367B123A617402120A8B12492DEE8B
:102F4300240D122BF6C0E07404120A8BD0E0123069
:102F53003AF508A3E0F509740F7808120A3D7405E1
:102F6300120A8BE508F07419120A8BE0C0E07406AC
:102F7300120A8BD0E0F0741B120A8BE0C0E07407D6
:102F8300120A8BD0E0F07416120A8BE0C0E07409C9
:102F9300120A8BD0E0F07417120A8BE0C0E07408B9
:102FA300120A8BD0E0F0EE2410122BF6C0E0740A64
:102FB300120A8BD0E0F0741A120A8BE0C0E0740B93
:102FC300120A8BD0E0F07427120A8BE0C0E0740C75
:102FD300120A8BD0E0F0741C120A8BA982AA83898F
:102FE300088A09750A0078081208207C087D007495
:102FF30010120A8BAA82AB8312443C12083785183D
:1030030082851983AA82AB83120B88022F011233A4
:103013009E640122E0F98A828B83A3A3A3A3A3A3C3
:10302300A3A3A3E022900363125197900359122B99
:10303300E4120D7A740222F0EE240B124943221299
:103043004946FA22F07A567B037953123052221200
:103053001BEA7A597B03794B121BEA229003631212
:103063002BE4120E28227B00121BB4900359125139
:10307300977A047B00121BB422F01254842274F258
:1030830012036874F81208CCEAFEEBFF8C0A8D0B6E
:10309300890C851882851983AC82AD83758380750D
:1030A30082467408120765F50DEEFCEFFD85188264
:1030B300851983AA82AB83124B617003750D01904E
:1030C30003B1803BEEFCEFFDE508240BFAE5093480
:1030D30000124B60601E850882850983A3A3E06507
:1030E3000C7011850882850983E0650A7004A3E0EA
:1030F300650B6038E5082414F582E509122B2C12C0
:103103003673E50845096024E50DA2E040B685085D
:1031130082850983E0650A7004A3E0650B70D58599
:103123000882850983A3A3E0650C70C8AA08AB09CC
:10313300740802254AC082C0839003B1023E06741C
:10314300F71203689003B1123AB08012EA2414F51F
:1031530082EB122B2C123A8D1213E0EEFAEFFBEAFC
:103163004B70E99003B1E4F0A3F0024ED774F1126F
:1031730003688A088B09ECFEEDFF890A8A828B8338
:103183001250408A828B83122E4612322E8A828BF1
:1031930083A3A3E0C454F0FA88828983E04A1232FD
:1031A3003E122E46123238E0333354FCF88E828FAF
:1031B30083E048123238A3E033333354F8F88E8275
:1031C3008F83E04812322E8508828B83A3A3A3A3A7
:1031D300A3A3E0A2E0E4331313FA88828983E04ACD
:1031E300F0E5082407F50CEB1244421208207C0892
:1031F300124436120837125171E508240FF50CE515
:10320300093400F50D780C1208207C0312443612A1
:103213000837E50AC3940F400D1232FC122B2C120F
:103223002E47A3A3A3F07F070205C7F0EEF8EFF93B
:10323300A30EAF832212323EA3A322F08508828B12
:1032430083A3A32274F1120368EAFEEBFF890A8CBD
:10325300088D098E828F83E08C828D83123D1DAE93
:1032630082AF83E01244FC12446DC41244FC123357
:1032730005E054038C828D8312446BA2E2E4338C09
:10328300828D8312446A131313541F1244FC124495
:1032930069A2E7E4338C828D83A3A3A3A31233052E
:1032A3008E0C8F0D750E00780C1208207C087D00A3
:1032B300E50824071251061208371251718E0C8F3C
:1032C3000D780C1208207C037D00E508240F1251B1
:1032D30006120837E50AC3940F40148E828F83A326
:1032E300A3A3E0C0E01232FC122B2CD0E080061224
:1032F30032FC1256BAF0023229E5082412F582E5AF
:103303000922A3A3123D210EAF832274F412036892
:1033130074F91208CCEAFEEBFF89089003341248D3
:103323008D600E1233987009EEFAEFFB120DF280E6
:103333005F900363E06E7003A3E06F7053740165E5
:103343000860097A777B03124B6170447A007B0231
:103353001238C28B0BEA450B7036900366120A686B
:10336300851882851983120A7490036CE0C0E07497
:1033730004120A8BD0E0F07405120A8B7401F07406
:1033830006120A8B124E5E120B4CE9609B120B5213
:103393007407022BEB12339E640222125440A3A340
:1033A300A3A3A3A3E02274F51203688A088B098AF6
:1033B300828B83A3AE82AF83E0F9120BA68E828F3A
:1033C30083E064EB600C850882850983A3E064E1F4
:1033D3007009850882850983A3E4F012231A750A0C
:1033E30001780A120828850882850983A3E0F50875
:1033F30078081208287900123028120837120CCCEA
:1034030002594FEAF0A3EBF0023E0974F612036887
:103413009003C3E0701B7C0079017A007B00120CDF
:10342300FCEA4B600C8A828B8312488D6003120C7A
:1034330054024896C082C0831238AA401079FF1202
:103443000CF6E9F8902105E493C3985004790180C0
:10345300027900023E0974F01203688A088B098915
:103463000B750C008A828B83A3A3A3A3A3A3A3A39B
:10347300E0F9120D028A0E8B0FAE0EAF0F750A0123
:10348300EE4F6003023537850882850983A3A3A322
:10349300A3A3A3125193850882850983A3A3A3A39E
:1034A300A3A3A3124236124C91120CEA8A0C8B0D81
:1034B300AE0CAF0DEE4F700302365A8E828F83A38C
:1034C300A3A3A3E4F0A3F0E508240B123666E0C03F
:1034D300E0122B26D0E0F0120DC8EE240CF582EF9B
:1034E300124861E508240EF582E509123A5EEE24DE
:1034F3000EF582EF12492A750C01EE2406F8EF123D
:103503003662547FF0A3E054FC1254D6E0540460B6
:10351300030235BD900D9E124227740778081209E5
:10352300488E828F83A3A3A3A3A3A3E04508F0A39C
:10353300E04509F08E828F83A3A3A3A3123671748F
:10354300077808120A3DE5085407F508E50B607A89
:103553008E828F83A3A3A3A3A3A3A3A3A374021203
:10356300446E240D123F36E0A2E2500B9003511239
:10357300495EA3A312492DE508700302362FEE24FA
:1035830006F8EF3400F9E8FAE9FB8A828B83E0540A
:103593007FFCA3E054FCFDE50824FFF508E434FFB9
:1035A300F50974077808120948EC4508F8ED450950
:1035B300F98A828B8312492D80728E828F83A3A313
:1035C300A3A3A3A3E04480023536E5087005750A7A
:1035D3000080598E828F83A3A3A3A3A3A3E05420C7
:1035E3006012121338EA547F245F8E828F83A3A361
:1035F300A3A380238E828F83A3A3A3A3A3A3E054B7
:1036030010600A121338EA540F240A80DD8E828F69
:1036130083A3A3A3A37401F0A3E412367B7404125F
:1036230038B98B09EA45097003124854E50CA2E046
:1036330050288E828F83A3A3A3A3124EC4F9EEFA5C
:10364300EFFB120CF0E960121248836003123A4652
:10365300EEFAEFFB1213E0750A00A90A02504F12AB
:103663004A2122FAE5093400FB8A828B8322A3A331
:10367300E0F508A3E0F5092212367F22125122A3B6
:10368300A3A3A3A32274F412036874F71208CC7ED5
:1036930000120D02EA4B700302374A8A828B83A31E
:1036A300A3A3A3A3A3A3A3A3E06406600302374ACF
:1036B3008A828B83A3A3A3A3A3A3A3E0FF8A828B02
:1036C30083123F49E0C0E07408120A8BD0E0123A3B
:1036D30081124B6712492D120D14EF540860668551
:1036E30018828519831251937A007B00120CE48BA4
:1036F3000BEA450B704F900363123B71121C147C51
:10370300007D007A007B0080288E828F83123A6BC3
:10371300F47003A3E0F4602D900363123751124C4D
:1037230091121908E9641A601C7C007D00EEFAEF1F
:10373300FB120CE48A0A8B0BAE0AAF0BEE4F70C977
:103743007900121C1A7E01EEF97409022BEB123771
:103753005522E0FCA3E0FD8E828F8322C082C083CA
:10376300EA4B70059003C480068A828B83A3A3125D
:10377300397160258A828B83A3A3A3A3A3A3A3E0A8
:10378300540860E5EC4D60158A828B83123A6B6CAA
:103793007003A3E06D70D280047A007B00023E09BF
:1037A30074F2120368EAFEEBFF890A8C088D097A2A
:1037B300107B001213DAEA4B603F8A828B83A3A348
:1037C300A3A3A3A3A3A3A3E4123A6FA3E50A1254EA
:1037D30046A31238068A828B83A3A3A3A3E4F0A390
:1037E300123A7BA3F01252DAEA240CF582EB123D73
:1037F3000D1237FFA3A3F0A3F002254DA3F08A8295
:103803008B8322A3A3E508F0A3E509F02274F41245
:103813000368EAFEEBFF89088C0A8D0BEE4F6055B7
:103823007401650870147901120CF6E9F890210906
:10383300E493C398500F7911806A74046508702F5C
:103843001238AA40F18E828F83A3A3A3A3A3A3A3B9
:10385300A3A3E508123D1DA31259D98E828F83A31A
:10386300A3E4F0A3F09003C412488D6021800D748B
:1038730002650860D079C1802BE0F8A3124957A3F1
:10388300A312397188828983A3A370ED8003900307
:10389300C4EEF0A3EF1238B98B0BEA450B70031299
:1038A30048547900022BEE7904120CF6E9F89021C2
:1038B30010E493C39822F01238BE227A207B009042
:1038C30003B0E0F91214A022C082C083E9F87900A2
:1038D3009003C4801D8A828B83A3A3A3A3A3A3A362
:1038E300A3A3E068600574FF687001098A828B8373
:1038F300A3A312397170DE023E0974F7120368EA5A
:103903004B70059003C480068A828B83A3A312396C
:103913007160248A828B83A3A3A3A3A3A3A3A3A3DA
:10392300E06970E4EC60148A828B83E0240D125109
:1039330084A2E240D380047A007B00024ED7C08287
:10394300C0839003C480068A828B83A3A312397138
:1039530060128A828B83A3A3A3A3A3A3A3A3E06977
:1039630070E580047A007B00023E093BF583122B4D
:10397300E4EA4B2274F21203688A0A8B0B8C0C8DD7
:103983000D750800750900EA450B602E9003C4808D
:10399300068E828F83A3A31239C4601EAC0CAD0DB7
:1039A300EEFAEFFB850A82850B83121D93E964010E
:1039B30070DFEEF8EFF988088909AA08AB09022538
:1039C3004DE0FEA3E0FFEE4F2274F712036890036D
:1039D300C4123A617C007D00800DE8FCE9FD888219
:1039E3008983A3A3123A61E8496030EA687002EB65
:1039F3006970E79003C4124C91E86A7002E96B881E
:103A0300828983A3A37008123A619003C4800912C8
:103A13003A618C828D83A3A312492D024ED774F78A
:103A2300120368EAFEEBFFEE4F6015120D0E123A19
:103A3300931248836003123A46EEFAEFFB1213E047
:103A4300024ED7EE240C123A53123AA822EE241D4A
:103A5300F582EF3400F58322F582EF123A56123ED7
:103A63000022F582EF123A56123A8822123A732252
:103A730012544EA3A3A3A322123A73A3A322123870
:103A830000123A8822125439E022E0FEA3E0FF221A
:103A93008E828F83E0241C123F3A123AA88E828FC3
:103AA30083123AA822123AB0FB1213E022E0FAA3DF
:103AB300E022C082C083EAFCEBFDEC4D7004790583
:103AC3008044EC24FBF582ED34FF12488B7007121F
:103AD3003B0CE0F4600512134480E39003B0E0C0B4
:103AE300E0123B0CD0E0F0902106E493F97AC67B18
:103AF3000312136EE96401700B7A007B201248589D
:103B0300790080027904023E09EC24FFF582ED344A
:103B1300FFF5832274F4120368A2AFE433F508C2FD
:103B2300AF9003C61239C46038EE24FBF582EF343C
:103B3300FF12488B7A007B209003B0600512485B2C
:103B43008005E0F912137AE4F50AF50B780A1208F6
:103B530024EEFCEFFD7AC67B03121D887402120863
:103B630037E508A2E092AFEEFAEFFB022BEE12511B
:103B730097851882851983AA82AB832274F2120374
:103B83006874FC1208CCEAFEEBFF750AFE750BFFA6
:103B9300120CD2E960057911023D02EE2415122BB5
:103BA300F66037900DB2E0C43354E0F8E033335499
:103BB300FC48C0E0EE2415122B29D0E0123D1D1263
:103BC3003D138B09EA45096011750AFFEE240F12B4
:103BD3002BF6440412493BD2E0F08E828F831225E8
:103BE300126006EE2412123D0AEE2413122BF67015
:103BF3001090210CE493C0E0EE2413122B29D0E0A3
:103C0300F08E828F83E0A2E750045403801CEE24DD
:103C130014122BF67015900342E0C0E0EE24141248
:103C23002B29D0E0F0900342E004F0EE2411122B94
:103C3300F66401701690066CE0600D90034DE07021
:103C43000A8E828F83E07003123D078E828F83E09A
:103C530064017013EE240B123A6564027009EE24BA
:103C63000F122BF64440F0851882851983AC82AD80
:103C730083EEFAEFFB120D388A088B0974FE650A8E
:103C8300700374FFF470098E828F83A3A312511201
:103C9300EA450960668E828F83E0C0E07401120AF0
:103CA3008BD0E0F07402120A8B1252DE7401120AF6
:103CB3008B85820C85830D780C120824EE240F1259
:103CC3002B29120650EE240E122BF6F50C780C124B
:103CD30008289003561206507407120A8BE0F9ACB9
:103CE3000AAD0B120D327407120837E9FE74106E19
:103CF300700BAA08AB091213E080027E10EEF97470
:103D03000402254AEE2411F582EF123A56E4F0221A
:103D1300A3122BE479FF121CC822123D2122F08E3C
:103D2300828F83A322C082C08374DE1208CC8A826E
:103D33008B83A3A3A3A3123A61740E120A8BE8F038
:103D4300A3E9123DF7740C120A8B123DF0240DF512
:103D530082EB122BF9C0E0741A120A8BD0E0F01236
:103D6300505FEB123A5E7420120A8B123DF0241559
:103D7300F582EB122BF9C0E07408120A8BD0E0F045
:103D8300EA241CF582EB123A5E7412120A8B123D7E
:103D9300F02411F582EB122BF9C0E07409120A8B9F
:103DA300D0E0123DE474FFF07401120A8B74FFF04B
:103DB3007402120A8B74FFF090808A12064C74040A
:103DC300120A8BAC82AD837407120A8BAA82AB836F
:103DD300120B7C740412083779007422120837809E
:103DE30025123DE822F085188285198322E8F0A385
:103DF300E9F0EA22123800A3123DFF22A3E0F8A360
:103E0300E0F922124C91D083D0820207E974EC12BC
:103E1300036874EE1208CC8A128B13ECFEEDFF8953
:103E2300097426120A8B1251127428120A8BE0F5B8
:103E3300107429120A8B123F2B742B120A8BE0F594
:103E43000EA3E0F50F7508107A1E7B001213DA74C7
:103E530002120A8B1248657402120A8B12488D7083
:103E630003023F24851882851983AA82AB83795084
:103E7300124740124C917402120A8B123F49A3124B
:103E830048657410120A8B1259DB7402120A8BE014
:103E9300240B123F367402F0120A8B123F4974024C
:103EA300F0120A8B1254311252DE7402120A8B1270
:103EB3004CA6E509F07402120A8BE0240C123F367B
:103EC300E510F07402120A8B123F33E512F0A3E5FA
:103ED30013F07408120A8BE50CF0A3E50DF0740AD5
:103EE300120A8BE510F0850E82850F83C082C08392
:103EF300740D120A8BAC82AD83D083D0827403120B
:103F03000765F97402120A8BAA82AB83120CD8E9F3
:103F13006401700575080080087402120A8B123A56
:103F23004CA9087412025129E0F50CA3E0F50D2207
:103F3300E0241C123F3A22F8A3E0123F412234004E
:103F4300F98882898322124C99A3A3A3A3A3227481
:103F5300EE120368EAFEEBFF8C088D098E828F83D5
:103F6300A37408124976E060088E828F83A37410CD
:103F7300F0122BF360098E828F83A3E02408F0EE06
:103F83002415122BF660088E828F83A3E004F08E33
:103F9300828F83A3A3A3A3A3A3E060198E828F833D
:103FA300A3A3A3A3A3A3A3E0C3332402F88E828F06
:103FB30083A3E028F0EE2411122BF66005750B0E97
:103FC3008003750B008E828F83A3C082C083EE248F
:103FD3000D122BF6D083D082F8E028250B8C828D2E
:103FE30083F0EE2411122BF6600512444C28F08561
:103FF3000882850983E0C394754009750800750933
:1040030000024134E0FA7B0012538C700302413406
:10401300EEFAEFFB120D3EEA85088285098312480A
:1040230066EE2402F8EF122E5312422E124170F064
:10403300EE24040808EF122E53124676A3124170A1
:10404300A3A3F0EE2413124156F0EE2414124156AA
:10405300A3F0750A08EE2416122BF66010EE24184E
:10406300125190E508240812546F750A10122BF3AD
:104073006016EE241A125190850A0CE508250C12DD
:10408300546F7408250AF50A8E828F83A3A3A3A312
:10409300A3A3E06059EE2407F510EF3400F5118572
:1040A3001082F583E0C0E012413D122B2CD0E012C8
:1040B3004160E0C0E012413D122B2CD0E012416080
:1040C300A3124149120820851082851183E0C3336E
:1040D300FCE433FD850A0CE508250C125106120891
:1040E30037851082851183E0C333250AF50AEE2450
:1040F30015122BF6600BC0E012413D122B2CD0E0C1
:10410300F0122B26124149120820EE240D122BF631
:10411300FC7D00850B0A8E828F83A3E0F8E50828D7
:10412300F8E5093400F9E8250AFAE91251091208F9
:1041330037AA08AB097F0A0205C7850A0CE50825DB
:104143000CF582E50922E0F50CA3E0F50D750E00F0
:10415300780C22123A5312417AA3A3A322F0050A40
:104163008E828F83A3A3A3A3A3A3A3A322A3A31298
:1041730054DAA312417A2212467AA3A32274F612C6
:1041830003688A828B83E0FC9003531242277402F4
:104193007808120948EC4508FCAD09EA24121242DA
:1041A3002174067808120948EC4508FCED4509FD21
:1041B300EA2415F582EB122BF9600478018002786A
:1041C30000E4C8F9ED49FDEA2411F582EB122BF95D
:1041D300F508880974097808120948ED4509FDEACC
:1041E3002416124221740B7808120948ED4509FD83
:1041F300EA2417124221740C7808120948ED450984
:10420300FD8A828B83A3A3A3A3A3A3124227740AC9
:104213007808120948ECFAED4509FB024896F58245
:10422300EB123A56E0F50875090022E0850882850D
:10423300098322A3E0F98508828509832274EE129B
:1042430003688A0A8B0BECFEEDFF750F01E9C3943B
:1042530008500579000244338E828F83E9F01246B9
:104263009FE96003750F001246838E828F83124687
:10427300CDEE125060EF1246C2C0E0EE2411122BB5
:1042830029D0E01246BAC0E0EE2412122B29D0E066
:10429300123D1D740812511AA3A3A3E06015124620
:1042A3006BEE2413F582EF12492A8E828F83A3E0EB
:1042B3002408F08E828F83A3A3A3A3A3A3A3A3E0C5
:1042C30060218E828F83A38582088583091246AE7F
:1042D300EE2415F582EF12492A850882850983E0C9
:1042E3002408F08E828F83A3A3A3A3A3E0601A8E76
:1042F300828F83A38582088583091246928E828FDB
:1043030083A3A3A3A3A312445EEE2419123D0AEED2
:10431300241B123D0AA312496EE070030243C7EE49
:104323002419F8EF3400F98E828F83A385820885E0
:104333008309E0FAE50A2AF582E50B122BF9888254
:10434300898312445EFAE50A2AF582E50B122BF9FA
:10435300C0E0EE241A122B29D0E012445E88828931
:1043630083E06059F890210FE493C39850057511C9
:104373000C8008EE2419122BF6F5118E828F83A37D
:10438300E0F8E50A28F50CE50B124442120820E593
:1043930011C333FCE433FD7A4E7B0C12443C120808
:1043A30037EE241B122B29744EF0A3740CF0E51185
:1043B300C333F8850882850983E0288006EE241834
:1043C3001256B7F08E828F83A3E0F88E828F83E03C
:1043D300C3985003024256A3E0FA8A08E50A250867
:1043E300F8E50B3400F9EE241DF582EF124A36127C
:1043F300446EC39AC0E0EE2417122B29D0E0124971
:1044030033602BEE2417F8EF3400F9880889098804
:1044130082F583E024F2124A17240EFAA3E0340053
:10442300FB8882898312486512444CC398F0A90F14
:104433000241387D00EEFAEFFB12131A74032234A3
:1044430000F50D750E00780C2290034EE0F9120A68
:10445300B6E9F8850882850983E022F0850882851C
:104463000983E004F022A3A3A3A3A3F08E828F8386
:10447300E02274F41203688A088B09EA124503F0F8
:10448300EA1313543F1244FCA3A3A3F0EAC4131387
:10449300124503A3A3F0EB1244F512450D740978FA
:1044A3000A120A3D1244F312450C740A780A120ADE
:1044B3003DE50A5401C0E0EC2418F582ED122B2CE3
:1044C300D0E0124512740B780A120A3D1244F3A38A
:1044D30012450C740C780A120A3D1244F3A3A3A3E9
:1044E300A3A3A3A3A3F0740D7808120A3D022758CF
:1044F300E50A54018C828D8322540F8C828D832292
:1045030054038C828D83A3A322A3A3A3A3A3A3F009
:104513008A0A8B0B22C082C08379008A828B83A391
:10452300A3A3A3A3A3E090034D600FE070228A82AC
:104533008B83A3A3E07019098016E060138A828B32
:1045430083124C88900356E06A7003A3E06B70E714
:10455300023E0974F01203688A0A8B0B890C8C08DB
:104563008D0912469F124683850882850983124668
:10457300CDE508125060E5091246C2C0E0E5082403
:1045830011F582E509122B2CD0E01246BAC0E012D5
:1045930032FC122B2CD0E0124A3E7408124A5760A8
:1045A3001112466BE5082413124A32124A3EE024E4
:1045B30008F0850882850983A3A3A3A3A3A3A3A3C8
:1045C300E06017850882850983A31246AAE50824BB
:1045D30015124A3212446E2408F085088285098335
:1045E300A3A3A3A3A3E06019850882850983A3AECF
:1045F30082AF831246928508828509831244690437
:10460300F0AA08AB09120D50E9F50D705685088222
:10461300850983A3A3A3A3A3A31246767014E0FA88
:104623008A0EE50A250EF8E50B12491FE50CC39A1D
:1046330080211246AAE8240EF8E912491F90034E7E
:10464300E0F9120AB68E828F83E0F8E50CC3982452
:10465300F2C399C0E0E5082417F582E509122B2C73
:10466300D0E0F0A90D02504FE50A2408F8E50B3419
:1046730000F92212467A22E0850882850983A32263
:10468300850A82850B83A3A31246E3E0F9EA22E0BD
:10469300F8E50A28F582E50B124946228A828B83C4
:1046A300125054120D4A22AE82AF83E0F8E50A2875
:1046B300F8E50B3400F9221246F6A3A3A3E0221275
:1046C3003A56E81246EFA3A3E022A3A3A3A3A3A30E
:1046D300A3A3A31246EF1246E3A3A3E0F9EAF82249
:1046E300E0FA850A82850B83A3A3A322F0A3E91230
:1046F30046F622F0850A82850B83A3A3A3A322C0D7
:1047030082C0837AD47B0379E2121BE47AD47B03DD
:10471300023E09C082C083900356023E06C082C097
:104723008374FE1208CC851882851983AA82AB8311
:10473300794B124740124C917402023DDF121BE485
:1047430085188285198322C082C083794A121BE4AB
:10475300023E0974F61203689003DCE0FE04F0EEF7
:10476300F9120D028B09EA450970EDEE60EAF902D0
:10477300489674F0120368EAFEEBFF8C088D0989F2
:104783000A7410120A8BE0F50B7411120A8BE0F510
:104793000C120E2EEA4B7013E50C7042A90AAC08FA
:1047A300AD09EEFAEFFB120E46806EE50A6021EAD0
:1047B3002402F582EB122BF9850A082508F8E43464
:1047C3000013E813F070098A828B83A3A37401F0AA
:1047D300E50C6045E50B70068A828B83E4F0740177
:1047E300650C7035E50B9003E37004E4F0802AE078
:1047F30004F0900D9FE0F89003E3E0C398401AE4BF
:10480300F0900359E06E7003A3E06F700CEEFAEFC3
:10481300FB7901120BA012481F02504F7A017B0053
:104823009003B0E0F912149A22C082C08374016A23
:104833007001EB70077A011248568012900D9612A0
:104843004865EA4B60051224D4800312481F023ED8
:10485300097A207B009003B0E0F91213742234002C
:10486300F583EAF0A3EBF022C082C083900D980297
:104873003406C082C083900D9A023406125440223B
:10488300EE240CF582EF3400F583123E00E8492252
:104893001208377F020205C7A2F0E4338518828528
:1048A30019831248B77952121BEA221248B7794288
:1048B300121BEA22F0AA82AB8322AA82AB83120CD8
:1048C300B47AB37B037945121BEA2274F7120368A7
:1048D30074ED1208CCE9FE9003AF124CAD1248FA06
:1048E3007412120A8BEE12490785188285198312F6
:1048F30048BD7413024ED4900D50E0F97AB37B0394
:10490300120CBA22F0900D50E0F97CB37D0322AA79
:1049130008AB099003B0E0F912134A223400F9E519
:1049230008241DF582E509123A56E8F0A3E9F022BE
:1049330012511EA3A3E022A3F0EE24151249432231
:10494300F582EF3400F583E022124950223400F55A
:1049530083E0F8A3E0F98882898322E0F8124964AE
:1049630022A3E0F98E828F83A3A322F0EE241812F0
:104973003A5322F0EE2416123A532274F4120368C7
:10498300EAFEEBFF7A007B04124823124A0D124918
:104993002D9003657409F0120D5C8A088B09AC082D
:1049A300AD09EE2413122B29124C91124B616401B1
:1049B30070487A0F124A0060418A828B8374021214
:1049C3004A17FAA3E0FB8A828B83A3E0FC8A828BDB
:1049D30083A3A3E0FBEC850882850983A3A3124884
:1049E3006688828983124C9512422E12493AFAA3A1
:1049F300E0FB794A121BEA124912022BEE7B0012EA
:104A0300133E8A088B09EA450922900336123E00B9
:104A1300900D9A22F0EE241DF8EF124A2122123F44
:104A230041E022124A2A223400F5837401F022F570
:104A330082E509123A56E8F0A3E922124A42221209
:104A43004A4622F0850882850983A322124A46A397
:104A5300A3A3A322124A4FA3A3E022124E68120D6E
:104A6300B622EE2417F582EF124A2A120D5CEE24C9
:104A73001A123A53EAF0A3EBF02274F412036874A7
:104A8300F31208CC8908EAFEEBFF7C0D7D00790068
:104A9300851882851983AA82AB83121326EE241DFF
:104AA300122B29125431A3E0F8741F58600A7901BC
:104AB300121BBA7900024B58E8A2E55008740C1295
:104AC3000A8B7401F0E8A2E75008740B120A8B7486
:104AD30001F0E8A2E6740A5008120A8B7401F08010
:104AE30008120A8BE064017005EE24138003EE24A0
:104AF300151251907402120A8BAA82AB83121BD235
:104B0300122B26124B6612492D740A120A8BE0648B
:104B1300017033122507703B120D688A0A8B0BA8AC
:104B23000AA90BEE240B122BF6687003A3E069703D
:104B330022120D5CEAFCEBFD7402120A8BAA82AB13
:104B430083124B61600D851882851983AA82AB831A
:104B5300120B9AA908740D022BEBEEFAEFFB121B52
:104B6300CCE922E0124B6B22F8A3E0F98518828589
:104B730019832274F612036874F31208CC8A088B23
:104B830009ECFEEDFF7C0D7D007900851882851907
:104B930083AA82AB831255E4A3A3A3A3A3A3A3A3D2
:104BA300A3124C00124C09F8A2E55008740B120A28
:104BB3008B7401F0E8A2E75008740A120A8B74019F
:104BC300F0E8A2E6EE50042413800224151251905B
:104BD3007402120A8B124BF2A3A3E0C0E0740C120E
:104BE3000A8BD0E0124E60120B94740D024893AA04
:104BF30082AB83121BD285088285098322E0124B84
:104C03006BE8F0A3E922F0123A50125435A3E022E4
:104C130074F712036874E11208CCEAFEEBFF8E828C
:104C23008F83124C95A3A3A3E0A2E050518E828FF1
:104C3300831226678A828B83A3A3A3A3A3A3E0542F
:104C4300FE124CAD8A828B83124CA6E0F98A828BCA
:104C530083E0241CFAA3E0123669124C91120D561C
:104C6300E9701B741D120A8B124CA07011851882F7
:104C7300851983AC82AD83EEFAEFFB120DA4024ECD
:104C8300D28E828F83A3A3A3A3A3A3A3A3A3122B35
:104C9300E422124C9922125439A3A3A322123A8874
:104CA300640422E0241B123F3A22123DE8AC82AD99
:104CB3008322E9F87900740468600A740A6860055D
:104CC3007403687001090207E974F61203688A82A3
:104CD3008B837420F0A3A37401F0120B408A088B1A
:104CE30009AE08AF09EE4F60108E828F837401F016
:104CF3009003A3E07003124A65EEFAEFFB024896B5
:104D0300C082C0839003C87401F0E9A2E350037426
:104D130003F0E9A2E15004E0D2E2F0023E0974F6A6
:104D230012036879007C008A088B097808120581D0
:104D3300F8FF07544D524D524D524D524D4B4D4F6E
:104D43004D544D484D0C80097C0480050C80F67C45
:104D5300089003C8E05C6003098003EC600109026A
:104D6300489674F61203688A828B83E07012A3124A
:104D7300488D600C8A828B83124C90121CEC800449
:104D83007A007B0002489674F512036874F31208E4
:104D9300CC8A088B09ECFEEDFF750A12EA4509700F
:104DA300057900024E59900356E065087004A3E0AC
:104DB30065097014120D5CEAFCEBFD124B5D700586
:104DC300750A018003750A00851882851983E4F04A
:104DD30004120A8BE508F0A3E509124E60120B04D6
:104DE300E960277403120A8BAA82AB83120AE6E9ED
:104DF30064017016750A017403120A8BAC82AD83C9
:104E0300124B5D6021750A00801C7412650A7016CE
:104E13009003A2E06402700EEEFCEFFDAA08AB095A
:104E2300120B1CE970DFEEFCEFFDAA08AB09120EB2
:104E330034E9F8740A687005750A01801774A0686C
:104E43007012EEFCEFFDAA08AB09120E40AA08ABE4
:104E530009120E52A90A740D02594C7402124E64BF
:104E630022124E6822123DE8AA82AB832274F71203
:104E73000368EAFEEBFF8E828F83A3A3A3A3A3A3FE
:104E8300A3A3E06015EE2415122B29122BD4120DC7
:104E9300CEE964017004790180258E828F83A3A3F8
:104EA300A3A3A3A3A3E06015EE2413122B29124E90
:104EB300C4FAA3E0FB120DCEE9640160D979008046
:104EC30013123755A3A3A3A3A3A3A3A3A3E02274FD
:104ED3001F1208377F010205C774F012036874FDBF
:104EE3001208CC8A088B09ECFEEDFF890B741312B0
:104EF3000A8BE0F50C750A017401120A8B74041213
:104F030054696048E50C601DEA2417F582EB1256DC
:104F1300BA1254578A828B83E0D2E7F0EA2414F55D
:104F230082EB123D0D12505FEB12494C7403125980
:104F3300DDEE88828983A3A3F0EF88828983A3A30C
:104F43001237FF123806120B3AE9F50AA90A74035D
:104F530002504C74EC12036874F51208CC8A0A8B65
:104F63000B890C8C0E8D0F741F120A8BE0F50D74D8
:104F730020120A8BE0F510A3E0F5117E01EE120A70
:104F83008B740AF0E97007E50DC333240AF012515C
:104F93003170030250331251467409F0A3E50CC477
:104FA3003354E0450D125158E50C702D7C008023DD
:104FB300ECC333F8E433F9E51028F8E51139F9883F
:104FC30082898312504088828983122E46F0A30E71
:104FD300AF830CECC3950D40D7E5082417F582E5A4
:104FE30009124A26120D5CE508241AF582E5091216
:104FF30048617403120A8BAC82AD83AA0AAB0B120D
:105003000AECE96019E5082416F582E50912503A1D
:10501300120A8BA882A983E5082418124926850859
:10502300828509831259D9AA08AB09120B3AE9FE02
:10503300EEF9740B025129124A2A740322E08E827C
:105043008F83F0A3AE82AF83221208377F08020555
:10505300C7123AB0F9EA2400E439FB22EA240BF53B
:10506300822274EE1203688A0C8B0D890E8C088DD4
:10507300097412120A8BE0F50F7413120A8B125182
:10508300129005DB12488D6077E50FC333F8E433E4
:10509300F9E8240EFAE93400FB12133E8A108B114F
:1050A300AE10AF11EE4F60588E828F8374D4F0A38D
:1050B300A3E50CF0A3E50D12511AE50EF0AC08AD13
:1050C30009EE2405FAEF125472EE240D122B29E592
:1050D3000FF0850A08850B09750A00780812082065
:1050E300E50FC333FCE433FDEE240EFAEF1251094E
:1050F300120837EEFAEFFB9005DB125431121D93C1
:10510300024138FAE5093400FB12131A740322E052
:10511300F50AA3E0F50B2212511E2212512222128C
:105123003D21A3A3A3221208377F0C0205C78518CC
:1051330082851983AA82AB83120DB68A088B09EA8A
:10514300450922EA240BF582EB124946FEA3E0FF50
:105153008E828F8322F0A3AE82AF83AC0EAD0FEEAF
:10516300FAEFFB12516A22121BD212517122EE2462
:1051730008FEEF3400FF22E0FA8E828F83A3A3E0C0
:1051830022FEA3E03400FF8E828F83E022123A5383
:1051930012519722E0FCA3E0FD22122BE4120D44EE
:1051A3002274F7120368E9FE7C007D007800790021
:1051B300800D125262E02CFCA3E03DFD12587C12DC
:1051C30058E5502CE8FAE9FBEA75F012A4FAAFF0BF
:1051D30075F012EBA42F125885F460E01252691295
:1051E300396E60D8EE60CB125262E4F0A3F080CC4B
:1051F30078007900800D125242E02CFCA3E03DFDC3
:1052030012587C1258D85030E8FAE9FBEA75F017C7
:10521300A4FAAFF075F017EBA42F1258B47003A3E0
:10522300E0F460DC12524912396E60D4EE60C712AA
:105233005242E4F0A3F080C8ECFAEDFB024ED71221
:1052430052493BF58322E8FAE9FBEA75F017A4FA21
:1052530075F017EBA42FFB74EF2AF582740A221260
:1052630052693BF58322E8FAE9FBEA75F012A4FAE6
:1052730075F012EBA42FFB74702AF5827409227463
:10528300F6120368EAFEEBFF9003C9801388828954
:1052930083E06E7003A3E06F603A88828983A3A3DF
:1052A30012488D70E87A047B001213DA8A088B099E
:1052B300A808A909E849601C888289831252DE90F4
:1052C30003C9124C9188828983A3A3124865900372
:1052D300C912492D0248968A828B83EEF0A3EFF020
:1052E3002274F41203687E009003C980070E88823B
:1052F3008983A3A312488D70F4EEC333FAE433FB1E
:1053030012538C607E7F009003C980248882898336
:10531300125193EFC333FAE433FBE5082AF582E530
:10532300093BF583ECF0A3EDF00F88828983A3A3F7
:1053330012488D70D79003AB1225417003A3E06927
:1053430078087019120824EEF50A780A1208287CE6
:10535300777D0379009003AB125397801A120824C8
:10536300EEF50A780A1208287C777D03790090030A
:10537300AB124C91120DE07403120837AA08AB0963
:105383001213E0120B52022BEE1213DA8A088B0966
:10539300EA450922122BE4120DE622C082C0838063
:1053A300128A828B83A3A3123A619003C912492DF7
:1053B3001213E09003C912397170E6023E0974F6C4
:1053C300120368900363123A8D9003DD1254201286
:1053D300492D7ADD7B037950121BEA9003DD1227F6
:1053E30060FAEFFB120E4C9003DD123A8D9005DD4F
:1053F30012488D60257A067B0012133EEA4B601A31
:105403008A828B8374D5F0A3A3E412544604125406
:10541300579005DD125431121D93024896125424FD
:1054230022E0F8A3E0F9900363228E828F83125463
:10543300352212543922E0F812543F22A3E0F583B7
:1054430088822212544A2212544E22F08A828B837B
:10545300A3A3A32212544AA3EEF0A3EFF022F582F2
:10546300EF124946F922124A5EEA4B22FAE5093461
:1054730000FB121BD222124965A3A3A3A3A3A3A3D8
:1054830022902107E4932401F8E43400F97A027BA3
:10549300002274F71203687E008004125A900E12E1
:1054A30055B440F77E00EE1254C174FEF0A304120B
:1054B30054D6E4F00EEEC3940340EB024ED775F0DE
:1054C30003A4F8A9F074CB28F8740339F988828906
:1054D30083A3221254DA22F0888289832274F7127A
:1054E30003687F0080010F902104E493F8EFC398D1
:1054F3005026EF1256A06A7003A3E06B70E8125AAD
:105503003D6C7003A3E06D600A74FF6C700374FF5D
:105513006D70D312559D80047A007B00024ED774C0
:10552300F61203687CFF7DFF7AFE7BFF120E10EA02
:105533004B70407508008036E50875F017A4F8A98C
:10554300F074E928F582740A1256B2600C74E828E4
:10555300F582740A1256B2701374DA28FE740A398B
:10556300FF8E828F831256BFEEFAEFFB05081256A9
:105573001A40C502489674F41203688A088B09EC32
:10558300FEEDFF800B120E22EEFCEFFDAA08AB0925
:10559300120E10EA4B70EE022BEE74DA28FA740A3C
:1055A30039FB22EE75F017A4F8A9F01256AB64FE8E
:1055B30022902104E493F8EEC3982274F71203684F
:1055C300EAFEEBFFEE4F60101255DE74FEF0A3040B
:1055D3001259E314F0A304F0024ED77C177D00792F
:1055E300001213268E828F832274F7120368EAFE59
:1055F300EBFF7508008018E50875F017A4F8A9F00B
:10560300125A487003A3E06F6003125A98050812F8
:10561300561A40E3024ED7902104E493F8E508C3F9
:10562300982274F6120368120E108A088B09A808D0
:10563300A909E849600AE8240DFAE93400FB80046B
:105643007A007B0002489674F41203688A0A8B0B73
:10565300ECFEEDFF750800750900802EE50975F075
:1056630017A4F8A9F0125A83601EE5091256A06523
:105673000A7004A3E0650B700375080AEEFCEFFDE6
:1056830012593F60034308A00509902104E493F8ED
:10569300E509C3985004E50860C202275875F0175E
:1056A300A4F8A9F01256AB2274DA28F582740A39E9
:1056B300F583E022F582EF123A56E422122BE4122C
:1056C3000C36221254DAA3A3A3A3A3A3A3A3227485
:1056D300F21203688A088B09ECFEEDFF740E120ABE
:1056E3008B125112750C007C007D0180101213384F
:1056F300E50CF5F0EA84ACF0750C007D00780079D8
:1057030000800312587C1258D8400302579EE8FACF
:10571300E9FBEA75F017A4FA85F00D75F017EBA411
:10572300250D1258B47003A3E0F460D712589265A4
:10573300087004A3E0650960CA1258926E7003A34F
:10574300E06F60BF125892650A7004A3E0650B60B6
:10575300B2E8FAE9FBEA75F017A4FA75F017EBA4BF
:10576300250DFB74E82AF582740A12587350947459
:10577300016D050C608DE50CC39C4087E875F0173F
:10578300A4F8AAF075F017E9A42AF974DA28F582C7
:10579300740A39F583124C910258707800790080AD
:1057A3000312587C1258E54003025857E8FAE9FB04
:1057B300EA75F012A4FA85F00D1258C464FE700362
:1057C300A3E0F460DC1258BA65087004A3E065092D
:1057D30060CF1258BA6E7003A3E06F60C41258BA58
:1057E300650A7004A3E0650B60B7E8FAE9FBEA75A4
:1057F300F012A4FA75F012EBA4250DFB74692AF5D7
:105803008274091258735099E8FAE9FBEA75F012A9
:10581300A4FA75F012EBA4250D125885640160817A
:10582300E0640270030257A474016D050C70030257
:1058330057A4E50CC39C50030257A4E875F012A4C7
:10584300F8AAF075F012E9A42AF9746028F58274B5
:1058530009025795E50C6011EC700E7401650C603C
:10586300030256F07C010256FB7AFE7BFF02254DB4
:105873003BF583E014C3940622E8240108E93400CD
:10588300F922FB74642AF58274093BF583E022E86C
:10589300FAE9FBEA75F017A4FA75F017EBA4250DE6
:1058A3001258A722FB74DA2AF582740A3BF583E0C7
:1058B300221258A764FE22E8FAE9FBEA75F012A463
:1058C300FA75F012EBA4250DFB74602AF5827409B6
:1058D3003BF583E022902104E493FAC3E89AE99428
:1058E30000229020FEE493FA740193FBC3E89AE943
:1058F3009B2274F51203688A088B09ECFEEDFF7591
:105903000A008002050A902104E493F8E50AC3988B
:105913005028EEFCEFFDE50A75F017A4F8A9F01284
:10592300593F60E0E50A75F017A4F8A9F074DA2886
:10593300F582740A39F583123808801074DC28FA6A
:10594300740A39FB121BCCE9221208377F030205C4
:10595300C774F01203688A088B098C0A8D0B890CB3
:10596300120E168A0E8B0FAE0EAF0FEE4F6055124E
:1059730055DEE508F0A3E5091259E31259DBE50CFE
:10598300600AEE240F122B29E50C8006EE240F1279
:1059930059D3F09003DF12488D601A9003AAE06494
:1059A300017008EE240E1256B78010EE240E122B4F
:1059B3002974078006EE240E1259D312307C12028A
:1059C300171259CA02504FEE240D123A53E8F0222F
:1059D300123A53740122A3A3E50AF0A3E50BF022C4
:1059E30012367FA32274F51203688A088B09ECFE32
:1059F300EDFF750A00800F125A487003A3E06F6031
:105A030003125A98050A902104E493F8E50AC3980F
:105A13005025E50A75F017A4F8A9F0125A3D650858
:105A23007004A3E0650970CF74E428F582740A3921
:105A3300F5831252DE80CD02594F74E428F5827447
:105A43000A1256B22274E428F582740A1256B26E10
:105A53002274F7120368EAFEEBFF7508008019E56C
:105A6300081256A06E7003A3E06F700A125A837077
:105A730005E508125A91050812561A40E2024ED75C
:105A830074DC28FA740A39FB120AE6E922EE75F08F
:105A930017A4F8A9F012559D120E222274F71203CF
:105AA300687E0080131255A67003A3E0F460081209
:105AB3005A837003125A900E1255B440E8024ED71F
:105AC3001254DA123E00E84922C082C08374F812ED
:105AD30008CC851882851983AC82AD837583807564
:105AE300824E7408120765851882851983AC82ADCE
:105AF30083124B6164017004790080027901740898
:105B0300023DDFC082C0838A828B83E0D2E7F0123A
:105B130015DE02659AC082C0837900125FD21275C6
:105B2300AFC082C0839003301271D1D083D082C3BF
:105B3300E09CA3E09D500C12777EFAA3E0125B4930
