:020000040000FA
:06000000020A1E0201BB12
:03002B0002074485
:030043000206FFB3
:030053000200FAAE
:03006B0002085137
:100083000201570101FF0503010FF60FF60FF60FEB
:10009300F60FB20EAC0EF60F931E00000000F51E15
:1000A300000000000C0000000C00010000CA110059
:1000B30000000000008412000000000000000000A7
:1000C30000FFFF0101010100A4050000001806E87C
:1000D3000364006400B8010202001000000502037B
:1000E300051E02051E0A02B80B02010278110296D0
:1000F30051180002020612C0E074F21203D4A2AF38
:10010300E433FED2AFE5A7FFE5A1F5085F54106025
:100113000612196E75A1EFE5085F540860081219FD
:100123007475A1F78024E508A2E092F0EFA2E082C3
:10013300F05017906198E0F89008F3E0C398A2D2CA
:1001430065D0335002E8F075A1FEEEA2E092AF7FD6
:1001530001020433C0E074F21203D4A2AFE433FE0D
:10016300D2AF9061A4E0F8759B00E5915854086004
:10017300087591F71219BC8023E591585410600853
:100183007591EF1219C28014E591A2E092F0E8A2F2
:10019300E082F05007E0C2E0F0121B069061A3E09A
:1001A300F8E5E9585404600E121ADC75E9FB906116
:1001B30093E0A2E640F28092C0E074F21203D4A26C
:1001C300AFE433FED2AF9061A5E0F8E5BF58540425
:1001D300600675BFFB121B1E02014DC3E498F8E4D1
:1001E30099F912021F8026C3E49AFAE49BFBE920E3
:1001F300E7E912021FE498F8E499F922C3E498F8B6
:10020300E499F912021FE498F8E499F9C3E49AFA1D
:10021300E49BFB22EB20E7CFE920E7E0B90010BB2A
:100223000008E88AF084F8AAF022E4FBC8FA22EB7B
:1002330070227B10C833C8C933C9335007C39AC36C
:10024300DBF280069A50012ADBEAC833F4C8C933CB
:10025300F4C9FA2275F008E4C833C8C933C933C9ED
:100263009AC99B5004C92AC93BD5F0ECFBC833F4A7
:10027300C8E4C9FA22080808EAC0E0EBC0E086F047
:10028300E7A4FA180986F0E7A42AFA180986F0E722
:10029300A42AFA180986F0E7A42AFA1986F0E7A433
:1002A300FBE5F02AFA190886F0E7A42BFBE5F03A00
:1002B300FA190886F0E7A42BFBE5F03AFA181809B7
:1002C30086F0E7A4C5F02BFBE43AFA1908E7C5F07A
:1002D300C6A426F6E5F03BFBE43AFA1886F0E7A459
:1002E300F6E5F00826F6E43B08F6E43A08F6D0E033
:1002F300FBD0E0FA22E4CFC0E0E4CEC0E0E4CDC01E
:10030300E0E4CCC0E075F020C3E633F608E633F64C
:1003130008E633F608E633F6181818EC33FCED3329
:10032300FDEE33FEEF33FFC3EC9709ED9709EE972C
:1003330009EF97191919400FFFEC97FC09ED97FD89
:1003430009EE97FE191906D5F0BEECF709EDF7098A
:10035300EEF709EFF7191919D0E0FCD0E0FDD0E072
:10036300FED0E0FF222518C582C0E0E51934FFC5A1
:1003730083C0E0E518C3958224F810AF088583197C
:100383008582188008858319858218D2AFCEF0A3A1
:10039300E520F0A37808E608F0A3DEFAEFF0A3E582
:1003A3008124FAF8E608F0A3E608F0A3E608F0A330
:1003B3000808E608F0A3E608F0A315811581D0E04C
:1003C300FED0E0F8158115811581E8C0E0EEC0E0AC
:1003D30022C0D02518C582C0E0E51934FFC583C00B
:1003E300E0E518C3958224F310AF0885831985824D
:1003F300188008858319858218D2AFC8F0A3E9F065
:10040300A3EAF0A3EBF0A37908E709F0A3D8FAEC89
:10041300F0A3EDF0A3EEF0A3EFF0A3D0E0F0A3D0B0
:10042300E0F0A3D0E0F0A3E520F0A3E5F0F0A322F1
:10043300851983851882E0C0E0A3E0F9A3E0FAA35D
:10044300E0FBA37808E0F608A3DFFAE0FCA3E0FDF5
:10045300A3E0FEA3E0FFA3E0C0E0A3E0C0E0A3E0CD
:10046300F5D0A3E0F520A3E0A3F5F010AF08858352
:10047300198582188008858319858218D2AFD082A6
:10048300D083D0E0F8D0E032120A80B9000302042E
:10049300CDE4900301784A790B8002F0A3D8FCD90C
:1004A300FA900D4AAA82AB83900086787579018011
:1004B30015E493A3AC82AD838A828B83F0A3AA82D3
:1004C300AB838C828D83D8E9D9E77582197583ACA8
:1004D30074031207E375829A75831D74001207E390
:1004E3000875F0108E1A8F1B85821F85831E851851
:1004F30082851983E0CEA3E0CF851F82851E83EB1F
:10050300C9EAC8EDCBECCAC3E833C8E933C9EA3357
:10051300CAEB33CBC3EA9EF51DEB9FF51CB3500426
:10052300AB1CAA1DEC33CCED33CDD5F0DAAE1AAF4C
:100533001B22D083D082ECC0E0EDC0E0E493A3FCA7
:10054300E493A3FDED4C600D12060DEC24FFFCEDCE
:1005530034FFFD80EFE493A3FCE493A3FDED4C6033
:100563000D1206AAEC24FFFCED34FFFD80EFD0E072
:10057300FDD0E0FCE493A3C0E0E493C0E022D08389
:10058300D082E9C0E0E493A3C386F0C5F095F0F907
:1005930008E493A386F0C5F095F0700BE493A3C32E
:1005A300994005E9048002A3E475F002A42582F5CD
:1005B30082E5F03583F583D0E0F9E493A3C0E0E46A
:1005C30093C0E022851983851882E0A3FEE0A3F59A
:1005D300207808E0A3F608DFFAE0A3FFE0A3C0E079
:1005E300E0A3C0E0E0A3C0E0E0A3C0E0E0A3C0E07C
:1005F30010AF088582188583198008858218858342
:1006030019D2AFD083D0820207E9C0E0C3E4939646
:10061300087401939618400FE493667008087401F8
:1006230093661870007019A3A3C3E493960874012A
:10063300939618A3A3400DD0E0D0E0D0E00205715B
:10064300A3A3A3A3A3A3D0E0227404800474028011
:1006530000CCC0E0EDC0E0E518C39CCCAD1950015F
:100663001D10AF068C188D1980068C188D19D2AF0A
:10067300120765D0E0FDD0E0FC2274028000CCC0FC
:10068300E0EDC0E0E518C39CCCAD1950011D10AFDF
:10069300068C188D1980068C188D19D2AF1207227B
:1006A300D0E0FDD0E0FC22C0E0C0F088F0E4936627
:1006B30070080874019366187000A8F0A3A3700B68
:1006C300D0F0D0E0D0E0D0E0020571A3A3D0F0D009
:1006D300E022D083D082CCC0E0E493A3600612076B
:1006E300861470FAE493A360061208B61470FAD065
:1006F300E0FCE493A3C0E0E493C0E022C0E074F222
:100703001203D4A2AFE433FED2AFC2C0E5D1A2E458
:1007130050031218E4EEA2E092AF7F01020433CA41
:10072300C0E0E493A3C582CCC582C583CDC583F065
:10073300A3C582CCC582C583CDC583DAE5D0E0CA23
:1007430022C0E0C0D0E8C0E0E9C0E0E5A8D2AFC273
:10075300C7A2E7A2E792AFD0E0F9D0E0F8D0D0D0BB
:10076300E032CAC0E0E0A3C582CCC582C583CDC553
:1007730083F0A3C582CCC582C583CDC583DAE6D019
:10078300E0CA22C0E0E493A3D39C5010E493A3C334
:100793009C400AD0E0D0E0D0E00206F2A3A3A3D0AD
:1007A300E022C008C3E096F50808A3E096420808D3
:1007B300A3E096420808A3E09645087001D3D00849
:1007C300227009080808226016181818C6C333C611
:1007D30008C633C608C633C608C633C6D5E0EA2200
:1007E300C09FF59FE473D09F22D083D082C09FE443
:1007F30093C0E0740193C0E0740293F59F2225181F
:10080300F58210AF08F518400215198008F5184055
:10081300021519D2AF851983227404800A740380E8
:1008230006740280027401C0E0F404120801D0E0EF
:10083300120A5B22C0D0251810AF08F51850020524
:10084300198008F51850020519D2AFD0D022C0E0A4
:1008530074F21203D4E589A2E7500312184E758986
:1008630000C2E87F01020433BB0102E722C082C059
:100873008389828A83BB0003E08002E493D083D020
:1008830082226016080808C6C313C618C613C61802
:10089300C613C618C613C6D5E0EA22C3E0C696F649
:1008A30008A3E0C696F608A3E0C696F608A3E0C63A
:1008B30096F622C0E0E493A36C7009D0E0D0E0D0B8
:1008C300E00206F2A3A3D0E022251810AF08F51822
:1008D300400215198008F51840021519D2AF22C33A
:1008E300E09608A3E09608A3E09608A3E096A2D2B8
:1008F30065D03322E066701008A3E066700A08A38F
:10090300E066700408A3E06622E76670100809E752
:1009130066700A0809E76670040809E76622C3E0FF
:1009230096F008A3E096F008A3E096F008A3E096FB
:10093300F022E026F008A3E036F008A3E036F00842
:10094300A3E036F022700422600D18C6C333C60834
:10095300C633C6D5E0F41822E647F60809E647F69B
:100963000809E647F60809E647F622E026F608A353
:10097300E036F608A3E036F608A3E036F622E627CB
:10098300F60809E637F60809E637F60809E637F602
:1009930022E657F60809E657F60809E657F6080966
:1009A300E657F622E056F608A3E056F608A3E0560B
:1009B300F608A3E056F622E056F008A3E056F00846
:1009C300A3E056F008A3E056F022E4C396F608E449
:1009D30096F608E496F608E496F622C3E796080925
:1009E300E7960809E7960809E79622C6F4C608C6FB
:1009F300F4C608C6F4C608C6F4C622600D08C6A22B
:100A0300E713C618C613C6D5E0F322C3E09608A3BE
:100A1300E09608A3E09608A3E0962275D0007581BE
:100A2300407518017519030002048BE0F608A3E072
:100A3300F608A3E0F608A3E0F622600C08C6C31389
:100A4300C618C613C6D5E0F422E6F008A3E6F008FC
:100A5300A3E6F008A3E6F022CAC0E0E6F0A308DAB2
:100A6300FAD0E0FA22E0FAA3E0FBA3E0FCA3E0FD66
:100A730022EAF0A3EBF0A3ECF0A3EDF022E5C754D8
:100A8300F84401F5C77901222518F582E43519F5F3
:100A93008322C2AF75D69F020000221207EC0DAD70
:100AA300011207EC60AE011207EC03AF011207EC71
:100AB3003BB0011207EC59B0011207EC125B0012B4
:100AC30007EC245B001207EC765B001207ECD75BA4
:100AD300001207EC615C001207EC055D001207ECE5
:100AE300595D001207EC725D001207EC985D00126D
:100AF30007ECD35D001207EC175E001207EC3E5EB5
:100B0300001207EC8F5E001207EC3F5F001207EC48
:100B1300F75F001207ECBF60001207EC9C61001244
:100B230007EC2262001207EC3162001207EC3C6210
:100B3300001207EC4563001207EC5663001207EC42
:100B4300CC63001207EC5E64001207ECB66400127B
:100B530007EC7C65001207ECAD65001207ECF2654B
:100B6300001207ECFF65001207EC9367001207EC15
:100B7300F668001207EC3269001207EC4E6A0012A5
:100B830007ECB86C001207ECC36C001207ECCD6CD9
:100B9300001207ECD86C001207ECE26C001207ECB1
:100BA300EC6C001207ECF76C001207EC026D0012FC
:100BB30007EC336D001207EC576D001207EC7B6DE9
:100BC300001207ECE06D001207EC246E001207EC34
:100BD300406E001207ECB76E001207ECEF6E0012C6
:100BE30007EC3B6F001207EC986F001207EC7A7169
:100BF300001207EC0072001207ECD172001207EC2E
:100C0300E175001207EC3676001207EC62760012EB
:100C130007ECAE77001207ECFE77001207EC53786F
:100C2300001207EC5479001207ECEC79001207EC80
:100C33006E7A001207EC0E7B001207EC1D210012E6
:100C430007EC5621001207EC3023001207EC6F2348
:100C5300001207ECB923001207EC5E24001207EC24
:100C6300BD24001207ECF124001207EC5E250012EC
:100C730007EC7B26001207EC8327001207EC1928E8
:100C8300001207EC602B001207EC092C001207EC92
:100C9300E52C001207EC462D001207EC632E001220
:100CA30007EC8D30001207EC4431001207EC4E3193
:100CB300001207EC7C31001207EC5332001207ECF0
:100CC3001A33001207ECB533001207EC1A34001282
:100CD30007EC4334001207EC6534001207EC94363A
:100CE300001207EC6B37001207ECAF37001207EC6A
:100CF3001C38001207ECD738001207EC0939001230
:100D030007EC4D39001207EC8339001207ECD83990
:100D1300001207EC2D3A001207ECC13A001207EC5F
:100D2300233B001207EC8B3B001207EC343D00120F
:100D330007EC1C3E001207EC5E3F001207EC8C41EF
:100D4300001207EC4C42001207EC8144001207EC3E
:100D53002445001207EC6245001207EC0E4700120F
:100D630007EC2247001207EC2C47001207EC56470A
:100D7300001207EC6247001207EC8147001207ECF0
:100D83003848001207EC7748001207EC814800123C
:100D930007ECDA48001207EC8A49001207EC894A8B
:100DA300001207EC824B001207EC1F4C001207ECF9
:100DB300C14C001207ECD84C001207EC0F4D001287
:100DC30007EC2D4D001207EC714D001207EC964D08
:100DD300001207EC7C4E001207ECE84E001207EC01
:100DE300624F001207EC7150001207ECB051001271
:100DF30007EC8E52001207ECF052001207ECAA53D4
:100E0300001207ECCD53001207ECA154001207ECBB
:100E1300EC54001207EC2E55001207EC8555001216
:100E230007ECCA55001207ECF855001207EC3156CF
:100E3300001207EC5656001207ECDE56001207ECC0
:100E43000159001207EC6059001207ECF459001223
:100E530007EC605A001207ECAB5A001207ECD85AA1
:100E6300001207EC36C0031207EC75C0031207EC3F
:100E73009EB1011207ECF8B1011207EC54B2011252
:100E830007ECA0B2011207ECBBB2011207ECECB203
:100E9300011207EC09B3011207EC15B3011207ECB9
:100EA30089B4011207ECA2B4011207EC09B50112CF
:100EB30007EC1CB5011207EC2AB5011207ECDEB5ED
:100EC300011207ECC2B6011207ECC8B7011207EC16
:100ED3004EB8011207EC58B8011207ECC5B801125D
:100EE30007ECDCB8011207EC0EB9011207EC47B9A5
:100EF300011207EC71B9011207ECD2B9011207EC28
:100F0300F2B9011207EC10BA011207EC56BA01123A
:100F130007EC7CBB011207ECC9BB011207ECF8BB61
:100F2300011207EC6EBC011207EC96BC011207EC30
:100F3300CFBC011207ECDDBC011207EC35BD011279
:100F430007EC84BD011207ECC3BD011207ECF3BD2E
:100F5300011207EC1FBE011207EC2ABE011207ECB7
:100F630048BE011207EC0ABF011207EC14BF0112BD
:100F730007EC4FBF011207EC65BF011207EC6EBF10
:100F8300011207ECC3BF011207ECD7BF011207EC34
:100F9300E5C0011207ECF8C0011207EC0DC1011204
:100FA30007ECAFC1011207EC32C2011207ECF0C229
:100FB300011207ECFBC2011207EC21C4011207EC7A
:100FC3003DC4011207EC8FC4011207ECCEC4011219
:100FD30007ECE3C4011207EC25C5011207EC72C745
:100FE300011207ECF0C7011207EC63C8011207EC0A
:100FF30085CA011207EC9DCA011207ECA0CA0112AF
:1010030007ECACCA011207ECC0CA011207ECC8CA4C
:10101300011207ECFBCA011207ECABCB011207EC80
:1010230021CC011207EC94CC011207EC48CD01123C
:1010330007ECFDCD011207EC1CCE011207ECBCCE70
:10104300011207ECC8CE011207ECF3CE011207EC34
:10105300F6CE011207EC60CF011207EC88D0011223
:1010630007EC60D1011207ECEBD1011207EC04D3BA
:10107300011207ECC1D3011207ECFAD3011207ECFA
:101083002BD4011207ECCBD4011207ECFBD40112D1
:1010930007ECD6D5011207EC6FD6011207ECFAD68E
:1010A300011207ECABD7011207EC2DD8011207ECA4
:1010B3005FD8011207ECA0D8011207ECD6C70212C1
:1010C30007EC37C8021207EC74C8021207ECC7C852
:1010D300021207ECFECA021207ECCECC021207EC96
:1010E3003DD0021207EC74D0021207EC92D0021228
:1010F30007EC08D1021207EC30D1021207EC61D1E0
:10110300021207EC91D1021207ECEDD1021207ECA7
:10111300FBBB021207EC79BC021207ECAFBC021254
:1011230007EC1BBD021207EC8EBE021207ECAABE2F
:10113300021207ECEFBE021207EC7CBF021207ECAF
:10114300D5BF021207EC01C1021207EC0FC2021253
:1011530007EC6CC2021207ECD8C2021207EC39C3C7
:10116300021207EC7AC3021207EC27C4021207EC3F
:1011730039C5021207EC7CC5021207ECCAC502127C
:1011830007EC01C6021207ECA4C6021207EC5FC704
:10119300021207EC85BD031207EC48B3031207ECF8
:1011A30059B3031207ECAAB3031207ECEFB303120C
:1011B30007EC97B4031207ECC7BB031207ECA1B10A
:1011C300031207ECF9B2031207EC39D2021207EC4F
:1011D300E8D2021207EC08D3021207EC28D302125A
:1011E30007EC3CD3021207EC9CD3021207ECCCD3DE
:1011F300021207EC56D5021207ECFFD5021207ECD8
:10120300E1D6021207EC34D7021207EC78D70212A8
:1012130007ECBBD7021207EC26D8021207EC47D81B
:10122300021207ECCAD8021207ECFFD8021207EC2D
:101233006FD9021207EC06DB021207ECDCDB0212A9
:1012430007EC1EDC021207EC78DC021207ECF9FD56
:10125300021207EC1AFE021207EC50FF021207EC0F
:101263007AFF021207ECD09A031207EC499B031290
:1012730007EC549B031207EC759B031207ECE6AFD4
:10128300021207ECE9AF021207ECA3B0021207EC5B
:10129300CEB0021207EC14B1021207EC39B10212FC
:1012A30007EC5AB1021207EC8EB1021207ECC6B179
:1012B300021207ECEFB2021207EC1EB3021207ECA4
:1012C3003EB3021207ECD6B3021207EC99B4021232
:1012D30007ECCEB4021207EC36B6021207ECD9B60D
:1012E300021207ECD1B7021207EC06B8021207ECA0
:1012F30066B8021207EC26B9021207EC54B90212BF
:1013030007ECDBBA021207EC5CBB021207EC8FBBE3
:10131300021207EC3AED021207EC44ED021207EC5D
:1013230090ED021207ECFEED021207EC1FEE021223
:1013330007EC36EE021207ECE6EE021207ECEFEED4
:10134300021207EC42EF021207EC6BEF021207ECFA
:10135300C9EF021207EC5AF0021207EC96F00212E0
:1013630007ECE2F0021207EC54F1021207EC36A08C
:10137300011207EC19F2021207EC5AF2021207ECFF
:1013830091F2021207ECA3F2021207ECB5F2021279
:1013930007ECD4F2021207ECDDF2021207EC95F32C
:1013A300021207ECD5F3021207EC4589031207EC8E
:1013B3001A8A031207EC348A031207EC458A0312D4
:1013C30007EC5E8C031207ECBEAA011207ECE7A937
:1013D300031207EC1DAA031207EC68AA031207EC19
:1013E300B6AB031207ECD5D8011207EC20DA0112D1
:1013F30007EC5CDA011207EC13DC011207EC3CDCAE
:10140300011207ECD4DE011207EC14DF011207EC22
:10141300B5E0011207EC4FE1011207ECB7E101124D
:1014230007EC44E2011207EC7CE2011207ECBCE298
:10143300011207EC4FE4011207ECEEE5011207EC91
:101443003DE8011207EC6BE8011207EC97E8011283
:1014530007ECA0E8011207ECFBE8011207EC91E9A5
:10146300011207ECBAEC011207EC3FED011207EC95
:101473001DC1031207EC5D91031207EC7291031275
:1014830007EC0F92031207EC4B92031207EC6292E4
:10149300031207EC8992031207ECCE92031207ECB6
:1014A300FF92031207EC3793031207ECBF94031266
:1014B30007ECE6BF031207EC4B7F001207EC817FBA
:1014C300001207EC9D7F001207ECDF7F001207EC90
:1014D300EB7F001207EC16A3021207EC29A40212F9
:1014E30007EC73A5021207EC2CA6021207EC7BA6ED
:1014F300021207EC5EA7021207EC1CA8021207EC0B
:1015030032A8021207ECECA8021207EC60A902123F
:1015130007EC47AB021207EC94AC021207ECEBACFE
:10152300021207EC72AD021207ECEAAE021207ECEC
:1015330078AF021207EC24AE031207ECE8AE0312F5
:1015430007EC3193021207EC8993021207EC3B94E8
:10155300021207ECDF94021207EC3995021207EC32
:10156300B295021207ECC695021207ECA997021274
:1015730007EC2A98021207EC6198021207EC0D9A05
:10158300021207EC249A021207EC6F9A021207EC7C
:10159300859A021207EC929A021207ECC69A02127B
:1015A30007ECDC9A021207EC629B021207EC6D9BBC
:1015B300021207ECC69B021207EC209C021207ECF6
:1015C300739C021207EC7D9D021207ECDB9F021253
:1015D30007EC80A0021207ECC2A0021207EC4BA199
:1015E300021207EC6DA1021207EC70A1021207ECC4
:1015F30073A1021207EC06A2021207EC2FA2021239
:1016030007EC42A2021207EC6EA2021207ECA9A297
:10161300021207ECACA2021207ECBFA2021207EC03
:10162300E6A2021207EC61BF031207EC6DBF0312BF
:1016330007ECA9BF031207ECE3E5021207EC32E65D
:10164300021207ECE1E7021207ECA6E9021207EC2B
:10165300EAE9021207ECD7EA021207EC08EC0212DD
:1016630007EC2AEC021207EC86EC021207EC0AEDF7
:10167300021207EC0080021207EC2B80021207EC27
:10168300EC80021207EC7281021207ECDB8102127A
:1016930007EC2382021207ECAD82021207EC4283AD
:1016A300021207ECD583021207EC1684021207EC30
:1016B3007A88021207EC088A021207EC418A0212A6
:1016C30007ECEF8A021207ECB08B021207ECFA8CDC
:1016D300021207ECF08E021207EC9E8F021207EC47
:1016E300B990021207EC5B91021207EC1E920212F0
:1016F30007ECA192021207EC9CED011207EC58EEE5
:10170300011207ECD5EE011207ECE4EE011207EC2F
:101713006DEF011207ECE5EF011207ECF4F0011293
:1017230007EC1DF1011207ECC5F1011207EC18F2E9
:10173300011207EC84F2011207ECC2F3011207EC69
:1017430063F4011207ECCBF4011207EC61F601120A
:1017530007EC15F7011207ECB2F7011207EC13F8C7
:10176300011207EC8DF8011207EC92F9011207EC54
:101773001AFB011207EC35FC011207ECCFFC011236
:1017830007EC40FD011207EC1AFE011207EC48A01A
:10179300031207EC98A0031207ECF4A0031207EC62
:1017A3003FA1031207EC9AA1031207EC42A2031212
:1017B30007ECABA2031207ECB8A2031207EC91A744
:1017C300031207ECC2A7031207EC7CA8031207EC71
:1017D300E2A8031207EC53A9031207EC98AC031217
:1017E30007ECBABC031207ECCBBC031207EC6BBDCE
:1017F300031207ECF2AF031207EC00B0031207EC7D
:1018030033C1031207ECCBBE031207ECDBBE03129A
:1018130007ECF6BE031207EC57BF031207ECC0B97F
:10182300031207EC45BA031207ECABBA031207EC39
:101833001FB6031207EC3EB6031207EC94B603126D
:1018430007ECA9B6031207ECF7B6031207EC55B77A
:10185300031207ECDE97031207ECF397031207EC6E
:101863001599031207EC7899031207EC9099031268
:1018730007ECB799031207ECCB99031207ECE49931
:10188300031207EC039A031207EC279A031207ECDF
:101893004A9A031207EC9B9A031207ECC17B0012CE
:1018A30007ECCF7B001207EC497C001207EC2D7D7F
:1018B300001207ECE67E001207ECD6FF011207ECDC
:1018C300FEF3021207EC6BF4021207EC2CF5021282
:1018D30007EC9CF5021207ECA7F6021207EC28F8B6
:1018E300021207EC8CF8021207ECE1F8021207EC83
:1018F300EAF8021207ECF9F8021207EC0CF90212EB
:1019030007EC22F9021207EC2BF9021207EC3EF95D
:10191300021207EC93F9021207EC8FFB021207EC99
:10192300C1FB021207ECE3FB021207ECFCFB021201
:1019330007EC15FC021207EC1FFD021207ECBAFDBF
:10194300021207ECB4B4031207ECD8B4031207EC89
:10195300F1B4031207EC30B5031207EC63B50312BD
:1019630007EC93B5031207ECFBB5031207ECFEB5C6
:10197300031207EC08B6031207EC15B6031207ECC3
:10198300A19D031207ECC99D031207EC0A9E0312E3
:1019930007EC1C9E031207EC379E031207EC9F9E75
:1019A300031207ECAB9E031207EC0A9F031207EC2A
:1019B3002E9F031207ECEF9F031207ECFC9F031209
:1019C30007EC0DA0031207ECC3C0031207ECE0C041
:1019D300031207EC4480031207ECA481031207EC03
:1019E300AA81031207ECC181031207ECE2810312FF
:1019F30007ECF881031207EC0C82031207EC8B82CD
:101A0300031207ECF082031207EC8683031207EC40
:101A13005F84031207EC6F84031207EC7E840312C6
:101A230007EC32BE031207EC56BE031207EC7EBE70
:101A3300031207ECA6BE031207ECC7A2031207ECBE
:101A4300EEA2031207EC0FA3031207EC81A3031208
:101A530007EC33A5031207EC4CA5031207EC63A5AF
:101A6300031207EC6CA5031207EC8AA5031207EC1B
:101A730094A5031207EC9EA5031207ECB1A503126C
:101A830007EC06A6031207EC3FA6031207EC6DA6AC
:101A9300031207ECBEA6031207EC0AA7031207EC16
:101AA30025A7031207EC2FA7031207EC40A7031285
:101AB30007EC86A7031207EC85FF011207EC8CDC09
:101AC300021207ECB8DC021207ECD6DC021207ECB8
:101AD300E9DC021207EC04DD021207EC63DD0212FB
:101AE30007EC91DD021207ECA0E1021207ECE5E23C
:101AF300021207EC17E3021207EC83E3021207EC6E
:101B0300CCE4021207ECF4E4021207EC09E502123A
:101B130007EC19E5021207EC59E5021207ECA5E5FB
:101B2300021207ECB5E5021207EC75B7031207ECD6
:101B330085B7031207ECA3B7031207ECBEB7031272
:101B430007ECE5B7031207EC06B8031207EC20B85D
:101B5300031207EC58B8031207EC7BB8031207EC27
:101B63007FC0031207ECD68D031207ECDD8D031241
:101B730007ECFA8E031207EC2A8F031207EC508F3F
:101B8300031207EC838F031207EC958F031207EC04
:101B9300D18F031207EC3790031207EC73900312F3
:101BA30007ECBA90031207ECE790031207EC0891D5
:101BB300031207ECC4BA031207ECD6BA031207ECFC
:101BC300C1BB031207ECC4BB031207ECADB803128D
:101BD30007EC1FB9031207EC5DB9031207EC9EB9BA
:101BE300031207ECCC94031207ECE894031207ECFE
:101BF3003795031207EC5395031207EC84950312F0
:101C030007EC9495031207EC7C96031207EC869677
:101C1300031207EC9396031207ECA697031207EC43
:101C2300BA97031207ECC397031207ECAF840312AE
:101C330007ECD688031207ECDB88031207ECCAFF14
:101C4300021207ECFFC0031207ECF19D011207EC2F
:101C5300789D011207EC1F9D011207ECB39C011242
:101C630007EC8A9C011207EC7D9A011207EC499A52
:101C7300011207EC169A011207ECFA99011207EC0C
:101C83002099011207ECD898011207EC0D97011265
:101C930007EC8D96011207EC8A96011207EC9595D5
:101CA300011207EC6395011207ECA094011207ECF3
:101CB300CB92011207EC5C92011207EC2E920112F7
:101CC30007EC2B92011207EC1892011207EC4FAAB2
:101CD300011207EC07AA011207EC6AA9011207EC2B
:101CE3005DA9011207EC6BA6011207ECB09101127A
:101CF30007EC9F91011207EC8090011207EC4A90C8
:101D0300011207ECBDA3011207EC0D90011207ECC1
:101D1300AE8F011207EC7D8F011207EC388C011294
:101D230007EC91A2011207EC7D8C031207EC298BBF
:101D3300011207ECB88A011207EC7D8A011207EC45
:101D4300488A011207EC3C8A011207EC9C890112B4
:101D530007ECE388011207ECB686011207EC428414
:101D6300011207EC0084011207ECCB82011207EC8D
:101D73008082011207ECB281011207EC0981011282
:101D830007ECA580011207ECDF80011207ECE5A147
:101D9300011207ECDAF10200000080FBE47300019A
:101DA30036360101000102010001030100010401B3
:101DB300060605020000070100340801000F0904AC
:101DC30001010D0100FF0E080000170200001901B8
:101DD30000FF1A0100011B0100FE1C0100081D0287
:101DE30000001F0100012001000121020000230166
:101DF300000F240200002601000127010008280229
:101E030000FF2A0100072B0102402C0100002D01D5
:101E130000012E0100012F0100FF30010B1C3108CE
:101E230000003A0100083B01000F2F0100000101EF
:101E330071010101010111010101310101010101DF
:101E43008001100161013B00140063017301720101
:101E5300620143010001130106013D013500040144
:101E6300120100010001000100010401040133011A
:101E730033013C01440132013600000100016501D8
:101E83000001350081010001050182018301000188
:101E93000300710030016000110070003102200363
:101EA3005004800010006100000014006300730000
:101EB30072006200430000001300060000000000EF
:101EC30004001200000000000000000004000400F1
:101ED300370037003C02440000000000000000000F
:101EE300650000003500810000000500000083004C
:101EF3000000010371030103010301030103010353
:101F03002203020301031003000300030003000381
:101F1300000300030003420300032403060300033A
:101F230000030403120325032303250323030403EC
:101F3300040300030003000344030003000323031B
:101F43000003650321003503810300030503000338
:101F530000030003030271023001600211027002E8
:101F63000102020202028002100261023A004100F1
:101F73006302730272026202430200021302380018
:101F83000002000204021202000200020002000228
:101F930004020402370037003C0244020002390005
:101FA30000020002650200023502810200020502FE
:101FB30082028302000236000100060000000F00C7
:101FC30000000000000000000000000003FFFF000D
:101FD300000403FFFF0000FFFF0FF4010005C4042A
:101FE3000320000100000B000000000000000003BC
:101FF300010F000034171300CE160100341702003E
:102003008C16030092160400981605009E1606000F
:10201300AA161100C2161400C8161500BC16FFFF3D
:1020230000000C0F3C0F120F180F360F2A0F240F4E
:10203300420F480F4E0F5A0F1E0F060F000F03EAF1
:10204300F5E5D5D5C5B5A5959585857575656555AD
:10205300554545353525251515050AC60C028A0C47
:10206300059C0C07900C0C6C0C0D7E0CFF00000003
:10207300160F00000B150B020002220F32000006A0
:10208300F60F08100E10D60E1410D00EDC0E5610DC
:1020930074107A105C10681062100C0E020B040BA3
:1020A3000A0708000F00383C3E363B3B352B432CD8
:1020B3000001191618161615230300000349484298
:1020C3004D1817250502303017181921301B1D1F15
:1020D30030303016181920231A1C1E304A101A10DB
:1020E30020102C102610300F540F6E10600F660F47
:1020F30002040201010101090200000000000000C6
:10210300BE040AE803040015000E002800040C0AAC
:10211300030908FF1E1E0F040C0574F7120368E978
:102123009003B0F0900365E4F0121BB49003C4E491
:10213300F0A3F09003B1F0A3F0120E0A121BBA90B1
:102143000334E4F0A3F090211993FA7902121C1AD4
:10215300024EE374F2120368EAFEEBFF54806069F7
:102163009003B0E0F91213508A088B09EA4509601D
:102173004F7C0080010CEC75F003A4F8A9F0745DAA
:1021830028F582742039F583E493F4602CE493F802
:102193008508828B83E06870DCAA08EC75F003A4E1
:1021A300F8745E28F582742039F583E493C0E074F3
:1021B3000193F583D082121D9FAA08AB0912134421
:1021C300EEFAEF6480FB022323EF5420601D120D0F
:1021D300208A088B09EA4509600A120C7EAA08AB1B
:1021E30009121344EEFAEF642080DAEEA2E0501AEB
:1021F30090036AE0640F700B7900120C48E96003E6
:10220300122326EE6401FAEF80BB542070030222EE
:10221300F1750C001238CA8B09EA450970107C026B
:102223007D007A207B009003B0E0F91214947C00C7
:1022330079047A007B00120CFC8A088B09801885CC
:102243000882850983A3A3A3A3A3A3A3A3A37401C0
:10225300F0850A08850B09E5084509606D7C00795E
:1022630004AA08AB09120CFC8A0A8B0B750C01E556
:10227300082404F8E50912366E24FFF0A3E034FFC6
:10228300125ACF70CC850882850983A3A3A3A3A385
:10229300A3A3A3A3A3E0640170A585088285098392
:1022A300A3A3A3A3A3A3E054047094850882850980
:1022B30083A3A3A3A3A3A3A3A3A37406F07AB785BD
:1022C30008828509831224528087120CCC7C007902
:1022D300017A007B00120CFC8B09EA45097009E5C1
:1022E3000C70057A2012482DEE6420022209EF5467
:1022F30002600B120E04EEFAEF64020221C8EF54DF
:10230300046019124A191249397901900363124C76
:102313009D120B8EEEFAEF64040221C87A007B0053
:10232300022559900D96122BF0120C6022C082C028
:102333008374EA1208CC851882851983AA82AB8339
:10234300794B121BF07408120A8B7402F074091291
:102353000A8BAA82AB837950121BF07413120A8B77
:10236300E4124E6C121C0E7416023DEB74F712034A
:102373006874E11208CCEAFEEBFFEE4F6033851878
:1023830082851983AC82AD83120D447406120A8BC5
:10239300E0601E7417120A8BE0FD7401120A8BE0D1
:1023A300FCEEFAEFFB7900120AB0E9600479A4802D
:1023B300027900024EDE74F6120368EAFEEBFF8E2A
:1023C300828F83A3A3A3A3A3A3E05440601B12544F
:1023D3003912252060067AFF7BFF801A8E828F8355
:1023E300123A77FAA3E0FB8003120D6874FE6A7059
:1023F3000374FF6B6041125439124871120DC2E924
:102403008E828F83600612244BE4800512244B7462
:1024130001F07C4E7D0C8E828F83124C9D121C1416
:10242300E9F5087015EE4F60097901EEFAEFFB123A
:102433000CD8A9080248A27508CDAA088E828F83FA
:10244300122452E960DF80EAE0240D123F4622E0C5
:10245300240C123F46E0F9120C5A2274F612036858
:10246300E9FEEAFF7A0F7B0012133EEA4B60198AFA
:10247300828B83740CF0EEA3A3F0EF8A828B83A389
:10248300F01249227900802FEEF9120D028A088B8F
:1024930009A808A909E849601C88828983A3A3A322
:1024A300A3A3A3A3A3A374061256D2E0F9120C129A
:1024B300EEF9120CDE79100248A2C082C0839003A9
:1024C3006AE0640F7014EA4B6010900365E06408DF
:1024D3006005E0640470031224E0023E15EAFCEB9D
:1024E300FD7A017B009003B0E0F912148E22C082C2
:1024F300C0837900EA241DF582EB123A7424FD604F
:102503000B14600824FD600424FD700109023E15CC
:102513008E828F83A3A3A3A3A3A3A3A3A312252480
:1025230022123ABCFB120DC2E9228E828F83A3A32F
:10253300A3A3A3A3A3A3A31225246402228E828FA1
:1025430083A3A3A3A3A3A3A3A3A3123E0C90035605
:10255300E068221208377F060205C774F412036885
:1025630074FD1208CC8A088B098A828B83A3A3E0AB
:10257300F9120D028A0A8B0BAE0AAF0BEE4F7003F2
:10258300022665850882850983A3E064F1603085AE
:102593000882850983A3E064CD60248508828509C8
:1025A30083A3E0641A6018850882850983A3E06425
:1025B300E9600C850882850983A3E064E1700879EA
:1025C30000120CD8E9706C850882850983A3E0C0EA
:1025D300E07402120A8BD0E0123DF0EEF0A3EF128A
:1025E3003046851882851983AA82AB837005120B46
:1025F300768003120DAA7402120A8BE064E9703329
:102603008E828F83122671750A01780A1208287543
:102613000AE9780A120828E508240CF582E509126C
:102623002B38123023FCA3E0FD8A828B8312303DCA
:102633001208378E828F83A3A3A3A3A3A3A3A3A369
:10264300E0640270108E828F83A3A3A3A3A3A3A32A
:10265300A3A37406F0850882850983A3A3E0F91276
:102663000CDE120CCC900D9A122329022BF5E0F804
:10267300A3E0F9E8FAE9FB2274F4120368EAFEEB3B
:10268300FF7508008E828F83A3A3A3A3A3E06042F8
:102693007508088E828F83A3A3A3A3A3A3A3A31266
:1026A3003D1F8B0BEA450B601075082C8E828F83C0
:1026B300A3A3A3A3A3E0D2E0F08E828F83A3A3A35B
:1026C300A3A3E054036401600302276443081102D7
:1026D3002764EE2418122C026033EE241A122C0203
:1026E300700F1225407003A3E0697075750822808E
:1026F30070EE241BF582EF122769241AF582EF127C
:10270300304EEE241912546D120C00805412252DF4
:1027130070037508011225407003A3E0697006E594
:1027230008D2E1F508E50860158E828F83A3A3E044
:102733007006E508D2E58004E508D2E6F50812251F
:102743001364017006E508D2E0F5088E828F83A337
:10275300A3E0600D12277764016006E508C2E0F587
:1027630008A908022BFA123A6212277022E0FCA38E
:10277300E0FDEE22123A5C123A94F9120DB0E9220E
:10278300C082C08379018A828B83A3A3E0C39402AE
:102793004001198A828B83A3A3A3A3E0C3940240BD
:1027A3000279008A828B83A3A3A3A3A3A3A3A3A3D6
:1027B300E064F87003A3E0F460458A828B83A3A3EB
:1027C300A3A3A3A3A3A3A3E064F97003A3E0F4600A
:1027D3002E8A828B83A3A3A3A3A3A3A3A3A3E064AF
:1027E300FA7003A3E0F460178A828B83A3A3A3A3E5
:1027F300A3A3A3A3A3E064FB7003A3E0F470027993
:10280300008A828B83A3A3A3E0F8900353E068605C
:10281300027900023E1574F012036874DE1208CCCC
:10282300EAFEEBFF8E828F83A3A3A3A3E0600E9047
:102833000D981248996006900D981223297403127B
:102843000A8BAC82AD838E828F83A3A3A3124970BC
:102853001251A9E9600F7403120A8BAA82AB831287
:102863000C78E970087901121BC6022B2DEE241B8C
:10287300123A677410120A8B1249397409120A8BBF
:10288300E06021741A120A8BE0FD7404120A8BE0D3
:10289300FC8E828F83124C9B7901120AB0E960048B
:1028A300790280C37403120A8BAA82AB83120C725F
:1028B300E9F50A7409120A8BE0702A90034DE0606F
:1028C300247422550A6422601C7442550A644270BF
:1028D300CF7420120A8B122B4B600A7420120A8BBE
:1028E300122B4470BBE9A2E650417403120A8BAA6F
:1028F30082AB83120C66E970030228687420120A03
:102903008B123A776403700F7420120A8BA3124858
:102913008BA3E0640D60147403120A8BAA82AB8349
:10292300120DD4E964017003022B2DEE242C122B1B
:1029330035122E597003A3E069701C7508007808DE
:102943001208287808120828EE242E12546D122B30
:102953005112303D1208377409120A8BE0700302DA
:102963002A0A122B51124C9D120E2E8A088B09EA49
:1029730045097003022AA77404120A8BE0F88E82B9
:102983008F83A3A3E028F8A3E03400F9E8240D1211
:102993002B3C8A828B83A3A3A3E068601CE88A8212
:1029A3008B83A3A3A3F090808A120A68850882858B
:1029B3000983A3A3A3A3120A747904E9120A8B124D
:1029C30051862AF8A3E034008882F583A3AA82AB58
:1029D300831213328A0C8B0D8C0E8D0F8508828522
:1029E3000983A3A3A3A3780C1207A54003022B2DED
:1029F300908082780C12096E850882850983A3A3CF
:102A0300A3A3780C120A4C900365E064046008E009
:102A130064096003022B2DE50AA2E54003022AE5BF
:102A2300EE242E122C02851882851983F0EE242FB2
:102A3300122C02C0E07401120A8BD0E0F0EE2430B5
:102A4300122C02C0E07402120A8BD0E0F07414124C
:102A53000A8BE064017027740E120A8B123A6DEE32
:102A63002412122C02687003A3E0697011740C1213
:102A73000A8B12253A70077414120A8BE4F0EE24C1
:102A830024122B3512064C7404120A8BAC82AD83CC
:102A93007407120A8BAA82AB83120B7C740412088C
:102AA30037022B2D9003AAE064016003022A0A7403
:102AB30020120A8B122B4B7009E50AA2E65003027F
:102AC3002A0A7410120A8BE0F47003A3E0F4605A2C
:102AD300EEFCEFFD7403120A8BAA82AB83120C8403
:102AE3008048A2E650447420120A8B124CAC701A30
:102AF300741A120A8BE0640270307403120A8BAAF0
:102B030082AB837900120D9E80207420120A8B12EF
:102B13002B447016741A120A8BE06404700C74034D
:102B2300120A8BAA82AB83120D987422025058EEBC
:102B3300240BF582EF123A6222F582E9124952F828
:102B43002212544BE0640722123A94640622EE24C4
:102B53002A123A5F1227702412123A5F2274F41277
:102B63000368EAFEEBFF8C088D09900675E0600FA1
:102B73001225407003A3E0697005120BEE804F79B4
:102B830000124C90120C1E8A828B83E5824583606F
:102B930035A3A3A3A3A3A3E05418602AE508241B29
:102BA300F582E509122B38120650123308122B381E
:102BB300120650EE241812546D122BD3120C3074DB
:102BC3000412083780087900122BD3120BF48027E4
:102BD3008E828F83A3A3A3A3A3A3A3A3A31227706C
:102BE300240BF582EF122BEC223400F583123ABC4E
:102BF300FB2274031208377F040205C7EE2417F57E
:102C030082EF1249522274F712036874F71208CC48
:102C1300EAFEEBFF900365E06403600DE06401608E
:102C230008E064096003022CD38E828F83A3E070D3
:102C33007E7C007D007A027B00121BC0EE2402FA28
:102C4300EF123675123A6D900356124939795312C1
:102C53001BF67900122CD8E06409600312306B85EF
:102C6300188285198374011248BA9003657404F0BD
:102C73007401120A8BAA82AB83794A121BF0740186
:102C8300120A8BAC82AD837A5B7B03121BDE90034B
:102C93005612519F7A03123075900350E0A2E3500D
:102CA30004D2F08002C2F01248A7122326801E8E9F
:102CB300828F83A3AE82AF83FC7D007A037B1012E5
:102CC3001BC08E828F83E0F9122CD8E4F0120CAE75
:102CD3007409024EE0900363122BF0120B8E9003E3
:102CE3006522C082C083900334124899701F9003F9
:102CF30065E014600924FC600A14600C800F9003E3
:102D03003C8032900338802D90033A8028E8496054
:102D13000890033512301D700C8A828B83A3E0F96F
:102D2300120B82801B9003351233A47005120DF829
:102D3300800E9003E1124899600612488B121D9F82
:102D4300023E1574F412036874FB1208CC8A088BD4
:102D5300097A0F7B0012133E8A0A8B0BAE0AAF0B64
:102D6300EE4F7003022E4D8E828F83124E6A79507E
:102D7300121BF0850882850983A3E06003022E35C8
:102D8300900363E0F47003A3E0F46034900363E022
:102D930064FE7003A3E0F46027851882851983120B
:102DA3002E597003A3E0696017850882850983A300
:102DB30074EA1230537A637B037950121BF68072E4
:102DC30085188285198312542C1249397A567B034C
:102DD3007953121BF090035612496A1249397A59F2
:102DE3007B03794B121BF07A587B0379E1121BF0BA
:102DF30090036AE0C3940F5021900358E0C0E0743D
:102E030002120A8BD0E0F07404120A8B7401F004EE
:102E1300120A8BAA82AB83121C08750A00780A1265
:102E23000828780A120828900DBCE0F912303412F1
:102E33000837850882850983122E52A3F090036513
:102E43007403F0EEFAEFFB1249227405022BF7A389
:102E5300E08E828F8322125430E06822123F4D228B
:102E630074F512036874D81208CC8A088B098A8215
:102E73008B83A3A3A3123A997415120A8BAC82AD68
:102E8300838A828B83A3A3A3A3A3A3A3A312302325
:102E9300FAA3E0FB120CBA7415120A8BE0706B856F
:102EA3000882850983A3A3A3A3A3A3A3A3E0C39435
:102EB3000B40578E828F83A3A3A3A3A3A3A3A3E053
:102EC30064027046EE240B122C02F4703D900365ED
:102ED300E06402603AE06406603590033412489976
:102EE300600512301D604F900365E064086005E0E3
:102EF300640470167417120A8BE0F9741C120A8B9F
:102F0300AC82AD83124C90120CC0742802595890B5
:102F13000334124899701F7508007808120828783E
:102F230008120828EE2410122B3512548512375D2F
:102F330012303D1208378E828F83124C0C12368763
:102F4300123A6D7402120A8B124939EE240D122CB7
:102F530002C0E07404120A8BD0E0123046F508A3D5
:102F6300E0F509740F7808120A3D7405120A8BE51F
:102F730008F07419120A8BE0C0E07406120A8BD0B1
:102F8300E0F0741B120A8BE0C0E07407120A8BD0C6
:102F9300E0F07416120A8BE0C0E07409120A8BD0B9
:102FA300E0F07417120A8BE0C0E07408120A8BD0A9
:102FB300E0F0EE2410122C02C0E0740A120A8BD047
:102FC300E0F0741A120A8BE0C0E0740B120A8BD083
:102FD300E0F07427120A8BE0C0E0740C120A8BD065
:102FE300E0F0741C120A8BA982AA8389088A0975E6
:102FF3000A0078081208207C087D007410120A8BDE
:10300300AA82AB8312444812083785188285198334
:10301300AA82AB83120B88022F0D1233AA640122FA
:10302300E0F98A828B83A3A3A3A3A3A3A3A3A3E00F
:10303300229003631251A3900359122BF0120D7ABD
:10304300740222F0EE240B12494F22124952FA2243
:10305300F07A567B03795312305E22121BF67A59AB
:103063007B03794B121BF622900363122BF0120E93
:1030730028227B00121BC09003591251A37A047BB0
:1030830000121BC022F01254902274F212036874CF
:10309300F81208CCEAFEEBFF8C0A8D0B890C85181D
:1030A30082851983AC82AD837583807582467408EB
:1030B300120765F50DEEFCEFFD851882851983AACD
:1030C30082AB83124B6D7003750D019003B1803B8E
:1030D300EEFCEFFDE508240BFAE5093400124B6C16
:1030E300601E850882850983A3A3E0650C701185A2
:1030F3000882850983E0650A7004A3E0650B6038E4
:10310300E5082414F582E509122B3812367FE50809
:1031130045096024E50DA2E040B685088285098350
:10312300E0650A7004A3E0650B70D5850882850904
:1031330083A3A3E0650C70C8AA08AB097408022531
:1031430056C082C0839003B1023E1274F712036823
:103153009003B1123ABC8012EA2414F582EB122BCD
:1031630038123A991213E0EEFAEFFBEA4B70E9904A
:1031730003B1E4F0A3F0024EE374F11203688A088A
:103183008B09ECFEEDFF890A8A828B8312504C8AED
:10319300828B83122E5212323A8A828B83A3A3E04C
:1031A300C454F0FA88828983E04A12324A122E52BA
:1031B300123244E0333354FCF88E828F83E048129A
:1031C3003244A3E033333354F8F88E828F83E048DC
:1031D30012323A8508828B83A3A3A3A3A3A3E0A2FD
:1031E300E0E4331313FA88828983E04AF0E5082484
:1031F30007F50CEB12444E1208207C0812444212CD
:10320300083712517DE508240FF50CE5093400F564
:103213000D780C1208207C03124442120837E50A89
:10322300C3940F400D123308122B38122E53A3A34D
:10323300A3F07F070205C7F0EEF8EFF9A30EAF8303
:103243002212324AA3A322F08508828B83A3A322EE
:1032530074F1120368EAFEEBFF890A8C088D098E6C
:10326300828F83E08C828D83123D29AE82AF83E00F
:10327300124508124479C4124508123311E054036D
:103283008C828D83124477A2E2E4338C828D831285
:103293004476131313541F124508124475A2E7E42E
:1032A300338C828D83A3A3A3A31233118E0C8F0DB2
:1032B300750E00780C1208207C087D00E5082407B1
:1032C30012511212083712517D8E0C8F0D780C1289
:1032D30008207C037D00E508240F125112120837E1
:1032E300E50AC3940F40148E828F83A3A3A3E0C087
:1032F300E0123308122B38D0E0800612330812563E
:10330300C6F0023235E5082412F582E50922A3A3AB
:10331300123D2D0EAF832274F412036874F9120860
:10332300CCEAFEEBFF8908900334124899600E1231
:1033330033A47009EEFAEFFB120DF2805F90036382
:10334300E06E7003A3E06F70537401650860097A3F
:10335300777B03124B6D70447A007B021238CE8B5D
:103363000BEA450B7036900366120A68851882854E
:103373001983120A7490036CE0C0E07404120A8B80
:10338300D0E0F07405120A8B7401F07406120A8BF4
:10339300124E6A120B4CE9609B120B527407022BFC
:1033A300F71233AA64022212544CA3A3A3A3A3A328
:1033B300E02274F51203688A088B098A828B83A33F
:1033C300AE82AF83E0F9120BA68E828F83E064EBAB
:1033D300600C850882850983A3E064E17009850890
:1033E30082850983A3E4F0122326750A01780A1261
:1033F3000828850882850983A3E0F5087808120860
:10340300287900123034120837120CCC02595BEAC7
:10341300F0A3EBF0023E1574F61203689003C3E0C9
:10342300701B7C0079017A007B00120CFCEA4B6074
:103433000C8A828B831248996003120C540248A2AF
:10344300C082C0831238B6401079FF120CF6E9F837
:10345300902111E493C3985004790180027900020A
:103463003E1574F01203688A088B09890B750C00EA
:103473008A828B83A3A3A3A3A3A3A3A3E0F9120D1F
:10348300028A0E8B0FAE0EAF0F750A01EE4F60036B
:10349300023543850882850983A3A3A3A3A3A312AB
:1034A300519F850882850983A3A3A3A3A3A3A31282
:1034B3004242124C9D120CEA8A0C8B0DAE0CAF0DDE
:1034C300EE4F70030236668E828F83A3A3A3A3E419
:1034D300F0A3F0E508240B123672E0C0E0122B32A1
:1034E300D0E0F0120DC8EE240CF582EF12486DE522
:1034F30008240EF582E509123A6AEE240EF582EFEE
:10350300124936750C01EE2406F8EF12366E547F1D
:10351300F0A3E054FC1254E2E0540460030235C902
:10352300900D9E124233740778081209488E828FD9
:1035330083A3A3A3A3A3A3E04508F0A3E04509F055
:103543008E828F83A3A3A3A312367D7407780812F8
:103553000A3DE5085407F508E50B607A8E828F83F0
:10356300A3A3A3A3A3A3A3A3A3740212447A240D26
:10357300123F42E0A2E2500B90035112496AA3A307
:10358300124939E508700302363BEE2406F8EF349E
:1035930000F9E8FAE9FB8A828B83E0547FFCA3E01D
:1035A30054FCFDE50824FFF508E434FFF50974072E
:1035B3007808120948EC4508F8ED4509F98A828B29
:1035C3008312493980728E828F83A3A3A3A3A3A3FB
:1035D300E04480023542E5087005750A0080598E83
:1035E300828F83A3A3A3A3A3A3E054206012121387
:1035F30038EA547F245F8E828F83A3A3A3A38023FF
:103603008E828F83A3A3A3A3A3A3E05410600A1203
:103613001338EA540F240A80DD8E828F83A3A3A379
:10362300A37401F0A3E412368774041238C58B091E
:10363300EA45097003124860E50CA2E050288E8227
:103643008F83A3A3A3A3124ED0F9EEFAEFFB120CC0
:10365300F0E9601212488F6003123A52EEFAEFFB60
:103663001213E0750A00A90A02505B124A2D22FACE
:10367300E5093400FB8A828B8322A3A3E0F508A328
:10368300E0F5092212368B2212512EA3A3A3A3A382
:103693002274F412036874F71208CC7E00120D0230
:1036A300EA4B70030237568A828B83A3A3A3A3A397
:1036B300A3A3A3A3E0640660030237568A828B8325
:1036C300A3A3A3A3A3A3A3E0FF8A828B83123F55E3
:1036D300E0C0E07408120A8BD0E0123A8D124B73EB
:1036E300124939120D14EF54086066851882851942
:1036F3008312519F7A007B00120CE48B0BEA450B7B
:10370300704F900363123B7D121C207C007D007A76
:10371300007B0080288E828F83123A77F47003A394
:10372300E0F4602D90036312375D124C9D1219145F
:10373300E9641A601C7C007D00EEFAEFFB120CE4D6
:103743008A0A8B0BAE0AAF0BEE4F70C97900121CBD
:10375300267E01EEF97409022BF712376122E0FC91
:10376300A3E0FD8E828F8322C082C083EA4B700563
:103773009003C480068A828B83A3A312397D6025BC
:103783008A828B83A3A3A3A3A3A3A3E0540860E526
:10379300EC4D60158A828B83123A776C7003A3E039
:1037A3006D70D280047A007B00023E1574F212031E
:1037B30068EAFEEBFF890A8C088D097A107B0012F8
:1037C30013DAEA4B603F8A828B83A3A3A3A3A3A349
:1037D300A3A3A3E4123A7BA3E50A125452A312381B
:1037E300128A828B83A3A3A3A3E4F0A3123A87A331
:1037F300F01252E6EA240CF582EB123D1912380B53
:10380300A3A3F0A3F0022559A3F08A828B8322A3FA
:10381300A3E508F0A3E509F02274F4120368EAFEB5
:10382300EBFF89088C0A8D0BEE4F60557401650818
:1038330070147901120CF6E9F8902115E493C398FA
:10384300500F7911806A74046508702F1238B640DE
:10385300F18E828F83A3A3A3A3A3A3A3A3A3E508AA
:10386300123D29A31259E58E828F83A3A3E4F0A30B
:10387300F09003C41248996021800D7402650860BA
:10388300D079C1802BE0F8A3124963A3A312397D39
:1038930088828983A3A370ED80039003C4EEF0A311
:1038A300EF1238C58B0BEA450B70031248607900A1
:1038B300022BFA7904120CF6E9F890211CE493C365
:1038C3009822F01238CA227A207B009003B0E0F9E4
:1038D3001214A022C082C083E9F879009003C48047
:1038E3001D8A828B83A3A3A3A3A3A3A3A3A3E0689B
:1038F300600574FF687001098A828B83A3A3123960
:103903007D70DE023E1574F7120368EA4B70059072
:1039130003C480068A828B83A3A312397D60248A21
:10392300828B83A3A3A3A3A3A3A3A3A3E06970E4AC
:10393300EC60148A828B83E0240D125190A2E24042
:10394300D380047A007B00024EE3C082C0839003DD
:10395300C480068A828B83A3A312397D60128A8274
:103963008B83A3A3A3A3A3A3A3A3E06970E580040C
:103973007A007B00023E153BF583122BF0EA4B22C3
:1039830074F21203688A0A8B0B8C0C8D0D75080078
:10399300750900EA450B602E9003C480068E828F62
:1039A30083A3A31239D0601EAC0CAD0DEEFAEFFB6E
:1039B300850A82850B83121D9FE9640170DFEEF88F
:1039C300EFF988088909AA08AB09022559E0FEA383
:1039D300E0FFEE4F2274F71203689003C4123A6DAE
:1039E3007C007D00800DE8FCE9FD88828983A3A328
:1039F300123A6DE8496030EA687002EB6970E7904B
:103A030003C4124C9DE86A7002E96B88828983A320
:103A1300A37008123A6D9003C48009123A6D8C8228
:103A23008D83A3A3124939024EE374F7120368EAA4
:103A3300FEEBFFEE4F6015120D0E123A9F12488FE8
:103A43006003123A52EEFAEFFB1213E0024EE3EE7A
:103A5300240C123A5F123AB422EE241DF582EF349D
:103A630000F58322F582EF123A62123E0C22F582B0
:103A7300EF123A62123A9422123A7F2212545AA354
:103A8300A3A3A322123A7FA3A32212380C123A94BF
:103A930022125445E022E0FEA3E0FF228E828F83B0
:103AA300E0241C123F46123AB48E828F83123AB43A
:103AB30022123ABCFB1213E022E0FAA3E022C082F6
:103AC300C083EAFCEBFDEC4D700479058044EC24E3
:103AD300FBF582ED34FF1248977007123B18E0F4B0
:103AE300600512134480E39003B0E0C0E0123B187A
:103AF300D0E0F0902112E493F97AC67B03121D946F
:103B0300E96401700B7A007B20124864790080021B
:103B13007904023E15EC24FFF582ED34FFF5832290
:103B230074F4120368A2AFE433F508C2AF9003C67E
:103B33001239D06038EE24FBF582EF34FF12489738
:103B43007A007B209003B060051248678005E0F996
:103B530012137AE4F50AF50B780A120824EEFCEF47
:103B6300FD7AC67B031213687402120837E508A2B4
:103B7300E092AFEEFAEFFB022BFA1251A385188203
:103B8300851983AA82AB832274F212036874FC1230
:103B930008CCEAFEEBFF750AFE750BFF120CD2E9A7
:103BA30060057911023D0EEE2415122C0260379048
:103BB3000DB2E0C43354E0F8E0333354FC48C0E0C2
:103BC300EE2415122B35D0E0123D29123D1F8B092F
:103BD300EA45096011750AFFEE240F122C02440412
:103BE300124947D2E0F08E828F8312251E6006EEC3
:103BF3002412123D16EE2413122C02701090211879
:103C0300E493C0E0EE2413122B35D0E0F08E828FC4
:103C130083E0A2E750045403801CEE2414122C0208
:103C23007015900342E0C0E0EE2414122B35D0E06F
:103C3300F0900342E004F0EE2411122C02640170B0
:103C43001690066CE0600D90034DE0700A8E828F33
:103C530083E07003123D138E828F83E0640170133F
:103C6300EE240B123A7164027009EE240F122C0237
:103C73004440F0851882851983AC82AD83EEFAEF58
:103C8300FB120D388A088B0974FE650A700374FFF2
:103C9300F470098E828F83A3A312511EEA45096033
:103CA300668E828F83E0C0E07401120A8BD0E0F04D
:103CB3007402120A8B1252EA7401120A8B85820C67
:103CC30085830D780C120824EE240F122B3512066F
:103CD30050EE240E122C02F50C780C1208289003D7
:103CE300561206507407120A8BE0F9AC0AAD0B1298
:103CF3000D327407120837E9FE74106E700BAA08B0
:103D0300AB091213E080027E10EEF974040225560B
:103D1300EE2411F582EF123A62E4F022A3122BF0A3
:103D230079FF121CD422123D2D22F08E828F83A3A1
:103D330022C082C08374DE1208CC8A828B83A3A341
:103D4300A3A3123A6D740E120A8BE8F0A3E9123E94
:103D530003740C120A8B123DFC240DF582EB122C1A
:103D630005C0E0741A120A8BD0E0F012506BEB120C
:103D73003A6A7420120A8B123DFC2415F582EB1269
:103D83002C05C0E07408120A8BD0E0F0EA241CF57D
:103D930082EB123A6A7412120A8B123DFC2411F55B
:103DA30082EB122C05C0E07409120A8BD0E0123D9D
:103DB300F074FFF07401120A8B74FFF07402120A9C
:103DC3008B74FFF090808A12064C7404120A8BAC39
:103DD30082AD837407120A8BAA82AB83120B7C74A5
:103DE30004120837790074221208378025123DF433
:103DF30022F085188285198322E8F0A3E9F0EA22EC
:103E030012380CA3123E0B22A3E0F8A3E0F922120E
:103E13004C9DD083D0820207E974EC12036874EEE0
:103E23001208CC8A128B13ECFEEDFF89097426125B
:103E33000A8B12511E7428120A8BE0F51074291292
:103E43000A8B123F37742B120A8BE0F50EA3E0F5B1
:103E53000F7508107A1E7B001213DA7402120A8B94
:103E63001248717402120A8B1248997003023F3090
:103E7300851882851983AA82AB83795012474C1225
:103E83004C9D7402120A8B123F55A3124871741091
:103E9300120A8B1259E77402120A8BE0240B123FA9
:103EA300427402F0120A8B123F557402F0120A8B0D
:103EB30012543D1252EA7402120A8B124CB2E509F3
:103EC300F07402120A8BE0240C123F42E510F074E6
:103ED30002120A8B123F3FE512F0A3E513F07408B8
:103EE300120A8BE50CF0A3E50DF0740A120A8BE5B8
:103EF30010F0850E82850F83C082C083740D120A71
:103F03008BAC82AD83D083D0827403120765F974BE
:103F130002120A8BAA82AB83120CD8E964017005E2
:103F230075080080087402120A8B123A58A90874A3
:103F330012025135E0F50CA3E0F50D22E0241C122A
:103F43003F4622F8A3E0123F4D223400F9888289CC
:103F53008322124CA5A3A3A3A3A32274EE12036886
:103F6300EAFEEBFF8C088D098E828F83A3740812FF
:103F73004982E060088E828F83A37410F0122BFFB6
:103F830060098E828F83A3E02408F0EE2415122C9F
:103F93000260088E828F83A3E004F08E828F83A356
:103FA300A3A3A3A3A3E060198E828F83A3A3A3A3D8
:103FB300A3A3A3E0C3332402F88E828F83A3E02854
:103FC300F0EE2411122C026005750B0E8003750BA5
:103FD300008E828F83A3C082C083EE240D122C0235
:103FE300D083D082F8E028250B8C828D83F0EE24D9
:103FF30011122C02600512445828F08508828509A5
:1040030083E0C394754009750800750900024140B7
:10401300E0FA7B001253987003024140EEFAEFFB83
:10402300120D3EEA850882850983124872EE240246
:10403300F8EF122E5F12423A12417CF0EE2404088C
:1040430008EF122E5F124682A312417CA3A3F0EE67
:104053002413124162F0EE2414124162A3F0750A94
:1040630008EE2416122C026010EE241812519CE55F
:1040730008240812547B750A10122BFF6016EE24D5
:104083001A12519C850A0CE508250C12547B7408FE
:10409300250AF50A8E828F83A3A3A3A3A3A3E060BB
:1040A30059EE2407F510EF3400F511851082F583DE
:1040B300E0C0E0124149122B38D0E012416CE0C05D
:1040C300E0124149122B38D0E012416CA312415542
:1040D300120820851082851183E0C333FCE433FD8D
:1040E300850A0CE508250C12511212083785108237
:1040F300851183E0C333250AF50AEE2415122C0239
:10410300600BC0E0124149122B38D0E0F0122B3281
:10411300124155120820EE240D122C02FC7D00855D
:104123000B0A8E828F83A3E0F8E50828F8E50934AB
:1041330000F9E8250AFAE9125115120837AA08AB63
:10414300097F0A0205C7850A0CE508250CF582E5F7
:104153000922E0F50CA3E0F50D750E00780C221290
:104163003A5F124186A3A3A322F0050A8E828F83AE
:10417300A3A3A3A3A3A3A3A322A3A31254E6A312BB
:10418300418622124686A3A32274F61203688A820A
:104193008B83E0FC900353124233740278081209B4
:1041A30048EC4508FCAD09EA241212422D74067846
:1041B30008120948EC4508FCED4509FDEA2415F50C
:1041C30082EB122C056004780180027800E4C8F9C0
:1041D300ED49FDEA2411F582EB122C05F508880957
:1041E30074097808120948ED4509FDEA24161242BC
:1041F3002D740B7808120948ED4509FDEA241712BE
:10420300422D740C7808120948ED4509FD8A828B0A
:1042130083A3A3A3A3A3A3124233740A78081209A6
:1042230048ECFAED4509FB0248A2F582EB123A622B
:10423300E0F50875090022E085088285098322A339
:10424300E0F98508828509832274EE1203688A0ADD
:104253008B0BECFEEDFF750F01E9C3940850057954
:104263000002443F8E828F83E9F01246ABE960037C
:10427300750F0012468F8E828F831246D9EE12502D
:104283006CEF1246CEC0E0EE2411122B35D0E012B3
:1042930046C6C0E0EE2412122B35D0E0123D29743D
:1042A30008125126A3A3A3E06015124677EE241348
:1042B300F582EF1249368E828F83A3E02408F08EB5
:1042C300828F83A3A3A3A3A3A3A3A3E060218E82CE
:1042D3008F83A38582088583091246BAEE2415F5D8
:1042E30082EF124936850882850983E02408F08E1F
:1042F300828F83A3A3A3A3A3E0601A8E828F83A3D9
:1043030085820885830912469E8E828F83A3A3A389
:10431300A3A312446AEE2419123D16EE241B123D88
:1043230016A312497AE070030243D3EE2419F8EF7F
:104333003400F98E828F83A3858208858309E0FA8E
:10434300E50A2AF582E50B122C058882898312443B
:104353006AFAE50A2AF582E50B122C05C0E0EE2481
:104363001A122B35D0E012446A88828983E060599F
:10437300F890211BE493C398500575110C8008EE47
:104383002419122C02F5118E828F83A3E0F8E50A1B
:1043930028F50CE50B12444E120820E511C333FC3B
:1043A300E433FD7A4E7B0C124448120837EE241B8B
:1043B300122B35744EF0A3740CF0E511C333F8855A
:1043C3000882850983E0288006EE24181256C3F07C
:1043D3008E828F83A3E0F88E828F83E0C39850038D
:1043E300024262A3E0FA8A08E50A2508F8E50B34DD
:1043F30000F9EE241DF582EF124A4212447AC39A61
:10440300C0E0EE2417122B35D0E012493F602BEEAB
:104413002417F8EF3400F9880889098882F583E0C6
:1044230024F2124A23240EFAA3E03400FB88828983
:1044330083124871124458C398F0A90F0241447D76
:1044430000EEFAEFFB12131A7403223400F50D7514
:104453000E00780C2290034EE0F9120AB6E9F885B3
:104463000882850983E022F0850882850983E004B8
:10447300F022A3A3A3A3A3F08E828F83E02274F47C
:104483001203688A088B09EA12450FF0EA131354E2
:104493003F124508A3A3A3F0EAC4131312450FA3C5
:1044A300A3F0EB1245011245197409780A120A3D6B
:1044B3001244FF124518740A780A120A3DE50A5499
:1044C30001C0E0EC2418F582ED122B38D0E0124540
:1044D3001E740B780A120A3D1244FFA31245187486
:1044E3000C780A120A3D1244FFA3A3A3A3A3A3A318
:1044F300A3F0740D7808120A3D022764E50A5401FB
:104503008C828D8322540F8C828D832254038C8260
:104513008D83A3A322A3A3A3A3A3A3F08A0A8B0B34
:1045230022C082C08379008A828B83A3A3A3A3A31F
:10453300A3E090034D600FE070228A828B83A3A3D4
:10454300E07019098016E060138A828B83124C9401
:10455300900356E06A7003A3E06B70E7023E1574A4
:10456300F01203688A0A8B0B890C8C088D0912469A
:10457300AB12468F8508828509831246D9E5081256
:10458300506CE5091246CEC0E0E5082411F582E53A
:1045930009122B38D0E01246C6C0E0123308122BA2
:1045A30038D0E0124A4A7408124A636011124677FF
:1045B300E5082413124A3E124A4AE02408F085080B
:1045C30082850983A3A3A3A3A3A3A3A3E060178561
:1045D3000882850983A31246B6E5082415124A3ECC
:1045E30012447A2408F0850882850983A3A3A3A330
:1045F300A3E06019850882850983A3AE82AF831285
:10460300469E85088285098312447504F0AA08AB87
:1046130009120D50E9F50D7056850882850983A3AB
:10462300A3A3A3A3A31246827014E0FA8A0EE50A99
:10463300250EF8E50B12492BE50CC39A802112468F
:10464300B6E8240EF8E912492B90034EE0F9120A5A
:10465300B68E828F83E0F8E50CC39824F2C399C029
:10466300E0E5082417F582E509122B38D0E0F0A91C
:104673000D02505BE50A2408F8E50B3400F9221219
:10468300468622E0850882850983A322850A8285DE
:104693000B83A3A31246EFE0F9EA22E0F8E50A2828
:1046A300F582E50B124952228A828B8312506012E3
:1046B3000D4A22AE82AF83E0F8E50A28F8E50B3411
:1046C30000F922124702A3A3A3E022123A62E812DE
:1046D30046FBA3A3E022A3A3A3A3A3A3A3A3A31281
:1046E30046FB1246EFA3A3E0F9EAF822E0FA850AB3
:1046F30082850B83A3A3A322F0A3E912470222F02E
:10470300850A82850B83A3A3A3A322C082C0837AD5
:10471300D47B0379E2121BF07AD47B03023E15C0EB
:1047230082C083900356023E12C082C08374FE127D
:1047330008CC851882851983AA82AB83794B1247EB
:104743004C124C9D7402023DEB121BF085188285BE
:10475300198322C082C083794A121BF0023E15746A
:10476300F61203689003DCE0FE04F0EEF9120D028A
:104773008B09EA450970EDEE60EAF90248A274F08C
:10478300120368EAFEEBFF8C088D09890A74101284
:104793000A8BE0F50B7411120A8BE0F50C120E2E46
:1047A300EA4B7013E50C7042A90AAC08AD09EEFAA6
:1047B300EFFB120E46806EE50A6021EA2402F582C1
:1047C300EB122C05850A082508F8E4340013E813D6
:1047D300F070098A828B83A3A37401F0E50C604512
:1047E300E50B70068A828B83E4F07401650C7035E7
:1047F300E50B9003E37004E4F0802AE004F0900DED
:104803009FE0F89003E3E0C398401AE4F090035963
:10481300E06E7003A3E06F700CEEFAEFFB79011208
:104823000BA012482B02505B7A017B009003B0E08F
:10483300F912149A22C082C08374016A7001EB706A
:10484300077A011248628012900D96124871EA4B62
:1048530060051224E0800312482B023E157A207B68
:10486300009003B0E0F9121374223400F583EAF0E8
:10487300A3EBF022C082C083900D98023412C08251
:10488300C083900D9A02341212544C22EE240CF57C
:1048930082EF3400F583123E0CE849221208377F79
:1048A300020205C7A2F0E4338518828519831248F2
:1048B300C37952121BF6221248C37942121BF62205
:1048C300F0AA82AB8322AA82AB83120CB47AB37BA5
:1048D300037945121BF62274F712036874ED12086C
:1048E300CCE9FE9003AF124CB91249067412120AB6
:1048F3008BEE1249138518828519831248C97413E4
:10490300024EE0900D50E0F97AB37B03120CBA2209
:10491300F0900D50E0F97CB37D0322AA08AB099017
:1049230003B0E0F912134A223400F9E508241DF517
:1049330082E509123A62E8F0A3E9F02212512AA3B0
:10494300A3E022A3F0EE241512494F22F582EF349F
:1049530000F583E02212495C223400F583E0F8A3DA
:10496300E0F98882898322E0F812497022A3E0F9F2
:104973008E828F83A3A322F0EE2418123A5F22F0D3
:10498300EE2416123A5F2274F4120368EAFEEBFF78
:104993007A007B0412482F124A1912493990036591
:1049A3007409F0120D5C8A088B09AC08AD09EE247A
:1049B30013122B35124C9D124B6D640170487A0F04
:1049C300124A0C60418A828B837402124A23FAA32F
:1049D300E0FB8A828B83A3E0FC8A828B83A3A3E020
:1049E300FBEC850882850983A3A312487288828918
:1049F30083124CA112423A124946FAA3E0FB794AC8
:104A0300121BF612491E022BFA7B0012133E8A0870
:104A13008B09EA450922900336123E0C900D9A2227
:104A2300F0EE241DF8EF124A2D22123F4DE0221220
:104A33004A36223400F5837401F022F582E5091227
:104A43003A62E8F0A3E922124A4E22124A5222F0B5
:104A5300850882850983A322124A52A3A3A3A32212
:104A6300124A5BA3A3E022124E74120DB622EE2467
:104A730017F582EF124A36120D5CEE241A123A5FD2
:104A8300EAF0A3EBF02274F412036874F31208CC77
:104A93008908EAFEEBFF7C0D7D007900851882858D
:104AA3001983AA82AB83121326EE241D122B35120F
:104AB300543DA3E0F8741F58600A7901121BC679AC
:104AC30000024B64E8A2E55008740C120A8B7401CF
:104AD300F0E8A2E75008740B120A8B7401F0E8A205
:104AE300E6740A5008120A8B7401F08008120A8BCC
:104AF300E064017005EE24138003EE241512519C2B
:104B03007402120A8BAA82AB83121BDE122B32129F
:104B13004B72124939740A120A8BE0640170331222
:104B23002513703B120D688A0A8B0BA80AA90BEE9A
:104B3300240B122C02687003A3E0697022120D5C2F
:104B4300EAFCEBFD7402120A8BAA82AB83124B6D53
:104B5300600D851882851983AA82AB83120B9AA9EB
:104B630008740D022BF7EEFAEFFB121BD8E922E0D3
:104B7300124B7722F8A3E0F98518828519832274F2
:104B8300F612036874F31208CC8A088B09ECFEED65
:104B9300FF7C0D7D007900851882851983AA82AB7D
:104BA300831255F0A3A3A3A3A3A3A3A3A3124C0C03
:104BB300124C15F8A2E55008740B120A8B7401F01D
:104BC300E8A2E75008740A120A8B7401F0E8A2E61F
:104BD300EE500424138002241512519C7402120A0D
:104BE3008B124BFEA3A3E0C0E0740C120A8BD0E03F
:104BF300124E6C120B94740D02489FAA82AB83125F
:104C03001BDE85088285098322E0124B77E8F0A337
:104C1300E922F0123A5C125441A3E02274F7120322
:104C23006874E11208CCEAFEEBFF8E828F83124C8C
:104C3300A1A3A3A3E0A2E050518E828F8312267317
:104C43008A828B83A3A3A3A3A3A3E054FE124CB92C
:104C53008A828B83124CB2E0F98A828B83E0241C14
:104C6300FAA3E0123675124C9D120D56E9701B74AF
:104C73001D120A8B124CAC7011851882851983ACF6
:104C830082AD83EEFAEFFB120DA4024EDE8E828F0D
:104C930083A3A3A3A3A3A3A3A3A3122BF022124C26
:104CA300A522125445A3A3A322123A94640422E03A
:104CB300241B123F4622123DF4AC82AD8322E9F855
:104CC3007900740468600A740A6860057403687084
:104CD30001090207E974F61203688A828B83742040
:104CE300F0A3A37401F0120B408A088B09AE08AF3E
:104CF30009EE4F60108E828F837401F09003A3E05E
:104D03007003124A71EEFAEFFB0248A2C082C0831D
:104D13009003C87401F0E9A2E350037403F0E9A21D
:104D2300E15004E0D2E2F0023E1574F61203687912
:104D3300007C008A088B097808120581F8FF076058
:104D43004D5E4D5E4D5E4D5E4D574D5B4D604D541A
:104D53004D0C80097C0480050C80F67C089003C808
:104D6300E05C6003098003EC6001090248A274F669
:104D73001203688A828B83E07012A3124899600C35
:104D83008A828B83124C9C121CF880047A007B006D
:104D93000248A274F512036874F31208CC8A088BD4
:104DA30009ECFEEDFF750A12EA4509700579000268
:104DB3004E65900356E065087004A3E0650970141E
:104DC300120D5CEAFCEBFD124B697005750A01805C
:104DD30003750A00851882851983E4F004120A8B8F
:104DE300E508F0A3E509124E6C120B04E960277481
:104DF30003120A8BAA82AB83120AE6E964017016D6
:104E0300750A017403120A8BAC82AD83124B69607D
:104E130021750A00801C7412650A70169003A2E0C3
:104E23006402700EEEFCEFFDAA08AB09120B1CE93D
:104E330070DFEEFCEFFDAA08AB09120E34E9F8743B
:104E43000A687005750A01801774A0687012EEFC79
:104E5300EFFDAA08AB09120E40AA08AB09120E52C5
:104E6300A90A740D0259587402124E7022124E741C
:104E730022123DF4AA82AB832274F7120368EAFE7E
:104E8300EBFF8E828F83A3A3A3A3A3A3A3A3E060BB
:104E930015EE2415122B35122BE0120DCEE9640109
:104EA3007004790180258E828F83A3A3A3A3A3A378
:104EB300A3E06015EE2413122B35124ED0FAA3E0B3
:104EC300FB120DCEE9640160D979008013123761BA
:104ED300A3A3A3A3A3A3A3A3A3E022741F1208372E
:104EE3007F010205C774F012036874FD1208CC8AAF
:104EF300088B09ECFEEDFF890B7413120A8BE0F5A6
:104F03000C750A017401120A8B74041254756048FB
:104F1300E50C601DEA2417F582EB1256C6125463A2
:104F23008A828B83E0D2E7F0EA2414F582EB123D08
:104F33001912506BEB12495874031259E9EE888227
:104F43008983A3A3F0EF88828983A3A312380B126A
:104F53003812120B3AE9F50AA90A7403025058747D
:104F6300EC12036874F51208CC8A0A8B0B890C8C3B
:104F73000E8D0F741F120A8BE0F50D7420120A8B2D
:104F8300E0F510A3E0F5117E01EE120A8B740AF02E
:104F9300E97007E50DC333240AF012513D70030293
:104FA300503F1251527409F0A3E50CC43354E04549
:104FB3000D125164E50C702D7C008023ECC333F893
:104FC300E433F9E51028F8E51139F9888289831269
:104FD300504C88828983122E52F0A30EAF830CECBF
:104FE300C3950D40D7E5082417F582E509124A3227
:104FF300120D5CE508241AF582E50912486D740365
:10500300120A8BAC82AD83AA0AAB0B120AECE960DD
:1050130019E5082416F582E509125046120A8BA8F1
:1050230082A983E5082418124932850882850983F9
:105033001259E5AA08AB09120B3AE9FEEEF9740B13
:10504300025135124A36740322E08E828F83F0A315
:10505300AE82AF83221208377F080205C7123ABC1B
:10506300F9EA2400E439FB22EA240BF5822274EEE8
:105073001203688A0C8B0D890E8C088D0974121229
:105083000A8BE0F50F7413120A8B12511E9005DB85
:105093001248996077E50FC333F8E433F9E8240E37
:1050A300FAE93400FB12133E8A108B11AE10AF11D4
:1050B300EE4F60588E828F8374D4F0A3A3E50CF077
:1050C300A3E50D125126E50EF0AC08AD09EE24055B
:1050D300FAEF12547EEE240D122B35E50FF0850AFC
:1050E30008850B09750A007808120820E50FC333F9
:1050F300FCE433FDEE240EFAEF125115120837EEDD
:10510300FAEFFB9005DB12543D121D9F024144FA56
:10511300E5093400FB12131A740322E0F50AA3E035
:10512300F50B2212512A2212512E22123D2DA3A336
:10513300A3221208377F0C0205C7851882851983BD
:10514300AA82AB83120DB68A088B09EA450922EAC3
:10515300240BF582EB124952FEA3E0FF8E828F836C
:1051630022F0A3AE82AF83AC0EAD0FEEFAEFFB12CB
:10517300517622121BDE12517D22EE2408FEEF34FB
:1051830000FF22E0FA8E828F83A3A3E022FEA3E036
:105193003400FF8E828F83E022123A5F1251A322E2
:1051A300E0FCA3E0FD22122BF0120D442274F7124F
:1051B3000368E9FE7C007D0078007900800D1252BF
:1051C3006EE02CFCA3E03DFD1258881258F1502CE0
:1051D300E8FAE9FBEA75F012A4FAAFF075F012EB06
:1051E300A42F125891F460E012527512397A60D8E4
:1051F300EE60CB12526EE4F0A3F080CC780079001D
:10520300800D12524EE02CFCA3E03DFD1258881293
:1052130058E45030E8FAE9FBEA75F017A4FAAFF066
:1052230075F017EBA42F1258C07003A3E0F460DCF1
:1052330012525512397A60D4EE60C712524EE4F01E
:10524300A3F080C8ECFAEDFB024EE31252553BF596
:105253008322E8FAE9FBEA75F017A4FA75F017EB75
:10526300A42FFB74EF2AF582740A221252753BF5C0
:105273008322E8FAE9FBEA75F012A4FA75F012EB5F
:10528300A42FFB74702AF58274092274F612036842
:10529300EAFEEBFF9003C9801388828983E06E7076
:1052A30003A3E06F603A88828983A3A312489970AD
:1052B300E87A047B001213DA8A088B09A808A90983
:1052C300E849601C888289831252EA9003C9124C10
:1052D3009D88828983A3A31248719003C912493917
:1052E3000248A28A828B83EEF0A3EFF02274F412B9
:1052F30003687E009003C980070E88828983A3A375
:1053030012489970F4EEC333FAE433FB12539860F6
:105313007E7F009003C980248882898312519FEF86
:10532300C333FAE433FBE5082AF582E5093BF58349
:10533300ECF0A3EDF00F88828983A3A31248997040
:10534300D79003AB12254D7003A3E0697808701959
:10535300120824EEF50A780A1208287C777D03796F
:10536300009003AB1253A3801A120824EEF50A78B7
:105373000A1208287C777D0379009003AB124C9DB9
:10538300120DE07403120837AA08AB091213E012D6
:105393000B52022BFA1213DA8A088B09EA45092207
:1053A300122BF0120DE622C082C08380128A828BF8
:1053B30083A3A3123A6D9003C91249391213E090E3
:1053C30003C912397D70E6023E1574F61203689024
:1053D3000363123A999003DD12542C1249397ADD92
:1053E3007B037950121BF69003DD12276CFAEFFB57
:1053F300120E4C9003DD123A999005DD1248996024
:10540300257A067B0012133EEA4B601A8A828B834D
:1054130074D5F0A3A3E4125452041254639005DD2F
:1054230012543D121D9F0248A212543022E0F8A3E9
:10543300E0F9900363228E828F8312544122125427
:105443004522E0F812544B22A3E0F583888222120E
:1054530054562212545A22F08A828B83A3A3A32286
:10546300125456A3EEF0A3EFF022F582EF12495245
:10547300F922124A6AEA4B22FAE5093400FB121BAD
:10548300DE22124971A3A3A3A3A3A3A322902113F2
:10549300E4932401F8E43400F97A027B002274F7E0
:1054A3001203687E008004125A9C0E1255C040F706
:1054B3007E00EE1254CD74FEF0A3041254E2E4F025
:1054C3000EEEC3940340EB024EE375F003A4F8A978
:1054D300F074CB28F8740339F988828983A32212E4
:1054E30054E622F0888289832274F71203687F00CE
:1054F30080010F902110E493F8EFC3985026EF1228
:1055030056AC6A7003A3E06B70E8125A496C7003DF
:10551300A3E06D600A74FF6C700374FF6D70D312A7
:1055230055A980047A007B00024EE374F6120368E7
:105533007CFF7DFF7AFE7BFF120E10EA4B704075F5
:1055430008008036E50875F017A4F8A9F074E92877
:10555300F582740A1256BE600C74E828F582740A48
:105563001256BE701374DA28FE740A39FF8E828FC6
:10557300831256CBEEFAEFFB050812562640C502FE
:1055830048A274F41203688A088B09ECFEEDFF80CD
:105593000B120E22EEFCEFFDAA08AB09120E10EA65
:1055A3004B70EE022BFA74DA28FA740A39FB22EEF6
:1055B30075F017A4F8A9F01256B764FE22902110D3
:1055C300E493F8EEC3982274F7120368EAFEEBFF44
:1055D300EE4F60101255EA74FEF0A3041259EF1453
:1055E300F0A304F0024EE37C177D0079001213262A
:1055F3008E828F832274F7120368EAFEEBFF75082D
:10560300008018E50875F017A4F8A9F0125A547031
:1056130003A3E06F6003125AA4050812562640E361
:10562300024EE3902110E493F8E508C3982274F640
:10563300120368120E108A088B09A808A909E84901
:10564300600AE8240DFAE93400FB80047A007B0049
:105653000248A274F41203688A0A8B0BECFEEDFF76
:10566300750800750900802EE50975F017A4F8A9DF
:10567300F0125A8F601EE5091256AC650A7004A336
:10568300E0650B700375080AEEFCEFFD12594B60E1
:10569300034308A00509902110E493F8E509C39892
:1056A3005004E50860C202276475F017A4F8A9F056
:1056B3001256B72274DA28F582740A39F583E02288
:1056C300F582EF123A62E422122BF0120C36221208
:1056D30054E6A3A3A3A3A3A3A3A32274F212036870
:1056E3008A088B09ECFEEDFF740E120A8B12511E11
:1056F300750C007C007D018010121338E50CF5F069
:10570300EA84ACF0750C007D007800790080031208
:1057130058881258E440030257AAE8FAE9FBEA75ED
:10572300F017A4FA85F00D75F017EBA4250D1258A8
:10573300C07003A3E0F460D712589E65087004A3F9
:10574300E0650960CA12589E6E7003A3E06F60BFE4
:1057530012589E650A7004A3E0650B60B2E8FAE98B
:10576300FBEA75F017A4FA75F017EBA4250DFB748B
:10577300E82AF582740A12587F509474016D050C5F
:10578300608DE50CC39C4087E875F017A4F8AAF078
:1057930075F017E9A42AF974DA28F582740A39F541
:1057A30083124C9D02587C7800790080031258883C
:1057B3001258F14003025863E8FAE9FBEA75F01264
:1057C300A4FA85F00D1258D064FE7003A3E0F460D0
:1057D300DC1258C665087004A3E0650960CF12584F
:1057E300C66E7003A3E06F60C41258C6650A7004E6
:1057F300A3E0650B60B7E8FAE9FBEA75F012A4FAD7
:1058030075F012EBA4250DFB74692AF58274091255
:10581300587F5099E8FAE9FBEA75F012A4FA75F09B
:1058230012EBA4250D12589164016081E0640270AB
:10583300030257B074016D050C70030257B0E50CF9
:10584300C39C50030257B0E875F012A4F8AAF07590
:10585300F012E9A42AF9746028F58274090257A1A9
:10586300E50C6011EC700E7401650C60030256FCCC
:105873007C010257077AFE7BFF0225593BF583E043
:1058830014C3940622E8240108E93400F922FB74C6
:10589300642AF58274093BF583E022E8FAE9FBEA1E
:1058A30075F017A4FA75F017EBA4250D1258B3225F
:1058B300FB74DA2AF582740A3BF583E0221258B3AB
:1058C30064FE22E8FAE9FBEA75F012A4FA75F01215
:1058D300EBA4250DFB74602AF58274093BF583E084
:1058E30022902110E493FAC3E89AE99400229021CC
:1058F3000AE493FA740193FBC3E89AE99B2274F5D3
:105903001203688A088B09ECFEEDFF750A0080021A
:10591300050A902110E493F8E50AC3985028EEFC99
:10592300EFFDE50A75F017A4F8A9F012594B60E0F2
:10593300E50A75F017A4F8A9F074DA28F582740A59
:1059430039F583123814801074DC28FA740A39FB91
:10595300121BD8E9221208377F030205C774F0121D
:1059630003688A088B098C0A8D0B890C120E168A20
:105973000E8B0FAE0EAF0FEE4F60551255EAE508D2
:10598300F0A3E5091259EF1259E7E50C600AEE247A
:105993000F122B35E50C8006EE240F1259DFF09021
:1059A30003DF124899601A9003AAE064017008EEBD
:1059B300240E1256C38010EE240E122B357407806A
:1059C30006EE240E1259DF1230881202171259D62E
:1059D30002505BEE240D123A5FE8F022123A5F7434
:1059E3000122A3A3E50AF0A3E50BF02212368BA351
:1059F3002274F51203688A088B09ECFEEDFF750A21
:105A030000800F125A547003A3E06F6003125AA46C
:105A1300050A902110E493F8E50AC3985025E50A96
:105A230075F017A4F8A9F0125A4965087004A3E0A9
:105A3300650970CF74E428F582740A39F58312522C
:105A4300EA80CD02595B74E428F582740A1256BECB
:105A53002274E428F582740A1256BE6E2274F71279
:105A63000368EAFEEBFF7508008019E5081256ACDF
:105A73006E7003A3E06F700A125A8F7005E5081267
:105A83005A9D050812562640E2024EE374DC28FABA
:105A9300740A39FB120AE6E922EE75F017A4F8A995
:105AA300F01255A9120E222274F71203687E0080A9
:105AB300131255B27003A3E0F46008125A8F7003F7
:105AC300125A9C0E1255C040E8024EE31254E612DD
:105AD3003E0CE84922C082C08374F81208CC8518B2
:105AE30082851983AC82AD8375838075824E740879
:105AF300120765851882851983AC82AD83124B6DBD
:105B0300640170047900800279017408023DEBC0DE
:105B130082C0838A828B83E0D2E7F01215EA0265A2
:105B2300A6C082C0837900125FDE1275BBC082C03B
:105B3300839003301271DDD083D082C3E09CA3E055
