:020000040000FA
:06000000020EB70205210B
:03002B00020BD1F4
:03004300020B6B42
:0300530002046044
:03006B00020CA3E1
:100083000204BD0101FF0503010F851485148514C6
:10009300851441133B138514582300000000BA2331
:1000A300000000000C0000000C00010000591600C5
:1000B3000000000000131700000000000000000013
:1000C30000FFFF0101010100A4050000001806E87C
:1000D3000364006400B8010202001000000502037B
:1000E300051E02051E0A02B80B02010278110296D0
:1000F30051180002020612120ED6700418181822A4
:10010300120F03700D74FFF61819F61819F6181963
:10011300F622E7548066F6120F4C700F120F4270EE
:10012300F014F608F608F608F680D1120F42700CA8
:10013300F608F608768008E6447F80EC120D5170CD
:100143000C120D6660BFE65480F6E480BB120D66A8
:10015300700519191980A5E869700C763F18768027
:1001630018F618F6E8F922E6CDC0E018ECC0E0E690
:1001730033CD33CDD313F6E719FCE7191933CC3359
:10018300C3947F400ECD9D502408E65480F6E418B6
:10019300F6800FF4043D14501408E6447FF61876F5
:1001A30080E418F618F6D0E0FCD0E0FD22CCD3139F
:1001B300CCFD18E4C6CBC0E018E4C6CAC0E008080A
:1001C300ED08C633E613F618E433C675F003C3CA65
:1001D30097CA09CB97CB199C40047D08802EBD009C
:1001E300030202A316B6FF050606081618C3CA3390
:1001F300CACB33CB33CA27CA09CB37CB193CC37D10
:1002030008803E187D0820E75CC633C6CA33CACBD4
:1002130033CB33DDF1D5F0EB30E77BCA97CA09CB9B
:10022300974ACB199C406F4B7025E620E0218066EE
:10023300187D08C3CA97CA09CB97CB199CD3C63379
:10024300C6CA33CACB33CB3350C9DDE7D5F0E1D3CC
:10025300E4C636C608C636C608C636C608C636C697
:100263001818188031C3CA97CA09CB97CB199CB306
:100273004097C633C6CA33CACB33CB33DD34D5F04C
:100283002EC6A2E0C640C8CA27CA09CB37194A708E
:10029300BECB3CB480B90808E63308E633601F18C8
:1002A3001818D0E0FAD0E0FBD0E0FCD0E0FD221833
:1002B3007D08CA27CA09CB37CB193CD3808013F6F4
:1002C30018E4B67F11F618B6FF0EF618C60470D2FE
:1002D3000808768080CAF618F618F680C500120E54
:1002E300D6604F120F036012E7548066F6120D6357
:1002F3007011120F42703B090909F4F618F618F64B
:1003030018F622120D4E7015120F4C08080860EAF9
:10031300E6447FF618768018E4F618F622120F4C9E
:100323006016120F427012E4F608F608F608E65457
:1003330080F609090918181822EAC0E0EBC0E0ECBE
:10034300C0E0EDC0E0E687F0A4FBACF008E687F080
:10035300A42CFCE435F0FA1809E687F0A42C4B60D2
:10036300027401CA35F0FCE433FB09E687F0D2F7E7
:10037300A42CCB35F0FC1908E687F0A42BCC35F080
:10038300FBE433FD0819E687F0D2E7A42C4ACB350A
:10039300F0CD3400FC09E687F0D2E7A42DCC35F08C
:1003A300FDE433FA0918E687F0D2F7A42CCD35F033
:1003B300CA3400FC08E687F0D2E7D2F7A42ACC358A
:1003C300F07A7E20E70B0ACB33CBCD33CDCC33CCC5
:1003D30033CB3350147004ED30E00ED2F1E4CD3D55
:1003E300CDCC3CCC3B5005DA05C2F1EB547FC63390
:1003F30008E63392F0FBE73309E733C39A502D2B1A
:1004030070190C0D4C4D70151806E608C333700DAA
:1004130020F10AA2F013F6E418800B4024E4F6302E
:10042300F002768018F618F618F68024D33B1450A1
:100433001074FFA2F013F6187680E418F618F6800D
:100443000FA2F013F618E63303F618ECF618EDF6E0
:10045300D0E0FDD0E0FCD0E0FBD0E0FA22C0E074B5
:10046300F2120841A2AFE433FED2AFE5A7FFE5A144
:10047300F5085F54106006121DF775A1EFE5085FDC
:1004830054086008121DFD75A1F78024E508A2E059
:1004930092F0EFA2E082F05017906198E0F8900894
:1004A300F3E0C398A2D265D0335002E8F075A1FE01
:1004B300EEA2E092AF7F010208A0C0E074F212083E
:1004C30041A2AFE433FED2AF9061A4E0F8759B0084
:1004D300E59158540860087591F7121E458023E58D
:1004E3009158541060087591EF121E4B8014E591DA
:1004F300A2E092F0E8A2E082F05007E0C2E0F0123E
:100503001F8F9061A3E0F8E5E9585404600E121FB1
:100513006575E9FB906193E0A2E640F28092C0E04A
:1005230074F2120841A2AFE433FED2AF9061A5E0AA
:10053300F8E5BF585404600675BFFB121FA70204F9
:10054300B3C3E498F8E499F91205858026C3E49AC5
:10055300FAE49BFBE920E7E9120585E498F8E499BE
:10056300F922C3E498F8E499F9120585E498F8E4CC
:1005730099F9C3E49AFAE49BFB22EB20E7CFE92045
:10058300E7E0B90010BB0008E88AF084F8AAF0227B
:10059300E4FBC8FA22EB70227B10C833C8C933C905
:1005A300335007C39AC3DBF280069A50012ADBEA71
:1005B300C833F4C8C933F4C9FA2275F008E4C83360
:1005C300C8C933C933C99AC99B5004C92AC93BD581
:1005D300F0ECFBC833F4C8E4C9FA2212061E20F07B
:1005E3001430E72B74FFFCFBFA747F8022E4FCFBDE
:1005F300FA7480801AB48008BC00F2BB00EF800F4D
:1006030050EBF9E4C39AFAE49BFBE49CFCE499C63F
:10061300CC18C6CB18C6CA18C6F922E4C9C608CA7C
:10062300C608CBC6D3330308CCC63392F0C3947F3A
:10063300402E94184019C9B90704CACBCC225025BF
:10064300C309CA33CACB33CBCC33CC33D9F422F46A
:10065300600DC9CCC313CB13CBCA13CAD9F6CC22B2
:10066300E4FCFBFA2214FCFBFA22080808EAC0E0C7
:10067300EBC0E086F0E7A4FA180986F0E7A42AFAAB
:10068300180986F0E7A42AFA180986F0E7A42AFADB
:100693001986F0E7A4FBE5F02AFA190886F0E7A427
:1006A3002BFBE5F03AFA190886F0E7A42BFBE5F0FB
:1006B3003AFA18180986F0E7A4C5F02BFBE43AFAD6
:1006C3001908E7C5F0C6A426F6E5F03BFBE43AFAC1
:1006D3001886F0E7A4F6E5F00826F6E43B08F6E40E
:1006E3003A08F6D0E0FBD0E0FA22080808E630E743
:1006F30011120DCB120705080808C64480C6181846
:100703001822181818E9799EC608CAC608CBC60865
:10071300CCC6C370207996CACBCC7019798ECBCC5A
:1007230070137986CC700EF9802ACA33CACB33CBC7
:10073300CC33CC331930E7F2CCCBCA33501470042A
:10074300EA30E00DE4CA3ACACB3BCBCC3CCC5002F6
:1007530009C3E913C6CC182313C6CB18C6CA18C6D7
:10076300F922E4CFC0E0E4CEC0E0E4CDC0E0E4CCC5
:10077300C0E075F020C3E633F608E633F608E63347
:10078300F608E633F6181818EC33FCED33FDEE33B8
:10079300FEEF33FFC3EC9709ED9709EE9709EF9747
:1007A300191919400FFFEC97FC09ED97FD09EE9716
:1007B300FE191906D5F0BEECF709EDF709EEF709B6
:1007C300EFF7191919D0E0FCD0E0FDD0E0FED0E03E
:1007D300FF222518C582C0E0E51934FFC583C0E0B8
:1007E300E518C3958224F810AF088583198582180C
:1007F3008008858319858218D2AFCEF0A3E520F057
:10080300A37808E608F0A3DEFAEFF0A3E58124FA63
:10081300F8E608F0A3E608F0A3E608F0A30808E664
:1008230008F0A3E608F0A315811581D0E0FED0E01F
:10083300F8158115811581E8C0E0EEC0E022C0D033
:100843002518C582C0E0E51934FFC583C0E0E5186B
:10085300C3958224F310AF08858319858218800815
:10086300858319858218D2AFC8F0A3E9F0A3EAF013
:10087300A3EBF0A37908E709F0A3D8FAECF0A3ED12
:10088300F0A3EEF0A3EFF0A3D0E0F0A3D0E0F0A349
:10089300D0E0F0A3E520F0A3E5F0F0A322851983CF
:1008A300851882E0C0E0A3E0F9A3E0FAA3E0FBA38C
:1008B3007808E0F608A3DFFAE0FCA3E0FDA3E0FE7E
:1008C300A3E0FFA3E0C0E0A3E0C0E0A3E0F5D0A372
:1008D300E0F520A3E0A3F5F010AF08858319858226
:1008E300188008858319858218D2AFD082D083D02F
:1008F300E0F8D0E032120F37B9000302093AE4906E
:100903000301784A790B8002F0A3D8FCD9FA900D41
:100913004AAA82AB83900086787579018015E493A7
:10092300A3AC82AD838A828B83F0A3AA82AB838C30
:10093300828D83D8E9D9E77582A37583AF740312D7
:100943000C4F75825F7583227400120C4F75F01083
:100953008E1A8F1B85821F85831E851882851983B6
:10096300E0CEA3E0CF851F82851E83EBC9EAC8EDE5
:10097300CBECCAC3E833C8E933C9EA33CAEB33CB98
:10098300C3EA9EF51DEB9FF51CB35004AB1CAA1DD7
:10099300EC33CCED33CDD5F0DAAE1AAF1B22D083D6
:1009A300D082ECC0E0EDC0E0E493A3FCE493A3FDAC
:1009B300ED4C600D120A79EC24FFFCED34FFFD8051
:1009C300EFE493A3FCE493A3FDED4C600D120B162F
:1009D300EC24FFFCED34FFFD80EFD0E0FDD0E0FC24
:1009E300E493A3C0E0E493C0E022D083D082E9C0C3
:1009F300E0E493A3C386F0C5F095F0F908E493A36C
:100A030086F0C5F095F0700BE493A3C3994005E914
:100A1300048002A3E475F002A42582F582E5F03593
:100A230083F583D0E0F9E493A3C0E0E493C0E0222C
:100A3300851983851882E0A3FEE0A3F5207808E0FA
:100A4300A3F608DFFAE0A3FFE0A3C0E0E0A3C0E061
:100A5300E0A3C0E0E0A3C0E0E0A3C0E010AF0885DE
:100A630082188583198008858218858319D2AFD0AF
:100A730083D082020C55C0E0C3E4939608740193BB
:100A83009618400FE4936670080874019366187013
:100A9300007019A3A3C3E49396087401939618A353
:100AA300A3400DD0E0D0E0D0E00209DDA3A3A3A3CF
:100AB300A3A3D0E0227404800474028000CCC0E0BD
:100AC300EDC0E0E518C39CCCAD1950011D10AF0675
:100AD3008C188D1980068C188D19D2AF120BB0D0DB
:100AE300E0FDD0E0FC2274028000CCC0E0EDC0E069
:100AF300E518C39CCCAD1950011D10AF068C188DA1
:100B03001980068C188D19D2AF120B8ED0E0FDD050
:100B1300E0FC22C0E0C0F088F0E49366700808743B
:100B2300019366187000A8F0A3A3700BD0F0D0E077
:100B3300D0E0D0E00209DDA3A3D0F0D0E022D0833F
:100B4300D082CCC0E0E493A36006120C301470FA98
:100B5300E493A36006120D221470FAD0E0FCE49330
:100B6300A3C0E0E493C0E022C0E074F2120841A203
:100B7300AFE433FED2AFC2C0E5D1A2E45003121DED
:100B83006DEEA2E092AF7F010208A0CAC0E0E49339
:100B9300A3C582CCC582C583CDC583F0A3C582CC52
:100BA300C582C583CDC583DAE5D0E0CA22CAC0E0D9
:100BB300E0A3C582CCC582C583CDC583F0A3C5821E
:100BC300CCC582C583CDC583DAE6D0E0CA22C0E0B6
:100BD300C0D0E8C0E0E9C0E0E5A8D2AFC2C7A2E751
:100BE300A2E792AFD0E0F9D0E0F8D0D0D0E03270F5
:100BF30009080808226016181818C6C333C608C6A1
:100C030033C608C633C608C633C6D5E0EA22C008D1
:100C1300C3E096F50808A3E096420808A3E09642CD
:100C23000808A3E09645087001D3D00822C0E0E489
:100C330093A3D39C5010E493A3C39C400AD0E0D069
:100C4300E0D0E0020B5EA3A3A3D0E022C09FF59FF8
:100C5300E473D09F22D083D082C09FE493C0E0741A
:100C63000193C0E0740293F59F222518F58210AF1B
:100C730008F518400215198008F51840021519D215
:100C8300AF851983227404800A740380067402807A
:100C9300027401C0E0F404120C6DD0E0120F1222B2
:100CA300C0E074F2120841E589A2E75003121CD791
:100CB300758900C2E87F010208A0C0D0251810AFD3
:100CC30008F518500205198008F51850020519D2C5
:100CD300AFD0D022BB0102E722C082C08389828ABF
:100CE30083BB0003E08002E493D083D082226016AA
:100CF300080808C6C313C618C613C618C613C618F1
:100D0300C613C6D5E0EA22C3E0C696F608A3E0C63A
:100D130096F608A3E0C696F608A3E0C696F622C0A8
:100D2300E0E493A36C7009D0E0D0E0D0E0020B5E66
:100D3300A3A3D0E022251810AF08F5184002151917
:100D43008008F51840021519D2AF22191919E709BD
:100D53004709700AE709C3337005E733F422092210
:100D6300181818E6084608700AE608C3337005E643
:100D730033F4220822C3E09608A3E09608A3E09682
:100D830008A3E096A2D265D03322E066701008A3D0
:100D9300E066700A08A3E066700408A3E06622E731
:100DA3006670100809E766700A0809E766700408A8
:100DB30009E76622C3E096F008A3E096F008A3E0F3
:100DC30096F008A3E096F022181818E4C396F608E4
:100DD300E496F608E496F608E496F622E056F00860
:100DE300A3E056F008A3E056F008A3E056F022E68D
:100DF30027F60809E637F60809E637F60809E6375D
:100E0300F622E026F608A3E036F608A3E036F60855
:100E1300A3E036F622E026F008A3E036F008A3E0CC
:100E230036F008A3E036F022E657F60809E657F64F
:100E33000809E657F60809E657F622E056F608A32E
:100E4300E056F608A3E056F608A3E056F622E64776
:100E5300F60809E647F60809E647F60809E647F6FD
:100E630022700422600D18C6C333C608C633C6D524
:100E7300E0F41822C6F4C608C6F4C608C6F4C608C9
:100E8300C6F4C622C3E7960809E7960809E7960859
:100E930009E79622C3E09608A3E09608A3E0960824
:100EA300A3E09622600D08C6A2E713C618C613C6B0
:100EB300D5E0F32275D000758140751801751903CB
:100EC300000208F8E6F008A3E6F008A3E6F008A39A
:100ED300E6F022E6084608C3134608336002E63309
:100EE300F422600C08C6C313C618C613C6D5E0F4B3
:100EF30022E0F608A3E0F608A3E0F608A3E0F62252
:100F0300E7094709C3134709336002E733F422CAE9
:100F1300C0E0E6F0A308DAFAD0E0FA22EAF0A3EBA5
:100F2300F0A3ECF0A3EDF022E0FAA3E0FBA3E0FCD6
:100F3300A3E0FD22E5C754F84401F5C7790122E790
:100F4300C33319471947194722E6C33318461846CE
:100F53001846222518F582E43519F58322C2AF75A8
:100F6300D69F02000022120C58D4DA01120C582822
:100F7300DB01120C5841DB01120C5867DB01120C28
:100F830058A2DB01120C58E6DB01120C580DDC01F0
:100F9300120C585EDC01120C580EDD01120C58C6FF
:100FA300DD01120C588EDE01120C586BDF01120C9E
:100FB30058F1DF01120C5800E001120C580BE0014C
:100FC300120C5814E101120C5825E101120C589B24
:100FD300E101120C582DE201120C5885E201120CAA
:100FE300584BE301120C587CE301120C58C1E30186
:100FF300120C58CEE301120C5862E501120C58C5CD
:10100300E601120C5801E701120C581DE801120CFD
:101013005887EA01120C5892EA01120C589CEA0113
:10102300120C58A7EA01120C58B1EA01120C58BB72
:10103300EA01120C58C6EA01120C58D1EA01120C4B
:101043005802EB01120C5826EB01120C584AEB0123
:10105300120C58AFEB01120C58F3EB01120C580FA2
:10106300EC01120C5886EC01120C58BEEC01120C68
:10107300580AED01120C5867ED01120C5849EF01A3
:10108300120C58CFEF01120C58A0F001120C58B0FB
:10109300F301120C5805F401120C5831F401120C2F
:1010A300587DF501120C58CDF501120C5822F601AA
:1010B300120C5823F701120C58BBF701120C583DC0
:1010C300F801120C58DDF801120C58E32500120C3C
:1010D300581C2600120C58F62700120C583528000D
:1010E300120C587F2800120C58242900120C588324
:1010F3002900120C58B72900120C58242A00120C8C
:1011030058412B00120C58492C00120C58DF2C00AC
:10111300120C58263000120C58CF3000120C58AB6A
:101123003100120C580C3200120C58293300120CE7
:1011330058533500120C580A3600120C5814360056
:10114300120C58423600120C58193700120C58E092
:101153003700120C587B3800120C58E03800120C80
:1011630058093900120C582B3900120C585A3B00FD
:10117300120C58313C00120C58753C00120C58E20A
:101183003C00120C589D3D00120C58CF3D00120C30
:1011930058133E00120C58493E00120C589E3E0054
:1011A300120C58F33E00120C58873F00120C58E9FA
:1011B3003F00120C58514000120C58FA4100120C17
:1011C30058E24200120C58244400120C58524600B4
:1011D300120C58124700120C58474900120C58EAD7
:1011E3004900120C58284A00120C58D44B00120C18
:1011F30058E84B00120C58F24B00120C581C4C00D0
:10120300120C58284C00120C58474C00120C58FE74
:101213004C00120C583D4D00120C58474D00120C57
:1012230058A04D00120C58504E00120C584F4F004E
:10123300120C58485000120C58E55000120C5887F5
:101243005100120C589E5100120C58D55100120C2B
:1012530058F35100120C58375200120C585C5200CC
:10126300120C58425300120C58AE5300120C58285B
:101273005400120C58375500120C58765600120CB5
:1012830058545700120C58B65700120C5870580097
:10129300120C58935800120C58675900120C58B28C
:1012A3005900120C58F45900120C584B5A00120CE6
:1012B30058905A00120C58BE5A00120C58F75A0094
:1012C300120C581C5B00120C58A45B00120C58C77C
:1012D3005D00120C58265E00120C58BA5E00120C08
:1012E30058265F00120C58715F00120C589E5F0065
:1012F300120C58B8C203120C58F7C203120C58AAA6
:10130300B101120C5804B201120C5860B201120C54
:1013130058ACB201120C58C7B201120C58F8B20102
:10132300120C5815B301120C5821B301120C589525
:10133300B401120C58AEB401120C5815B501120CBD
:101343005828B501120C5836B501120C58EAB501EC
:10135300120C58CEB601120C58D4B701120C585ABD
:10136300B801120C5864B801120C58D1B801120C10
:1013730058E8B801120C581AB901120C5853B901A4
:10138300120C587DB901120C58DEB901120C58FE2B
:10139300B901120C581CBA01120C5862BA01120C92
:1013A3005888BB01120C58D5BB01120C5804BC0160
:1013B300120C587ABC01120C58A2BC01120C58DB57
:1013C300BC01120C58E9BC01120C5841BD01120CAE
:1013D3005890BD01120C58CFBD01120C58FFBD012E
:1013E300120C582BBE01120C5836BE01120C585465
:1013F300BE01120C5816BF01120C5820BF01120C6B
:10140300585BBF01120C5871BF01120C587ABF010F
:10141300120C58CFBF01120C58E3BF01120C58F144
:10142300C001120C5804C101120C5819C101120C4D
:1014330058BBC101120C583EC201120C58FCC20128
:10144300120C5807C301120C582DC401120C584931
:10145300C401120C589BC401120C58DAC401120CBB
:1014630058EFC401120C5831C501120C587EC70144
:10147300120C58FCC701120C586FC801120C58917A
:10148300CA01120C58A9CA01120C58ACCA01120C99
:1014930058B8CA01120C58CCCA01120C58D4CA014C
:1014A300120C5807CB01120C58B7CB01120C582D54
:1014B300CC01120C58A0CC01120C5854CD01120CC3
:1014C3005809CE01120C5828CE01120C58C8CE016F
:1014D300120C58D4CE01120C58FFCE01120C580234
:1014E300CF01120C586CCF01120C5894D001120C7E
:1014F300586CD101120C58F7D101120C5810D301BA
:10150300120C58CDD301120C5806D401120C5837C3
:10151300D401120C58D7D401120C5807D501120C60
:1015230058E2D501120C587BD601120C5806D7018C
:10153300120C58B7D701120C5839D801120C586B3A
:10154300D801120C58ACD801120C589F7400120C1D
:1015530058007500120C583D7500120C5890750018
:10156300120C58C77700120C58977900120C5806C2
:101573007D00120C583D7D00120C585B7D00120C4F
:1015830058D17D00120C58F97D00120C582A7E00A8
:10159300120C585A7E00120C58B67E00120C585D7D
:1015A300CD02120C58DBCD02120C5811CE02120CD4
:1015B300587DCE02120C58F0CF02120C580CD002F8
:1015C300120C5851D002120C58DED002120C5837AC
:1015D300D102120C5863D202120C5871D302120CAE
:1015E30058CED302120C583AD402120C589BD40290
:1015F300120C58DCD402120C5889D502120C589BD9
:10160300D602120C58DED602120C582CD702120C3A
:101613005863D702120C5806D802120C58C1D802CC
:10162300120C58B6BF03120C58D5B603120C58E669
:10163300B603120C5837B703120C587CB703120CBD
:101643005824B803120C58027F00120C582EB5030D
:10165300120C5886B603120C5838D902120C58E7EC
:10166300D902120C5807DA02120C5827DA02120CAC
:10167300583BDA02120C589BDA02120C58CBDA02EE
:10168300120C5855DC02120C58FEDC02120C58E006
:10169300DD02120C5833DE02120C5877DE02120CF4
:1016A30058BADE02120C5825DF02120C5846DF022C
:1016B300120C58C9DF02120C58FEDF02120C586ECE
:1016C300E002120C5805E202120C58DBE202120C83
:1016D300581DE302120C5877E302120C58AEB10303
:1016E300120C58CFB103120C5805B303120C582F28
:1016F300B303120C585A9E03120C58D39E03120CB8
:1017030058DE9E03120C58FF9E03120C5848C10268
:10171300120C584BC102120C5805C202120C58305D
:10172300C202120C5876C202120C589BC202120C4F
:1017330058BCC202120C58F0C202120C5828C30241
:10174300120C5851C402120C5880C402120C58A037
:10175300C402120C5838C502120C58FBC502120CF5
:101763005830C602120C5898C702120C583BC802D4
:10177300120C5833C902120C5868C902120C58C80B
:10178300C902120C5888CA02120C58B6CA02120CAB
:10179300583DCC02120C58BECC02120C58F1CC02AC
:1017A300120C5839F402120C5843F402120C588FDD
:1017B300F402120C58FDF402120C581EF502120C1E
:1017C3005835F502120C58E5F502120C58EEF502E5
:1017D300120C5841F602120C586AF602120C58C841
:1017E300F602120C5859F702120C5895F702120C14
:1017F30058E1F702120C5853F802120C58D9F802A8
:10180300120C5818F902120C5859F902120C58907C
:10181300F902120C5876A901120C58B4F902120CF1
:1018230058D3F902120C58DCF902120C5894FA023C
:10183300120C58D4FA02120C58458903120C581A88
:101843008A03120C58348A03120C58458A03120C6B
:10185300585E8C03120C587D8C03120C5871AD0327
:10186300120C58A7AD03120C58F2AD03120C5840DA
:10187300AF03120C58D85F00120C58236100120CEE
:10188300585F6100120C5830DA01120C583F6300A4
:10189300120C58D76500120C58176600120C58B872
:1018A3006700120C58526800120C58BA6800120CE8
:1018B30058476900120C587F6900120C58BF690021
:1018C300120C58526B00120C58F16C00120C584059
:1018D3006F00120C586E6F00120C589A6F00120CA6
:1018E30058A36F00120C58FE6F00120C589470002E
:1018F300120C58BD7300120C58427400120C58E3BA
:10190300FF01120C58E79403120C58FC9403120CB9
:1019130058999503120C58D59503120C58EC95035E
:10192300120C58139603120C58589603120C58892C
:101933009603120C58C19603120C58499803120CC3
:101943005868C203120C580CBF03120C5842BF0351
:10195300120C585EBF03120C58A0BF03120C58ACF4
:10196300BF03120C58FFB402120C5812B602120C29
:1019730058BDB702120C587FB802120C58E0B802D7
:10198300120C58BDB902120C587EBA02120C5894AC
:10199300BA02120C584EBB02120C58BBBB02120CFB
:1019A300585DBC02120C58AEBD02120C5805BE02A3
:1019B300120C588CBE02120C58CEBF02120C585C8B
:1019C300C002120C58D5C002120C581AA502120CF0
:1019D3005872A502120C5824A602120C58C8A6026B
:1019E300120C5822A702120C589BA702120C58AFD4
:1019F300A702120C5892A902120C5813AA02120C35
:101A0300584AAA02120C58F6AB02120C580DAC023B
:101A1300120C5858AC02120C586EAC02120C587BC4
:101A2300AC02120C58AFAC02120C58C5AC02120C2B
:101A3300584BAD02120C5856AD02120C58AFAD0202
:101A4300120C5809AE02120C585CAE02120C586606
:101A5300AF02120C58C4B102120C5869B202120C34
:101A630058ABB202120C5834B302120C5856B302DC
:101A7300120C5859B302120C585CB302120C58EFF3
:101A8300B302120C5818B402120C582BB402120CE5
:101A93005857B402120C5892B402120C5895B4025F
:101AA300120C58A8B402120C58CFB402120C58925C
:101AB300C103120C589EC103120C58DAC103120C55
:101AC30058E2EC02120C5831ED02120C58E0EE020F
:101AD300120C58A5F002120C58E9F002120C58D659
:101AE300F102120C5807F302120C5829F302120CDC
:101AF3005885F302120C5809F402120C58008002A4
:101B0300120C582B8002120C58EC8002120C5872E3
:101B13008102120C58DB8102120C58238202120C30
:101B230058AD8202120C58428302120C58D583021C
:101B3300120C58168402120C587A8802120C580898
:101B43008A02120C58418A02120C58EF8A02120CB4
:101B530058B08B02120C58FA8C02120C58F08E02F9
:101B6300120C589E8F02120C58B99002120C585B3B
:101B73009102120C581E9202120C58A19202120CDE
:101B830058319302120C58ED9302120C586A9402C6
:101B9300120C58799402120C58029502120C587ABE
:101BA3009502120C58899602120C58B29602120C26
:101BB300585A9702120C58AD9702120C58199802F2
:101BC300120C58579902120C58F89902120C5860CB
:101BD3009A02120C58F69B02120C58AA9C02120C81
:101BE30058479D02120C58A89D02120C58229E02BF
:101BF300120C58279F02120C58AFA002120C58CA9D
:101C0300A102120C5864A202120C58D5A202120CA3
:101C130058AFA302120C58D2A303120C5822A403E8
:101C2300120C587EA403120C58C9A403120C582496
:101C3300A503120C58CCA503120C5835A603120C9D
:101C43005842A603120C581BAB03120C584CAB039F
:101C5300120C5806AC03120C586CAC03120C58DD72
:101C6300AC03120C5822B003120C5841BE03120CE1
:101C73005852BE03120C58F2BE03120C587FB30322
:101C8300120C588DB303120C58A9C303120C58FC41
:101C9300C003120C580CC103120C5827C103120CB9
:101CA3005888C103120C583ABC03120C58BFBC032A
:101CB300120C5825BD03120C58ACB903120C58CBA7
:101CC300B903120C5821BA03120C5836BA03120C7A
:101CD3005884BA03120C58E2BA03120C58689B03D7
:101CE300120C587D9B03120C589F9C03120C580234
:101CF3009D03120C581A9D03120C58419D03120C9C
:101D030058559D03120C586E9D03120C588D9D035C
:101D1300120C58B19D03120C58D49D03120C582574
:101D23009E03120C58D68D03120C58E48D03120C2B
:101D3300585E8E03120C58428F03120C58FB90030B
:101D4300120C5869C303120C5890F901120C58FD78
:101D5300F901120C58BEFA01120C582EFB01120C99
:101D63005839FC01120C58BAFD01120C581EFE0121
:101D7300120C5873FE01120C587CFE01120C588B86
:101D8300FE01120C589EFE01120C58B4FE01120CF7
:101D930058BDFE01120C58FDFA02120C5852FB02F8
:101DA300120C584EFD02120C5880FD02120C58A260
:101DB300FD02120C58BBFD02120C58D4FD02120C8A
:101DC30058DEFE02120C5879FF02120C5841B80378
:101DD300120C5865B803120C587EB803120C58BD88
:101DE300B803120C58F0B803120C5820B903120CA4
:101DF3005888B903120C588BB903120C5895B903C0
:101E0300120C58A2B903120C582BA103120C5853ED
:101E1300A103120C5894A103120C58A6A103120C8F
:101E230058C1A103120C5829A203120C5835A2035E
:101E3300120C5894A203120C58B8A203120C58792E
:101E4300A303120C5886A303120C5897A303120C76
:101E53005801C303120C581EC303120C58448003C9
:101E6300120C58A48103120C58AA8103120C58C1F6
:101E73008103120C58E28103120C58F88103120CEF
:101E8300580C8203120C588B8203120C58F08203F5
:101E9300120C58868303120C585F8403120C586F7C
:101EA3008403120C587E8403120C5863C003120C73
:101EB3005887C003120C58AFC003120C58D7C00385
:101EC300120C5851A603120C5878A603120C5899F9
:101ED300A603120C580BA703120C58BDA803120C2F
:101EE30058D6A803120C58EDA803120C58F6A803F1
:101EF300120C5814A903120C581EA903120C5828CB
:101F0300A903120C583BA903120C5890A903120CF5
:101F130058C9A903120C58F7A903120C5848AA036D
:101F2300120C5894AA03120C58AFAA03120C58B9F6
:101F3300AA03120C58CAAA03120C5810AB03120CB2
:101F43005817C203120C588BE302120C58B7E30262
:101F5300120C58D5E302120C58E8E302120C580392
:101F6300E402120C5862E402120C5890E402120CC0
:101F7300589FE802120C58E4E902120C5816EA02C0
:101F8300120C5882EA02120C58CBEB02120C58F3D3
:101F9300EB02120C5808EC02120C5818EC02120C4B
:101FA3005858EC02120C58A4EC02120C58B4EC0270
:101FB300120C5802BB03120C5812BB03120C5830FC
:101FC300BB03120C584BBB03120C5872BB03120C0D
:101FD3005893BB03120C58ADBB03120C58E5BB035B
:101FE300120C5808BC03120C58B8FF02120C5860AC
:101FF3009103120C58679103120C58849203120C2C
:1020030058B49203120C58DA9203120C580D93032E
:10201300120C581F9303120C585B9303120C58C1F4
:102023009303120C58FD9303120C58449403120C9F
:1020330058719403120C58929403120C583EBD032A
:10204300120C5850BD03120C583BBE03120C583EE1
:10205300BE03120C58D0FE01120C5842FF01120CA1
:102063005880FF01120C58C1FF01120C58569803F7
:10207300120C58729803120C58C19803120C58DDB5
:102083009803120C580E9903120C581E9903120C44
:1020930058069A03120C58109A03120C581D9A03EF
:1020A300120C58309B03120C58449B03120C584DCE
:1020B3009B03120C58AF8403120C58D68803120CDE
:1020C30058DB8803120C583DC303120C588BC3030F
:1020D300120C5869A901120C5877A601120C58C9A1
:1020E300A301120C589DA201120C58F1A101120C6C
:1020F3005842A001120C58FD9D01120C58849D01F9
:10210300120C582B9D01120C58A6D901120C5845DC
:10211300D901120C58BF9C01120C58969C01120C49
:1021230058F3D801120C58E1D801120C58899A01BE
:10213300120C58559A01120C58229A01120C580687
:102143009A01120C582C9901120C58E49801120CA4
:1021530058199701120C58999601120C589696012A
:10216300120C58A19501120C586F9501120C58AC22
:102173009401120C58D79201120C58689201120C58
:10218300583A9201120C58379201120C58249201BA
:10219300120C5865B001120C5847B001120C580FBD
:1021A300AF01120C586CAE01120C5819AD01120C90
:1021B30058BC9101120C58AB9101120C588C900130
:1021C300120C58569001120C58CAAA01120C581935
:1021D3009001120C58BA8F01120C58898F01120CFE
:1021E30058448C01120C585BAA01120C5816630058
:1021F300120C58358B01120C58C48A01120C5889E1
:102203008A01120C58548A01120C58488A01120C84
:1022130058A88901120C58EF8801120C58C2860184
:10222300120C584E8401120C580C8401120C58D70E
:102233008201120C588C8201120C58BE8101120CBF
:1022430058158101120C58B18001120C58EB800112
:10225300120C5813AA01120C58A2F90200000080B4
:10226300FBE47300013636010100010201000103A2
:1022730001000104010606050200000701003408FD
:1022830001000F090401010D0100FF0E08000017F2
:10229300020000190100FF1A0100011B0100FE1CCE
:1022A3000100081D0200001F01000120010001219F
:1022B3000200002301000F24020000260100012771
:1022C300010008280200FF2A0100072B0102402C0D
:1022D3000100002D0100012E0100012F0100FF303C
:1022E300010B1C310800003A0100083B01000F2FCD
:1022F300010000010171010101010111010101311D
:1023030001010101018001100161013B001400631F
:102313000173017201620143010001130106013DD2
:102323000135000401120100010001000100010454
:10233300010401330133013C014401320136000041
:1023430001000165010001350081010001050182E1
:10235300018301000103007100300160001100706E
:1023630000310220035004800010006100000014BB
:102373000063007300720062004300000013000654
:102383000000000000040012000000000000000034
:102393000004000400370037003C02440000000042
:1023A300000000000065000000350081000000050A
:1023B3000000008300000001037103010301030116
:1023C30003010301032203020301031003000300BB
:1023D300030003000300030003000342030003247C
:1023E3000306030003000304031203250323032549
:1023F3000323030403040300030003000344030053
:102403000300032303000365032100350381030055
:10241300030503000300030003030271023001609C
:102423000211027002010202020202800210026122
:10243300023A004100630273027202620243020025
:10244300021302380000020002040212020002001A
:10245300020002000204020402370037003C024477
:102463000200023900000200026502000235028107
:102473000200020502820283020002360001000606
:102483000000000F0000000000000000000000003A
:102493000003FFFF00000403FFFF0000FFFF0FF432
:1024A300010005C4040320000100000B000000002C
:1024B3000000000003010F0000BD1B1300571B01A8
:1024C30000BD1B0200151B03001B1B0400211B0581
:1024D30000271B0600331B11004B1B1400511B1557
:1024E30000451BFFFF00009B13CB13A113A713C5CC
:1024F30013B913B313D113D713DD13E913AD139525
:10250300138F1303EAF5E5D5D5C5B5A5959585854F
:102513007575656555554545353525251515050AE3
:102523005511021911052B11071F110CFB100D0D6D
:1025330011FF000000160F00000B150B0200022212
:102543000F32000006851497149D146513A3145FBE
:10255300136B13E51403150915EB14F714F1140C9D
:102563000E020B040B0A0708000F00383C3E363BF3
:102573003B352B432C00011916181616152303009F
:1025830000034948424D1817250502303017181922
:1025930021301B1D1F30303016181920231A1C1E22
:1025A30030D914A914AF14BB14B514BF13E313FD2E
:1025B30014EF13F5130204020101010109020000E3
:1025C3000000000000BE040AE803040015000E002A
:1025D300280008040C0A030908FF1E1E0F040C053B
:1025E30074F71207D5E99003B0F0900365E4F01295
:1025F300203D9003C4E4F0A3F09003B1F0A3F012E4
:102603001299122043900334E4F0A3F09025DF9352
:10261300FA79021220A30253A974F21207D5EAFE33
:10262300EBFF548060699003B0E0F91217DF8A086A
:102633008B09EA4509604F7C0080010CEC75F003BF
:10264300A4F8A9F0742228F582742539F583E4935C
:10265300F4602CE493F88508828B83E06870DCAA2D
:1026630008EC75F003A4F8742328F582742539F572
:1026730083E493C0E0740193F583D082122264AAA9
:1026830008AB091217D3EEFAEF6480FB0227E9EFD8
:102693005420601D1211AF8A088B09EA4509600AAC
:1026A30012110DAA08AB091217D3EEFAEF642080BA
:1026B300DAEEA2E0501A90036AE0640F700B79001F
:1026C3001210D7E960031227ECEE6401FAEF80BB26
:1026D300542070030227B7750C00123D908B09EA52
:1026E300450970107C027D007A207B009003B0E0E6
:1026F300F91219237C0079047A007B0012118B8A6A
:10270300088B098018850882850983A3A3A3A3A343
:10271300A3A3A3A37401F0850A08850B09E5084563
:1027230009606D7C007904AA08AB0912118B8A0A2F
:102733008B0B750C01E5082404F8E509123B3424DE
:10274300FFF0A3E034FF125F9570CC850882850902
:1027530083A3A3A3A3A3A3A3A3A3A3E0640170A53B
:10276300850882850983A3A3A3A3A3A3E0540470CC
:1027730094850882850983A3A3A3A3A3A3A3A3A3E7
:102783007406F07AB7850882850983122918808731
:1027930012115B7C0079017A007B0012118B8B098B
:1027A300EA45097009E50C70057A20124CF3EE64D2
:1027B300200226CFEF5402600B121293EEFAEF645D
:1027C3000202268EEF54046019124EDF124DFF7978
:1027D3000190036312516312101DEEFAEF640402B9
:1027E300268E7A007B00022A1F900D961230B612B5
:1027F30010EF22C082C08374EA120D3885188285D7
:102803001983AA82AB83794B1220797408120F566D
:102813007402F07409120F56AA82AB837950122006
:10282300797413120F56E41253321220977416025E
:1028330042B174F71207D574E1120D38EAFEEBFFCB
:10284300EE4F6033851882851983AC82AD831211F4
:10285300D37406120F56E0601E7417120F56E0FD74
:102863007401120F56E0FCEEFAEFFB790012219986
:10287300E9600479A4800279000253A474F6120774
:10288300D5EAFEEBFF8E828F83A3A3A3A3A3A3E0CA
:102893005440601B1258FF1229E660067AFF7BFF43
:1028A300801A8E828F83123F3DFAA3E0FB800312CE
:1028B30011F774FE6A700374FF6B60411258FF12C4
:1028C3004D37121251E98E828F836006122911E46B
:1028D30080051229117401F07CDD7D108E828F83B7
:1028E30012516312209DE9F5087015EE4F600979C6
:1028F30001EEFAEFFB121167A908024D687508CDC6
:10290300AA088E828F83122918E960DF80EAE02407
:102913000D12440C22E0240C12440CE0F91210E9CD
:102923002274F61207D5E9FEEAFF7A0F7B0012172D
:10293300CDEA4B60198A828B83740CF0EEA3A3F06B
:10294300EF8A828B83A3F0124DE87900802FEEF992
:102953001211918A088B09A808A909E849601C8803
:10296300828983A3A3A3A3A3A3A3A3A37406125B34
:1029730098E0F91210A1EEF912116D7910024D6869
:10298300C082C08390036AE0640F7014EA4B601046
:10299300900365E064086005E0640470031229A6EF
:1029A3000242DBEAFCEBFD7A017B009003B0E0F925
:1029B30012191D22C082C0837900EA241DF582EB1F
:1029C300123F3A24FD600B14600824FD600424FDCB
:1029D3007001090242DB8E828F83A3A3A3A3A3A367
:1029E300A3A3A31229EA22123F82FB121251E92266
:1029F3008E828F83A3A3A3A3A3A3A3A3A31229EAD2
:102A03006402228E828F83A3A3A3A3A3A3A3A3A35E
:102A13001242D2900356E06822120CBD7F06020ACE
:102A23003374F41207D574FD120D388A088B098AA2
:102A3300828B83A3A3E0F91211918A0A8B0BAE0A4E
:102A4300AF0BEE4F7003022B2B850882850983A3FE
:102A5300E064F16030850882850983A3E064CD607A
:102A630024850882850983A3E0641A601885088297
:102A7300850983A3E064E9600C850882850983A343
:102A8300E064E170087900121167E9706C850882CF
:102A9300850983A3E0C0E07402120F56D0E012420E
:102AA300B6EEF0A3EF12350C851882851983AA823E
:102AB300AB83700512100580031212397402120FD2
:102AC30056E064E970338E828F83122B37750A01C7
:102AD300780A120C94750AE9780A120C94E5082412
:102AE3000CF582E509122FFE1234E9FCA3E0FD8AFE
:102AF300828B83123503120CBD8E828F83A3A3A313
:102B0300A3A3A3A3A3A3E0640270108E828F83A365
:102B1300A3A3A3A3A3A3A3A37406F0850882850993
:102B230083A3A3E0F912116D12115B900D9A122782
:102B3300EF0230BBE0F8A3E0F9E8FAE9FB2274F412
:102B43001207D5EAFEEBFF7508008E828F83A3A3DD
:102B5300A3A3A3E060427508088E828F83A3A3A377
:102B6300A3A3A3A3A31241E58B0BEA450B60107546
:102B7300082C8E828F83A3A3A3A3A3E0D2E0F08EBD
:102B8300828F83A3A3A3A3A3E0540364016003027E
:102B93002C2A430811022C2AEE24181230C8603361
:102BA300EE241A1230C8700F122A067003A3E069CC
:102BB30070757508228070EE241BF582EF122C2F9E
:102BC300241AF582EF123514EE2419125933121018
:102BD3008F80541229F37003750801122A067003BB
:102BE300A3E0697006E508D2E1F508E50860158EF3
:102BF300828F83A3A3E07006E508D2E58004E5088D
:102C0300D2E6F5081229D964017006E508D2E0F589
:102C1300088E828F83A3A3E0600D122C3D640160B4
:102C230006E508C2E0F508A9080230C0123F2812E1
:102C33002C3622E0FCA3E0FDEE22123F22123F5A83
:102C4300F912123FE922C082C08379018A828B8301
:102C5300A3A3E0C394024001198A828B83A3A3A395
:102C6300A3E0C39402400279008A828B83A3A3A3C7
:102C7300A3A3A3A3A3A3E064F87003A3E0F46045B4
:102C83008A828B83A3A3A3A3A3A3A3A3A3E064F92F
:102C93007003A3E0F4602E8A828B83A3A3A3A3A370
:102CA300A3A3A3A3E064FA7003A3E0F460178A82EA
:102CB3008B83A3A3A3A3A3A3A3A3A3E064FB700396
:102CC300A3E0F4700279008A828B83A3A3A3E0F8C4
:102CD300900353E068600279000242DB74F012074C
:102CE300D574DE120D38EAFEEBFF8E828F83A3A329
:102CF300A3A3E0600E900D98124D5F6006900D98AF
:102D03001227EF7403120F56AC82AD838E828F832A
:102D1300A3A3A3124E3612566FE9600F7403120F6A
:102D230056AA82AB83121107E97008790112204F6A
:102D3300022FF3EE241B123F2D7410120F56124D67
:102D4300FF7409120F56E06021741A120F56E0FD4A
:102D53007404120F56E0FC8E828F83125161790145
:102D6300122199E96004790280C37403120F56AAF1
:102D730082AB83121101E9F50A7409120F56E07050
:102D83002A90034DE060247422550A6422601C7467
:102D930042550A644270CF7420120F5612301160EC
:102DA3000A7420120F5612300A70BBE9A2E6504192
:102DB3007403120F56AA82AB831210F5E970030253
:102DC3002D2E7420120F56123F3D6403700F742092
:102DD300120F56A3124D51A3E0640D601474031235
:102DE3000F56AA82AB83121263E964017003022FA8
:102DF300F3EE242C122FFB12331F7003A3E0697030
:102E03001C7508007808120C947808120C94EE24B0
:102E13002E125933123017123503120CBD740912D6
:102E23000F56E07003022ED01230171251631212A4
:102E3300BD8A088B09EA45097003022F6D740412D9
:102E43000F56E0F88E828F83A3A3E028F8A3E03423
:102E530000F9E8240D1230028A828B83A3A3A3E036
:102E630068601CE88A828B83A3A3A3F090809612E8
:102E73000F2B850882850983A3A3A3A3120F1F79B0
:102E830004E9120F5612564C2AF8A3E03400888244
:102E9300F583A3AA82AB831217C18A0C8B0D8C0E08
:102EA3008D0F850882850983A3A3A3A3780C120C35
:102EB300114003022FF390808E780C120E058508C3
:102EC30082850983A3A3A3A3780C120EC79003657D
:102ED300E064046008E064096003022FF3E50AA2DA
:102EE300E54003022FABEE242E1230C885188285ED
:102EF3001983F0EE242F1230C8C0E07401120F566C
:102F0300D0E0F0EE24301230C8C0E07402120F5645
:102F1300D0E0F07414120F56E064017027740E129F
:102F23000F56123F33EE24121230C8687003A3E029
:102F3300697011740C120F56122A00700774141260
:102F43000F56E4F0EE2424122FFB120AB874041275
:102F53000F56AC82AD837407120F56AA82AB83124D
:102F6300100B7404120CBD022FF39003AAE064014A
:102F73006003022ED07420120F561230117009E52F
:102F83000AA2E65003022ED07410120F56E0F4701A
:102F930003A3E0F4605AEEFCEFFD7403120F56AA8C
:102FA30082AB831211138048A2E650447420120F9F
:102FB30056125172701A741A120F56E0640270306E
:102FC3007403120F56AA82AB83790012122D80204C
:102FD3007420120F5612300A7016741A120F56E02C
:102FE3006404700C7403120F56AA82AB8312122767
:102FF300742202551EEE240BF582EF123F2822F5B0
:1030030082E9124E18F822125911E0640722123F86
:103013005A640622EE242A123F25122C3624121259
:103023003F252274F41207D5EAFEEBFF8C088D09C5
:10303300900675E0600F122A067003A3E06970051D
:1030430012107D804F79001251561210AD8A828B77
:1030530083E58245836035A3A3A3A3A3A3E0541808
:10306300602AE508241BF582E509122FFE120ABC2B
:103073001237CE122FFE120ABCEE24181259331245
:1030830030991210BF7404120CBD800879001230FD
:103093009912108380278E828F83A3A3A3A3A3A354
:1030A300A3A3A3122C36240BF582EF1230B22234E1
:1030B30000F583123F82FB227403120CBD7F0402CE
:1030C3000A33EE2417F582EF124E182274F7120713
:1030D300D574F7120D38EAFEEBFF900365E0640345
:1030E300600DE064016008E0640960030231998EB9
:1030F300828F83A3E0707E7C007D007A027B0012C6
:103103002049EE2402FAEF123B3B123F3390035661
:10311300124DFF795312207F790012319EE064092A
:1031230060031235318518828519837401124D802D
:103133009003657404F07401120F56AA82AB83796D
:103143004A1220797401120F56AC82AD837A5B7BED
:10315300031220679003561256657A0312353B908B
:103163000350E0A2E35004D2F08002C2F0124D6D8E
:103173001227EC801E8E828F83A3AE82AF83FC7DE9
:10318300007A037B101220498E828F83E0F912317B
:103193009EE4F012113D74090253A69003631230AA
:1031A300B612101D90036522C082C08390033412AF
:1031B3004D5F701F900365E014600924FC600A14DE
:1031C300600C800F90033C8032900338802D900375
:1031D3003A8028E84960089003351234E3700C8A7A
:1031E300828B83A3E0F9121011801B9003351238F0
:1031F3006A7005121287800E9003E1124D5F60061C
:10320300124D511222640242DB74F41207D574FB8F
:10321300120D388A088B097A0F7B001217CD8A0AA0
:103223008B0BAE0AAF0BEE4F70030233138E828FFC
:10323300831253307950122079850882850983A33C
:10324300E060030232FB900363E0F47003A3E0F455
:103253006034900363E064FE7003A3E0F4602785A9
:10326300188285198312331F7003A3E069601785E1
:103273000882850983A374EA1235197A637B03797B
:103283005012207F80728518828519831258F2129A
:103293004DFF7A567B037953122079900356124ED1
:1032A30030124DFF7A597B03794B1220797A587B80
:1032B3000379E112207990036AE0C3940F502190BF
:1032C3000358E0C0E07402120F56D0E0F074041209
:1032D3000F567401F004120F56AA82AB8312209189
:1032E300750A00780A120C94780A120C94900DBC9B
:1032F300E0F91234FA120CBD850882850983123372
:1033030018A3F09003657403F0EEFAEFFB124DE897
:1033130074050230BDA3E08E828F83221258F6E03B
:1033230068221244132274F51207D574D8120D388B
:103333008A088B098A828B83A3A3A3123F5F741528
:10334300120F56AC82AD838A828B83A3A3A3A3A35C
:10335300A3A3A31234E9FAA3E0FB121149741512D3
:103363000F56E0706B850882850983A3A3A3A3A3EB
:10337300A3A3A3E0C3940B40578E828F83A3A3A37D
:10338300A3A3A3A3A3E064027046EE240B1230C8E8
:10339300F4703D900365E06402603AE064066035D2
:1033A300900334124D5F60051234E3604F90036560
:1033B300E064086005E0640470167417120F56E0A9
:1033C300F9741C120F56AC82AD8312515612114F71
:1033D3007428025E1E900334124D5F701F7508003F
:1033E3007808120C947808120C94EE2410122FFB18
:1033F30012594B123C23123503120CBD8E828F835C
:103403001250D2123B4D123F337402120F56124D1B
:10341300FFEE240D1230C8C0E07404120F56D0E042
:1034230012350CF508A3E0F509740F7808120EE5C0
:103433007405120F56E508F07419120F56E0C0E038
:103443007406120F56D0E0F0741B120F56E0C0E062
:103453007407120F56D0E0F07416120F56E0C0E056
:103463007409120F56D0E0F07417120F56E0C0E043
:103473007408120F56D0E0F0EE24101230C8C0E0EA
:10348300740A120F56D0E0F0741A120F56E0C0E01F
:10349300740B120F56D0E0F07427120F56E0C0E001
:1034A300740C120F56D0E0F0741C120F56A982AAA6
:1034B3008389088A09750A007808120C8C7C087DB8
:1034C300007410120F56AA82AB8312490E120CBD60
:1034D300851882851983AA82AB831210170233D30E
:1034E300123870640122E0F98A828B83A3A3A3A319
:1034F300A3A3A3A3A3E022900363125669900359E5
:103503001230B6121209740222F0EE240B124E1579
:1035130022124E18FA22F07A567B0379531235247D
:103523002212207F7A597B03794B12207F2290034A
:10353300631230B61212B7227B001220499003594E
:103543001256697A047B0012204922F0125956223E
:1035530074F21207D574F8120D38EAFEEBFF8C0AE9
:103563008D0B890C851882851983AC82AD83758395
:103573008075823E7408120BB0F50DEEFCEFFD85ED
:103583001882851983AA82AB831250337003750D99
:10359300019003B1803BEEFCEFFDE508240BFAE557
:1035A300093400125032601E850882850983A3A363
:1035B300E0650C7011850882850983E0650A700453
:1035C300A3E0650B6038E5082414F582E509122FA2
:1035D300FE123B45E50845096024E50DA2E040B62F
:1035E300850882850983E0650A7004A3E0650B7092
:1035F300D5850882850983A3A3E0650C70C8AA0852
:10360300AB097408022A1CC082C0839003B1024232
:10361300D874F71207D59003B1123F828012EA24BF
:1036230014F582EB122FFE123F5F12186FEEFAEFC2
:10363300FBEA4B70E99003B1E4F0A3F00253A974E1
:10364300F11207D58A088B09ECFEEDFF890A8A82FD
:103653008B831255128A828B831233181237008A96
:10366300828B83A3A3E0C454F0FA88828983E04A5F
:1036730012371012331812370AE0333354FCF88E22
:10368300828F83E04812370AA3E033333354F8F8C8
:103693008E828F83E0481237008508828B83A3A331
:1036A300A3A3A3A3E0A2E0E4331313FA88828983DC
:1036B300E04AF0E5082407F50CEB124914120C8CD0
:1036C3007C08124908120CBD125643E508240FF575
:1036D3000CE5093400F50D780C120C8C7C031249AF
:1036E30008120CBDE50AC3940F400D1237CE122FFA
:1036F300FE123319A3A3A3F07F07020A33F0EEF8F7
:10370300EFF9A30EAF8322123710A3A322F085088B
:10371300828B83A3A32274F11207D5EAFEEBFF8900
:103723000A8C088D098E828F83E08C828D831241EF
:10373300EFAE82AF83E01249CE12493FC41249CEA5
:103743001237D7E054038C828D8312493DA2E2E401
:10375300338C828D8312493C131313541F1249CEA9
:1037630012493BA2E7E4338C828D83A3A3A3A31264
:1037730037D78E0C8F0D750E00780C120C8C7C08CD
:103783007D00E50824071255D8120CBD1256438E4E
:103793000C8F0D780C120C8C7C037D00E508240F34
:1037A3001255D8120CBDE50AC3940F40148E828FB4
:1037B30083A3A3A3E0C0E01237CE122FFED0E08094
:1037C300061237CE125B8CF00236FBE5082412F5A5
:1037D30082E50922A3A31241F30EAF832274F412EC
:1037E30007D574F9120D38EAFEEBFF89089003340C
:1037F300124D5F600E12386A7009EEFAEFFB121277
:1038030081805F900363E06E7003A3E06F70537475
:1038130001650860097A777B0312503370447A009C
:103823007B02123D948B0BEA450B703690036612B4
:103833000F2B851882851983120F1F90036CE0C02C
:10384300E07404120F56D0E0F07405120F567401A1
:10385300F07406120F56125330120FDBE9609B12FD
:103863000FE174070230BD1238706402221259123C
:10387300A3A3A3A3A3A3E02274F51207D58A088BFD
:10388300098A828B83A3AE82AF83E0F91210358E4F
:10389300828F83E064EB600C850882850983A3E053
:1038A30064E17009850882850983A3E4F01227EC9B
:1038B300750A01780A120C94850882850983A3E0AE
:1038C300F5087808120C9479001234FA120CBD1220
:1038D300115B025E21EAF0A3EBF00242DB74F61205
:1038E30007D59003C3E0701B7C0079017A007B004D
:1038F30012118BEA4B600C8A828B83124D5F60033B
:103903001210E3024D68C082C083123D7C401079DF
:10391300FF121185E9F89025D7E493C398500479F1
:1039230001800279000242DB74F01207D58A088B0A
:1039330009890B750C008A828B83A3A3A3A3A3A37A
:10394300A3A3E0F91211918A0E8B0FAE0EAF0F7580
:103953000A01EE4F6003023A09850882850983A3B1
:10396300A3A3A3A3A3125665850882850983A3A3F2
:10397300A3A3A3A3A31247081251631211798A0CBC
:103983008B0DAE0CAF0DEE4F7003023B2C8E828F6E
:1039930083A3A3A3A3E4F0A3F0E508240B123B380D
:1039A300E0C0E0122FF8D0E0F0121257EE240CF52D
:1039B30082EF124D33E508240EF582E509123F30FC
:1039C300EE240EF582EF124DFC750C01EE2406F881
:1039D300EF123B34547FF0A3E054FC1259A8E05497
:1039E300046003023A8F900D9E1246F9740778081B
:1039F300120E648E828F83A3A3A3A3A3A3E045081F
:103A0300F0A3E04509F08E828F83A3A3A3A3123B07
:103A13004374077808120EE5E5085407F508E50B2B
:103A2300607A8E828F83A3A3A3A3A3A3A3A3A37468
:103A330002124940240D124408E0A2E2500B900305
:103A430051124E30A3A3124DFFE5087003023B0150
:103A5300EE2406F8EF3400F9E8FAE9FB8A828B8357
:103A6300E0547FFCA3E054FCFDE50824FFF508E4E3
:103A730034FFF50974077808120E64EC4508F8ED75
:103A83004509F98A828B83124DFF80728E828F8360
:103A9300A3A3A3A3A3A3E04480023A08E508700507
:103AA300750A0080598E828F83A3A3A3A3A3A3E0E7
:103AB300542060121217C7EA547F245F8E828F83CB
:103AC300A3A3A3A380238E828F83A3A3A3A3A3A3D0
:103AD300E05410600A1217C7EA540F240A80DD8EDF
:103AE300828F83A3A3A3A37401F0A3E4123B4D74B9
:103AF30004123D8B8B09EA45097003124D26E50C30
:103B0300A2E050288E828F83A3A3A3A3125396F916
:103B1300EEFAEFFB12117FE96012124D55600312AA
:103B23003F18EEFAEFFB12186F750A00A90A025547
:103B330021124EF322FAE5093400FB8A828B832299
:103B4300A3A3E0F508A3E0F50922123B5122125585
:103B5300F4A3A3A3A3A32274F41207D574F7120D3D
:103B6300387E00121191EA4B7003023C1C8A828B4F
:103B730083A3A3A3A3A3A3A3A3A3E0640660030255
:103B83003C1C8A828B83A3A3A3A3A3A3A3E0FF8AE2
:103B9300828B8312441BE0C0E07408120F56D0E0FE
:103BA300123F53125039124DFF1211A3EF54086004
:103BB300668518828519831256657A007B00121177
:103BC300738B0BEA450B704F900363124043122033
:103BD300A97C007D007A007B0080288E828F83126F
:103BE3003F3DF47003A3E0F4602D900363123C2384
:103BF300125163121D9DE9641A601C7C007D00EE66
:103C0300FAEFFB1211738A0A8B0BAE0AAF0BEE4F5E
:103C130070C979001220AF7E01EEF974090230BD3C
:103C2300123C2722E0FCA3E0FD8E828F8322C08218
:103C3300C083EA4B70059003C480068A828B83A3FA
:103C4300A3123E4360258A828B83A3A3A3A3A3A3CA
:103C5300A3E0540860E5EC4D60158A828B83123F24
:103C63003D6C7003A3E06D70D280047A007B000288
:103C730042DB74F21207D5EAFEEBFF890A8C088D4A
:103C8300097A107B00121869EA4B603F8A828B83A2
:103C9300A3A3A3A3A3A3A3A3A3E4123F41A3E50A5E
:103CA300125918A3123CD88A828B83A3A3A3A3E43B
:103CB300F0A3123F4DA3F01257ACEA240CF582EBAC
:103CC3001241DF123CD1A3A3F0A3F0022A1FA3F0F9
:103CD3008A828B8322A3A3E508F0A3E509F022746B
:103CE300F41207D5EAFEEBFF89088C0A8D0BEE4F21
:103CF30060557401650870147901121185E9F89013
:103D030025DBE493C398500F7911806A7404650826
:103D1300702F123D7C40F18E828F83A3A3A3A3A3B4
:103D2300A3A3A3A3E5081241EFA3125EAB8E828F78
:103D330083A3A3E4F0A3F09003C4124D5F6021803A
:103D43000D7402650860D079C1802BE0F8A3124E90
:103D530029A3A3123E4388828983A3A370ED800322
:103D63009003C4EEF0A3EF123D8B8B0BEA450B706F
:103D730003124D2679000230C07904121185E9F847
:103D83009025E2E493C39822F0123D90227A207B9F
:103D9300009003B0E0F912192F22C082C083E9F822
:103DA30079009003C4801D8A828B83A3A3A3A3A35A
:103DB300A3A3A3A3E068600574FF687001098A8266
:103DC3008B83A3A3123E4370DE0242DB74F7120718
:103DD300D5EA4B70059003C480068A828B83A3A324
:103DE300123E4360248A828B83A3A3A3A3A3A3A32A
:103DF300A3A3E06970E4EC60148A828B83E0240D52
:103E0300125656A2E240D380047A007B000253A9E3
:103E1300C082C0839003C480068A828B83A3A312CB
:103E23003E4360128A828B83A3A3A3A3A3A3A3A36A
:103E3300E06970E580047A007B000242DB3BF58396
:103E43001230B6EA4B2274F21207D58A0A8B0B8C16
:103E53000C8D0D750800750900EA450B602E900363
:103E6300C480068E828F83A3A3123E96601EAC0C81
:103E7300AD0DEEFAEFFB850A82850B83122264E90E
:103E8300640170DFEEF8EFF988088909AA08AB0925
:103E9300022A1FE0FEA3E0FFEE4F2274F71207D5BC
:103EA3009003C4123F337C007D00800DE8FCE9FDE4
:103EB30088828983A3A3123F33E8496030EA68709C
:103EC30002EB6970E79003C4125163E86A7002E978
:103ED3006B88828983A3A37008123F339003C48045
:103EE30009123F338C828D83A3A3124DFF0253A982
:103EF30074F71207D5EAFEEBFFEE4F601512119D22
:103F0300123F65124D556003123F18EEFAEFFB1294
:103F1300186F0253A9EE240C123F25123F7A22EEAA
:103F2300241DF582EF3400F58322F582EF123F283A
:103F33001242D222F582EF123F28123F5A22123F39
:103F43004522125920A3A3A3A322123F45A3A322D0
:103F5300123CD2123F5A2212590BE022E0FEA3E098
:103F6300FF228E828F83E0241C12440C123F7A8E30
:103F7300828F83123F7A22123F82FB12186F22E054
:103F8300FAA3E022C082C083EAFCEBFDEC4D70048F
:103F930079058044EC24FBF582ED34FF124D5D700E
:103FA30007123FDEE0F460051217D380E39003B0FD
:103FB300E0C0E0123FDED0E0F09025D8E493F97A38
:103FC300C67B031217FDE96401700B7A007B201294
:103FD3004D2A7900800279040242DBEC24FFF5824A
:103FE300ED34FFF5832274F41207D5A2AFE433F561
:103FF30008C2AF9003C6123E966038EE24FBF582EA
:10400300EF34FF124D5D7A007B209003B060051200
:104013004D2D8005E0F9121809E4F50AF50B780A2D
:10402300120C90EEFCEFFD7AC67B031217F77402B5
:10403300120CBDE508A2E092AFEEFAEFFB0230C02E
:10404300125669851882851983AA82AB832274F27A
:104053001207D574FC120D38EAFEEBFF750AFE75E4
:104063000BFF121161E9600579110241D4EE2415A9
:104073001230C86037900DB2E0C43354E0F8E03337
:104083003354FC48C0E0EE2415122FFBD0E012415C
:10409300EF1241E58B09EA45096011750AFFEE2429
:1040A3000F1230C84404124E0DD2E0F08E828F837B
:1040B3001229E46006EE24121241DCEE24131230BE
:1040C300C870109025DEE493C0E0EE2413122FFB9A
:1040D300D0E0F08E828F83E0A2E750045403801C6B
:1040E300EE24141230C87015900342E0C0E0EE24B1
:1040F30014122FFBD0E0F0900342E004F0EE241101
:104103001230C86401701690066CE0600D90034D88
:10411300E0700A8E828F83E070031241D98E828F02
:1041230083E064017013EE240B123F3764027009BD
:10413300EE240F1230C84440F0851882851983ACF1
:1041430082AD83EEFAEFFB1211C78A088B0974FE66
:10415300650A700374FFF470098E828F83A3A31220
:1041630055E4EA450960668E828F83E0C0E07401FE
:10417300120F56D0E0F07402120F561257B07401AA
:10418300120F5685820C85830D780C120C90EE2449
:104193000F122FFB120ABCEE240E1230C8F50C7856
:1041A3000C120C94900356120ABC7407120F56E0BB
:1041B300F9AC0AAD0B1211C17407120CBDE9FE7400
:1041C300106E700BAA08AB0912186F80027E10EEF6
:1041D300F97404022A1CEE2411F582EF123F28E43D
:1041E300F022A31230B679FF122253221241F32296
:1041F300F08E828F83A322C082C08374DE120D38B7
:104203008A828B83A3A3A3A3123F33740E120F5688
:10421300E8F0A3E91242C9740C120F561242C224E9
:104223000DF582EB1230CBC0E0741A120F56D0E0BA
:10423300F0125531EB123F307420120F561242C266
:104243002415F582EB1230CBC0E07408120F56D060
:10425300E0F0EA241CF582EB123F307412120F5681
:104263001242C22411F582EB1230CBC0E074091262
:104273000F56D0E01242B674FFF07401120F567459
:10428300FFF07402120F5674FFF0908096120AB872
:104293007404120F56AC82AD837407120F56AA82B0
:1042A300AB8312100B7404120CBD79007422120C30
:1042B300BD80251242BA22F085188285198322E82F
:1042C300F0A3E9F0EA22123CD2A31242D122A3E0E6
:1042D300F8A3E0F922125163D083D082020C557403
:1042E300EC1207D574EE120D388A128B13ECFEED27
:1042F300FF89097426120F561255E47428120F56BB
:10430300E0F5107429120F561243FD742B120F5649
:10431300E0F50EA3E0F50F7508107A1E7B00121866
:10432300697402120F56124D377402120F56124D52
:104333005F70030243F6851882851983AA82AB83D3
:104343007950124C121251637402120F5612441B0D
:10435300A3124D377410120F56125EAD7402120F72
:1043630056E0240B1244087402F0120F5612441B39
:104373007402F0120F561259031257B07402120F3F
:1043830056125178E509F07402120F56E0240C120C
:104393004408E510F07402120F56124405E512F0BA
:1043A300A3E513F07408120F56E50CF0A3E50DF026
:1043B300740A120F56E510F0850E82850F83C082B2
:1043C300C083740D120F56AC82AD83D083D0827438
:1043D30003120BB0F97402120F56AA82AB831211A7
:1043E30067E96401700575080080087402120F56AE
:1043F300123F1EA90874120255FBE0F50CA3E0F569
:104403000D22E0241C12440C22F8A3E012441322D0
:104413003400F9888289832212516BA3A3A3A3A337
:104423002274EE1207D5EAFEEBFF8C088D098E820B
:104433008F83A37408124E48E060088E828F83A393
:104443007410F01230C560098E828F83A3E02408B4
:10445300F0EE24151230C860088E828F83A3E00427
:10446300F08E828F83A3A3A3A3A3A3E060198E82FC
:104473008F83A3A3A3A3A3A3A3E0C3332402F88E30
:10448300828F83A3E028F0EE24111230C8600575F3
:104493000B0E8003750B008E828F83A3C082C083B3
:1044A300EE240D1230C8D083D082F8E028250B8C7F
:1044B300828D83F0EE24111230C8600512491E2844
:1044C300F0850882850983E0C39475400975080067
:1044D300750900024606E0FA7B0012585E7003027B
:1044E3004606EEFAEFFB1211CDEA850882850983B1
:1044F300124D38EE2402F8EF12332512470012460C
:1045030042F0EE24040808EF123325124B48A3129D
:104513004642A3A3F0EE2413124628F0EE2414120D
:104523004628A3F0750A08EE24161230C86010EE70
:104533002418125662E5082408125941750A10120C
:1045430030C56016EE241A125662850A0CE508255A
:104553000C1259417408250AF50A8E828F83A3A38E
:10456300A3A3A3A3E06059EE2407F510EF3400F5ED
:1045730011851082F583E0C0E012460F122FFED0A2
:10458300E0124632E0C0E012460F122FFED0E012D6
:104593004632A312461B120C8C851082851183E0D0
:1045A300C333FCE433FD850A0CE508250C1255D80A
:1045B300120CBD851082851183E0C333250AF50AE9
:1045C300EE24151230C8600BC0E012460F122FFE06
:1045D300D0E0F0122FF812461B120C8CEE240D12B1
:1045E30030C8FC7D00850B0A8E828F83A3E0F8E53B
:1045F3000828F8E5093400F9E8250AFAE91255DB39
:10460300120CBDAA08AB097F0A020A33850A0CE51E
:1046130008250CF582E50922E0F50CA3E0F50D75FC
:104623000E00780C22123F2512464CA3A3A322F0BE
:10463300050A8E828F83A3A3A3A3A3A3A3A322A369
:10464300A31259ACA312464C22124B4CA3A32274BF
:10465300F61207D58A828B83E0FC9003531246F946
:1046630074027808120E64EC4508FCAD09EA2412C2
:104673001246F374067808120E64EC4508FCED4507
:1046830009FDEA2415F582EB1230CB600478018032
:10469300027800E4C8F9ED49FDEA2411F582EB1232
:1046A30030CBF508880974097808120E64ED4509C2
:1046B300FDEA24161246F3740B7808120E64ED45D6
:1046C30009FDEA24171246F3740C7808120E64ED00
:1046D3004509FD8A828B83A3A3A3A3A3A31246F94F
:1046E300740A7808120E64ECFAED4509FB024D6872
:1046F300F582EB123F28E0F50875090022E08508F2
:104703008285098322A3E0F98508828509832274BF
:10471300EE1207D58A0A8B0BECFEEDFF750F01E94C
:10472300C39408500579000249058E828F83E9F00E
:10473300124B71E96003750F00124B558E828F8304
:10474300124B9FEE125532EF124B94C0E0EE241140
:10475300122FFBD0E0124B8CC0E0EE2412122FFB81
:10476300D0E01241EF74081255ECA3A3A3E0601547
:10477300124B3DEE2413F582EF124DFC8E828F8394
:10478300A3E02408F08E828F83A3A3A3A3A3A3A3F0
:10479300A3E060218E828F83A3858208858309121B
:1047A3004B80EE2415F582EF124DFC8508828509B6
:1047B30083E02408F08E828F83A3A3A3A3A3E060E6
:1047C3001A8E828F83A3858208858309124B648E98
:1047D300828F83A3A3A3A3A3124930EE241912410A
:1047E300DCEE241B1241DCA3124E40E070030248AE
:1047F30099EE2419F8EF3400F98E828F83A3858212
:1048030008858309E0FAE50A2AF582E50B1230CB25
:1048130088828983124930FAE50A2AF582E50B1268
:1048230030CBC0E0EE241A122FFBD0E012493088BF
:10483300828983E06059F89025E1E493C398500599
:1048430075110C8008EE24191230C8F5118E828F71
:1048530083A3E0F8E50A28F50CE50B124914120CC2
:104863008CE511C333FCE433FD7A4E7B0C12490E05
:10487300120CBDEE241B122FFB744EF0A3740CF02C
:10488300E511C333F8850882850983E0288006EEA5
:104893002418125B89F08E828F83A3E0F88E828FB7
:1048A30083E0C3985003024728A3E0FA8A08E50A85
:1048B3002508F8E50B3400F9EE241DF582EF124FBD
:1048C30008124940C39AC0E0EE2417122FFBD0E030
:1048D300124E05602BEE2417F8EF3400F98808898F
:1048E300098882F583E024F2124EE9240EFAA3E04C
:1048F3003400FB88828983124D3712491EC398F016
:10490300A90F02460A7D00EEFAEFFB1217A9740302
:10491300223400F50D750E00780C2290034EE0F959
:10492300122193E9F8850882850983E022F085083E
:1049330082850983E004F022A3A3A3A3A3F08E82BC
:104943008F83E02274F41207D58A088B09EA12498F
:10495300D5F0EA1313543F1249CEA3A3A3F0EAC43C
:1049630013131249D5A3A3F0EB1249C71249DF74FD
:1049730009780A120EE51249C51249DE740A780A4B
:10498300120EE5E50A5401C0E0EC2418F582ED129D
:104993002FFED0E01249E4740B780A120EE5124997
:1049A300C5A31249DE740C780A120EE51249C5A399
:1049B300A3A3A3A3A3A3A3F0740D7808120EE50287
:1049C3002C2AE50A54018C828D8322540F8C828D0C
:1049D300832254038C828D83A3A322A3A3A3A3A323
:1049E300A3F08A0A8B0B22C082C08379008A828B50
:1049F30083A3A3A3A3A3A3E090034D600FE07022BE
:104A03008A828B83A3A3E07019098016E060138A5E
:104A1300828B8312515A900356E06A7003A3E06BB2
:104A230070E70242DB74F01207D58A0A8B0B890CFC
:104A33008C088D09124B71124B55850882850983A9
:104A4300124B9FE508125532E509124B94C0E0E57D
:104A5300082411F582E509122FFED0E0124B8CC019
:104A6300E01237CE122FFED0E0124F107408124F0F
:104A7300296011124B3DE5082413124F04124F1005
:104A8300E02408F0850882850983A3A3A3A3A3A335
:104A9300A3A3E06017850882850983A3124B7CE5F5
:104AA300082415124F041249402408F08508828512
:104AB3000983A3A3A3A3A3E06019850882850983BF
:104AC300A3AE82AF83124B648508828509831249A2
:104AD3003B04F0AA08AB091211DFE9F50D70568506
:104AE3000882850983A3A3A3A3A3A3124B4870142D
:104AF300E0FA8A0EE50A250EF8E50B124DF1E50CF6
:104B0300C39A8021124B7CE8240EF8E9124DF190F0
:104B1300034EE0F91221938E828F83E0F8E50CC3F4
:104B23009824F2C399C0E0E5082417F582E5091239
:104B33002FFED0E0F0A90D025521E50A2408F8E57F
:104B43000B3400F922124B4C22E08508828509833D
:104B5300A322850A82850B83A3A3124BB5E0F9EA4E
:104B630022E0F8E50A28F582E50B124E18228A8224
:104B73008B831255261211D922AE82AF83E0F8E55A
:104B83000A28F8E50B3400F922124BC8A3A3A3E0CB
:104B930022123F28E8124BC1A3A3E022A3A3A3A39D
:104BA300A3A3A3A3A3124BC1124BB5A3A3E0F9EA9A
:104BB300F822E0FA850A82850B83A3A3A322F0A33C
:104BC300E9124BC822F0850A82850B83A3A3A3A312
:104BD30022C082C0837AD47B0379E21220797AD40B
:104BE3007B030242DBC082C0839003560242D8C0DB
:104BF30082C08374FE120D38851882851983AA82B8
:104C0300AB83794B124C1212516374020242B112FC
:104C1300207985188285198322C082C083794A123C
:104C230020790242DB74F61207D59003DCE0FE0420
:104C3300F0EEF91211918B09EA450970EDEE60EA85
:104C4300F9024D6874F01207D5EAFEEBFF8C088D6C
:104C530009890A7410120F56E0F50B7411120F56DE
:104C6300E0F50C1212BDEA4B7013E50C7042A90A71
:104C7300AC08AD09EEFAEFFB1212D5806EE50A60BF
:104C830021EA2402F582EB1230CB850A082508F8C5
:104C9300E4340013E813F070098A828B83A3A374AE
:104CA30001F0E50C6045E50B70068A828B83E4F026
:104CB3007401650C7035E50B9003E37004E4F08038
:104CC3002AE004F0900D9FE0F89003E3E0C39840DE
:104CD3001AE4F0900359E06E7003A3E06F700CEEDA
:104CE300FAEFFB790112102F124CF10255217A01D0
:104CF3007B009003B0E0F912192922C082C08374AB
:104D0300016A7001EB70077A01124D288012900D31
:104D130096124D37EA4B60051229A68003124CF117
:104D23000242DB7A207B009003B0E0F912180322E1
:104D33003400F583EAF0A3EBF022C082C083900D28
:104D4300980238D8C082C083900D9A0238D812597D
:104D53001222EE240CF582EF3400F5831242D2E8DE
:104D63004922120CBD7F02020A33A2F0E4338518F4
:104D730082851983124D89795212207F22124D891F
:104D8300794212207F22F0AA82AB8322AA82AB83CC
:104D93001211437AB37B03794512207F2274F712F1
:104DA30007D574ED120D38E9FE9003AF12517F124F
:104DB3004DCC7412120F56EE124DD98518828519F7
:104DC30083124D8F74130253A6900D50E0F97AB3FA
:104DD3007B0312114922F0900D50E0F97CB37D035F
:104DE30022AA08AB099003B0E0F91217D9223400C4
:104DF300F9E508241DF582E509123F28E8F0A3E947
:104E0300F0221255F0A3A3E022A3F0EE2415124ED4
:104E13001522F582EF3400F583E022124E2222346C
:104E230000F583E0F8A3E0F98882898322E0F81291
:104E33004E3622A3E0F98E828F83A3A322F0EE24C1
:104E430018123F2522F0EE2416123F252274F41285
:104E530007D5EAFEEBFF7A007B04124CF5124EDF16
:104E6300124DFF9003657409F01211EB8A088B0948
:104E7300AC08AD09EE2413122FFB12516312503309
:104E8300640170487A0F124ED260418A828B837418
:104E930002124EE9FAA3E0FB8A828B83A3E0FC8A29
:104EA300828B83A3A3E0FBEC850882850983A3A3FC
:104EB300124D3888828983125167124700124E0CB3
:104EC300FAA3E0FB794A12207F124DE40230C07B43
:104ED300001217CD8A088B09EA450922900336127E
:104EE30042D2900D9A22F0EE241DF8EF124EF322D7
:104EF300124413E022124EFC223400F5837401F0B5
:104F030022F582E509123F28E8F0A3E922124F14A3
:104F130022124F1822F0850882850983A322124F9B
:104F230018A3A3A3A322124F21A3A3E02212533A4F
:104F330012124522EE2417F582EF124EFC1211EBEA
:104F4300EE241A123F25EAF0A3EBF02274F41207C1
:104F5300D574F3120D388908EAFEEBFF7C0D7D0052
:104F63007900851882851983AA82AB831217B5EE5F
:104F7300241D122FFB125903A3E0F8741F58600A73
:104F8300790112204F790002502AE8A2E5500874F3
:104F93000C120F567401F0E8A2E75008740B120FBD
:104FA300567401F0E8A2E6740A5008120F56740111
:104FB300F08008120F56E064017005EE241380039D
:104FC300EE24151256627402120F56AA82AB831294
:104FD3002067122FF8125038124DFF740A120F5621
:104FE300E0640170331229D9703B1211F78A0A8BDE
:104FF3000BA80AA90BEE240B1230C8687003A3E0B8
:105003006970221211EBEAFCEBFD7402120F56AA2F
:1050130082AB83125033600D851882851983AA826F
:10502300AB83121029A908740D0230BDEEFAEFFB11
:10503300122061E922E012503D22F8A3E0F985181D
:10504300828519832274F61207D574F3120D388AF8
:10505300088B09ECFEEDFF7C0D7D0079008518823D
:10506300851983AA82AB83125AB6A3A3A3A3A3A3CE
:10507300A3A3A31250D21250DBF8A2E55008740B7D
:10508300120F567401F0E8A2E75008740A120F5683
:105093007401F0E8A2E6EE500424138002241512F2
:1050A30056627402120F561250C4A3A3E0C0E074F8
:1050B3000C120F56D0E0125332121023740D024D0E
:1050C30065AA82AB8312206785088285098322E063
:1050D30012503DE8F0A3E922F0123F22125907A330
:1050E300E02274F71207D574E1120D38EAFEEBFFE4
:1050F3008E828F83125167A3A3A3E0A2E050518E47
:10510300828F83122B398A828B83A3A3A3A3A3A3A6
:10511300E054FE12517F8A828B83125178E0F98A20
:10512300828B83E0241CFAA3E0123B3B12516312EF
:1051330011E5E9701B741D120F561251727011851F
:105143001882851983AC82AD83EEFAEFFB1212331A
:105153000253A48E828F83A3A3A3A3A3A3A3A3A376
:105163001230B62212516B2212590BA3A3A322129F
:105173003F5A640422E0241B12440C221242BAACAC
:1051830082AD8322E9F87900740468600A740A68BE
:105193006005740368700109020C5574F61207D593
:1051A3008A828B837420F0A3A37401F0120FCF8A39
:1051B300088B09AE08AF09EE4F60108E828F83749F
:1051C30001F09003A3E07003124F37EEFAEFFB02F6
:1051D3004D68C082C0839003C87401F0E9A2E35014
:1051E300037403F0E9A2E15004E0D2E2F00242DBEF
:1051F30074F61207D579007C008A088B09780812A7
:1052030009EDF8FF07265224522452245224521D3A
:1052130052215226521A520C80097C0480050C80BC
:10522300F67C089003C8E05C6003098003EC60012E
:1052330009024D6874F61207D58A828B83E07012D7
:10524300A3124D5F600C8A828B831251621221BDBF
:1052530080047A007B00024D6874F51207D574F35D
:10526300120D388A088B09ECFEEDFF750A12EA4528
:10527300097005790002532B900356E0650870040A
:10528300A3E0650970141211EBEAFCEBFD12502F39
:105293007005750A018003750A00851882851983D4
:1052A300E4F004120F56E508F0A3E5091253321295
:1052B3000F93E960277403120F56AA82AB83120F70
:1052C30075E964017016750A017403120F56AC82F6
:1052D300AD8312502F6021750A00801C7412650A79
:1052E30070169003A2E06402700EEEFCEFFDAA08B4
:1052F300AB09120FABE970DFEEFCEFFDAA08AB09B7
:105303001212C3E9F8740A687005750A01801774EC
:10531300A0687012EEFCEFFDAA08AB091212CFAA27
:1053230008AB091212E1A90A740D025E1E7402127F
:1053330053362212533A221242BAAA82AB83227400
:10534300F71207D5EAFEEBFF8E828F83A3A3A3A3F5
:10535300A3A3A3A3E06015EE2415122FFB1230A61E
:1053630012125DE964017004790180258E828F83B6
:10537300A3A3A3A3A3A3A3E06015EE2413122FFBFF
:10538300125396FAA3E0FB12125DE9640160D97926
:10539300008013123C27A3A3A3A3A3A3A3A3A3E067
:1053A30022741F120CBD7F01020A3374F01207D559
:1053B30074FD120D388A088B09ECFEEDFF890B741E
:1053C30013120F56E0F50C750A017401120F56748F
:1053D3000412593B6048E50C601DEA2417F582EB83
:1053E300125B8C1259298A828B83E0D2E7F0EA247C
:1053F30014F582EB1241DF125531EB124E1E74038A
:10540300125EAFEE88828983A3A3F0EF888289833B
:10541300A3A3123CD1123CD8120FC9E9F50AA90A79
:10542300740302551E74EC1207D574F5120D388AF5
:105433000A8B0B890C8C0E8D0F741F120F56E0F51F
:105443000D7420120F56E0F510A3E0F5117E01EE66
:10545300120F56740AF0E97007E50DC333240AF0FE
:1054630012560370030255051256187409F0A3E58A
:105473000CC43354E0450D12562AE50C702D7C0004
:105483008023ECC333F8E433F9E51028F8E5113948
:10549300F98882898312551288828983123318F01E
:1054A300A30EAF830CECC3950D40D7E5082417F585
:1054B30082E509124EF81211EBE508241AF582E58C
:1054C30009124D337403120F56AC82AD83AA0AAB93
:1054D3000B120F7BE96019E5082416F582E5091222
:1054E300550C120F56A882A983E5082418124DF80B
:1054F300850882850983125EABAA08AB09120FC91E
:10550300E9FEEEF9740B0255FB124EFC740322E024
:105513008E828F83F0A3AE82AF8322120CBD7F08ED
:10552300020A33123F82F9EA2400E439FB22EA2417
:105533000BF5822274EE1207D58A0C8B0D890E8C23
:10554300088D097412120F56E0F50F7413120F56DB
:105553001255E49005DB124D5F6077E50FC333F816
:10556300E433F9E8240EFAE93400FB1217CD8A106C
:105573008B11AE10AF11EE4F60588E828F8374D4AF
:10558300F0A3A3E50CF0A3E50D1255ECE50EF0AC8A
:1055930008AD09EE2405FAEF125944EE240D122F3B
:1055A300FBE50FF0850A08850B09750A00780812D8
:1055B3000C8CE50FC333FCE433FDEE240EFAEF123B
:1055C30055DB120CBDEEFAEFFB9005DB125903120B
:1055D300226402460AFAE5093400FB1217A9740390
:1055E30022E0F50AA3E0F50B221255F0221255F43E
:1055F300221241F3A3A3A322120CBD7F0C020A3390
:10560300851882851983AA82AB831212458A088B77
:1056130009EA450922EA240BF582EB124E18FEA390
:10562300E0FF8E828F8322F0A3AE82AF83AC0EADF8
:105633000FEEFAEFFB12563C22122067125643225A
:10564300EE2408FEEF3400FF22E0FA8E828F83A35C
:10565300A3E022FEA3E03400FF8E828F83E02212B8
:105663003F2512566922E0FCA3E0FD221230B61258
:1056730011D32274F71207D5E9FE7C007D00780070
:105683007900800D125734E02CFCA3E03DFD125D40
:105693004E125DB7502CE8FAE9FBEA75F012A4FA52
:1056A300AFF075F012EBA42F125D57F460E01257C0
:1056B3003B123E4060D8EE60CB125734E4F0A3F0C7
:1056C30080CC78007900800D125714E02CFCA3E005
:1056D3003DFD125D4E125DAA5030E8FAE9FBEA7512
:1056E300F017A4FAAFF075F017EBA42F125D8670D4
:1056F30003A3E0F460DC12571B123E4060D4EE605B
:10570300C7125714E4F0A3F080C8ECFAEDFB025380
:10571300A912571B3BF58322E8FAE9FBEA75F01758
:10572300A4FA75F017EBA42FFB74EF2AF582740A21
:105733002212573B3BF58322E8FAE9FBEA75F012A4
:10574300A4FA75F012EBA42FFB74702AF582740986
:105753002274F61207D5EAFEEBFF9003C980138883
:10576300828983E06E7003A3E06F603A8882898345
:10577300A3A3124D5F70E87A047B001218698A08AC
:105783008B09A808A909E849601C888289831257F4
:10579300B09003C912516388828983A3A3124D3742
:1057A3009003C9124DFF024D688A828B83EEF0A3EA
:1057B300EFF02274F41207D57E009003C980070E20
:1057C30088828983A3A3124D5F70F4EEC333FAE496
:1057D30033FB12585E607E7F009003C98024888269
:1057E3008983125665EFC333FAE433FBE5082AF5E0
:1057F30082E5093BF583ECF0A3EDF00F8882898302
:10580300A3A3124D5F70D79003AB122A137003A3A7
:10581300E06978087019120C90EEF50A780A120CF8
:10582300947C777D0379009003AB125869801A1238
:105833000C90EEF50A780A120C947C777D037900BC
:105843009003AB12516312126F7403120CBDAA08BA
:10585300AB0912186F120FE10230C01218698A08DF
:105863008B09EA4509221230B612127522C082C092
:105873008380128A828B83A3A3123F339003C912BE
:105883004DFF12186F9003C9123E4370E60242DBCC
:1058930074F61207D5900363123F5F9003DD12582D
:1058A300F2124DFF7ADD7B03795012207F9003DDE6
:1058B300122C32FAEFFB1212DB9003DD123F5F90E2
:1058C30005DD124D5F60257A067B001217CDEA4B8A
:1058D300601A8A828B8374D5F0A3A3E41259180447
:1058E3001259299005DD125903122264024D6812E0
:1058F30058F622E0F8A3E0F9900363228E828F83A7
:105903001259072212590B22E0F812591122A3E06F
:10591300F58388822212591C2212592022F08A828E
:105923008B83A3A3A32212591CA3EEF0A3EFF022AF
:10593300F582EF124E18F922124F30EA4B22FAE5A4
:10594300093400FB12206722124E37A3A3A3A3A39B
:10595300A3A3229025D9E4932401F8E43400F97A2F
:10596300027B002274F71207D57E008004125F6267
:105973000E125A8640F77E00EE12599374FEF0A37E
:10598300041259A8E4F00EEEC3940340EB0253A9AA
:1059930075F003A4F8A9F074CB28F8740339F988D7
:1059A300828983A3221259AC22F0888289832274CC
:1059B300F71207D57F0080010F9025D6E493F8EF07
:1059C300C3985026EF125B726A7003A3E06B70E812
:1059D300125F0F6C7003A3E06D600A74FF6C7003B9
:1059E30074FF6D70D3125A6F80047A007B000253E8
:1059F300A974F61207D57CFF7DFF7AFE7BFF121296
:105A03009FEA4B70407508008036E50875F017A4CF
:105A1300F8A9F074E928F582740A125B84600C74A7
:105A2300E828F582740A125B84701374DA28FE7412
:105A33000A39FF8E828F83125B91EEFAEFFB050822
:105A4300125AEC40C5024D6874F41207D58A088BCC
:105A530009ECFEEDFF800B1212B1EEFCEFFDAA087C
:105A6300AB0912129FEA4B70EE0230C074DA28FAC7
:105A7300740A39FB22EE75F017A4F8A9F0125B7DC6
:105A830064FE229025D6E493F8EEC3982274F712AD
:105A930007D5EAFEEBFFEE4F6010125AB074FEF02A
:105AA300A304125EB514F0A304F00253A97C177D7E
:105AB3000079001217B58E828F832274F71207D5EF
:105AC300EAFEEBFF7508008018E50875F017A4F8E7
:105AD300A9F0125F1A7003A3E06F6003125F6A05F7
:105AE30008125AEC40E30253A99025D6E493F8E553
:105AF30008C3982274F61207D512129F8A088B09DD
:105B0300A808A909E849600AE8240DFAE93400FB6A
:105B130080047A007B00024D6874F41207D58A0A68
:105B23008B0BECFEEDFF750800750900802EE5096F
:105B330075F017A4F8A9F0125F55601EE509125B12
