:020000040000FA
:06000000020F1802056466
:03002B00020C6A5A
:03004300020C04A8
:030053000204A301
:03006B00020D1D66
:100083000205000101FF0503010FEC14EC14EC144D
:10009300EC14A813A213EC142D22000000008F22ED
:1000A300000000000C0000000C0001FFFF01010133
:1000B3000100BC050000003006E80364006400B8DA
:1000C30001020200100000050203051E02051E0ABC
:1000D30002B80B02010278110296511800020206BF
:1000E30012120F646046120F37603DE9687008F61C
:1000F30018F618F618F622748067F7120118090922
:1001030009748067F722120F37601D120F647005A0
:10011300191919801A120DB2701F120DDCC3700366
:10012300E6673319191940071818182208080874C4
:10013300FFF618F618F618F622120DDC6017120FE8
:10014300A3702192F0120FAD7019501720F014080C
:100153000808090909E7F61819E7F61819E7F61860
:1001630019E7F622120FAD60E6E869701F0808E68A
:100173002480F608E436F618547FB47F0CE65480E6
:100183006007F6E418F618F622181822E9C6CC0818
:10019300C6CD08C6CE08C6CFC0E0E8C0E0EAC0E0DE
:1001A300EBC0E009E9F809E7FA09E7FBE6F918E625
:1001B300F8C3EC98ED99EE9AEBC2E7F5F0EFC2E7DE
:1001C30095F0500E600CEBCFFBEACEFAE9CDF9E8DF
:1001D300CCF8EAA2E7D2E7FAEB33FB13F5F0EEA291
:1001E300E7D2E7FEEF33FFC5F013A2E730E601B332
:1001F30013C5F0C3C0E0C0F07F00C39BFB605E94F7
:1002030018600F401D14601AD0E023F9D0E0F80203
:1002130002EA8AF0E9486003D2F0E4AFF0FAF9F8B1
:10022300803BEB30E40D89F0EA6003D2F0E4AFF0F9
:10023300F9CAF8EB30E30D88F0EF6002D2F0AFF0CB
:10024300E4CAC9F8EB54076014FBC3EA13FAE913D1
:10025300F9E813F8EF135002D2E0FFDBEDD0E0C072
:10026300E030E739C3E49FFFF5F0EC98FC42F0ED92
:1002730099FD42F0EE9AFE42F0D0E0F9D0E0F8E5C5
:10028300F0607AE923F9EE20E742D8028067C3EFF2
:1002930033FFEC33FCED33FDEE33FE80EAEC28FC58
:1002A300ED39FDEE3AFED0E023F9D0E0F8400280CC
:1002B3001BC3EE13FEED13FDEC13FCEF135002D240
:1002C300E0FF08B800067F7F74FF802EEF335017DE
:1002D3008CF020F00260100CBC000C0DBD00080E69
:1002E300BE000408E860DFE933E813FFEE2313FEE2
:1002F3004F4D4C8008E95480FFE4FEFDFCEE33EFE4
:1003030033F47004FCFD7E80D0E0FBD0E0FAD0E053
:10031300F8D0E0CFC618CEC618CDC618CCC6F92281
:1003230000120F37604F120F646012E7548066F6B5
:10033300120DB27011120FA3703B090909F4F618DC
:10034300F618F618F622120DDC7015120FAD080818
:100353000860EAE6447FF618768018E4F618F62279
:10036300120FAD6016120FA37012E4F608F608F62A
:1003730008E65480F609090918181822EAC0E0EBC8
:10038300C0E0ECC0E0EDC0E0E687F0A4FBACF00811
:10039300E687F0A42CFCE435F0FA1809E687F0A40C
:1003A3002C4B60027401CA35F0FCE433FB09E68789
:1003B300F0D2F7A42CCB35F0FC1908E687F0A42B78
:1003C300CC35F0FBE433FD0819E687F0D2E7A42C23
:1003D3004ACB35F0CD3400FC09E687F0D2E7A42DF3
:1003E300CC35F0FDE433FA0918E687F0D2F7A42CF4
:1003F300CD35F0CA3400FC08E687F0D2E7D2F7A483
:100403002ACC35F07A7E20E70B0ACB33CBCD33CD24
:10041300CC33CC33CB3350147004ED30E00ED2F137
:10042300E4CD3DCDCC3CCC3B5005DA05C2F1EB54D9
:100433007FC63308E63392F0FBE73309E733C39A09
:10044300502D2B70190C0D4C4D70151806E608C372
:1004530033700D20F10AA2F013F6E418800B402448
:10046300E4F630F002768018F618F618F68024D3F6
:100473003B14501074FFA2F013F6187680E418F6BC
:1004830018F6800FA2F013F618E63303F618ECF60D
:1004930018EDF6D0E0FDD0E0FCD0E0FBD0E0FA228E
:1004A300C0E074F212080CA2AFE433FED2AFE5A7AA
:1004B300FFE5A1F5085F54106006121CD275A1EF89
:1004C300E5085F54086008121CD875A1F78024E57D
:1004D30008A2E092F0EFA2E082F05017906198E05A
:1004E300F890090EE0C398A2D265D0335002E8F029
:1004F30075A1FEEEA2E092AF7F01020920C0E07475
:10050300F212080CA2AFE433FED2AF9061A4E0F87C
:10051300759B00E59158540860087591F7121D20EA
:100523008023E59158541060087591EF121D2680C1
:1005330014E591A2E092F0E8A2E082F05007E0C255
:10054300E0F0121E6A9061A3E0F8E5E958540460F4
:100553000E121E4075E9FB906193E0A2E640F28023
:1005630092C0E074F212080CA2AFE433FED2AF9053
:1005730061A5E0F8E5BF585404600675BFFB121E81
:10058300820204F6C3E498F8E499F91205C88026B8
:10059300C3E49AFAE49BFBE920E7E91205C8E4986F
:1005A300F8E499F922C3E498F8E499F91205C8E448
:1005B30098F8E499F9C3E49AFAE49BFB22EB20E769
:1005C300CFE920E7E0B90010BB0008E88AF084F81F
:1005D300AAF022E4FBC8FA22EB70227B10C833C8CE
:1005E300C933C9335007C39AC3DBF280069A50015B
:1005F3002ADBEAC833F4C8C933F4C9FA2275F00810
:10060300E4C833C8C933C933C99AC99B5004C92A3A
:10061300C93BD5F0ECFBC833F4C8E4C9FA2212068F
:100623006120F01430E72B74FFFCFBFA747F802207
:10063300E4FCFBFA7480801AB48008BC00F2BB00AF
:10064300EF800F50EBF9E4C39AFAE49BFBE49CFCC4
:10065300E499C6CC18C6CB18C6CA18C6F922E4C991
:10066300C608CAC608CBC6D3330308CCC63392F038
:10067300C3947F402E94184019C9B90704CACBCC40
:10068300225025C309CA33CACB33CBCC33CC33D99D
:10069300F422F4600DC9CCC313CB13CBCA13CAD94C
:1006A300F6CC22E4FCFBFA2214FCFBFA220808082D
:1006B300EAC0E0EBC0E086F0E7A4FA180986F0E7A9
:1006C300A42AFA180986F0E7A42AFA180986F0E79B
:1006D300A42AFA1986F0E7A4FBE5F02AFA1908869A
:1006E300F0E7A42BFBE5F03AFA190886F0E7A42B10
:1006F300FBE5F03AFA18180986F0E7A4C5F02BFBDE
:10070300E43AFA1908E7C5F0C6A426F6E5F03BFB80
:10071300E43AFA1886F0E7A4F6E5F00826F6E43B97
:1007230008F6E43A08F6D0E0FBD0E0FA22E4CFC0C2
:10073300E0E4CEC0E0E4CDC0E0E4CCC0E075F0205E
:10074300C3E633F608E633F608E633F608E633F68F
:10075300181818EC33FCED33FDEE33FEEF33FFC313
:10076300EC9709ED9709EE9709EF97191919400FBF
:10077300FFEC97FC09ED97FD09EE97FE191906D5D5
:10078300F0BEECF709EDF709EEF709EFF7191919C0
:10079300D0E0FCD0E0FDD0E0FED0E0FF222518C57C
:1007A30082C0E0E51934FFC583C0E0E518C3958234
:1007B30024F810AF0885831985821880088583196A
:1007C300858218D2AFCEF0A3E520F0A37808E6081F
:1007D300F0A3DEFAEFF0A3E58124FAF8E608F0A32C
:1007E300E608F0A3E608F0A30808E608F0A3E60885
:1007F300F0A315811581D0E0FED0E0F815811581B5
:100803001581E8C0E0EEC0E022C0D02518C582C043
:10081300E0E51934FFC583C0E0E518C3958224F3EE
:1008230010AF08858319858218800885831985820E
:1008330018D2AFC8F0A3E9F0A3EAF0A3EBF0A379D1
:1008430008E709F0A3D8FAECF0A3EDF0A3EEF0A3C8
:10085300EFF0A3D0E0F0A3D0E0F0A3D0E0F0A3E565
:1008630020F0A3E5F0F0A322E9799EC608CAC608E2
:10087300CBC608CCC6C370207996CACBCC70197985
:100883008ECBCC70137986CC700EF9802ACA33CA0A
:10089300CB33CBCC33CC331930E7F2CCCBCA335088
:1008A300147004EA30E00DE4CA3ACACB3BCBCC3C2B
:1008B300CC500209C3E913C6CC182313C6CB18C600
:1008C300CA18C6F922120F98B9000302090AE49064
:1008D30003017865790B8002F0A3D8FCD9FA900D57
:1008E30065AA82AB83900086785F79018015E493D3
:1008F300A3AC82AD838A828B83F0A3AA82AB838C61
:10090300828D83D8E9D9E77582E87583FD74011276
:100913000CC97582347583217400120CC98519833F
:10092300851882E0C0E0A3E0F9A3E0FAA3E0FBA30B
:100933007808E0F608A3DFFAE0FCA3E0FDA3E0FEFD
:10094300A3E0FFA3E0C0E0A3E0C0E0A3E0F5D0A3F1
:10095300E0F520A3E0A3F5F010AF088583198582A5
:10096300188008858319858218D2AFD082D083D0AE
:10097300E0F8D0E03275F0108E1A8F1B85821F8548
:10098300831E851882851983E0CEA3E0CF851F825D
:10099300851E83EBC9EAC8EDCBECCAC3E833C8E9CB
:1009A30033C9EA33CAEB33CBC3EA9EF51DEB9FF59C
:1009B3001CB35004AB1CAA1DEC33CCED33CDD5F0E6
:1009C300DAAE1AAF1B22120F37601C120F646017C6
:1009D300120FAD7007120FA37001D322C0D0120FF4
:1009E300A37006D0D0B322C32233D0D0501430E04A
:1009F300F6C3E7960809E7960809E7960809E79614
:100A0300B32220E0D5E6970809E6970809E6970898
:100A130009E697B322D083D082ECC0E0EDC0E0E4D6
:100A230093A3FCE493A3FDED4C600D120B3CEC246B
:100A3300FFFCED34FFFD80EFE493A3FCE493A3FDFF
:100A4300ED4C600D120BD9EC24FFFCED34FFFD805F
:100A5300EFD0E0FDD0E0FCE493A3C0E0E493C0E07A
:100A630022120F37601B120F646016120FAD70074E
:100A7300120FA3600CB322C0D0120FA37005D0D005
:100A830022C32233D0D0501330E0EBC3E7960809DA
:100A9300E7960809E7960809E7962220E0E4E69737
:100AA3000809E6970809E6970809E6972285198356
:100AB300851882E0A3FEE0A3F5207808E0A3F608FA
:100AC300DFFAE0A3FFE0A3C0E0E0A3C0E0E0A3C03F
:100AD300E0E0A3C0E0E0A3C0E010AF088582188582
:100AE30083198008858218858319D2AFD083D08279
:100AF300020CCFD083D082E9C0E0E493A3C386F095
:100B0300C5F095F0F908E493A386F0C5F095F0706D
:100B13000BE493A3C3994005E9048002A3E475F0B1
:100B230002A42582F582E5F03583F583D0E0F9E46C
:100B330093A3C0E0E493C0E022C0E0C3E49396082B
:100B43007401939618400FE4936670080874019338
:100B5300661870007019A3A3C3E4939608740193F5
:100B63009618A3A3400DD0E0D0E0D0E0020A54A32E
:100B7300A3A3A3A3A3D0E02274048004740280007F
:100B8300CCC0E0EDC0E0E518C39CCCAD1950011D0D
:100B930010AF068C188D1980068C188D19D2AF12E0
:100BA3000C49D0E0FDD0E0FC2274028000CCC0E010
:100BB300EDC0E0E518C39CCCAD1950011D10AF0684
:100BC3008C188D1980068C188D19D2AF120C27D072
:100BD300E0FDD0E0FC22C0E0C0F088F0E493667052
:100BE300080874019366187000A8F0A3A3700BD0D3
:100BF300F0D0E0D0E0D0E0020A54A3A3D0F0D0E0DC
:100C030022C0E074F212080CA2AFE433FED2AFC2EA
:100C1300C0E5D1A2E45003121C48EEA2E092AF7FDC
:100C230001020920CAC0E0E493A3C582CCC582C5F2
:100C330083CDC583F0A3C582CCC582C583CDC583CF
:100C4300DAE5D0E0CA22CAC0E0E0A3C582CCC582FF
:100C5300C583CDC583F0A3C582CCC582C583CDC56D
:100C630083DAE6D0E0CA22C0E0C0D0E8C0E0E9C041
:100C7300E0E5A8D2AFC2C7A2E7A2E792AFD0E0F9FE
:100C8300D0E0F8D0D0D0E032C008C3E096F5080831
:100C9300A3E096420808A3E096420808A3E096451D
:100CA300087001D3D00822700908080822601618BA
:100CB3001818C6C333C608C633C608C633C608C623
:100CC30033C6D5E0EA22C09FF59FE473D09F22D0BC
:100CD30083D082C09FE493C0E0740193C0E07402A8
:100CE30093F59F222518F58210AF08F518400215D9
:100CF300198008F51840021519D2AF85198322749B
:100D030004800A74038006740280027401C0E0F454
:100D130004120CE7D0E0120F7322C0E074F2120841
:100D23000CE589A2E75003121B88758900C2E87F8E
:100D330001020920BB0102E722C082C08389828AA3
:100D430083BB0003E08002E493D083D08222C0D02F
:100D5300251810AF08F518500205198008F518502A
:100D6300020519D2AFD0D0226016080808C6C313F3
:100D7300C618C613C618C613C618C613C6D5E0EAE6
:100D830022C3E0C696F608A3E0C696F608A3E0C61B
:100D930096F608A3E0C696F622251810AF08F518B4
:100DA300400215198008F51840021519D2AF221810
:100DB3001818E6084608700AE608C3337005E633D8
:100DC300F4220822E76670100809E766700A08092A
:100DD300E76670040809E76622191919E709470944
:100DE300700AE709C3337005E733F4220922C3E02D
:100DF3009608A3E09608A3E09608A3E096A2D2651E
:100E0300D03322E066701008A3E066700A08A3E0FE
:100E130066700408A3E06622C3E096F008A3E09698
:100E2300F008A3E096F008A3E096F022E627F60880
:100E330009E637F60809E637F60809E637F622E049
:100E430026F608A3E036F608A3E036F608A3E03654
:100E5300F622E026F008A3E036F008A3E036F00817
:100E6300A3E036F022700422600D18C6C333C6080F
:100E7300C633C6D5E0F41822E056F008A3E056F0D6
:100E830008A3E056F008A3E056F022E657F6080957
:100E9300E657F60809E657F60809E657F622E0563C
:100EA300F608A3E056F608A3E056F608A3E056F6C4
:100EB30022E647F60809E647F60809E647F6080971
:100EC300E647F622E4C396F608E496F608E496F6B7
:100ED30008E496F622600D08C6A2E713C618C613E7
:100EE300C6D5E0F322C6F4C608C6F4C608C6F4C6DF
:100EF30008C6F4C622C3E7960809E7960809E796E9
:100F03000809E79622C3E09608A3E09608A3E096B3
:100F130008A3E0962275D0007581407518017519F4
:100F230003000208C8E6F008A3E6F008A3E6F00809
:100F3300A3E6F022E6084608C3134608336002E638
:100F430033F422600C08C6C313C618C613C6D5E013
:100F5300F422E0F608A3E0F608A3E0F608A3E0F61F
:100F630022E7094709C3134709336002E733F42231
:100F7300CAC0E0E6F0A308DAFAD0E0FA22EAF0A366
:100F8300EBF0A3ECF0A3EDF022E0FAA3E0FBA3E087
:100F9300FCA3E0FD22E5C754F84401F5C77901221B
:100FA300E7C33319471947194722E6C333184618CD
:100FB300461846222518F582E43519F58322C2AF77
:100FC30075D69F02000022120CD2F05F00120CD2E1
:100FD300946000120CD2E86000120CD2016100127E
:100FE3000CD2276100120CD2626100120CD2A661EE
:100FF30000120CD2CD6100120CD21E6200120CD270
:10100300CE6200120CD2866300120CD24E64001220
:101013000CD22B6500120CD2B16500120CD2C06544
:1010230000120CD2CB6500120CD2D46600120CD283
:10103300E56600120CD25B6700120CD2ED6700125A
:101043000CD2456800120CD20B6900120CD23C6919
:1010530000120CD2816900120CD28E6900120CD2DC
:10106300226B00120CD2856C00120CD2C16C0012E0
:101073000CD2DD6D00120CD2477000120CD25270EC
:1010830000120CD25C7000120CD2677000120CD2EA
:10109300717000120CD27B7000120CD28670001299
:1010A3000CD2917000120CD2C27000120CD2E670F6
:1010B30000120CD20A7100120CD26F7100120CD202
:1010C300B37100120CD2CF7100120CD2467200120F
:1010D3000CD27E7200120CD2CA7200120CD2277389
:1010E30000120CD2097500120CD28F7500120CD2AB
:1010F300607600120CD2707900120CD2C5790012FE
:101103000CD2F17900120CD23D7B00120CD28D7BF4
:1011130000120CD2E27B00120CD2E37C00120CD240
:101123007B7D00120CD2FD7D00120CD29D7E00123D
:101133000CD2AC2400120CD2E52400120CD2BF2630
:1011430000120CD2FE2600120CD2482700120CD239
:10115300ED2700120CD24C2800120CD2802800126A
:101163000CD2ED2800120CD20A2A00120CD2122B38
:1011730000120CD2A82B00120CD2EF2E00120CD2AC
:10118300982F00120CD2743000120CD2D5300012FA
:101193000CD2F23100120CD21C3400120CD2D33414
:1011A30000120CD2DD3400120CD20B3500120CD21B
:1011B300E23500120CD2A93600120CD244370012C9
:1011C3000CD2A93700120CD2D23700120CD2F4374A
:1011D30000120CD2233A00120CD2FA3A00120CD2AB
:1011E3003E3B00120CD2AB3B00120CD2663C001209
:1011F3000CD2983C00120CD2DC3C00120CD2123DF3
:1012030000120CD2673D00120CD2BC3D00120CD26E
:10121300503E00120CD2B23E00120CD21A3F001202
:101223000CD2C34000120CD2AB4100120CD2ED42DF
:1012330000120CD21B4500120CD2DB4500120CD25B
:10124300104800120CD2B34800120CD2F14800121D
:101253000CD29D4A00120CD2B14A00120CD2BB4AE6
:1012630000120CD2E54A00120CD2F14A00120CD241
:10127300104B00120CD2C74B00120CD2064C0012BA
:101283000CD2104C00120CD2694C00120CD2194D26
:1012930000120CD2184E00120CD2114F00120CD2B5
:1012A300AE4F00120CD2505000120CD267500012F5
:1012B3000CD29E5000120CD2BC5000120CD2005122
:1012C30000120CD2255100120CD20B5200120CD278
:1012D300775200120CD2F15200120CD200540012B9
:1012E3000CD23F5500120CD21D5600120CD27F5661
:1012F30000120CD2395700120CD25C5700120CD2D8
:10130300305800120CD27B5800120CD2BD58001278
:101313000CD2145900120CD2595900120CD287590D
:1013230000120CD2C05900120CD2E55900120CD293
:101333006D5A00120CD2905C00120CD2EF5C0012BA
:101343000CD2835D00120CD2EF5D00120CD23A5E18
:1013530000120CD2675E00120CD2B3A103120CD29E
:10136300F2A103120CD2B2B101120CD20CB20112CF
:101373000CD268B201120CD2B4B201120CD2CFB2A9
:1013830001120CD200B301120CD21DB301120CD204
:1013930029B301120CD29DB401120CD2B6B40112BE
:1013A3000CD21DB501120CD230B501120CD23EB5D0
:1013B30001120CD2F2B501120CD2D6B601120CD224
:1013C300DCB701120CD262B801120CD26CB8011254
:1013D3000CD2D9B801120CD2F0B801120CD222B936
:1013E30001120CD25BB901120CD285B901120CD2D5
:1013F300E6B901120CD206BA01120CD224BA0112B8
:101403000CD26ABA01120CD290BB01120CD2DDBB12
:1014130001120CD20CBC01120CD282BC01120CD2F0
:10142300AABC01120CD2E3BC01120CD2F1BC011212
:101433000CD249BD01120CD298BD01120CD2D7BDFA
:1014430001120CD207BE01120CD233BE01120CD210
:101453003EBE01120CD25CBE01120CD21EBF0112A1
:101463000CD228BF01120CD263BF01120CD279BF78
:1014730001120CD282BF01120CD2D7BF01120CD2BF
:10148300EBBF01120CD2F9C001120CD20CC1011234
:101493000CD221C101120CD2C3C101120CD246C21B
:1014A30001120CD204C301120CD20FC301120CD2CD
:1014B30035C401120CD251C401120CD2A3C40112BF
:1014C3000CD2E2C401120CD2F7C401120CD239C5FA
:1014D30001120CD286C701120CD204C801120CD21D
:1014E30077C801120CD299CA01120CD2B1CA0112E7
:1014F3000CD2B4CA01120CD2C0CA01120CD2D4CA83
:1015030001120CD2DCCA01120CD20FCB01120CD285
:10151300BFCB01120CD235CC01120CD2A8CC0112D4
:101523000CD25CCD01120CD211CE01120CD230CEF2
:1015330001120CD2D0CE01120CD2DCCE01120CD28D
:1015430007CF01120CD20ACF01120CD274CF0112B1
:101553000CD29CD001120CD274D101120CD2FFD147
:1015630001120CD218D301120CD2D5D301120CD212
:101573000ED401120CD23FD401120CD2DFD40112CB
:101583000CD20FD501120CD2EAD501120CD283D69C
:1015930001120CD20ED701120CD2BFD701120CD2FA
:1015A30041D801120CD273D801120CD2B4D8011253
:1015B3000CD20AB502120CD26BB502120CD2A8B52A
:1015C30002120CD2FBB502120CD232B802120CD2A8
:1015D30002BA02120CD271BD02120CD2A8BD0212C1
:1015E3000CD2C6BD02120CD23CBE02120CD264BE97
:1015F30002120CD295BE02120CD2C5BE02120CD23C
:1016030021BF02120CD22FA902120CD2ADA90212D1
:101613000CD2E3A902120CD24FAA02120CD2C2AB13
:1016230002120CD2DEAB02120CD223AC02120CD289
:10163300B0AC02120CD209AD02120CD235AE0212BA
:101643000CD243AF02120CD2A0AF02120CD20CB0D8
:1016530002120CD26DB002120CD2AEB002120CD236
:101663005BB102120CD26DB202120CD2B0B20212F2
:101673000CD2FEB202120CD235B302120CD2D8B382
:1016830002120CD293B402120CD2579E03120CD244
:10169300B39403120CD2C19403120CD21295031209
:1016A3000CD2579503120CD2FF9503120CD2C49B94
:1016B30003120CD2109003120CD2689103120CD2B5
:1016C300B8A003120CD2B79103120CD2D891031213
:1016D3000CD2CE9203120CD2F89203120CD20080D9
:1016E30003120CD2798003120CD2848003120CD221
:1016F300A58003120CD21BD002120CD225D00212E9
:101703000CD271D002120CD2DFD002120CD200D153
:1017130002120CD2B0D102120CD2B9D102120CD2E5
:101723000CD202120CD235D202120CD293D2021274
:101733000CD224D302120CD260D302120CD2ACD33B
:1017430002120CD21ED402120CD2A4D402120CD256
:10175300E3D402120CD224D502120CD25BD50212AE
:101763000CD26DD502120CD27FD502120CD29ED5AB
:1017730002120CD2A7D502120CD25FD602120CD2DF
:101783009FD602120CD2B79C03120CD2558A0312B5
:101793000CD28B8A03120CD2D68A03120CD2248C5D
:1017A30003120CD2E9D801120CD234DA01120CD292
:1017B30070DA01120CD271A901120CD250DC0112A1
:1017C3000CD2E8DE01120CD228DF01120CD2C9E0E0
:1017D30001120CD263E101120CD2CBE101120CD243
:1017E30058E201120CD290E201120CD2D0E20112A3
:1017F3000CD263E401120CD202E601120CD251E8BE
:1018030001120CD27FE801120CD2ABE801120CD208
:10181300B4E801120CD232E901120CD25BEC0112D2
:101823000CD2E4FF02120CD2665F00120CD22EF12E
:1018330002120CD2CBF102120CD207F202120CD21A
:101843001EF202120CD245F202120CD28AF20212DA
:101853000CD2BBF202120CD2F3F202120CD27BF4C2
:1018630002120CD263A103120CD2507F00120CD2CD
:10187300867F00120CD2A27F00120CD2E47F0012EA
:101883000CD2F07F00120CD2D98E02120CD2F28F3E
:1018930002120CD2B69102120CD2789202120CD21E
:1018A300D99202120CD2B69302120CD2779402127E
:1018B3000CD28D9402120CD2459502120CD2B29521
:1018C30002120CD2549602120CD2A39702120CD21B
:1018D300FA9702120CD2819802120CD2DD990212ED
:1018E3000CD26B9A02120CD2DE9A02120CD2008036
:1018F30002120CD2558002120CD2078102120CD2B2
:10190300AB8102120CD2058202120CD2198202128E
:101913000CD2FC8302120CD27D8402120CD2B4844A
:1019230002120CD2608602120CD2778602120CD2FB
:10193300C28602120CD2D88602120CD2E58602129B
:101943000CD2198702120CD22F8702120CD2BA873B
:1019530002120CD2148802120CD2678802120CD223
:10196300718902120CD2CF8B02120CD2748C021228
:101973000CD2B68C02120CD23F8D02120CD2618DA6
:1019830002120CD2648D02120CD2678D02120CD299
:10199300FA8D02120CD2238E02120CD2368E021250
:1019A3000CD2628E02120CD29D8E02120CD2A08E29
:1019B30002120CD233A003120CD23FA003120CD29A
:1019C3007BA003120CD2C4C802120CD213C9021298
:1019D3000CD2C2CA02120CD287CC02120CD2CBCCCC
:1019E30002120CD2B8CD02120CD2E9CE02120CD2E2
:1019F3000BCF02120CD267CF02120CD2EBCF021222
:101A03000CD2E0EC01120CD20BED01120CD2CCED96
:101A130001120CD252EE01120CD2BBEE01120CD207
:101A230003EF01120CD28DEF01120CD222F001123E
:101A33000CD2B5F001120CD2F6F001120CD25AF509
:101A430001120CD2E8F601120CD2BAF701120CD231
:101A5300B0F901120CD25EFA01120CD270FB011222
:101A63000CD212FC01120CD2D5FC01120CD258FD7F
:101A730001120CD21C9C02120CD2D89C02120CD262
:101A8300559D02120CD2179E02120CD2839E021293
:101A93000CD2C19F02120CD262A002120CD2CAA0B5
:101AA30002120CD260A202120CD214A302120CD2A4
:101AB3008EA302120CD235A502120CD250A602122A
:101AC3000CD2EAA602120CD2C4A702120CD2788559
:101AD30003120CD2C88503120CD2248603120CD233
:101AE3006F8603120CD2CA8603120CD272870312BA
:101AF3000CD2DB8703120CD2E88703120CD2878C3B
:101B030003120CD2B88C03120CD2728D03120CD2B6
:101B1300D88D03120CD267FE01120CD28C9D0312D6
:101B23000CD29D9D03120CD23D9E03120CD2618EEA
:101B330003120CD26F8E03120CD2E8A203120CD242
:101B43009D9F03120CD2AD9F03120CD2C89F0312A8
:101B53000CD229A003120CD2BD9903120CD2429AC3
:101B630003120CD2A89A03120CD21C9603120CD2A5
:101B73003B9603120CD2919603120CD2A696031233
:101B83000CD2F49603120CD2529703120CD29AF78A
:101B930002120CD2AFF702120CD2D1F802120CD2FD
:101BA30034F902120CD24CF902120CD273F902125C
:101BB3000CD287F902120CD2A0F902120CD2BFF98F
:101BC30002120CD2E3F902120CD206FA02120CD260
:101BD30057FA02120CD208EA02120CD216EA0212C7
:101BE3000CD290EA02120CD274EB02120CD22DED3D
:101BF30002120CD28CFA02120CD29AFA02120CD2F2
:101C0300FEFA02120CD251FB02120CD28DFB02120D
:101C13000CD2A5FB02120CD222FC02120CD2A8A2F7
:101C230003120CD2C8D602120CD235D702120CD230
:101C3300F6D702120CD266D802120CD271D9021254
:101C43000CD2F2DA02120CD256DB02120CD2ABDB4C
:101C530002120CD2B4DB02120CD2C3DB02120CD27E
:101C6300D6DB02120CD2ECDB02120CD2F5DB021231
:101C73000CD208DC02120CD25DDC02120CD259DE4B
:101C830002120CD28BDE02120CD2ADDE02120CD287
:101C9300C6DE02120CD2DFDE02120CD2E9DF021220
:101CA3000CD284E002120CD2489303120CD26C9330
:101CB30003120CD2859303120CD2C49303120CD2D9
:101CC300F79303120CD2279403120CD28F940312AE
:101CD3000CD2929403120CD29C9403120CD2A994AA
:101CE30003120CD2D18203120CD2F98203120CD24A
:101CF3003A8303120CD24C8303120CD26783031270
:101D03000CD2CF8303120CD2DB8303120CD23A849E
:101D130003120CD25E8403120CD21F8503120CD261
:101D23002C8503120CD23D8503120CD240A2031260
:101D33000CD25DA203120CD207E102120CD267E2AD
:101D430002120CD26DE202120CD284E202120CD205
:101D5300A5E202120CD2BBE202120CD2CFE20212B3
:101D63000CD24EE302120CD2B3E302120CD249E4BA
:101D730002120CD222E502120CD232E502120CD26C
:101D830041E502120CD2049F03120CD2289F0312C6
:101D93000CD2509F03120CD2789F03120CD278FD01
:101DA30002120CD29FFD02120CD2C0FD02120CD201
:101DB30032FE02120CD2F78703120CD210880312E0
:101DC3000CD2278803120CD2308803120CD24E880F
:101DD30003120CD2588803120CD2628803120CD25D
:101DE300758803120CD2CA8803120CD2038903121A
:101DF3000CD2318903120CD2828903120CD2CE8900
:101E030003120CD2E98903120CD2F38903120CD208
:101E1300048A03120CD24A8A03120CD212A10312AF
:101E23000CD26DBF02120CD299BF02120CD2B7BFF3
:101E330002120CD2CABF02120CD2E5BF02120CD29C
:101E430044C002120CD272C002120CD281C402121C
:101E53000CD2C6C502120CD2F8C502120CD264C64B
:101E630002120CD2ADC702120CD2D5C702120CD289
:101E7300EAC702120CD2FAC702120CD23AC80212F3
:101E83000CD286C802120CD296C802120CD27297D8
:101E930003120CD2829703120CD2A09703120CD216
:101EA300BB9703120CD2E29703120CD203980312CE
:101EB3000CD21D9803120CD2559803120CD27898A9
:101EC30003120CD2FCA103120CD292ED02120CD21B
:101ED30099ED02120CD2B6EE02120CD2E6EE021209
:101EE3000CD20CEF02120CD23FEF02120CD251EFC4
:101EF30002120CD28DEF02120CD2F3EF02120CD2AB
:101F03002FF002120CD276F002120CD2A3F00212BE
:101F13000CD2C4F002120CD2C19A03120CD2D39A7F
:101F230003120CD2BE9B03120CD2C19B03120CD220
:101F3300AA9803120CD21C9903120CD25A990312B9
:101F43000CD29B9903120CD288F402120CD2A4F483
:101F530002120CD2F3F402120CD20FF502120CD2BD
:101F630040F502120CD250F502120CD238F60212CE
:101F73000CD242F602120CD24FF602120CD262F7C6
:101F830002120CD276F702120CD27FF702120CD295
:101F930072E502120CD299E902120CD29EE90212E6
:101FA3000CD27CA203120CD2CAA203120CD27FA6BB
:101FB30001120CD2D1A301120CD2A5A201120CD290
:101FC300F9A101120CD24AA001120CD2059E0112F2
:101FD3000CD28C9D01120CD2339D01120CD2C79CE2
:101FE30001120CD2055F00120CD2B35E00120CD2A8
:101FF3009E9C01120CD2919A01120CD2A15E001286
:102003000CD26DB001120CD25D9A01120CD22A9A35
:1020130001120CD20E9A01120CD2349901120CD275
:10202300EC9801120CD2219701120CD2A196011245
:102033000CD29E9601120CD2A99501120CD277955F
:1020430001120CD2B49401120CD2DF9201120CD201
:10205300709201120CD2429201120CD23F920112E1
:102063000CD22C9201120CD2C49101120CD2B39156
:1020730001120CD2949001120CD24FB001120CD267
:1020830017AF01120CD274AE01120CD221AD0112A2
:102093000CD2D2AA01120CD25E9001120CD2219062
:1020A30001120CD2C28F01120CD2918F01120CD2E9
:1020B30063AA01120CD24C8C01120CD23D8B01127B
:1020C3000CD2CC8A01120CD2918A01120CD21BAA17
:1020D30001120CD219F102120CD25C8A01120CD239
:1020E300508A01120CD2B08901120CD2F788011266
:1020F3000CD2CA8601120CD2568401120CD214845B
:1021030001120CD2DF8201120CD2948201120CD282
:10211300C68101120CD21D8101120CD2B9800112A9
:102123000CD2F38001120CD27EA901120CD227DC4F
:102133000100000080FBE473000136360101000159
:10214300020100010301000104010606050200006B
:10215300070100340801000F090401010D0100FF0C
:102163000E08000017020000190100FF1A01000108
:102173001B0100FE1C0100081D0200001F010001DD
:1021830020010001210200002301000F24020000AE
:102193002601000127010008280200FF2A01000789
:1021A3002B0102402C0100002D0100012E01000132
:1021B3002F0100FF30010B1C310800003A01000819
:1021C3003B01000F2F010000010171010101010119
:1021D30011010101310101010101800110016101BE
:1021E3003B001400630173017201620143010001AA
:1021F300130106013D013500040112010001000134
:102203000001000104010401330133013C014401D5
:102213003201360000010001650100013500810132
:1022230000010501820183010001030071003001F7
:102233006000110070003102200350048000100080
:102243006100000014006300730072006200430029
:10225300000013000600000000000400120000004C
:1022630000000000000004000400370037003C02B7
:10227300440000000000000000006500000035007D
:1022830081000000050000008300000001037103CA
:1022930001030103010301030103220302030103F9
:1022A3001003000300030003000300030003000303
:1022B3004203000324030603000300030403120381
:1022C300250323032503230304030403000300035B
:1022D30000034403000300032303000365032100F9
:1022E3003503810300030503000300030003030216
:1022F3007102300160021102700201020202020245
:102303008002100261023A0041006302730272020A
:1023130062024302000213023800000200020402B8
:10232300120200020002000200020402040237004B
:1023330037003C0244020002390000020002650239
:1023430000023502810200020502820283020002BA
:1023530036000100060000000F000000000000002E
:1023630000000000000003FFFF00000403FFFF0064
:1023730000FFFF0FF4010005C40403200001000067
:102383000B000000000000000003010F00008C1A86
:1023930013004A1A01008C1A02001A1A0300201AA9
:1023A3000400261A05002C1A0600381AFFFF000045
:1023B3000214321408140E142C1420141A14381492
:1023C3003E14441450141414FC13F61303EAF5E5F5
:1023D300D5D5C5B5A595958585757565655555455A
:1023E30045353525251515050ABC110280110592C1
:1023F300110786110C62110D7411FF000000160FF6
:1024030000000B150B020002220F32000006EC1431
:10241300FE140415CC130A15C613D2134C156A15F2
:10242300701552155E1558150C0E020B040B0A0796
:1024330008000F00383C3E363B3B352B432C000154
:1024430019161816161523030000034948424D18A0
:1024530017250502303017181921301B1D1F303086
:102463003016181920231A1C1E3040151015161586
:1024730022151C1526144A14641556145C14020400
:102483000201010101090200000000000000BE0476
:102493000AE803040015000E00280008040C0A03D0
:1024A3000908FF1E1E0F040C0574F71207A0E9901C
:1024B30003B0F0900365E4F0121F189003C4E4F036
:1024C300A3F09003B1F0A3F0121300121F1E9003A8
:1024D30034E4F0A3F09024A893FA7902121F7E0249
:1024E300527274F21207A0EAFEEBFF548060699007
:1024F30003B0E0F912172C8A088B09EA4509604FEB
:102503007C0080010CEC75F003A4F8A9F074EB28AF
:10251300F582742339F583E493F4602CE493F8850E
:1025230008828B83E06870DCAA08EC75F003A4F8DA
:1025330074EC28F582742339F583E493C0E07401C5
:1025430093F583D082122139AA08AB09121720EE22
:10255300FAEF6480FB0226B2EF5420601D121216BC
:102563008A088B09EA4509600A121174AA08AB09A3
:10257300121720EEFAEF642080DAEEA2E0501A90F0
:10258300036AE0640F700B790012113EE9600312D5
:1025930026B5EE6401FAEF80BB5420700302268057
:1025A300750C00123C598B09EA450970107C027DB9
:1025B300007A207B009003B0E0F91218467C007982
:1025C300047A007B001211F28A088B0980188508AF
:1025D30082850983A3A3A3A3A3A3A3A3A37401F045
:1025E300850A08850B09E5084509606D7C007904B7
:1025F300AA08AB091211F28A0A8B0B750C01E508C4
:102603002404F8E5091239FD24FFF0A3E034FF1296
:102613005E5E70CC850882850983A3A3A3A3A3A3CD
:10262300A3A3A3A3E0640170A5850882850983A3FE
:10263300A3A3A3A3A3E0540470948508828509830C
:10264300A3A3A3A3A3A3A3A3A37406F07AB78508A4
:10265300828509831227E180871211C27C007901E8
:102663007A007B001211F28B09EA45097009E50C27
:1026730070057A20124BBCEE6420022598EF5402B9
:10268300600B1212FAEEFAEF6402022557EF5404BC
:102693006019124DA8124CC8790190036312502C93
:1026A300121084EEFAEF64040225577A007B0002CD
:1026B30028E8900D9B122F7F12115622C082C083EF
:1026C30074EA120D9C851882851983AA82AB8379DB
:1026D3004B121F547408120FB77402F07409120FCF
:1026E300B7AA82AB837950121F547413120FB7E445
:1026F3001251FB121F72741602417A74F71207A06B
:1027030074E1120D9CEAFEEBFFEE4F6033851882F5
:10271300851983AC82AD8312123A7406120FB7E0A7
:10272300601E7417120FB7E0FD7401120FB7E0FCBF
:10273300EEFAEFFB790012207AE9600479A48002B3
:10274300790002526D74F61207A0EAFEEBFF8E8247
:102753008F83A3A3A3A3A3A3E05440601B1257C872
:102763001228AF60067AFF7BFF801A8E828F831256
:102773003E06FAA3E0FB800312125E74FE6A700346
:1027830074FF6B60411257C8124C001212B8E98EE5
:10279300828F8360061227DAE480051227DA740138
:1027A300F07C447D118E828F8312502C121F78E9A6
:1027B300F5087015EE4F60097901EEFAEFFB12117F
:1027C300CEA908024C317508CDAA088E828F8312D8
:1027D30027E1E960DF80EAE0240D1242D522E024FC
:1027E3000C1242D5E0F91211502274F61207A0E937
:1027F300FEEAFF7A0F7B0012171AEA4B60198A82EE
:102803008B83740CF0EEA3A3F0EF8A828B83A3F087
:10281300124CB17900802FEEF91211F88A088B0956
:10282300A808A909E849601C88828983A3A3A3A3F4
:10283300A3A3A3A3A37406125A61E0F9121108EE2D
:10284300F91211D47910024C31C082C08390036A0B
:10285300E0640F7014EA4B6010900365E064086055
:1028630005E06404700312286F0241A4EAFCEBFD47
:102873007A017B009003B0E0F912184022C082C0B5
:10288300837900EA241DF582EB123E0324FD600BDD
:1028930014600824FD600424FD7001090241A48E24
:1028A300828F83A3A3A3A3A3A3A3A3A31228B322C7
:1028B300123E4BFB1212B8E9228E828F83A3A3A38D
:1028C300A3A3A3A3A3A31228B36402228E828F839C
:1028D300A3A3A3A3A3A3A3A3A312419B900356E083
:1028E3006822120D517F06020AB074F41207A07415
:1028F300FD120D9C8A088B098A828B83A3A3E0F9BE
:102903001211F88A0A8B0BAE0AAF0BEE4F7003025B
:1029130029F4850882850983A3E064F16030850882
:1029230082850983A3E064CD6024850882850983B9
:10293300A3E0641A6018850882850983A3E064E92B
:10294300600C850882850983A3E064E1700879003F
:102953001211CEE9706C850882850983A3E0C0E07B
:102963007402120FB7D0E012417FEEF0A3EF1233DF
:10297300D5851882851983AA82AB83700512106CE2
:1029830080031212A07402120FB7E064E970338E51
:10299300828F83122A00750A01780A120D0E750AB6
:1029A300E9780A120D0EE508240CF582E509122ECA
:1029B300C71233B2FCA3E0FD8A828B831233CC129D
:1029C3000D518E828F83A3A3A3A3A3A3A3A3A3E0E9
:1029D300640270108E828F83A3A3A3A3A3A3A3A3D4
:1029E300A37406F0850882850983A3A3E0F9121175
:1029F300D41211C2900D9F1226B8022F84E0F8A3BF
:102A0300E0F9E8FAE9FB2274F41207A0EAFEEBFF0F
:102A13007508008E828F83A3A3A3A3A3E0604275EE
:102A230008088E828F83A3A3A3A3A3A3A3A3124007
:102A3300AE8B0BEA450B601075082C8E828F83A337
:102A4300A3A3A3A3E0D2E0F08E828F83A3A3A3A3C7
:102A5300A3E0540364016003022AF3430811022A2A
:102A6300F3EE2418122F916033EE241A122F917073
:102A73000F1228CF7003A3E0697075750822807068
:102A8300EE241BF582EF122AF8241AF582EF123393
:102A9300DDEE24191257FC1210F680541228BC7074
:102AA300037508011228CF7003A3E0697006E508D7
:102AB300D2E1F508E50860158E828F83A3A3E07049
:102AC30006E508D2E58004E508D2E6F5081228A257
:102AD30064017006E508D2E0F5088E828F83A3A314
:102AE300E0600D122B0664016006E508C2E0F508FC
:102AF300A908022F89123DF1122AFF22E0FCA3E06C
:102B0300FDEE22123DEB123E23F91212A6E922C07A
:102B130082C08379018A828B83A3A3E0C39402409A
:102B230001198A828B83A3A3A3A3E0C39402400267
:102B330079008A828B83A3A3A3A3A3A3A3A3A3E064
:102B430064F87003A3E0F460458A828B83A3A3A394
:102B5300A3A3A3A3A3A3E064F97003A3E0F4602EEB
:102B63008A828B83A3A3A3A3A3A3A3A3A3E064FA4F
:102B73007003A3E0F460178A828B83A3A3A3A3A3A8
:102B8300A3A3A3A3E064FB7003A3E0F470027900A2
:102B93008A828B83A3A3A3E0F8900353E0686002C7
:102BA30079000241A474F01207A074DE120D9CEAAE
:102BB300FEEBFF8E828F83A3A3A3A3E0600E900D91
:102BC3009D124C286006900D9D1226B87403120FB7
:102BD300B7AC82AD838E828F83A3A3A3124CFF1263
:102BE3005538E9600F7403120FB7AA82AB83121131
:102BF3006EE970087901121F2A022EBCEE241B1203
:102C03003DF67410120FB7124CC87409120FB7E0D7
:102C13006021741A120FB7E0FD7404120FB7E0FCC1
:102C23008E828F8312502A790112207AE960047907
:102C33000280C37403120FB7AA82AB83121168E92F
:102C4300F50A7409120FB7E0702A90034DE060246F
:102C53007422550A6422601C7442550A644270CF80
:102C63007420120FB7122EDA600A7420120FB712F3
:102C73002ED370BBE9A2E650417403120FB7AA82A8
:102C8300AB8312115CE97003022BF77420120FB7A8
:102C9300123E066403700F7420120FB7A3124C1A6E
:102CA300A3E0640D60147403120FB7AA82AB8312FE
:102CB30012CAE964017003022EBCEE242C122EC446
:102CC3001231E87003A3E069701C750800780812DC
:102CD3000D0E7808120D0EEE242E1257FC122EE064
:102CE3001233CC120D517409120FB7E07003022D89
:102CF30099122EE012502C1213248A088B09EA45EC
:102D0300097003022E367404120FB7E0F88E828F17
:102D130083A3A3E028F8A3E03400F9E8240D122EDE
:102D2300CB8A828B83A3A3A3E068601CE88A828B8F
:102D330083A3A3A3F090806E120F8C85088285096C
:102D430083A3A3A3A3120F807904E9120FB712552B
:102D5300152AF8A3E034008882F583A3AA82AB8303
:102D630012170E8A0C8B0D8C0E8D0F850882850928
:102D730083A3A3A3A3780C120C8B4003022EBC9055
:102D83008066780C120E42850882850983A3A3A36B
:102D9300A3780C120F28900365E064046008E064D4
:102DA300096003022EBCE50AA2E54003022E74EE7D
:102DB300242E122F91851882851983F0EE242F1269
:102DC3002F91C0E07401120FB7D0E0F0EE2430125F
:102DD3002F91C0E07402120FB7D0E0F07414120FF9
:102DE300B7E064017027740E120FB7123DFCEE2496
:102DF30012122F91687003A3E0697011740C120F03
:102E0300B71228C970077414120FB7E4F0EE242424
:102E1300122EC4120B7B7404120FB7AC82AD8374F1
:102E230007120FB7AA82AB831210727404120D51EA
:102E3300022EBC9003AAE064016003022D99742062
:102E4300120FB7122EDA7009E50AA2E65003022D1B
:102E5300997410120FB7E0F47003A3E0F4605AEE14
:102E6300FCEFFD7403120FB7AA82AB8312117A80B1
:102E730048A2E650447420120FB712503B701A74E4
:102E83001A120FB7E0640270307403120FB7AA82EC
:102E9300AB83790012129480207420120FB7122E84
:102EA300D37016741A120FB7E06404700C74031213
:102EB3000FB7AA82AB8312128E74220253E7EE2459
:102EC3000BF582EF123DF122F582E9124CE1F82273
:102ED3001257DAE0640722123E23640622EE242A04
:102EE300123DEE122AFF2412123DEE2274F4120751
:102EF300A0EAFEEBFF8C088D0990068DE0600F12AF
:102F030028CF7003A3E06970051210E4804F7900A5
:102F130012501F1211148A828B83E5824583603518
:102F2300A3A3A3A3A3A3E05418602AE508241BF5D5
:102F330082E509122EC7120B7F123697122EC71283
:102F43000B7FEE24181257FC122F62121126740401
:102F5300120D5180087900122F621210EA80278E19
:102F6300828F83A3A3A3A3A3A3A3A3A3122AFF24B0
:102F73000BF582EF122F7B223400F583123E4BFBBD
:102F8300227403120D517F04020AB0EE2417F58256
:102F9300EF124CE12274F71207A074F7120D9CEAAA
:102FA300FEEBFF900365E06403600DE064016008DD
:102FB300E0640960030230628E828F83A3E0707E37
:102FC3007C007D007A027B00121F24EE2402FAEFBC
:102FD300123A04123DFC900356124CC87953121F47
:102FE3005A7900123067E0640960031233FA8518D6
:102FF300828519837401124C499003657404F0743B
:1030030001120FB7AA82AB83794A121F54740112BB
:103013000FB7AC82AD837A5B7B03121F42900356DA
:1030230012552E7A03123404900350E0A2E35004A5
:10303300D2F08002C2F0124C361226B5801E8E8268
:103043008F83A3AE82AF83FC7D007A037B10121FB4
:10305300248E828F83E0F9123067E4F01211A47496
:103063000902526F900363122F7F1210849003653D
:1030730022C082C083900334124C28701F900365D2
:10308300E014600924FC600A14600C800F90033C78
:103093008032900338802D90033A8028E8496008F5
:1030A3009003351233AC700C8A828B83A3E0F91240
:1030B3001078801B90033512373370051212EE809F
:1030C3000E9003E1124C286006124C1A12213902A9
:1030D30041A474F41207A074FB120D9C8A088B0997
:1030E3007A0F7B0012171A8A0A8B0BAE0AAF0BEE0C
:1030F3004F70030231DC8E828F831251F9795012A3
:103103001F54850882850983A3E060030231C490BC
:103113000363E0F47003A3E0F46034900363E064BA
:10312300FE7003A3E0F460278518828519831231AA
:10313300E87003A3E0696017850882850983A37497
:10314300EA1233E27A637B037950121F5A80728545
:1031530018828519831257BB124CC87A567B0379A0
:1031630053121F54900356124CF9124CC87A597BD0
:1031730003794B121F547A587B0379E1121F549041
:10318300036AE0C3940F5021900358E0C0E0740237
:10319300120FB7D0E0F07404120FB77401F00412E9
:1031A3000FB7AA82AB83121F6C750A00780A120D3F
:1031B3000E780A120D0E900DC1E0F91233C3120DF1
:1031C300518508828509831231E1A3F09003657468
:1031D30003F0EEFAEFFB124CB17405022F86A3E065
:1031E3008E828F83221257BFE068221242DC227440
:1031F300F51207A074D8120D9C8A088B098A828B5A
:1032030083A3A3A3123E287415120FB7AC82AD8318
:103213008A828B83A3A3A3A3A3A3A3A31233B2FA88
:10322300A3E0FB1211B07415120FB7E0706B8508A1
:1032330082850983A3A3A3A3A3A3A3A3E0C3940B9E
:1032430040578E828F83A3A3A3A3A3A3A3A3E06466
:10325300027046EE240B122F91F4703D900365E04B
:103263006402603AE064066035900334124C2860CF
:10327300051233AC604F900365E064086005E064B9
:103283000470167417120FB7E0F9741C120FB7AC61
:1032930082AD8312501F1211B67428025CE79003AB
:1032A30034124C28701F7508007808120D0E780828
:1032B300120D0EEE2410122EC4125814123AEC12F0
:1032C30033CC120D518E828F83124F9B123A1612FA
:1032D3003DFC7402120FB7124CC8EE240D122F914D
:1032E300C0E07404120FB7D0E01233D5F508A3E0A1
:1032F300F509740F7808120F467405120FB7E50825
:10330300F07419120FB7E0C0E07406120FB7D0E0E3
:10331300F0741B120FB7E0C0E07407120FB7D0E0D0
:10332300F07416120FB7E0C0E07409120FB7D0E0C3
:10333300F07417120FB7E0C0E07408120FB7D0E0B3
:10334300F0EE2410122F91C0E0740A120FB7D0E0F0
:10335300F0741A120FB7E0C0E0740B120FB7D0E08D
:10336300F07427120FB7E0C0E0740C120FB7D0E06F
:10337300F0741C120FB7A982AA8389088A09750AF7
:10338300007808120D067C087D007410120FB7AA8E
:1033930082AB831247D7120D51851882851983AAF0
:1033A30082AB8312107E02329C123739640122E011
:1033B300F98A828B83A3A3A3A3A3A3A3A3A3E0223A
:1033C300900363125532900359122F7F12127074B7
:1033D3000222F0EE240B124CDE22124CE1FA22F010
:1033E3007A567B0379531233ED22121F5A7A597B93
:1033F30003794B121F5A22900363122F7F12131E5D
:10340300227B00121F249003591255327A047B0049
:10341300121F2422F012581F2274F21207A074F80C
:10342300120D9CEAFEEBFF8C0A8D0B890C8518822A
:10343300851983AC82AD83758380758246740812C7
:103443000C49F50DEEFCEFFD851882851983AA82E0
:10345300AB83124EFC7003750D019003B1803BEEFC
:10346300FCEFFDE508240BFAE5093400124EFB607E
:103473001E850882850983A3A3E0650C7011850866
:1034830082850983E0650A7004A3E0650B6038E573
:10349300082414F582E509122EC7123A0EE50845F1
:1034A300096024E50DA2E040B6850882850983E022
:1034B300650A7004A3E0650B70D5850882850983CE
:1034C300A3A3E0650C70C8AA08AB0974080228E539
:1034D300C082C0839003B10241A174F71207A09088
:1034E30003B1123E4B8012EA2414F582EB122EC76D
:1034F300123E2812179EEEFAEFFBEA4B70E9900397
:10350300B1E4F0A3F002527274F11207A08A088B9F
:1035130009ECFEEDFF890A8A828B831253DB8A82D0
:103523008B831231E11235C98A828B83A3A3E0C452
:1035330054F0FA88828983E04A1235D91231E112B4
:1035430035D3E0333354FCF88E828F83E048123551
:10355300D3A3E033333354F8F88E828F83E04812D9
:1035630035C98508828B83A3A3A3A3A3A3E0A2E009
:10357300E4331313FA88828983E04AF0E5082407C9
:10358300F50CEB1247DD120D067C081247D1120D24
:103593005112550CE508240FF50CE5093400F50D1F
:1035A300780C120D067C031247D1120D51E50AC3A4
:1035B300940F400D123697122EC71231E2A3A3A324
:1035C300F07F07020AB0F0EEF8EFF9A30EAF832203
:1035D3001235D9A3A322F08508828B83A3A3227477
:1035E300F11207A0EAFEEBFF890A8C088D098E828F
:1035F3008F83E08C828D831240B8AE82AF83E0125A
:103603004897124808C41248971236A0E054038C16
:10361300828D83124806A2E2E4338C828D831248A2
:1036230005131313541F124897124804A2E7E433F7
:103633008C828D83A3A3A3A31236A08E0C8F0D754A
:103643000E00780C120D067C087D00E50824071295
:1036530054A1120D5112550C8E0C8F0D780C120DB6
:10366300067C037D00E508240F1254A1120D51E5D9
:103673000AC3940F40148E828F83A3A3A3E0C0E0F8
:10368300123697122EC7D0E08006123697125A557B
:10369300F00235C4E5082412F582E50922A3A3123A
:1036A30040BC0EAF832274F41207A074F9120D9C70
:1036B300EAFEEBFF8908900334124C28600E1237A0
:1036C300337009EEFAEFFB1212E8805F900363E0B8
:1036D3006E7003A3E06F70537401650860097A7715
:1036E3007B03124EFC70447A007B02123C5D8B0B11
:1036F300EA450B7036900366120F8C851882851984
:1037030083120F8090036CE0C0E07404120FB7D0F3
:10371300E0F07405120FB77401F07406120FB712BC
:1037230051F9121042E9609B1210487407022F8668
:103733001237396402221257DBA3A3A3A3A3A3E086
:103743002274F51207A08A088B098A828B83A3AEA1
:1037530082AF83E0F912109C8E828F83E064EB606A
:103763000C850882850983A3E064E17009850882DA
:10377300850983A3E4F01226B5750A01780A120DB0
:103783000E850882850983A3E0F5087808120D0EDB
:1037930079001233C3120D511211C2025CEAEAF02E
:1037A300A3EBF00241A474F61207A09003C3E070E8
:1037B3001B7C0079017A007B001211F2EA4B600C4A
:1037C3008A828B83124C28600312114A024C31C047
:1037D30082C083123C45401079FF1211ECE9F89046
:1037E30024A0E493C3985004790180027900024134
:1037F300A474F01207A08A088B09890B750C008A40
:10380300828B83A3A3A3A3A3A3A3A3E0F91211F819
:103813008A0E8B0FAE0EAF0F750A01EE4F600302D7
:1038230038D2850882850983A3A3A3A3A3A3125532
:103833002E850882850983A3A3A3A3A3A3A312456B
:10384300D112502C1211E08A0C8B0DAE0CAF0DEE81
:103853004F70030239F58E828F83A3A3A3A3E4F0F1
:10386300A3F0E508240B123A01E0C0E0122EC1D008
:10387300E0F01212BEEE240CF582EF124BFCE508C9
:10388300240EF582E509123DF9EE240EF582EF12BE
:103893004CC5750C01EE2406F8EF1239FD547FF088
:1038A300A3E054FC125871E05404600302395890A9
:1038B3000DA31245C274077808120E688E828F8397
:1038C300A3A3A3A3A3A3E04508F0A3E04509F08EB7
:1038D300828F83A3A3A3A3123A0C74077808120F51
:1038E30046E5085407F508E50B607A8E828F83A3BB
:1038F300A3A3A3A3A3A3A3A37402124809240D1291
:1039030042D1E0A2E2500B900351124CF9A3A3124F
:103913004CC8E50870030239CAEE2406F8EF3400F8
:10392300F9E8FAE9FB8A828B83E0547FFCA3E05435
:10393300FCFDE50824FFF508E434FFF50974077876
:1039430008120E68EC4508F8ED4509F98A828B8365
:10395300124CC880728E828F83A3A3A3A3A3A3E078
:1039630044800238D1E5087005750A0080598E82BB
:103973008F83A3A3A3A3A3A3E0542060121217145D
:10398300EA547F245F8E828F83A3A3A3A380238E15
:10399300828F83A3A3A3A3A3A3E05410600A1217E7
:1039A30014EA540F240A80DD8E828F83A3A3A3A37A
:1039B3007401F0A3E4123A167404123C548B09EA1E
:1039C30045097003124BEFE50CA2E050288E828F5D
:1039D30083A3A3A3A312525FF9EEFAEFFB1211E63E
:1039E300E96012124C1E6003123DE1EEFAEFFB1286
:1039F300179E750A00A90A0253EA124DBC22FAE582
:103A0300093400FB8A828B8322A3A3E0F508A3E099
:103A1300F50922123A1A221254BDA3A3A3A3A32287
:103A230074F41207A074F7120D9C7E001211F8EAC9
:103A33004B7003023AE58A828B83A3A3A3A3A3A3B8
:103A4300A3A3A3E064066003023AE58A828B83A3FF
:103A5300A3A3A3A3A3A3E0FF8A828B831242E4E080
:103A6300C0E07408120FB7D0E0123E1C124F0212CE
:103A73004CC812120AEF54086066851882851983B0
:103A830012552E7A007B001211DA8B0BEA450B706C
:103A93004F900363123F0C121F847C007D007A0059
:103AA3007B0080288E828F83123E06F47003A3E08E
:103AB300F4602D900363123AEC12502C121C78E937
:103AC300641A601C7C007D00EEFAEFFB1211DA8AA7
:103AD3000A8B0BAE0AAF0BEE4F70C97900121F8A27
:103AE3007E01EEF97409022F86123AF022E0FCA35C
:103AF300E0FD8E828F8322C082C083EA4B700590E3
:103B030003C480068A828B83A3A3123D0C60258A9B
:103B1300828B83A3A3A3A3A3A3A3E0540860E5EC30
:103B23004D60158A828B83123E066C7003A3E06D91
:103B330070D280047A007B000241A474F21207A0C1
:103B4300EAFEEBFF890A8C088D097A107B001217B5
:103B530098EA4B603F8A828B83A3A3A3A3A3A3A367
:103B6300A3A3E4123E0AA3E50A1257E1A3123BA161
:103B73008A828B83A3A3A3A3E4F0A3123E16A3F02C
:103B8300125675EA240CF582EB1240A8123B9AA355
:103B9300A3F0A3F00228E8A3F08A828B8322A3A3D5
:103BA300E508F0A3E509F02274F41207A0EAFEEB9E
:103BB300FF89088C0A8D0BEE4F6055740165087000
:103BC3001479011211ECE9F89024A4E493C39850FA
:103BD3000F7911806A74046508702F123C4540F117
:103BE3008E828F83A3A3A3A3A3A3A3A3A3E50812F6
:103BF30040B8A3125D748E828F83A3A3E4F0A3F075
:103C03009003C4124C286021800D7402650860D0B3
:103C130079C1802BE0F8A3124CF2A3A3123D0C88C8
:103C2300828983A3A370ED80039003C4EEF0A3EF16
:103C3300123C548B0BEA450B7003124BEF790002D5
:103C43002F8979041211ECE9F89024ABE493C3981B
:103C530022F0123C59227A207B009003B0E0F91243
:103C6300185222C082C083E9F879009003C4801DF2
:103C73008A828B83A3A3A3A3A3A3A3A3A3E06860C4
:103C83000574FF687001098A828B83A3A3123D0C1C
:103C930070DE0241A474F71207A0EA4B700590038B
:103CA300C480068A828B83A3A3123D0C60248A827C
:103CB3008B83A3A3A3A3A3A3A3A3A3E06970E4ECAF
:103CC30060148A828B83E0240D12551FA2E240D335
:103CD30080047A007B00025272C082C0839003C4C6
:103CE30080068A828B83A3A3123D0C60128A828B87
:103CF30083A3A3A3A3A3A3A3A3E06970E580047A8A
:103D0300007B000241A43BF583122F7FEA4B227410
:103D1300F21207A08A0A8B0B8C0C8D0D75080075A7
:103D23000900EA450B602E9003C480068E828F83C0
:103D3300A3A3123D5F601EAC0CAD0DEEFAEFFB8545
:103D43000A82850B83122139E9640170DFEEF8EFF3
:103D5300F988088909AA08AB090228E8E0FEA3E06C
:103D6300FFEE4F2274F71207A09003C4123DFC7CB0
:103D7300007D00800DE8FCE9FD88828983A3A312FE
:103D83003DFCE8496030EA687002EB6970E7900334
:103D9300C412502CE86A7002E96B88828983A3A35A
:103DA3007008123DFC9003C48009123DFC8C828D87
:103DB30083A3A3124CC802527274F71207A0EAFE3F
:103DC300EBFFEE4F6015121204123E2E124C1E60D2
:103DD30003123DE1EEFAEFFB12179E025272EE243C
:103DE3000C123DEE123E4322EE241DF582EF340009
:103DF300F58322F582EF123DF112419B22F582EF0A
:103E0300123DF1123E2322123E0E221257E9A3A3C2
:103E1300A3A322123E0EA3A322123B9B123E2322F4
:103E23001257D4E022E0FEA3E0FF228E828F83E0CC
:103E3300241C1242D5123E438E828F83123E4322AC
:103E4300123E4BFB12179E22E0FAA3E022C082C06F
:103E530083EAFCEBFDEC4D700479058044EC24FB14
:103E6300F582ED34FF124C267007123EA7E0F46092
:103E73000512172080E39003B0E0C0E0123EA7D004
:103E8300E0F09024A1E493F97AC67B0312174AE980
:103E93006401700B7A007B20124BF3790080027966
:103EA300040241A4EC24FFF582ED34FFF583227470
:103EB300F41207A0A2AFE433F508C2AF9003C61211
:103EC3003D5F6038EE24FBF582EF34FF124C267A17
:103ED300007B209003B06005124BF68005E0F912D9
:103EE3001756E4F50AF50B780A120D0AEEFCEFFDFE
:103EF3007AC67B031217447402120D51E508A2E03F
:103F030092AFEEFAEFFB022F8912553285188285A4
:103F13001983AA82AB832274F21207A074FC120DD8
:103F23009CEAFEEBFF750AFE750BFF1211C8E960F0
:103F330005791102409DEE2415122F916037900DE3
:103F4300B7E0C43354E0F8E0333354FC48C0E0EE48
:103F53002415122EC4D0E01240B81240AE8B09EAE9
:103F630045096011750AFFEE240F122F91440412C4
:103F73004CD6D2E0F08E828F831228AD6006EE24F9
:103F8300121240A5EE2413122F9170109024A7E46F
:103F930093C0E0EE2413122EC4D0E0F08E828F8300
:103FA300E0A2E750045403801CEE2414122F9170F6
:103FB30015900342E0C0E0EE2414122EC4D0E0F0CA
:103FC300900342E004F0EE2411122F916401701665
:103FD300900684E0600D90034DE0700A8E828F831B
:103FE300E070031240A28E828F83E064017013EEAF
:103FF300240B123E0064027009EE240F122F914429
:1040030040F0851882851983AC82AD83EEFAEFFB0D
:1040130012122E8A088B0974FE650A700374FFF46A
:1040230070098E828F83A3A31254ADEA450960669B
:104033008E828F83E0C0E07401120FB7D0E0F0747A
:1040430002120FB71256797401120FB785820C85CD
:10405300830D780C120D0AEE240F122EC4120B7F5F
:10406300EE240E122F91F50C780C120D0E900356C0
:10407300120B7F7407120FB7E0F9AC0AAD0B1212E3
:10408300287407120D51E9FE74106E700BAA08AB69
:104093000912179E80027E10EEF974040228E5EEE1
:1040A3002411F582EF123DF1E4F022A3122F7F7960
:1040B300FF1220CE221240BC22F08E828F83A322D5
:1040C300C082C08374DE120D9C8A828B83A3A3A358
:1040D300A3123DFC740E120FB7E8F0A3E91241924C
:1040E300740C120FB712418B240DF582EB122F942F
:1040F300C0E0741A120FB7D0E0F01253FAEB123D7E
:10410300F97420120FB712418B2415F582EB122F8D
:1041130094C0E07408120FB7D0E0F0EA241CF582D3
:10412300EB123DF97412120FB712418B2411F58271
:10413300EB122F94C0E07409120FB7D0E012417F45
:1041430074FFF07401120FB774FFF07402120FB70B
:1041530074FFF090806E120B7B7404120FB7AC8265
:10416300AD837407120FB7AA82AB83121072740463
:10417300120D5179007422120D51802512418322B0
:10418300F085188285198322E8F0A3E9F0EA221268
:104193003B9BA312419A22A3E0F8A3E0F922125019
:1041A3002CD083D082020CCF74EC1207A074EE12D1
:1041B3000D9C8A128B13ECFEEDFF89097426120FF6
:1041C300B71254AD7428120FB7E0F5107429120F0B
:1041D300B71242C6742B120FB7E0F50EA3E0F50F2A
:1041E3007508107A1E7B001217987402120FB7120B
:1041F3004C007402120FB7124C2870030242BF85A1
:104203001882851983AA82AB837950124ADB125034
:104213002C7402120FB71242E4A3124C0074101252
:104223000FB7125D767402120FB7E0240B1242D15E
:104233007402F0120FB71242E47402F0120FB712B5
:1042430057CC1256797402120FB7125041E509F098
:104253007402120FB7E0240C1242D1E510F074027D
:10426300120FB71242CEE512F0A3E513F074081251
:104273000FB7E50CF0A3E50DF0740A120FB7E510C4
:10428300F0850E82850F83C082C083740D120FB731
:10429300AC82AD83D083D0827403120C49F97402CB
:1042A300120FB7AA82AB831211CEE96401700575B0
:1042B300080080087402120FB7123DE7A9087412B0
:1042C3000254C4E0F50CA3E0F50D22E0241C1242D5
:1042D300D522F8A3E01242DC223400F988828983D4
:1042E30022125034A3A3A3A3A32274EE1207A0EABD
:1042F300FEEBFF8C088D098E828F83A37408124D09
:1043030011E060088E828F83A37410F0122F8E60E9
:10431300098E828F83A3E02408F0EE2415122F91D7
:1043230060088E828F83A3E004F08E828F83A3A321
:10433300A3A3A3A3E060198E828F83A3A3A3A3A344
:10434300A3A3E0C3332402F88E828F83A3E028F073
:10435300EE2411122F916005750B0E8003750B006F
:104363008E828F83A3C082C083EE240D122F91D03F
:1043730083D082F8E028250B8C828D83F0EE241104
:10438300122F9160051247E728F08508828509837B
:10439300E0C3947540097508007509000244CFE035
:1043A300FA7B0012572770030244CFEEFAEFFB1299
:1043B3001234EA850882850983124C01EE2402F83F
:1043C300EF1231EE1245C912450BF0EE2404080832
:1043D300EF1231EE124A11A312450BA3A3F0EE2400
:1043E300131244F1F0EE24141244F1A3F0750A08F9
:1043F300EE2416122F916010EE241812552BE508A7
:10440300240812580A750A10122F8E6016EE241A09
:1044130012552B850A0CE508250C12580A74082539
:104423000AF50A8E828F83A3A3A3A3A3A3E06059F3
:10443300EE2407F510EF3400F511851082F583E0C3
:10444300C0E01244D8122EC7D0E01244FBE0C0E013
:104453001244D8122EC7D0E01244FBA31244E41234
:104463000D06851082851183E0C333FCE433FD859B
:104473000A0CE508250C1254A1120D5185108285F2
:104483001183E0C333250AF50AEE2415122F916038
:104493000BC0E01244D8122EC7D0E0F0122EC11286
:1044A30044E4120D06EE240D122F91FC7D00850BC2
:1044B3000A8E828F83A3E0F8E50828F8E509340023
:1044C300F9E8250AFAE91254A4120D51AA08AB0916
:1044D3007F0A020AB0850A0CE508250CF582E50976
:1044E30022E0F50CA3E0F50D750E00780C22123DC9
:1044F300EE124515A3A3A322F0050A8E828F83A390
:10450300A3A3A3A3A3A3A322A3A3125875A31245F2
:104513001522124A15A3A32274F61207A08A828BCE
:1045230083E0FC9003531245C274027808120E68AC
:10453300EC4508FCAD09EA24121245BC7406780860
:10454300120E68EC4508FCED4509FDEA2415F582D9
:10455300EB122F946004780180027800E4C8F9ED2F
:1045630049FDEA2411F582EB122F94F508880974AA
:10457300097808120E68ED4509FDEA24161245BCB8
:10458300740B7808120E68ED4509FDEA24171245ED
:10459300BC740C7808120E68ED4509FD8A828B8382
:1045A300A3A3A3A3A3A31245C2740A7808120E6897
:1045B300ECFAED4509FB024C31F582EB123DF1E0DB
:1045C300F50875090022E085088285098322A3E0A6
:1045D300F98508828509832274EE1207A08A0A8B63
:1045E3000BECFEEDFF750F01E9C39408500579004C
:1045F3000247CE8E828F83E9F0124A3AE96003754F
:104603000F00124A1E8E828F83124A68EE1253FBEA
:10461300EF124A5DC0E0EE2411122EC4D0E0124A1C
:1046230055C0E0EE2412122EC4D0E01240B8740834
:104633001254B5A3A3A3E06015124A06EE2413F5A2
:1046430082EF124CC58E828F83A3E02408F08E8202
:104653008F83A3A3A3A3A3A3A3A3E060218E828F2D
:1046630083A3858208858309124A49EE2415F582BE
:10467300EF124CC5850882850983E02408F08E82F9
:104683008F83A3A3A3A3A3E0601A8E828F83A38542
:104693008208858309124A2D8E828F83A3A3A3A345
:1046A300A31247F9EE24191240A5EE241B1240A5CC
:1046B300A3124D09E07003024762EE2419F8EF34A8
:1046C30000F98E828F83A3858208858309E0FAE54A
:1046D3000A2AF582E50B122F94888289831247F9FF
:1046E300FAE50A2AF582E50B122F94C0E0EE241AAC
:1046F300122EC4D0E01247F988828983E06059F80A
:104703009024AAE493C398500575110C8008EE24F5
:1047130019122F91F5118E828F83A3E0F8E50A28F1
:10472300F50CE50B1247DD120D06E511C333FCE46E
:1047330033FD7A697B0C1247D7120D51EE241B12FD
:104743002EC47469F0A3740CF0E511C333F8850823
:1047530082850983E0288006EE2418125A52F08ECF
:10476300828F83A3E0F88E828F83E0C39850030285
:1047730045F1A3E0FA8A08E50A2508F8E50B3400B9
:10478300F9EE241DF582EF124DD1124809C39AC0E8
:10479300E0EE2417122EC4D0E0124CCE602BEE2490
:1047A30017F8EF3400F9880889098882F583E02433
:1047B300F2124DB2240EFAA3E03400FB88828983FF
:1047C300124C001247E7C398F0A90F0244D37D00AF
:1047D300EEFAEFFB1216FC7403223400F50D750E8E
:1047E30000780C2290034EE0F9122002E9F88508C4
:1047F30082850983E022F0850882850983E004F03D
:1048030022A3A3A3A3A3F08E828F83E02274F412C6
:1048130007A08A088B09EA12489EF0EA1313543F53
:10482300124897A3A3A3F0EAC4131312489EA3A3A9
:10483300F0EB1248901248A87409780A120F461236
:10484300488E1248A7740A780A120F46E50A5401E3
:10485300C0E0EC2418F582ED122EC7D0E01248AD6B
:10486300740B780A120F4612488EA31248A7740CD1
:10487300780A120F4612488EA3A3A3A3A3A3A3A34C
:10488300F0740D7808120F46022AF3E50A54018CDE
:10489300828D8322540F8C828D832254038C828DCC
:1048A30083A3A322A3A3A3A3A3A3F08A0A8B0B220C
:1048B300C082C08379008A828B83A3A3A3A3A3A30B
:1048C300E090034D600FE070228A828B83A3A3E004
:1048D3007019098016E060138A828B83125023902B
:1048E3000356E06A7003A3E06B70E70241A474F01F
:1048F3001207A08A0A8B0B890C8C088D09124A3A7D
:10490300124A1E850882850983124A68E5081253F4
:10491300FBE509124A5DC0E0E5082411F582E509CB
:10492300122EC7D0E0124A55C0E0123697122EC796
:10493300D0E0124DD97408124DF26011124A06E507
:10494300082413124DCD124DD9E02408F0850882B6
:10495300850983A3A3A3A3A3A3A3A3E06017850847
:1049630082850983A3124A45E5082415124DCD1209
:1049730048092408F0850882850983A3A3A3A3A378
:10498300E06019850882850983A3AE82AF83124A4A
:104993002D85088285098312480404F0AA08AB090F
:1049A300121246E9F50D7056850882850983A3A383
:1049B300A3A3A3A3124A117014E0FA8A0EE50A25F1
:1049C3000EF8E50B124CBAE50CC39A8021124A4546
:1049D300E8240EF8E9124CBA90034EE0F9122002D3
:1049E3008E828F83E0F8E50CC39824F2C399C0E06C
:1049F300E5082417F582E509122EC7D0E0F0A90DCA
:104A03000253EAE50A2408F8E50B3400F922124AB6
:104A13001522E0850882850983A322850A82850BF6
:104A230083A3A3124A7EE0F9EA22E0F8E50A28F517
:104A330082E50B124CE1228A828B831253EF12120E
:104A43004022AE82AF83E0F8E50A28F8E50B340094
:104A5300F922124A91A3A3A3E022123DF1E8124ADC
:104A63008AA3A3E022A3A3A3A3A3A3A3A3A3124A5A
:104A73008A124A7EA3A3E0F9EAF822E0FA850A82C1
:104A8300850B83A3A3A322F0A3E9124A9122F08505
:104A93000A82850B83A3A3A3A322C082C0837AD4F3
:104AA3007B0379E2121F547AD47B030241A4C082B0
:104AB300C0839003560241A1C082C08374FE120DCD
:104AC3009C851882851983AA82AB83794B124ADBB2
:104AD30012502C740202417A121F548518828519D0
:104AE3008322C082C083794A121F540241A474F600
:104AF3001207A09003DCE0FE04F0EEF91211F88B2C
:104B030009EA450970EDEE60EAF9024C3174F012DE
:104B130007A0EAFEEBFF8C088D09890A7410120FB7
:104B2300B7E0F50B7411120FB7E0F50C121324EA7A
:104B33004B7013E50C7042A90AAC08AD09EEFAEF0D
:104B4300FB12133C806EE50A6021EA2402F582EB36
:104B5300122F94850A082508F8E4340013E813F0AB
:104B630070098A828B83A3A37401F0E50C6045E589
:104B73000B70068A828B83E4F07401650C7035E553
:104B83000B9003E37004E4F0802AE004F0900DA49A
:104B9300E0F89003E3E0C398401AE4F0900359E08F
:104BA3006E7003A3E06F700CEEFAEFFB7901121045
:104BB30096124BBA0253EA7A017B009003B0E0F9F4
:104BC30012184C22C082C08374016A7001EB700713
:104BD3007A01124BF18012900D9B124C00EA4B604C
:104BE3000512286F8003124BBA0241A47A207B007E
:104BF3009003B0E0F9121750223400F583EAF0A3D2
:104C0300EBF022C082C083900D9D0237A1C082C009
:104C130083900D9F0237A11257DB22EE240CF582FD
:104C2300EF3400F58312419BE84922120D517F02B4
:104C3300020AB0A2F0E433851882851983124C521C
:104C43007952121F5A22124C527942121F5A22F0E1
:104C5300AA82AB8322AA82AB831211AA7AB37B0303
:104C63007945121F5A2274F71207A074ED120D9C96
:104C7300E9FE9003AF125048124C957412120FB70D
:104C8300EE124CA2851882851983124C58741302B4
:104C9300526F900D6BE0F97AB37B031211B022F0DF
:104CA300900D6BE0F97CB37D0322AA08AB09900356
:104CB300B0E0F9121726223400F9E508241DF58225
:104CC300E509123DF1E8F0A3E9F0221254B9A3A3D8
:104CD300E022A3F0EE2415124CDE22F582EF34001D
:104CE300F583E022124CEB223400F583E0F8A3E0D5
:104CF300F98882898322E0F8124CFF22A3E0F98E1F
:104D0300828F83A3A322F0EE2418123DEE22F0EE4D
:104D13002416123DEE2274F41207A0EAFEEBFF7A8A
:104D2300007B04124BBE124DA8124CC8900365744D
:104D330009F01212528A088B09AC08AD09EE24134C
:104D4300122EC412502C124EFC640170487A0F12BA
:104D53004D9B60418A828B837402124DB2FAA3E0A9
:104D6300FB8A828B83A3E0FC8A828B83A3A3E0FB71
:104D7300EC850882850983A3A3124C018882898369
:104D83001250301245C9124CD5FAA3E0FB794A12EE
:104D93001F5A124CAD022F897B0012171A8A088BF7
:104DA30009EA45092290033612419B900D9F22F098
:104DB300EE241DF8EF124DBC221242DCE022124D0C
:104DC300C5223400F5837401F022F582E509123D12
:104DD300F1E8F0A3E922124DDD22124DE122F08524
:104DE3000882850983A322124DE1A3A3A3A3221260
:104DF3004DEAA3A3E0221252031212AC22EE2417AF
:104E0300F582EF124DC5121252EE241A123DEEEA4C
:104E1300F0A3EBF02274F41207A074F3120D9C8933
:104E230008EAFEEBFF7C0D7D007900851882851969
:104E330083AA82AB83121708EE241D122EC41257C5
:104E4300CCA3E0F8741F58600A7901121F2A790075
:104E5300024EF3E8A2E55008740C120FB77401F088
:104E6300E8A2E75008740B120FB77401F0E8A2E64A
:104E7300740A5008120FB77401F08008120FB7E0DC
:104E830064017005EE24138003EE241512552B7470
:104E930002120FB7AA82AB83121F42122EC1124F06
:104EA30001124CC8740A120FB7E064017033122860
:104EB300A2703B12125E8A0A8B0BA80AA90BEE247E
:104EC3000B122F91687003A3E0697022121252EA49
:104ED300FCEBFD7402120FB7AA82AB83124EFC6087
:104EE3000D851882851983AA82AB83121090A908B5
:104EF300740D022F86EEFAEFFB121F3CE922E0123B
:104F03004F0622F8A3E0F98518828519832274F6E7
:104F13001207A074F3120D9C8A088B09ECFEEDFFB7
:104F23007C0D7D007900851882851983AA82AB8365
:104F330012597FA3A3A3A3A3A3A3A3A3124F9B12BB
:104F43004FA4F8A2E55008740B120FB77401F0E8F0
:104F5300A2E75008740A120FB77401F0E8A2E6EE54
:104F6300500424138002241512552B7402120FB718
:104F7300124F8DA3A3E0C0E0740C120FB7D0E01260
:104F830051FB12108A740D024C2EAA82AB83121F9E
:104F93004285088285098322E0124F06E8F0A3E9DF
:104FA30022F0123DEB1257D0A3E02274F71207A0B0
:104FB30074E1120D9CEAFEEBFF8E828F8312503058
:104FC300A3A3A3E0A2E050518E828F83122A028A08
:104FD300828B83A3A3A3A3A3A3E054FE1250488A06
:104FE300828B83125041E0F98A828B83E0241CFA7E
:104FF300A3E0123A0412502C12124CE9701B741DD8
:10500300120FB712503B7011851882851983AC8239
:10501300AD83EEFAEFFB12129A02526D8E828F83EA
:10502300A3A3A3A3A3A3A3A3A3122F7F221250344A
:10503300221257D4A3A3A322123E23640422E02402
:105043001B1242D522124183AC82AD8322E9F87947
:1050530000740468600A740A686005740368700168
:1050630009020CCF74F61207A08A828B837420F096
:10507300A3A37401F01210368A088B09AE08AF0996
:10508300EE4F60108E828F837401F09003A3E07063
:1050930003124E00EEFAEFFB024C31C082C0839044
:1050A30003C87401F0E9A2E350037403F0E9A2E139
:1050B3005004E0D2E2F00241A474F61207A0790092
:1050C3007C008A088B097808120AF6F8FF07EF506C
:1050D300ED50ED50ED50ED50E650EA50EF50E350F7
:1050E3000C80097C0480050C80F67C089003C8E0E2
:1050F3005C6003098003EC600109024C3174F61211
:1051030007A08A828B83E07012A3124C28600C8A5A
:10511300828B8312502B12207480047A007B00024E
:105123004C3174F51207A074F3120D9C8A088B0995
:10513300ECFEEDFF750A12EA45097005790002518C
:10514300F4900356E065087004A3E0650970141237
:105153001252EAFCEBFD124EF87005750A0180034A
:10516300750A00851882851983E4F004120FB7E5E8
:1051730008F0A3E5091251FB120FFAE96027740343
:10518300120FB7AA82AB83120FDCE96401701675A4
:105193000A017403120FB7AC82AD83124EF860217B
:1051A300750A00801C7412650A70169003A2E064ED
:1051B30002700EEEFCEFFDAA08AB09121012E970A3
:1051C300DFEEFCEFFDAA08AB0912132AE9F8740A13
:1051D300687005750A01801774A0687012EEFCEF01
:1051E300FDAA08AB09121336AA08AB09121348A982
:1051F3000A740D025CE774021251FF221252032259
:10520300124183AA82AB832274F71207A0EAFEEB52
:10521300FF8E828F83A3A3A3A3A3A3A3A3E06015FD
:10522300EE2415122EC4122F6F1212C4E9640170FA
:1052330004790180258E828F83A3A3A3A3A3A3A3B1
:10524300E06015EE2413122EC412525FFAA3E0FBA2
:105253001212C4E9640160D979008013123AF0A3F1
:10526300A3A3A3A3A3A3A3A3E022741F120D517F9F
:1052730001020AB074F01207A074FD120D9C8A0893
:105283008B09ECFEEDFF890B7413120FB7E0F50CDD
:10529300750A017401120FB774041258046048E5CB
:1052A3000C601DEA2417F582EB125A551257F28A45
:1052B300828B83E0D2E7F0EA2414F582EB1240A854
:1052C3001253FAEB124CE77403125D78EE8882896D
:1052D30083A3A3F0EF88828983A3A3123B9A123B93
:1052E300A1121030E9F50AA90A74030253E774EC1A
:1052F3001207A074F5120D9C8A0A8B0B890C8C0E75
:105303008D0F741F120FB7E0F50D7420120FB7E065
:10531300F510A3E0F5117E01EE120FB7740AF0E960
:105323007007E50DC333240AF01254CC7003025303
:10533300CE1254E17409F0A3E50CC43354E0450DD7
:105343001254F3E50C702D7C008023ECC333F8E496
:1053530033F9E51028F8E51139F988828983125366
:10536300DB888289831231E1F0A30EAF830CECC397
:10537300950D40D7E5082417F582E509124DC112B2
:105383001252E508241AF582E509124BFC74031244
:105393000FB7AC82AD83AA0AAB0B120FE2E9601917
:1053A300E5082416F582E5091253D5120FB7A88232
:1053B300A983E5082418124CC18508828509831244
:1053C3005D74AA08AB09121030E9FEEEF9740B0202
:1053D30054C4124DC5740322E08E828F83F0A3AEB2
:1053E30082AF8322120D517F08020AB0123E4BF99D
:1053F300EA2400E439FB22EA240BF5822274EE123C
:1054030007A08A0C8B0D890E8C088D097412120F5C
:10541300B7E0F50F7413120FB71254AD9005F312E2
:105423004C286077E50FC333F8E433F9E8240EFA28
:10543300E93400FB12171A8A108B11AE10AF11EE6C
:105443004F60588E828F8374D4F0A3A3E50CF0A32E
:10545300E50D1254B5E50EF0AC08AD09EE2405FADE
:10546300EF12580DEE240D122EC4E50FF0850A0835
:10547300850B09750A007808120D06E50FC333FC86
:10548300E433FDEE240EFAEF1254A4120D51EEFA9A
:10549300EFFB9005F31257CC1221390244D3FAE5FE
:1054A300093400FB1216FC740322E0F50AA3E0F5AD
:1054B3000B221254B9221254BD221240BCA3A3A33F
:1054C30022120D517F0C020AB0851882851983AA16
:1054D30082AB831212AC8A088B09EA450922EA24BB
:1054E3000BF582EB124CE1FEA3E0FF8E828F832249
:1054F300F0A3AE82AF83AC0EAD0FEEFAEFFB125505
:105503000522121F4212550C22EE2408FEEF34002E
:10551300FF22E0FA8E828F83A3A3E022FEA3E0346E
:1055230000FF8E828F83E022123DEE12553222E07D
:10553300FCA3E0FD22122F7F12123A2274F7120706
:10554300A0E9FE7C007D0078007900800D1255FDF6
:10555300E02CFCA3E03DFD125C17125C80502CE8AC
:10556300FAE9FBEA75F012A4FAAFF075F012EBA4B6
:105573002F125C20F460E0125604123D0960D8EE4D
:1055830060CB1255FDE4F0A3F080CC780079008065
:105593000D1255DDE02CFCA3E03DFD125C17125CFF
:1055A300735030E8FAE9FBEA75F017A4FAAFF07527
:1055B300F017EBA42F125C4F7003A3E0F460DC122E
:1055C30055E4123D0960D4EE60C71255DDE4F0A343
:1055D300F080C8ECFAEDFB0252721255E43BF583FE
:1055E30022E8FAE9FBEA75F017A4FA75F017EBA4C1
:1055F3002FFB740A2AF582740B221256043BF5839F
:1056030022E8FAE9FBEA75F012A4FA75F012EBA4AA
:105613002FFB748B2AF58274092274F61207A0EA11
:10562300FEEBFF9003C9801388828983E06E7003C9
:10563300A3E06F603A88828983A3A3124C2870E8A1
:105643007A047B001217988A088B09A808A909E82D
:1056530049601C888289831256799003C912502CA1
:1056630088828983A3A3124C009003C9124CC802F9
:105673004C318A828B83EEF0A3EFF02274F412078D
:10568300A07E009003C980070E88828983A3A3129A
:105693004C2870F4EEC333FAE433FB125727607ED1
:1056A3007F009003C980248882898312552EEFC31B
:1056B30033FAE433FBE5082AF582E5093BF583EC8D
:1056C300F0A3EDF00F88828983A3A3124C2870D72F
:1056D3009003AB1228DC7003A3E0697808701912F9
:1056E3000D0AEEF50A780A120D0E7C777D03790018
:1056F3009003AB125732801A120D0AEEF50A780A9C
:10570300120D0E7C777D0379009003AB12502C129F
:1057130012D67403120D51AA08AB0912179E121068
:1057230048022F891217988A088B09EA4509221221
:105733002F7F1212DC22C082C08380128A828B8365
:10574300A3A3123DFC9003C9124CC812179E9003E9
:10575300C9123D0C70E60241A474F61207A090032F
:1057630063123E289003DD1257BB124CC87ADD7BCF
:10577300037950121F5A9003DD122AFBFAEFFB1232
:1057830013429003DD123E289005F5124C28602544
:105793007A067B0012171AEA4B601A8A828B83748B
:1057A300D5F0A3A3E41257E1041257F29005F512C2
:1057B30057CC122139024C311257BF22E0F8A3E033
:1057C300F9900363228E828F831257D0221257D40B
:1057D30022E0F81257DA22A3E0F5838882221257D7
:1057E300E5221257E922F08A828B83A3A3A3221214
:1057F30057E5A3EEF0A3EFF022F582EF124CE1F9A7
:1058030022124DF9EA4B22FAE5093400FB121F423A
:1058130022124D00A3A3A3A3A3A3A3229024A2E433
:10582300932401F8E43400F97A027B002274F7121E
:1058330007A07E008004125E2B0E12594F40F77EA4
:1058430000EE12585C74FEF0A304125871E4F00EDB
:10585300EEC3940340EB02527275F003A4F8A9F06F
:1058630074CB28F8740339F988828983A3221258E8
:105873007522F0888289832274F71207A07F008043
:10588300010F90249FE493F8EFC3985026EF125A28
:105893003B6A7003A3E06B70E8125DD86C7003A3DE
:1058A300E06D600A74FF6C700374FF6D70D312595E
:1058B3003880047A007B0002527274F61207A07CCF
:1058C300FF7DFF7AFE7BFF121306EA4B70407508DB
:1058D300008036E50875F017A4F8A9F0740428F5DC
:1058E30082740B125A4D600C740328F582740B12E8
:1058F3005A4D701374F528FE740A39FF8E828F8314
:10590300125A5AEEFAEFFB05081259B540C5024C7C
:105913003174F41207A08A088B09ECFEEDFF800BAB
:10592300121318EEFCEFFDAA08AB09121306EA4B9B
:1059330070EE022F8974F528FA740A39FB22EE758A
:10594300F017A4F8A9F0125A4664FE2290249FE4AB
:1059530093F8EEC3982274F71207A0EAFEEBFFEE6A
:105963004F601012597974FEF0A304125D7E14F097
:10597300A304F00252727C177D0079001217088E7F
:10598300828F832274F71207A0EAFEEBFF750800EB
:105993008018E50875F017A4F8A9F0125DE3700309
:1059A300A3E06F6003125E3305081259B540E302AA
:1059B300527290249FE493F8E508C3982274F61278
:1059C30007A01213068A088B09A808A909E84960E9
:1059D3000AE8240DFAE93400FB80047A007B000214
:1059E3004C3174F41207A08A0A8B0BECFEEDFF75A1
:1059F3000800750900802EE50975F017A4F8A9F0D1
:105A0300125E1E601EE509125A3B650A7004A3E08C
:105A1300650B700375080AEEFCEFFD125CDA600398
:105A23004308A0050990249FE493F8E509C398501F
:105A330004E50860C2022AF375F017A4F8A9F0126E
:105A43005A462274F528F582740A39F583E022F563
:105A530082EF123DF1E422122F7F12112C221258F1
:105A630075A3A3A3A3A3A3A3A32274F21207A08ADB
:105A7300088B09ECFEEDFF740E120FB71254AD75CF
:105A83000C007C007D018010121714E50CF5F0EA80
:105A930084ACF0750C007D00780079008003125C03
:105AA30017125C734003025B39E8FAE9FBEA75F00D
:105AB30017A4FA85F00D75F017EBA4250D125C4FB2
:105AC3007003A3E0F460D7125C2D65087004A3E0B3
:105AD300650960CA125C2D6E7003A3E06F60BF128C
:105AE3005C2D650A7004A3E0650B60B2E8FAE9FB7C
:105AF300EA75F017A4FA75F017EBA4250DFB7403F0
:105B03002AF582740B125C0E509474016D050C60BF
:105B13008DE50CC39C4087E875F017A4F8AAF075CF
:105B2300F017E9A42AF974F528F582740A39F58384
:105B330012502C025C0B780079008003125C171260
