:020000040000FA
:06000000020E4402050B94
:03002B00020B7253
:03004300020B2D80
:0300530002044A5A
:03006B00020C6024
:100083000204A70101FF0503010F241424142414FF
:100093002414E012DA1224142D21000000008F2111
:1000A300000000000C0000000C0001FFFF01010133
:1000B3000100B8050000002C06E80364006400B8E2
:1000C30001020200100000050203051E02051E0ABC
:1000D30002B80B02010278110296511800020206BF
:1000E30012120E63700418181822120E90700D74F9
:1000F300FFF61819F61819F61819F622E754806650
:10010300F6120ED9700F120ECF70F014F608F6081F
:10011300F608F680D1120ECF700CF608F60876803A
:1001230008E6447F80EC120D32700C120CDE60BFC7
:10013300E65480F6E480BB120CDE700519191980B1
:10014300A5E869700C763F18768018F618F6E8F97A
:1001530022E6CDC0E018ECC0E0E633CD33CDD313B7
:10016300F6E719FCE7191933CC33C3947F400ECD5E
:100173009D502408E65480F6E418F6800FF4043DFD
:1001830014501408E6447FF6187680E418F618F63F
:10019300D0E0FCD0E0FD22CCD313CCFD18E4C6CBD9
:1001A300C0E018E4C6CAC0E00808ED08C633E61389
:1001B300F618E433C675F003C3CA97CA09CB97CBC5
:1001C300199C40047D08802EBD000302028D16B6E3
:1001D300FF050606081618C3CA33CACB33CB33CA86
:1001E30027CA09CB37CB193CC37D08803E187D084D
:1001F30020E75CC633C6CA33CACB33CB33DDF1D574
:10020300F0EB30E77BCA97CA09CB974ACB199C40DE
:100213006F4B7025E620E0218066187D08C3CA97DE
:10022300CA09CB97CB199CD3C633C6CA33CACB33BF
:10023300CB3350C9DDE7D5F0E1D3E4C636C608C6F3
:1002430036C608C636C608C636C61818188031C35F
:10025300CA97CA09CB97CB199CB34097C633C6CA72
:1002630033CACB33CB33DD34D5F02EC6A2E0C64040
:10027300C8CA27CA09CB37194A70BECB3CB480B968
:100283000808E63308E633601F181818D0E0FAD0E0
:10029300E0FBD0E0FCD0E0FD22187D08CA27CA09A4
:1002A300CB37CB193CD3808013F618E4B67F11F615
:1002B30018B6FF0EF618C60470D20808768080CAF6
:1002C300F618F618F680C500120E63604F120E90F2
:1002D3006012E7548066F6120CDB7011120ECF70B9
:1002E3003B090909F4F618F618F618F622120D2F31
:1002F3007015120ED908080860EAE6447FF61876EE
:100303008018E4F618F622120ED96016120ECF707A
:1003130012E4F608F608F608E65480F60909091807
:10032300181822EAC0E0EBC0E0ECC0E0EDC0E0E664
:1003330087F0A4FBACF008E687F0A42CFCE435F0CE
:10034300FA1809E687F0A42C4B60027401CA35F051
:10035300FCE433FB09E687F0D2F7A42CCB35F0FCA1
:100363001908E687F0A42BCC35F0FBE433FD08191C
:10037300E687F0D2E7A42C4ACB35F0CD3400FC0954
:10038300E687F0D2E7A42DCC35F0FDE433FA091863
:10039300E687F0D2F7A42CCD35F0CA3400FC08E68A
:1003A30087F0D2E7D2F7A42ACC35F07A7E20E70B88
:1003B3000ACB33CBCD33CDCC33CC33CB33501470CA
:1003C30004ED30E00ED2F1E4CD3DCDCC3CCC3B503E
:1003D30005DA05C2F1EB547FC63308E63392F0FB2E
:1003E300E73309E733C39A502D2B70190C0D4C4D8D
:1003F30070151806E608C333700D20F10AA2F01336
:10040300F6E418800B4024E4F630F002768018F608
:1004130018F618F68024D33B14501074FFA2F0137F
:10042300F6187680E418F618F6800FA2F013F61883
:10043300E63303F618ECF618EDF6D0E0FDD0E0FC59
:10044300D0E0FBD0E0FA22C0E074F212082BA2AF96
:10045300E433FED2AFE5A7FFE5A1F5085F541060D2
:1004630006121BE075A1EFE5085F54086008121B34
:10047300E675A1F78024E508A2E092F0EFA2E082FE
:10048300F05017906198E0F8900907E0C398A2D262
:1004930065D0335002E8F075A1FEEEA2E092AF7F83
:1004A3000102088AC0E074F212082BA2AFE433FE03
:1004B300D2AF9061A4E0F8759B00E59158540860B1
:1004C300087591F7121C2E8023E59158541060088B
:1004D3007591EF121C348014E591A2E092F0E8A22A
:1004E300E082F05007E0C2E0F0121D789061A3E0D3
:1004F300F8E5E9585404600E121D4E75E9FB90614E
:1005030093E0A2E640F28092C0E074F212082BA2BC
:10051300AFE433FED2AF9061A5E0F8E5BF585404D1
:10052300600675BFFB121D9002049DC3E498F8E4B6
:1005330099F912056F8026C3E49AFAE49BFBE9203C
:10054300E7E912056FE498F8E499F922C3E498F80F
:10055300E499F912056FE498F8E499F9C3E49AFA77
:10056300E49BFB22EB20E7CFE920E7E0B90010BBD7
:100573000008E88AF084F8AAF022E4FBC8FA22EB28
:1005830070227B10C833C8C933C9335007C39AC319
:10059300DBF280069A50012ADBEAC833F4C8C93378
:1005A300F4C9FA2275F008E4C833C8C933C933C99A
:1005B3009AC99B5004C92AC93BD5F0ECFBC833F454
:1005C300C8E4C9FA2212060820F01430E72B74FF9E
:1005D300FCFBFA747F8022E4FCFBFA7480801AB47B
:1005E3008008BC00F2BB00EF800F50EBF9E4C39A24
:1005F300FAE49BFBE49CFCE499C6CC18C6CB18C672
:10060300CA18C6F922E4C9C608CAC608CBC6D3337A
:100613000308CCC63392F0C3947F402E941840193C
:10062300C9B90704CACBCC225025C309CA33CACBE4
:1006330033CBCC33CC33D9F422F4600DC9CCC31300
:10064300CB13CBCA13CAD9F6CC22E4FCFBFA22148F
:10065300FCFBFA22080808EAC0E0EBC0E086F0E7FA
:10066300A4FA180986F0E7A42AFA180986F0E7A481
:100673002AFA180986F0E7A42AFA1986F0E7A4FBF8
:10068300E5F02AFA190886F0E7A42BFBE5F03AFA1D
:10069300190886F0E7A42BFBE5F03AFA1818098647
:1006A300F0E7A4C5F02BFBE43AFA1908E7C5F0C656
:1006B300A426F6E5F03BFBE43AFA1886F0E7A4F645
:1006C300E5F00826F6E43B08F6E43A08F6D0E0FB4A
:1006D300D0E0FA22080808E630E711120D58120696
:1006E300EF080808C64480C618181822181818E915
:1006F300799EC608CAC608CBC608CCC6C370207983
:1007030096CACBCC7019798ECBCC70137986CC700A
:100713000EF9802ACA33CACB33CBCC33CC3319304E
:10072300E7F2CCCBCA3350147004EA30E00DE4CACC
:100733003ACACB3BCBCC3CCC500209C3E913C6CC61
:10074300182313C6CB18C6CA18C6F922E4CFC0E0D3
:10075300E4CEC0E0E4CDC0E0E4CCC0E075F020C35B
:10076300E633F608E633F608E633F608E633F6181A
:100773001818EC33FCED33FDEE33FEEF33FFC3EC1F
:100783009709ED9709EE9709EF97191919400FFF8C
:10079300EC97FC09ED97FD09EE97FE191906D5F0C4
:1007A300BEECF709EDF709EEF709EFF7191919D0C0
:1007B300E0FCD0E0FDD0E0FED0E0FF222518C582AA
:1007C300C0E0E51934FFC583C0E0E518C395822472
:1007D300F810AF08858319858218800885831985E9
:1007E3008218D2AFCEF0A3E520F0A37808E608F094
:1007F300A3DEFAEFF0A3E58124FAF8E608F0A3E616
:1008030008F0A3E608F0A30808E608F0A3E608F05A
:10081300A315811581D0E0FED0E0F815811581156F
:1008230081E8C0E0EEC0E022C0D02518C582C0E058
:10083300E51934FFC583C0E0E518C3958224F3109E
:10084300AF088583198582188008858319858218E6
:10085300D2AFC8F0A3E9F0A3EAF0A3EBF0A37908C1
:10086300E709F0A3D8FAECF0A3EDF0A3EEF0A3EFC1
:10087300F0A3D0E0F0A3D0E0F0A3D0E0F0A3E52014
:10088300F0A3E5F0F0A322851983851882E0C0E088
:10089300A3E0F9A3E0FAA3E0FBA37808E0F608A33A
:1008A300DFFAE0FCA3E0FDA3E0FEA3E0FFA3E0C0CA
:1008B300E0A3E0C0E0A3E0F5D0A3E0F520A3E0A32C
:1008C300F5F010AF08858319858218800885831990
:1008D300858218D2AFD082D083D0E0F8D0E0321234
:1008E3000EC4B90003020924E4900301785E790B76
:1008F3008002F0A3D8FCD9FA900D5EAA82AB839054
:100903000086785F79018015E493A3AC82AD838A76
:10091300828B83F0A3AA82AB838C828D83D8E9D99F
:10092300E77582567583877403120BF275823675E9
:1009330083207400120BF2E47375F0108E1A8F1B70
:1009430085821F85831E851882851983E0CEA3E0E7
:10095300CF851F82851E83EBC9EAC8EDCBECCAC3E2
:10096300E833C8E933C9EA33CAEB33CBC3EA9EF5AC
:100973001DEB9FF51CB35004AB1CAA1DEC33CCED4F
:1009830033CDD5F0DAAE1AAF1B22D083D082ECC0C0
:10099300E0EDC0E0E493A3FCE493A3FDED4C600D14
:1009A300120A65EC24FFFCED34FFFD80EFE493A312
:1009B300FCE493A3FDED4C600D120B02EC24FFFC51
:1009C300ED34FFFD80EFD0E0FDD0E0FCE493A3C065
:1009D300E0E493C0E022D083D082E9C0E0E493A3B3
:1009E300C386F0C5F095F0F908E493A386F0C5F04B
:1009F30095F0700BE493A3C3994005E9048002A327
:100A0300E475F002A42582F582E5F03583F583D001
:100A1300E0F9E493A3C0E0E493C0E0228519838561
:100A23001882E0A3FEE0A3F5207808E0A3F608DF30
:100A3300FAE0A3FFE0A3C0E0E0A3C0E0E0A3C0E0CE
:100A4300E0A3C0E0E0A3C0E010AF0885821885836F
:100A5300198008858218858319D2AFD083D082028A
:100A63000BF8C0E0C3E49396087401939618400F03
:100A7300E49366700808740193661870007019A3F4
:100A8300A3C3E49396087401939618A3A3400DD0CF
:100A9300E0D0E0D0E00209C9A3A3A3A3A3A3D0E0BD
:100AA300227404800474028000CCC0E0EDC0E0E551
:100AB30018C39CCCAD1950011D10AF068C188D19AD
:100AC30080068C188D19D2AF120B93D0E0FDD0E0C5
:100AD300FC2274028000CCC0E0EDC0E0E518C39CAA
:100AE300CCAD1950011D10AF068C188D1980068CE2
:100AF300188D19D2AF120B50D0E0FDD0E0FC22C00C
:100B0300E0C0F088F0E493667008087401936618F7
:100B13007000A8F0A3A3700BD0F0D0E0D0E0D0E039
:100B23000209C9A3A3D0F0D0E022C0E074F21208F6
:100B33002BA2AFE433FED2AFC2C0E5D1A2E450038F
:100B4300121B56EEA2E092AF7F0102088ACAC0E0F0
:100B5300E493A3C582CCC582C583CDC583F0A3C569
:100B630082CCC582C583CDC583DAE5D0E0CA22C075
:100B7300E0C0D0E8C0E0E9C0E0E5A8D2AFC2C7A2B8
:100B8300E7A2E792AFD0E0F9D0E0F8D0D0D0E032DE
:100B9300CAC0E0E0A3C582CCC582C583CDC583F0BE
:100BA300A3C582CCC582C583CDC583DAE6D0E0CAAE
:100BB30022C008C3E096F50808A3E096420808A3FC
:100BC300E096420808A3E09645087001D3D00822B6
:100BD3007009080808226016181818C6C333C60817
:100BE300C633C608C633C608C633C6D5E0EA22C034
:100BF3009FF59FE473D09F22D083D082C09FE4935C
:100C0300C0E0740193C0E0740293F59F22740480E2
:100C13000A74038006740280027401C0E0F40412B3
:100C23000C2BD0E0120E9F222518F58210AF08F589
:100C330018400215198008F51840021519D2AF851E
:100C4300198322C0D0251810AF08F51850020519D2
:100C53008008F51850020519D2AFD0D022C0E07435
:100C6300F212082BE589A2E75003121AC075890016
:100C7300C2E87F0102088ABB0102E722C082C08367
:100C830089828A83BB0003E08002E493D083D0820D
:100C9300226016080808C6C313C618C613C618C6AA
:100CA30013C618C613C6D5E0EA22C3E0C696F608F3
:100CB300A3E0C696F608A3E0C696F608A3E0C69698
:100CC300F622251810AF08F518400215198008F50B
:100CD3001840021519D2AF22181818E608460870F2
:100CE3000AE608C3337005E633F4220822E7667088
:100CF300100809E766700A0809E76670040809E73F
:100D03006622E066701008A3E066700A08A3E06636
:100D1300700408A3E06622C3E09608A3E09608A344
:100D2300E09608A3E096A2D265D03322191919E7F9
:100D3300094709700AE709C3337005E733F4220949
:100D430022C3E096F008A3E096F008A3E096F0082B
:100D5300A3E096F022181818E4C396F608E496F672
:100D630008E496F608E496F622E026F608A3E036B1
:100D7300F608A3E036F608A3E036F622E026F008EC
:100D8300A3E036F008A3E036F008A3E036F022E64D
:100D930027F60809E637F60809E637F60809E637BD
:100DA300F622700422600D18C6C333C608C633C6C4
:100DB300D5E0F41822E657F60809E657F60809E6DF
:100DC30057F60809E657F622E056F608A3E056F66A
:100DD30008A3E056F608A3E056F622E647F608090C
:100DE300E647F60809E647F60809E647F622E0561D
:100DF300F008A3E056F008A3E056F008A3E056F08D
:100E030022600D08C6A2E713C618C613C6D5E0F3C1
:100E130022C6F4C608C6F4C608C6F4C608C6F4C695
:100E230022C3E7960809E7960809E7960809E796B3
:100E330022C3E09608A3E09608A3E09608A3E096F1
:100E43002275D000758140751801751903000208D9
:100E5300E2E6F008A3E6F008A3E6F008A3E6F02232
:100E6300E6084608C3134608336002E633F42260FB
:100E73000C08C6C313C618C613C6D5E0F422E0F6A1
:100E830008A3E0F608A3E0F608A3E0F622E7094783
:100E930009C3134709336002E733F422CAC0E0E60B
:100EA300F0A308DAFAD0E0FA22EAF0A3EBF0A3EC1D
:100EB300F0A3EDF022E0FAA3E0FBA3E0FCA3E0FD46
:100EC30022E5C754F84401F5C7790122E7C3331972
:100ED300471947194722E6C33318461846184622CE
:100EE3002518F582E43519F58322C2AF75D69F0222
:100EF300000022120BFB055E00120BFB665E001264
:100F03000BFBF05E00120BFB945F00120BFBE85F20
:100F130000120BFB016000120BFB276000120BFB9E
:100F2300626000120BFBA66000120BFBCD60001287
:100F33000BFB1E6100120BFBCE6100120BFB8662E2
:100F430000120BFB4E6300120BFB2B6400120BFB16
:100F5300B16400120BFBC06400120BFBCB640012E4
:100F63000BFBD46500120BFBE56500120BFB5B6604
:100F730000120BFBED6600120BFB456700120BFB27
:100F83000B6800120BFB3C6800120BFB816800121C
:100F93000BFB8E6800120BFB226A00120BFB856BA6
:100FA30000120BFBC16B00120BFBDD6C00120BFB81
:100FB300476F00120BFB526F00120BFB5C6F0012AA
:100FC3000BFB676F00120BFB716F00120BFB7B6F48
:100FD30000120BFB866F00120BFB916F00120BFBD1
:100FE300C26F00120BFBE66F00120BFB0A700012BC
:100FF3000BFB6F7000120BFBB37000120BFBCF7077
:1010030000120BFB467100120BFB7E7100120BFBEF
:10101300CA7100120BFB277200120BFB097400123A
:101023000BFB8F7400120BFB607500120BFB7078C7
:1010330000120BFBC57800120BFBF17800120BFBBF
:101043003D7A00120BFB8D7A00120BFBE27A001241
:101053000BFBE37B00120BFB7B7C00120BFBFD7C89
:1010630000120BFB9D7D00120BFBAC2300120BFB4C
:10107300E52300120BFBBF2500120BFBFE2500121C
:101083000BFB482600120BFBED2600120BFB4C2733
:1010930000120BFB802700120BFBED2700120BFB4A
:1010A3000A2900120BFB122A00120BFBA82A0012BA
:1010B3000BFBEF2D00120BFB982E00120BFB742F72
:1010C30000120BFBD52F00120BFBF23000120BFBAF
:1010D3001C3300120BFBD33300120BFBDD33001266
:1010E3000BFB0B3400120BFBE23400120BFBA93594
:1010F30000120BFB443600120BFBA93600120BFB4C
:10110300D23600120BFBF43600120BFB233900120C
:101113000BFBFA3900120BFB3E3A00120BFBAB3A06
:1011230000120BFB663B00120BFB983B00120BFB00
:10113300DC3B00120BFB123C00120BFB673C001262
:101143000BFBBC3C00120BFB503D00120BFBB23DF2
:1011530000120BFB1A3E00120BFBC33F00120BFBEA
:10116300AB4000120BFBED4100120BFB1B440012C2
:101173000BFBDB4400120BFB104700120BFBB347C6
:1011830000120BFBF14700120BFB9D4900120BFBF6
:10119300B14900120BFBBB4900120BFBE5490012DE
:1011A3000BFBF14900120BFB104A00120BFBC74A61
:1011B30000120BFB064B00120BFB104B00120BFB38
:1011C300694B00120BFB194C00120BFB184D00125C
:1011D3000BFB114E00120BFBAE4E00120BFB504FDC
:1011E30000120BFB674F00120BFB9E4F00120BFB11
:1011F300BC4F00120BFB005000120BFB25500012DA
:101203000BFB0B5100120BFB775100120BFBF1513F
:1012130000120BFB005300120BFB3F5400120BFB9D
:101223001D5500120BFB7F5500120BFB39560012A4
:101233000BFB5C5600120BFB305700120BFB7B576A
:1012430000120BFBBD5700120BFB145800120BFBD3
:10125300595800120BFB875800120BFBC0580012A1
:101263000BFBE55800120BFB6D5900120BFB905B57
:1012730000120BFBEF5B00120BFB835C00120BFBFA
:10128300EF5C00120BFB3A5D00120BFB675D001273
:101293000BFB849C03120BFBC39C03120BFB92B14D
:1012A30001120BFBECB101120BFB48B201120BFB59
:1012B30094B201120BFBAFB201120BFBE0B20112AD
:1012C3000BFBFDB201120BFB09B301120BFB7DB447
:1012D30001120BFB96B401120BFBFDB401120BFBC5
:1012E30010B501120BFB1EB501120BFBD2B5011297
:1012F3000BFBB6B601120BFBBCB701120BFB42B8DA
:1013030001120BFB4CB801120BFBB9B801120BFB1A
:10131300D0B801120BFB02B901120BFB3BB901124E
:101323000BFB65B901120BFBC6B901120BFBE6B946
:1013330001120BFB04BA01120BFB4ABA01120BFB9D
:1013430070BB01120BFBBDBB01120BFBECBB01120B
:101353000BFB62BC01120BFB8ABC01120BFBC3BC6F
:1013630001120BFBD1BC01120BFB29BD01120BFBBC
:1013730078BD01120BFBB7BD01120BFBE7BD0112D8
:101383000BFB13BE01120BFB1EBE01120BFB3CBE7B
:1013930001120BFBFEBE01120BFB08BF01120BFB7C
:1013A30043BF01120BFB59BF01120BFB62BF0112BA
:1013B3000BFBB7BF01120BFBCBBF01120BFBD9C059
:1013C30001120BFBECC001120BFB01C101120BFB61
:1013D300A3C101120BFB26C201120BFBE4C20112D3
:1013E3000BFBEFC201120BFB15C401120BFB31C443
:1013F30001120BFB83C401120BFBC2C401120BFBD2
:10140300D7C401120BFB19C501120BFB66C70112EE
:101413000BFBE4C701120BFB57C801120BFB79CA84
:1014230001120BFB91CA01120BFB94CA01120BFBB5
:10143300A0CA01120BFBB4CA01120BFBBCCA0112F6
:101443000BFBEFCA01120BFB9FCB01120BFB15CC5D
:1014530001120BFB88CC01120BFB3CCD01120BFBE1
:10146300F1CD01120BFB10CE01120BFBB0CE01121A
:101473000BFBBCCE01120BFBE7CE01120BFBEACE3A
:1014830001120BFB54CF01120BFB7CD001120BFB9F
:1014930054D101120BFBDFD101120BFBF8D2011265
:1014A3000BFBB5D301120BFBEED301120BFB1FD4C5
:1014B30001120BFBBFD401120BFBEFD401120BFB88
:1014C300CAD501120BFB63D601120BFBEED6011238
:1014D3000BFB9FD701120BFB21D801120BFB53D837
:1014E30001120BFB94D801120BFB05B402120BFB88
:1014F30066B402120BFBA3B402120BFBF6B4021286
:101503000BFB2DB702120BFBFDB802120BFB6CBCDD
:1015130002120BFBA3BC02120BFBC1BC02120BFB9E
:1015230037BD02120BFB5FBD02120BFB90BD021213
:101533000BFBC0BD02120BFB1CBE02120BFB2AA845
:1015430002120BFBA8A802120BFBDEA802120BFB74
:101553004AA902120BFBBDAA02120BFBD9AA021263
:101563000BFB1EAB02120BFBABAB02120BFB04AC6F
:1015730002120BFB30AD02120BFB3EAE02120BFB51
:101583009BAE02120BFB07AF02120BFB68AF0212FA
:101593000BFBA9AF02120BFB56B002120BFB68B197
:1015A30002120BFBABB102120BFBF9B102120BFBE4
:1015B30030B202120BFBD3B202120BFB8EB3021238
:1015C3000BFB289903120BFBDE8F03120BFBEC8F33
:1015D30003120BFB3D9003120BFB829003120BFBD8
:1015E3002A9103120BFBEB9503120BFB3B8B0312AC
:1015F3000BFB938C03120BFB899B03120BFBE28CFB
:1016030003120BFB038D03120BFBF98D03120BFB70
:10161300238E03120BFB87F902120BFB00FA021253
:101623000BFB0BFA02120BFB2CFA02120BFB16CF6D
:1016330002120BFB20CF02120BFB6CCF02120BFB2F
:10164300DACF02120BFBFBCF02120BFBABD0021261
:101653000BFBB4D002120BFB07D102120BFB30D1F0
:1016630002120BFB8ED102120BFB1FD202120BFBD9
:101673005BD202120BFBA7D202120BFB19D302128D
:101683000BFB9FD302120BFBDED302120BFB1FD407
:1016930002120BFB56D402120BFB68D402120BFB93
:1016A3007AD402120BFB99D402120BFBA2D40212BE
:1016B3000BFB5AD502120BFB9AD502120BFBDE96DB
:1016C30003120BFBC8FD01120BFBFEFD01120BFB0A
:1016D300B1A301120BFB97FF01120BFBC9D8011237
:1016E3000BFB14DA01120BFB50DA01120BFB07DCC4
:1016F30001120BFB30DC01120BFBC8DE01120BFBEA
:1017030008DF01120BFBA9E001120BFB43E10112FD
:101713000BFBABE101120BFB38E201120BFB70E296
:1017230001120BFBB0E201120BFB43E401120BFBB2
:10173300E2E501120BFB31E801120BFB5FE801123A
:101743000BFBB35D00120BFB94E801120BFB12E9D8
:1017530001120BFB3BEC01120BFBB99D03120BFBBC
:1017630014F002120BFB29F002120BFBC6F002125B
:101773000BFB02F102120BFB19F102120BFB40F1FE
:1017830002120BFB85F102120BFBB6F102120BFBEB
:10179300EEF102120BFB76F302120BFB349C0312E5
:1017A3000BFB7E9803120BFBB49803120BFBD09830
:1017B30003120BFB129903120BFB1E9903120BFB73
:1017C300EC9B02120BFBFF9C02120BFBB79E021257
:1017D3000BFB799F02120BFBDA9F02120BFBB7A0E4
:1017E30002120BFB78A102120BFB8EA102120BFB60
:1017F30048A202120BFBB5A202120BFB57A3021263
:101803000BFBA8A402120BFBFFA402120BFB86A581
:1018130002120BFBB0A602120BFB3EA702120BFB3C
:10182300B7A702120BFB008002120BFB55800212BA
:101833000BFB078102120BFBAB8102120BFB058230
:1018430002120BFB198202120BFBFC8302120BFB2D
:101853007D8402120BFBB48402120BFB608602121E
:101863000BFB778602120BFBC28602120BFBD88698
:1018730002120BFBE58602120BFB198702120BFB0C
:101883002F8702120BFBBA8702120BFB148802127A
:101893000BFB678802120BFB718902120BFBCF8BC8
:1018A30002120BFB748C02120BFBB68C02120BFBA5
:1018B3003F8D02120BFB618D02120BFB648D021232
:1018C3000BFB678D02120BFBFA8D02120BFB238EAF
:1018D30002120BFB368E02120BFB628E02120BFB03
:1018E3009D8E02120BFBA08E02120BFB049B0312B4
:1018F3000BFB109B03120BFB4C9B03120BFBBFC791
:1019030002120BFB0EC802120BFBBDC902120BFB2A
:1019130082CB02120BFBC6CB02120BFBB3CC02121F
:101923000BFBE4CD02120BFB06CE02120BFB62CEC5
:1019330002120BFBE6CE02120BFBC0EC01120BFBF7
:10194300EBEC01120BFBACED01120BFB32EE0112BF
:101953000BFB9BEE01120BFBE3EE01120BFB6DEF96
:1019630001120BFB02F001120BFB95F001120BFBB2
:10197300D6F001120BFB3AF501120BFBC8F601126C
:101983000BFB9AF701120BFB90F901120BFB3EFACA
:1019930001120BFB50FB01120BFBF2FB01120BFBC1
:1019A300B5FC01120BFB38FD01120BFBD98E0212A1
:1019B3000BFB958F02120BFB129002120BFBD490C0
:1019C30002120BFB409102120BFB7E9202120BFBE5
:1019D3001F9302120BFB879302120BFB1D9502123E
:1019E3000BFBD19502120BFB4B9602120BFBF297EA
:1019F30002120BFB0D9902120BFBA79902120BFBB0
:101A0300819A02120BFB0D8003120BFB5D80031204
:101A13000BFBB98003120BFB048103120BFB5F81E9
:101A230003120BFB078203120BFB708203120BFBE7
:101A33007D8203120BFB618903120BFB9289031254
:101A43000BFB4C8A03120BFBB28A03120BFBD587E9
:101A530003120BFBB39703120BFBC49703120BFB8D
:101A6300649803120BFB507E00120BFB5E7E001288
:101A73000BFBCF9D03120BFB6E9A03120BFB7E9A9B
:101A830003120BFB999A03120BFBFA9A03120BFB3B
:101A9300F2FE02120BFB77FF02120BFBDDFF0212B9
:101AA3000BFB479103120BFB669103120BFBBC91DB
:101AB30003120BFBD19103120BFB1F9203120BFBBF
:101AC3007D9203120BFB95F602120BFBAAF6021290
:101AD3000BFBCCF702120BFB2FF802120BFB47F8A0
:101AE30002120BFB6EF802120BFB82F802120BFBC5
:101AF3009BF802120BFBBAF802120BFBDEF8021280
:101B03000BFB01F902120BFB52F902120BFB03E967
:101B130002120BFB11E902120BFB8BE902120BFB06
:101B23006FEA02120BFB28EC02120BFB799D0312E6
:101B33000BFBC3D502120BFB30D602120BFBF1D603
:101B430002120BFB61D702120BFB6CD802120BFBC8
:101B5300EDD902120BFB51DA02120BFBA6DA0212C9
:101B63000BFBAFDA02120BFBBEDA02120BFBD1DA6C
:101B730002120BFBE7DA02120BFBF0DA02120BFB89
:101B830003DB02120BFB58DB02120BFB54DD0212C8
:101B93000BFB86DD02120BFBA8DD02120BFBC1DD82
:101BA30002120BFBDADD02120BFBE4DE02120BFB6B
:101BB3007FDF02120BFB738E03120BFB978E031254
:101BC3000BFBB08E03120BFBEF8E03120BFB228F6A
:101BD30003120BFB528F03120BFBBA8F03120BFB87
:101BE300BD8F03120BFBC78F03120BFBD48F0312A2
:101BF3000BFB58FC02120BFB80FC02120BFBC1FC1B
:101C030002120BFBD3FC02120BFBEEFC02120BFBCA
:101C130056FD02120BFB62FD02120BFBC1FD021209
:101C23000BFBE5FD02120BFBA6FE02120BFBB3FE40
:101C330002120BFBC4FE02120BFB119D03120BFBE2
:101C43002E9D03120BFB02E002120BFB62E1021258
:101C53000BFB68E102120BFB7FE102120BFBA0E11D
:101C630002120BFBB6E102120BFBCAE102120BFBE1
:101C730049E202120BFBAEE202120BFB44E3021237
:101C83000BFB1DE402120BFB2DE402120BFB3CE4E5
:101C930002120BFBD59903120BFBF99903120BFBF1
:101CA300219A03120BFB499A03120BFB8C8203123A
:101CB3000BFBB38203120BFBD48203120BFB468391
:101CC30003120BFBF88403120BFB118503120BFBAE
:101CD300288503120BFB318503120BFB4F8503127F
:101CE3000BFB598503120BFB638503120BFB7685F4
:101CF30003120BFBCB8503120BFB048603120BFBB6
:101D0300328603120BFB838603120BFBCF8603126F
:101D13000BFBEA8603120BFBF48603120BFB05870E
:101D230003120BFB4B8703120BFBE39B03120BFB0F
:101D330068BE02120BFB94BE02120BFBB2BE021270
:101D43000BFBC5BE02120BFBE0BE02120BFB3FBF37
:101D530002120BFB6DBF02120BFB7CC302120BFBC7
:101D6300C1C402120BFBF3C402120BFB5FC50212C8
:101D73000BFBA8C602120BFBD0C602120BFBE5C677
:101D830002120BFBF5C602120BFB35C702120BFB4B
:101D930081C702120BFB91C702120BFB9D92031228
:101DA3000BFBAD9203120BFBCB9203120BFBE692E0
:101DB30003120BFB0D9303120BFB2E9303120BFB6E
:101DC300489303120BFB809303120BFBA3930312A1
:101DD3000BFBCD9C03120BFB8DEC02120BFB94EC63
:101DE30002120BFBB1ED02120BFBE1ED02120BFB36
:101DF30007EE02120BFB3AEE02120BFB4CEE021241
:101E03000BFB88EE02120BFBEEEE02120BFB2AEF2A
:101E130002120BFB71EF02120BFB9EEF02120BFB84
:101E2300BFEF02120BFBE89403120BFBFA940312AD
:101E33000BFBE59503120BFBE89503120BFBD59304
:101E430003120BFB479403120BFB859403120BFB4A
:101E5300C69403120BFB83F302120BFB9FF30212D4
:101E63000BFBEEF302120BFB0AF402120BFB3BF427
:101E730002120BFB4BF402120BFB33F502120BFBAA
:101E83003DF502120BFB4AF502120BFB5DF6021243
:101E93000BFB71F602120BFB7AF602120BFB6DE4DD
:101EA30002120BFB94E802120BFB99E802120BFBE4
:101EB3004D9D03120BFB9B9D03120BFB85A201128D
:101EC3000BFBD9A101120BFB2AA001120BFBE59D11
:101ED30001120BFB6C9D01120BFB139D01120BFBFB
:101EE300A79C01120BFB7E9C01120BFB719A011242
:101EF3000BFBA15D00120BFB4DB001120BFB3D9AD6
:101F030001120BFB0A9A01120BFB2FB001120BFB00
:101F1300F7AE01120BFBEE9901120BFB14990112A0
:101F23000BFBCC9801120BFB019701120BFB819663
:101F330001120BFB7E9601120BFB899501120BFB21
:101F4300579501120BFB949401120BFBBF920112E4
:101F53000BFB509201120BFB229201120BFB1F92FF
:101F630001120BFB0C9201120BFBA49101120BFB50
:101F7300939101120BFB749001120BFB54AE0112EF
:101F83000BFB01AD01120BFBB2AA01120BFB43AA1F
:101F930001120BFBFBA901120BFB3E9001120BFB81
:101FA300019001120BFBA28F01120BFB718F011227
:101FB3000BFB5EA901120BFB2C8C01120BFB1D8B7F
:101FC30001120BFBAC8A01120BFB718A01120BFB92
:101FD30051A901120BFB8BE801120BFB3C8A011286
:101FE3000BFB308A01120BFB908901120BFBD78884
:101FF30001120BFBAA8601120BFB368401120BFBA9
:10200300F48301120BFBBF8201120BFB74820112DA
:102013000BFBA68101120BFBFD8001120BFB9980C8
:1020230001120BFBD38001120BFB5FA601120BFB0A
:1020330049FE0100000080FB00013636010100016A
:10204300020100010301000104010606050200006C
:10205300070100340801000F090401010D0100FF0D
:102063000E08000017020000190100FF1A01000109
:102073001B0100FE1C0100081D0200001F010001DE
:1020830020010001210200002301000F24020000AF
:102093002601000127010008280200FF2A0100078A
:1020A3002B0102402C0100002D0100012E01000133
:1020B3002F0100FF30010B1C310800003A0100081A
:1020C3003B01000F2F01000001017101010101011A
:1020D30011010101310101010101800110016101BF
:1020E3003B001400630173017201620143010001AB
:1020F300130106013D013500040112010001000135
:102103000001000104010401330133013C014401D6
:102113003201360000010001650100013500810133
:1021230000010501820183010001030071003001F8
:102133006000110070003102200350048000100081
:10214300610000001400630073007200620043002A
:10215300000013000600000000000400120000004D
:1021630000000000000004000400370037003C02B8
:10217300440000000000000000006500000035007E
:1021830081000000050000008300000001037103CB
:1021930001030103010301030103220302030103FA
:1021A3001003000300030003000300030003000304
:1021B3004203000324030603000300030403120382
:1021C300250323032503230304030403000300035C
:1021D30000034403000300032303000365032100FA
:1021E3003503810300030503000300030003030217
:1021F3007102300160021102700201020202020246
:102203008002100261023A0041006302730272020B
:1022130062024302000213023800000200020402B9
:10222300120200020002000200020402040237004C
:1022330037003C024402000239000002000265023A
:1022430000023502810200020502820283020002BB
:1022530036000100060000000F000000000000002F
:1022630000000000000003FFFF00000403FFFF0065
:1022730000FFFF0FF4010005C40403200001000068
:102283000B000000000000000003010F0000C41950
:10229300130082190100C4190200521903005819CE
:1022A30004005E190500641906007019FFFF0000A1
:1022B3003A136A13401346136413581352137013DB
:1022C30076137C1388134C1334132E1303EAF5E5AA
:1022D300D5D5C5B5A595958585757565655555455B
:1022E30045353525251515050AF41002B81005CA1C
:1022F3001007BE100C9A100DAC10FF000000160F53
:1023030000000B150B020002220F320000062414FA
:1023130036143C1404134214FE120A138414A21438
:10232300A8148A14961490140C0E020B040B0A07BB
:1023330008000F00383C3E363B3B352B432C000155
:1023430019161816161523030000034948424D18A1
:1023530017250502303017181921301B1D1F303087
:102363003016181920231A1C1E30781448144E14E2
:102373005A1454145E1382139C148E139413020480
:102383000201010101090200000000000000BE0477
:102393000AE803040015000E00280008040C0A03D1
:1023A3000908FF1E1E0F040C0574F71207BFE990FE
:1023B30003B0F0900365E4F0121E269003C4E4F02A
:1023C300A3F09003B1F0A3F0121238121E2C900365
:1023D30034E4F0A3F09023A893FA7902121E8C023E
:1023E300517274F21207BFEAFEEBFF5480606990EA
:1023F30003B0E0F91216648A088B09EA4509604FB5
:102403007C0080010CEC75F003A4F8A9F074EB28B0
:10241300F582742239F583E493F4602CE493F88510
:1024230008828B83E06870DCAA08EC75F003A4F8DB
:1024330074EC28F582742239F583E493C0E07401C7
:1024430093F583D08212093AAA08AB09121658EE03
:10245300FAEF6480FB0225B2EF5420601D12114E87
:102463008A088B09EA4509600A1210ACAA08AB096D
:10247300121658EEFAEF642080DAEEA2E0501A90BA
:10248300036AE0640F700B7900121076E96003129F
:1024930025B5EE6401FAEF80BB542070030225805A
:1024A300750C00123B598B09EA450970107C027DBB
:1024B300007A207B009003B0E0F912177E7C00794C
:1024C300047A007B0012112A8A088B098018850878
:1024D30082850983A3A3A3A3A3A3A3A3A37401F046
:1024E300850A08850B09E5084509606D7C007904B8
:1024F300AA08AB0912112A8A0A8B0B750C01E5088D
:102503002404F8E5091238FD24FFF0A3E034FF1298
:102513005D5E70CC850882850983A3A3A3A3A3A3CF
:10252300A3A3A3A3E0640170A5850882850983A3FF
:10253300A3A3A3A3A3E0540470948508828509830D
:10254300A3A3A3A3A3A3A3A3A37406F07AB78508A5
:10255300828509831226E180871210FA7C007901B3
:102563007A007B0012112A8B09EA45097009E50CF0
:1025730070057A20124ABCEE6420022498EF5402BC
:10258300600B121232EEFAEF6402022457EF540486
:102593006019124CA8124BC87901900363124F2C97
:1025A300120FBCEEFAEF64040224577A007B000298
:1025B30027E8900D94122E7F12108E22C082C083C2
:1025C30074EA120CC5851882851983AA82AB8379B4
:1025D3004B121E627408120EE37402F07409120E99
:1025E300E3AA82AB837950121E627413120EE3E4E2
:1025F3001250FB121E80741602407A74F71207BF42
:1026030074E1120CC5EAFEEBFFEE4F6033851882CE
:10261300851983AC82AD831211727406120EE3E046
:10262300601E7417120EE3E0FD7401120EE3E0FC6A
:10263300EEFAEFFB7900121F0AE9600479A4800225
:10264300790002516D74F61207BFEAFEEBFF8E822A
:102653008F83A3A3A3A3A3A3E05440601B1256C874
:102663001227AF60067AFF7BFF801A8E828F831258
:102673003D06FAA3E0FB800312119674FE6A700311
:1026830074FF6B60411256C8124B001211F0E98EB1
:10269300828F8360061226DAE480051226DA74013B
:1026A300F07C7C7D108E828F83124F2C121E86E964
:1026B300F5087015EE4F60097901EEFAEFFB121180
:1026C30006A908024B317508CDAA088E828F8312A2
:1026D30026E1E960DF80EAE0240D1241D522E024FF
:1026E3000C1241D5E0F91210882274F61207BFE9E3
:1026F300FEEAFF7A0F7B00121652EA4B60198A82B8
:102703008B83740CF0EEA3A3F0EF8A828B83A3F088
:10271300124BB17900802FEEF91211308A088B0920
:10272300A808A909E849601C88828983A3A3A3A3F5
:10273300A3A3A3A3A37406125961E0F9121040EEF8
:10274300F912110C7910024B31C082C08390036AD5
:10275300E0640F7014EA4B6010900365E064086056
:1027630005E06404700312276F0240A4EAFCEBFD4A
:102773007A017B009003B0E0F912177822C082C07F
:10278300837900EA241DF582EB123D0324FD600BDF
:1027930014600824FD600424FD7001090240A48E26
:1027A300828F83A3A3A3A3A3A3A3A3A31227B322C9
:1027B300123D4BFB1211F0E9228E828F83A3A3A358
:1027C300A3A3A3A3A3A31227B36402228E828F839E
:1027D300A3A3A3A3A3A3A3A3A312409B900356E085
:1027E3006822120C467F06020A1F74F41207BF7494
:1027F300FD120CC58A088B098A828B83A3A3E0F997
:102803001211308A0A8B0BAE0AAF0BEE4F70030224
:1028130028F4850882850983A3E064F16030850884
:1028230082850983A3E064CD6024850882850983BA
:10283300A3E0641A6018850882850983A3E064E92C
:10284300600C850882850983A3E064E17008790040
:10285300121106E9706C850882850983A3E0C0E044
:102863007402120EE3D0E012407FEEF0A3EF1232B7
:10287300D5851882851983AA82AB837005120FA4AC
:1028830080031211D87402120EE3E064E970338EF0
:10289300828F83122900750A01780A120C1C750AAB
:1028A300E9780A120C1CE508240CF582E509122DBF
:1028B300C71232B2FCA3E0FD8A828B831232CC12A0
:1028C3000C468E828F83A3A3A3A3A3A3A3A3A3E0F6
:1028D300640270108E828F83A3A3A3A3A3A3A3A3D5
:1028E300A37406F0850882850983A3A3E0F9121176
:1028F3000C1210FA900D981225B8022E84E0F8A35A
:10290300E0F9E8FAE9FB2274F41207BFEAFEEBFFF1
:102913007508008E828F83A3A3A3A3A3E0604275EF
:1029230008088E828F83A3A3A3A3A3A3A3A3123F09
:10293300AE8B0BEA450B601075082C8E828F83A338
:10294300A3A3A3A3E0D2E0F08E828F83A3A3A3A3C8
:10295300A3E05403640160030229F343081102292D
:10296300F3EE2418122E916033EE241A122E917076
:102973000F1227CF7003A3E069707575082280706A
:10298300EE241BF582EF1229F8241AF582EF123296
:10299300DDEE24191256FC12102E80541227BC703F
:1029A300037508011227CF7003A3E0697006E508D9
:1029B300D2E1F508E50860158E828F83A3A3E0704A
:1029C30006E508D2E58004E508D2E6F5081227A259
:1029D30064017006E508D2E0F5088E828F83A3A315
:1029E300E0600D122A0664016006E508C2E0F508FE
:1029F300A908022E89123CF11229FF22E0FCA3E070
:102A0300FDEE22123CEB123D23F91211DEE922C046
:102A130082C08379018A828B83A3A3E0C39402409B
:102A230001198A828B83A3A3A3A3E0C39402400268
:102A330079008A828B83A3A3A3A3A3A3A3A3A3E065
:102A430064F87003A3E0F460458A828B83A3A3A395
:102A5300A3A3A3A3A3A3E064F97003A3E0F4602EEC
:102A63008A828B83A3A3A3A3A3A3A3A3A3E064FA50
:102A73007003A3E0F460178A828B83A3A3A3A3A3A9
:102A8300A3A3A3A3E064FB7003A3E0F470027900A3
:102A93008A828B83A3A3A3E0F8900353E0686002C8
:102AA30079000240A474F01207BF74DE120CC5EA69
:102AB300FEEBFF8E828F83A3A3A3A3E0600E900D92
:102AC30096124B286006900D961225B87403120EC9
:102AD300E3AC82AD838E828F83A3A3A3124BFF1239
:102AE3005438E9600F7403120EE3AA82AB83121009
:102AF300A6E970087901121E38022DBCEE241B12C0
:102B03003CF67410120EE3124BC87409120EE3E084
:102B13006021741A120EE3E0FD7404120EE3E0FC6C
:102B23008E828F83124F2A7901121F0AE96004797A
:102B33000280C37403120EE3AA82AB831210A0E9CE
:102B4300F50A7409120EE3E0702A90034DE0602445
:102B53007422550A6422601C7442550A644270CF81
:102B63007420120EE3122DDA600A7420120EE3129F
:102B73002DD370BBE9A2E650417403120EE3AA827F
:102B8300AB83121094E97003022AF77420120EE348
:102B9300123D066403700F7420120EE3A3124B1A46
:102BA300A3E0640D60147403120EE3AA82AB8312D4
:102BB3001202E964017003022DBCEE242C122DC411
:102BC3001230E87003A3E069701C750800780812DE
:102BD3000C1C7808120C1CEE242E1256FC122DE04D
:102BE3001232CC120C467409120EE3E07003022C6D
:102BF30099122DE0124F2C12125C8A088B09EA45B8
:102C0300097003022D367404120EE3E0F88E828FEE
:102C130083A3A3E028F8A3E03400F9E8240D122DE0
:102C2300CB8A828B83A3A3A3E068601CE88A828B90
:102C330083A3A3A3F090807A120EB8850882850936
:102C430083A3A3A3A3120EAC7904E9120EE31254D7
:102C5300152AF8A3E034008882F583A3AA82AB8304
:102C63001216468A0C8B0D8C0E8D0F8508828509F2
:102C730083A3A3A3A3780C120BB44003022DBC902F
:102C83008072780C120D6C850882850983A3A3A337
:102C9300A3780C120E54900365E064046008E064AA
:102CA300096003022DBCE50AA2E54003022D74EE80
:102CB300242E122E91851882851983F0EE242F126B
:102CC3002E91C0E07401120EE3D0E0F0EE24301236
:102CD3002E91C0E07402120EE3D0E0F07414120ED1
:102CE300E3E064017027740E120EE3123CFCEE2441
:102CF30012122E91687003A3E0697011740C120E06
:102D0300E31227C970077414120EE3E4F0EE2424CF
:102D1300122DC4120AA47404120EE3AC82AD8374A0
:102D230007120EE3AA82AB83120FAA7404120C4695
:102D3300022DBC9003AAE064016003022C99742065
:102D4300120EE3122DDA7009E50AA2E65003022CF3
:102D5300997410120EE3E0F47003A3E0F4605AEEEA
:102D6300FCEFFD7403120EE3AA82AB831210B28050
:102D730048A2E650447420120EE3124F3B701A74BB
:102D83001A120EE3E0640270307403120EE3AA8297
:102D9300AB8379001211CC80207420120EE3122D24
:102DA300D37016741A120EE3E06404700C740312E9
:102DB3000EE3AA82AB831211C674220252E7EE24F9
:102DC3000BF582EF123CF122F582E9124BE1F82276
:102DD3001256DAE0640722123D23640622EE242A07
:102DE300123CEE1229FF2412123CEE2274F4120755
:102DF300BFEAFEEBFF8C088D09900689E0600F1295
:102E030027CF7003A3E069700512101C804F79006F
:102E1300124F1F12104C8A828B83E58245836035E3
:102E2300A3A3A3A3A3A3E05418602AE508241BF5D6
:102E330082E509122DC7120AA8123597122DC7125F
:102E43000AA8EE24181256FC122E6212105E7404A5
:102E5300120C4680087900122E6212102280278EEF
:102E6300828F83A3A3A3A3A3A3A3A3A31229FF24B2
:102E73000BF582EF122E7B223400F583123D4BFBC0
:102E8300227403120C467F04020A1FEE2417F582F4
:102E9300EF124BE12274F71207BF74F7120CC5EA65
:102EA300FEEBFF900365E06403600DE064016008DE
:102EB300E064096003022F628E828F83A3E0707E39
:102EC3007C007D007A027B00121E32EE2402FAEFB0
:102ED300123904123CFC900356124BC87953121E4C
:102EE300687900122F67E0640960031232FA8518CB
:102EF300828519837401124B499003657404F0743D
:102F030001120EE3AA82AB83794A121E6274011284
:102F13000EE3AC82AD837A5B7B03121E50900356A3
:102F230012542E7A03123304900350E0A2E35004A8
:102F3300D2F08002C2F0124B361225B5801E8E826B
:102F43008F83A3AE82AF83FC7D007A037B10121EB6
:102F5300328E828F83E0F9122F67E4F01210DC7453
:102F63000902516F900363122E7F120FBC90036509
:102F730022C082C083900334124B28701F900365D4
:102F8300E014600924FC600A14600C800F90033C79
:102F93008032900338802D90033A8028E8496008F6
:102FA3009003351232AC700C8A828B83A3E0F91242
:102FB3000FB0801B90033512363370051212268032
:102FC3000E9003E1124B286006124B1A12093A02C3
:102FD30040A474F41207BF74FB120CC58A088B0952
:102FE3007A0F7B001216528A0A8B0BAE0AAF0BEED6
:102FF3004F70030230DC8E828F831250F9795012A6
:103003001E62850882850983A3E060030230C490B1
:103013000363E0F47003A3E0F46034900363E064BB
:10302300FE7003A3E0F460278518828519831230AC
:10303300E87003A3E0696017850882850983A37498
:10304300EA1232E27A637B037950121E688072853A
:1030530018828519831256BB124BC87A567B0379A3
:1030630053121E62900356124BF9124BC87A597BC6
:1030730003794B121E627A587B0379E1121E629028
:10308300036AE0C3940F5021900358E0C0E0740238
:10309300120EE3D0E0F07404120EE37401F0041294
:1030A3000EE3AA82AB83121E7A750A00780A120C09
:1030B3001C780A120C1C900DBAE0F91232C3120CE0
:1030C300468508828509831230E1A3F09003657475
:1030D30003F0EEFAEFFB124BB17405022E86A3E068
:1030E3008E828F83221256BFE068221241DC227443
:1030F300F51207BF74D8120CC58A088B098A828B14
:1031030083A3A3A3123D287415120EE3AC82AD83EF
:103113008A828B83A3A3A3A3A3A3A3A31232B2FA8A
:10312300A3E0FB1210E87415120EE3E0706B850840
:1031330082850983A3A3A3A3A3A3A3A3E0C3940B9F
:1031430040578E828F83A3A3A3A3A3A3A3A3E06467
:10315300027046EE240B122E91F4703D900365E04D
:103163006402603AE064066035900334124B2860D1
:10317300051232AC604F900365E064086005E064BB
:103183000470167417120EE3E0F9741C120EE3AC0C
:1031930082AD83124F1F1210EE7428025BE7900377
:1031A30034124B28701F7508007808120C1C78081D
:1031B300120C1CEE2410122DC41257141239EC12E7
:1031C30032CC120C468E828F83124E9B123916120A
:1031D3003CFC7402120EE3124BC8EE240D122E9126
:1031E300C0E07404120EE3D0E01232D5F508A3E078
:1031F300F509740F7808120E727405120EE3E508D0
:10320300F07419120EE3E0C0E07406120EE3D0E08E
:10321300F0741B120EE3E0C0E07407120EE3D0E07B
:10322300F07416120EE3E0C0E07409120EE3D0E06E
:10323300F07417120EE3E0C0E07408120EE3D0E05E
:10324300F0EE2410122E91C0E0740A120EE3D0E0C7
:10325300F0741A120EE3E0C0E0740B120EE3D0E038
:10326300F07427120EE3E0C0E0740C120EE3D0E01A
:10327300F0741C120EE3A982AA8389088A09750ACD
:10328300007808120C147C087D007410120EE3AA57
:1032930082AB831246D7120C46851882851983AAFE
:1032A30082AB83120FB602319C123639640122E0DD
:1032B300F98A828B83A3A3A3A3A3A3A3A3A3E0223B
:1032C300900363125432900359122E7F1211A87483
:1032D3000222F0EE240B124BDE22124BE1FA22F013
:1032E3007A567B0379531232ED22121E687A597B88
:1032F30003794B121E6822900363122E7F1212561B
:10330300227B00121E329003591254327A047B003E
:10331300121E3222F012571F2274F21207BF74F8E2
:10332300120CC5EAFEEBFF8C0A8D0B890C85188203
:10333300851983AC82AD8375838075824E740812C0
:103343000B93F50DEEFCEFFD851882851983AA8298
:10335300AB83124DFC7003750D019003B1803BEEFE
:10336300FCEFFDE508240BFAE5093400124DFB6080
:103373001E850882850983A3A3E0650C7011850867
:1033830082850983E0650A7004A3E0650B6038E574
:10339300082414F582E509122DC712390EE50845F4
:1033A300096024E50DA2E040B6850882850983E023
:1033B300650A7004A3E0650B70D5850882850983CF
:1033C300A3A3E0650C70C8AA08AB0974080227E53B
:1033D300C082C0839003B10240A174F71207BF906B
:1033E30003B1123D4B8012EA2414F582EB122DC770
:1033F300123D281216D6EEFAEFFBEA4B70E9900362
:10340300B1E4F0A3F002517274F11207BF8A088B82
:1034130009ECFEEDFF890A8A828B831252DB8A82D2
:103423008B831230E11234C98A828B83A3A3E0C455
:1034330054F0FA88828983E04A1234D91230E112B7
:1034430034D3E0333354FCF88E828F83E048123454
:10345300D3A3E033333354F8F88E828F83E04812DA
:1034630034C98508828B83A3A3A3A3A3A3E0A2E00B
:10347300E4331313FA88828983E04AF0E5082407CA
:10348300F50CEB1246DD120C147C081246D1120C1B
:103493004612540CE508240FF50CE5093400F50D2C
:1034A300780C120C147C031246D1120C46E50AC3A5
:1034B300940F400D123597122DC71230E2A3A3A328
:1034C300F07F07020A1FF0EEF8EFF9A30EAF832295
:1034D3001234D9A3A322F08508828B83A3A3227479
:1034E300F11207BFEAFEEBFF890A8C088D098E8271
:1034F3008F83E08C828D83123FB8AE82AF83E0125C
:103503004797124708C41247971235A0E054038C1B
:10351300828D83124706A2E2E4338C828D831247A5
:1035230005131313541F124797124704A2E7E433FA
:103533008C828D83A3A3A3A31235A08E0C8F0D754C
:103543000E00780C120C147C087D00E50824071289
:1035530053A1120C4612540C8E0C8F0D780C120CC6
:10356300147C037D00E508240F1253A1120C46E5D9
:103573000AC3940F40148E828F83A3A3A3E0C0E0F9
:10358300123597122DC7D0E0800612359712595580
:10359300F00234C4E5082412F582E50922A3A3123C
:1035A3003FBC0EAF832274F41207BF74F9120CC52B
:1035B300EAFEEBFF8908900334124B28600E1236A3
:1035C300337009EEFAEFFB121220805F900363E081
:1035D3006E7003A3E06F70537401650860097A7716
:1035E3007B03124DFC70447A007B02123B5D8B0B14
:1035F300EA450B7036900366120EB885188285195A
:1036030083120EAC90036CE0C0E07404120EE3D09E
:10361300E0F07405120EE37401F07406120EE31267
:1036230050F9120F7AE9609B120F807407022E86FD
:103633001236396402221256DBA3A3A3A3A3A3E089
:103643002274F51207BF8A088B098A828B83A3AE83
:1036530082AF83E0F9120FD48E828F83E064EB6034
:103663000C850882850983A3E064E17009850882DB
:10367300850983A3E4F01225B5750A01780A120CB3
:103683001C850882850983A3E0F5087808120C1CC1
:1036930079001232C3120C461210FA025BEAEAF006
:1036A300A3EBF00240A474F61207BF9003C3E070CB
:1036B3001B7C0079017A007B0012112AEA4B600C13
:1036C3008A828B83124B286003121082024B31C013
:1036D30082C083123B45401079FF121124E9F89010
:1036E30023A0E493C3985004790180027900024037
:1036F300A474F01207BF8A088B09890B750C008A22
:10370300828B83A3A3A3A3A3A3A3A3E0F9121130E2
:103713008A0E8B0FAE0EAF0F750A01EE4F600302D8
:1037230037D2850882850983A3A3A3A3A3A3125435
:103733002E850882850983A3A3A3A3A3A3A312446D
:10374300D1124F2C1211188A0C8B0DAE0CAF0DEE4B
:103753004F70030238F58E828F83A3A3A3A3E4F0F3
:10376300A3F0E508240B123901E0C0E0122DC1D00B
:10377300E0F01211F6EE240CF582EF124AFCE50894
:10378300240EF582E509123CF9EE240EF582EF12C0
:103793004BC5750C01EE2406F8EF1238FD547FF08B
:1037A300A3E054FC125771E05404600302385890AC
:1037B3000D9C1244C274077808120DA58E828F8364
:1037C300A3A3A3A3A3A3E04508F0A3E04509F08EB8
:1037D300828F83A3A3A3A312390C74077808120E54
:1037E30072E5085407F508E50B607A8E828F83A390
:1037F300A3A3A3A3A3A3A3A37402124709240D1293
:1038030041D1E0A2E2500B900351124BF9A3A31252
:103813004BC8E50870030238CAEE2406F8EF3400FB
:10382300F9E8FAE9FB8A828B83E0547FFCA3E05436
:10383300FCFDE50824FFF508E434FFF50974077877
:1038430008120DA5EC4508F8ED4509F98A828B832A
:10385300124BC880728E828F83A3A3A3A3A3A3E07A
:1038630044800237D1E5087005750A0080598E82BD
:103873008F83A3A3A3A3A3A3E05420601212164C27
:10388300EA547F245F8E828F83A3A3A3A380238E16
:10389300828F83A3A3A3A3A3A3E05410600A1216E9
:1038A3004CEA540F240A80DD8E828F83A3A3A3A343
:1038B3007401F0A3E41239167404123B548B09EA21
:1038C30045097003124AEFE50CA2E050288E828F5F
:1038D30083A3A3A3A312515FF9EEFAEFFB12111E08
:1038E300E96012124B1E6003123CE1EEFAEFFB1289
:1038F30016D6750A00A90A0252EA124CBC22FAE54E
:10390300093400FB8A828B8322A3A3E0F508A3E09A
:10391300F5092212391A221253BDA3A3A3A3A3228A
:1039230074F41207BF74F7120CC57E00121130EA4B
:103933004B70030239E58A828B83A3A3A3A3A3A3BA
:10394300A3A3A3E0640660030239E58A828B83A301
:10395300A3A3A3A3A3A3E0FF8A828B831241E4E082
:10396300C0E07408120EE3D0E0123D1C124E0212A6
:103973004BC8121142EF540860668518828519837B
:1039830012542E7A007B001211128B0BEA450B7036
:103993004F900363123E0C121E927C007D007A004E
:1039A3007B0080288E828F83123D06F47003A3E090
:1039B300F4602D9003631239EC124F2C121B86E92D
:1039C300641A601C7C007D00EEFAEFFB1211128A70
:1039D3000A8B0BAE0AAF0BEE4F70C97900121E981B
:1039E3007E01EEF97409022E861239F022E0FCA35F
:1039F300E0FD8E828F8322C082C083EA4B700590E4
:103A030003C480068A828B83A3A3123C0C60258A9D
:103A1300828B83A3A3A3A3A3A3A3E0540860E5EC31
:103A23004D60158A828B83123D066C7003A3E06D93
:103A330070D280047A007B000240A474F21207BFA4
:103A4300EAFEEBFF890A8C088D097A107B001220AD
:103A530030EA4B603F8A828B83A3A3A3A3A3A3A3D0
:103A6300A3A3E4123D0AA3E50A1256E1A3123AA165
:103A73008A828B83A3A3A3A3E4F0A3123D16A3F02E
:103A8300125575EA240CF582EB123FA8123A9AA359
:103A9300A3F0A3F00227E8A3F08A828B8322A3A3D7
:103AA300E508F0A3E509F02274F41207BFEAFEEB80
:103AB300FF89088C0A8D0BEE4F6055740165087001
:103AC300147901121124E9F89023A4E493C39850C4
:103AD3000F7911806A74046508702F123B4540F119
:103AE3008E828F83A3A3A3A3A3A3A3A3A3E50812F7
:103AF3003FB8A3125C748E828F83A3A3E4F0A3F078
:103B03009003C4124B286021800D7402650860D0B5
:103B130079C1802BE0F8A3124BF2A3A3123C0C88CB
:103B2300828983A3A370ED80039003C4EEF0A3EF17
:103B3300123B548B0BEA450B7003124AEF790002D8
:103B43002E897904121124E9F89023ABE493C398E6
:103B530022F0123B59227A207B009003B0E0F91245
:103B6300178A22C082C083E9F879009003C4801DBC
:103B73008A828B83A3A3A3A3A3A3A3A3A3E06860C5
:103B83000574FF687001098A828B83A3A3123C0C1E
:103B930070DE0240A474F71207BFEA4B700590036E
:103BA300C480068A828B83A3A3123C0C60248A827E
:103BB3008B83A3A3A3A3A3A3A3A3A3E06970E4ECB0
:103BC30060148A828B83E0240D12541FA2E240D337
:103BD30080047A007B00025172C082C0839003C4C8
:103BE30080068A828B83A3A3123C0C60128A828B89
:103BF30083A3A3A3A3A3A3A3A3E06970E580047A8B
:103C0300007B000240A43BF583122E7FEA4B227413
:103C1300F21207BF8A0A8B0B8C0C8D0D7508007589
:103C23000900EA450B602E9003C480068E828F83C1
:103C3300A3A3123C5F601EAC0CAD0DEEFAEFFB8547
:103C43000A82850B8312093AE9640170DFEEF8EF0B
:103C5300F988088909AA08AB090227E8E0FEA3E06E
:103C6300FFEE4F2274F71207BF9003C4123CFC7C93
:103C7300007D00800DE8FCE9FD88828983A3A312FF
:103C83003CFCE8496030EA687002EB6970E7900336
:103C9300C4124F2CE86A7002E96B88828983A3A35C
:103CA3007008123CFC9003C48009123CFC8C828D8A
:103CB30083A3A3124BC802517274F71207BFEAFE23
:103CC300EBFFEE4F601512113C123D2E124B1E609E
:103CD30003123CE1EEFAEFFB1216D6025172EE2408
:103CE3000C123CEE123D4322EE241DF582EF34000C
:103CF300F58322F582EF123CF112409B22F582EF0D
:103D0300123CF1123D2322123D0E221256E9A3A3C7
:103D1300A3A322123D0EA3A322123A9B123D2322F8
:103D23001256D4E022E0FEA3E0FF228E828F83E0CE
:103D3300241C1241D5123D438E828F83123D4322B0
:103D4300123D4BFB1216D622E0FAA3E022C082C03A
:103D530083EAFCEBFDEC4D700479058044EC24FB15
:103D6300F582ED34FF124B267007123DA7E0F46095
:103D73000512165880E39003B0E0C0E0123DA7D0CF
:103D8300E0F09023A1E493F97AC67B03121682E94B
:103D93006401700B7A007B20124AF3790080027968
:103DA300040240A4EC24FFF582ED34FFF583227472
:103DB300F41207BFA2AFE433F508C2AF9003C612F3
:103DC3003C5F6038EE24FBF582EF34FF124B267A1A
:103DD300007B209003B06005124AF68005E0F912DB
:103DE300168EE4F50AF50B780A120C18EEFCEFFDBB
:103DF3007AC67B0312167C7402120C46E508A2E015
:103E030092AFEEFAEFFB022E8912543285188285A7
:103E13001983AA82AB832274F21207BF74FC120CBB
:103E2300C5EAFEEBFF750AFE750BFF121100E96090
:103E3300057911023F9DEE2415122E916037900DE6
:103E4300B0E0C43354E0F8E0333354FC48C0E0EE50
:103E53002415122DC4D0E0123FB8123FAE8B09EAED
:103E630045096011750AFFEE240F122E91440412C6
:103E73004BD6D2E0F08E828F831227AD6006EE24FC
:103E830012123FA5EE2413122E9170109023A7E473
:103E930093C0E0EE2413122DC4D0E0F08E828F8302
:103EA300E0A2E750045403801CEE2414122E9170F8
:103EB30015900342E0C0E0EE2414122DC4D0E0F0CC
:103EC300900342E004F0EE2411122E916401701667
:103ED300900680E0600D90034DE0700A8E828F8320
:103EE300E07003123FA28E828F83E064017013EEB1
:103EF300240B123D0064027009EE240F122E91442C
:103F030040F0851882851983AC82AD83EEFAEFFB0E
:103F13001211668A088B0974FE650A700374FFF434
:103F230070098E828F83A3A31253ADEA450960669D
:103F33008E828F83E0C0E07401120EE3D0E0F07450
:103F430002120EE31255797401120EE385820C8579
:103F5300830D780C120C18EE240F122DC4120AA82C
:103F6300EE240E122E91F50C780C120C1C900356B5
:103F7300120AA87407120EE3E0F9AC0AAD0B121192
:103F8300607407120C46E9FE74106E700BAA08AB3E
:103F9300091216D680027E10EEF974040227E5EEAC
:103FA3002411F582EF123CF1E4F022A3122E7F7963
:103FB300FF121F9422123FBC22F08E828F83A32212
:103FC300C082C08374DE120CC58A828B83A3A3A331
:103FD300A3123CFC740E120EE3E8F0A3E912409224
:103FE300740C120EE312408B240DF582EB122E9407
:103FF300C0E0741A120EE3D0E0F01252FAEB123C56
:10400300F97420120EE312408B2415F582EB122E65
:1040130094C0E07408120EE3D0E0F0EA241CF582A9
:10402300EB123CF97412120EE312408B2411F58249
:10403300EB122E94C0E07409120EE3D0E012407F1D
:1040430074FFF07401120EE374FFF07402120EE3B6
:1040530074FFF090807A120AA47404120EE3AC8207
:10406300AD837407120EE3AA82AB83120FAA740402
:10407300120C4679007422120C46802512408322CA
:10408300F085188285198322E8F0A3E9F0EA221269
:104093003A9BA312409A22A3E0F8A3E0F922124F1D
:1040A3002CD083D082020BF874EC1207BF74EE128B
:1040B3000CC58A128B13ECFEEDFF89097426120ED0
:1040C300E31253AD7428120EE3E0F5107429120EB7
:1040D300E31241C6742B120EE3E0F50EA3E0F50FD5
:1040E3007508107A1E7B001220307402120EE31240
:1040F3004B007402120EE3124B2870030241BF857A
:104103001882851983AA82AB8379501249DB124F37
:104113002C7402120EE31241E4A3124B007410122A
:104123000EE3125C767402120EE3E0240B1241D10B
:104133007402F0120EE31241E47402F0120EE31261
:1041430056CC1255797402120EE3124F41E509F071
:104153007402120EE3E0240C1241D1E510F0740254
:10416300120EE31241CEE512F0A3E513F074081228
:104173000EE3E50CF0A3E50DF0740A120EE3E5106F
:10418300F0850E82850F83C082C083740D120EE307
:10419300AC82AD83D083D0827403120B93F9740283
:1041A300120EE3AA82AB83121106E964017005754E
:1041B300080080087402120EE3123CE7A908741287
:1041C3000253C4E0F50CA3E0F50D22E0241C1241D8
:1041D300D522F8A3E01241DC223400F988828983D6
:1041E30022124F34A3A3A3A3A32274EE1207BFEAA0
:1041F300FEEBFF8C088D098E828F83A37408124C0B
:1042030011E060088E828F83A37410F0122E8E60EB
:10421300098E828F83A3E02408F0EE2415122E91D9
:1042230060088E828F83A3E004F08E828F83A3A322
:10423300A3A3A3A3E060198E828F83A3A3A3A3A345
:10424300A3A3E0C3332402F88E828F83A3E028F074
:10425300EE2411122E916005750B0E8003750B0071
:104263008E828F83A3C082C083EE240D122E91D041
:1042730083D082F8E028250B8C828D83F0EE241105
:10428300122E9160051246E728F08508828509837E
:10429300E0C3947540097508007509000243CFE037
:1042A300FA7B0012562770030243CFEEFAEFFB129C
:1042B300116CEA850882850983124B01EE2402F80A
:1042C300EF1230EE1244C912440BF0EE2404080836
:1042D300EF1230EE124911A312440BA3A3F0EE2404
:1042E300131243F1F0EE24141243F1A3F0750A08FC
:1042F300EE2416122E916010EE241812542BE508AA
:10430300240812570A750A10122E8E6016EE241A0C
:1043130012542B850A0CE508250C12570A7408253C
:104323000AF50A8E828F83A3A3A3A3A3A3E06059F4
:10433300EE2407F510EF3400F511851082F583E0C4
:10434300C0E01243D8122DC7D0E01243FBE0C0E017
:104353001243D8122DC7D0E01243FBA31243E41239
:104363000C14851082851183E0C333FCE433FD858F
:104373000A0CE508250C1253A1120C468510828500
:104383001183E0C333250AF50AEE2415122E91603A
:104393000BC0E01243D8122DC7D0E0F0122DC1128A
:1043A30043E4120C14EE240D122E91FC7D00850BB8
:1043B3000A8E828F83A3E0F8E50828F8E509340024
:1043C300F9E8250AFAE91253A4120C46AA08AB0924
:1043D3007F0A020A1F850A0CE508250CF582E50908
:1043E30022E0F50CA3E0F50D750E00780C22123CCB
:1043F300EE124415A3A3A322F0050A8E828F83A392
:10440300A3A3A3A3A3A3A322A3A3125775A31244F5
:104413001522124915A3A32274F61207BF8A828BB1
:1044230083E0FC9003531244C274027808120DA572
:10443300EC4508FCAD09EA24121244BC7406780862
:10444300120DA5EC4508FCED4509FDEA2415F5829E
:10445300EB122E946004780180027800E4C8F9ED31
:1044630049FDEA2411F582EB122E94F508880974AC
:10447300097808120DA5ED4509FDEA24161244BC7E
:10448300740B7808120DA5ED4509FDEA24171244B3
:10449300BC740C7808120DA5ED4509FD8A828B8347
:1044A300A3A3A3A3A3A31244C2740A7808120DA55D
:1044B300ECFAED4509FB024B31F582EB123CF1E0DE
:1044C300F50875090022E085088285098322A3E0A7
:1044D300F98508828509832274EE1207BF8A0A8B45
:1044E3000BECFEEDFF750F01E9C39408500579004D
:1044F3000246CE8E828F83E9F012493AE960037552
:104503000F0012491E8E828F83124968EE1252FBEE
:10451300EF12495DC0E0EE2411122DC4D0E0124920
:1045230055C0E0EE2412122DC4D0E0123FB8740837
:104533001253B5A3A3A3E06015124906EE2413F5A5
:1045430082EF124BC58E828F83A3E02408F08E8204
:104553008F83A3A3A3A3A3A3A3A3E060218E828F2E
:1045630083A3858208858309124949EE2415F582C0
:10457300EF124BC5850882850983E02408F08E82FB
:104583008F83A3A3A3A3A3E0601A8E828F83A38543
:10459300820885830912492D8E828F83A3A3A3A347
:1045A300A31246F9EE2419123FA5EE241B123FA5D0
:1045B300A3124C09E07003024662EE2419F8EF34AB
:1045C30000F98E828F83A3858208858309E0FAE54B
:1045D3000A2AF582E50B122E94888289831246F902
:1045E300FAE50A2AF582E50B122E94C0E0EE241AAE
:1045F300122DC4D0E01246F988828983E06059F80D
:104603009023AAE493C398500575110C8008EE24F7
:1046130019122E91F5118E828F83A3E0F8E50A28F3
:10462300F50CE50B1246DD120C14E511C333FCE463
:1046330033FD7A627B0C1246D7120C46EE241B1212
:104643002DC47462F0A3740CF0E511C333F885082C
:1046530082850983E0288006EE2418125952F08ED1
:10466300828F83A3E0F88E828F83E0C39850030286
:1046730044F1A3E0FA8A08E50A2508F8E50B3400BB
:10468300F9EE241DF582EF124CD1124709C39AC0EB
:10469300E0EE2417122DC4D0E0124BCE602BEE2493
:1046A30017F8EF3400F9880889098882F583E02434
:1046B300F2124CB2240EFAA3E03400FB8882898301
:1046C300124B001246E7C398F0A90F0243D37D00B3
:1046D300EEFAEFFB1216347403223400F50D750E57
:1046E30000780C2290034EE0F9121EF8E9F88508D1
:1046F30082850983E022F0850882850983E004F03E
:1047030022A3A3A3A3A3F08E828F83E02274F412C7
:1047130007BF8A088B09EA12479EF0EA1313543F36
:10472300124797A3A3A3F0EAC4131312479EA3A3AC
:10473300F0EB1247901247A87409780A120E72120E
:10474300478E1247A7740A780A120E72E50A5401BB
:10475300C0E0EC2418F582ED122DC7D0E01247AD6E
:10476300740B780A120E7212478EA31247A7740CA9
:10477300780A120E7212478EA3A3A3A3A3A3A3A323
:10478300F0740D7808120E720229F3E50A54018CB5
:10479300828D8322540F8C828D832254038C828DCD
:1047A30083A3A322A3A3A3A3A3A3F08A0A8B0B220D
:1047B300C082C08379008A828B83A3A3A3A3A3A30C
:1047C300E090034D600FE070228A828B83A3A3E005
:1047D3007019098016E060138A828B83124F23902D
:1047E3000356E06A7003A3E06B70E70240A474F021
:1047F3001207BF8A0A8B0B890C8C088D0912493A60
:1048030012491E850882850983124968E5081252F8
:10481300FBE50912495DC0E0E5082411F582E509CD
:10482300122DC7D0E0124955C0E0123597122DC79B
:10483300D0E0124CD97408124CF26011124906E50B
:10484300082413124CCD124CD9E02408F0850882B9
:10485300850983A3A3A3A3A3A3A3A3E06017850848
:1048630082850983A3124945E5082415124CCD120C
:1048730047092408F0850882850983A3A3A3A3A37A
:10488300E06019850882850983A3AE82AF8312494C
:104893002D85088285098312470404F0AA08AB0911
:1048A30012117EE9F50D7056850882850983A3A34D
:1048B300A3A3A3A31249117014E0FA8A0EE50A25F3
:1048C3000EF8E50B124BBAE50CC39A802112494549
:1048D300E8240EF8E9124BBA90034EE0F9121EF8E1
:1048E3008E828F83E0F8E50CC39824F2C399C0E06D
:1048F300E5082417F582E509122DC7D0E0F0A90DCC
:104903000252EAE50A2408F8E50B3400F9221249B9
:104913001522E0850882850983A322850A82850BF7
:1049230083A3A312497EE0F9EA22E0F8E50A28F519
:1049330082E50B124BE1228A828B831252EF121112
:104943007822AE82AF83E0F8E50A28F8E50B34005D
:10495300F922124991A3A3A3E022123CF1E81249E0
:104963008AA3A3E022A3A3A3A3A3A3A3A3A312495C
:104973008A12497EA3A3E0F9EAF822E0FA850A82C3
:10498300850B83A3A3A322F0A3E912499122F08507
:104993000A82850B83A3A3A3A322C082C0837AD4F4
:1049A3007B0379E2121E627AD47B030240A4C082A5
:1049B300C0839003560240A1C082C08374FE120CD0
:1049C300C5851882851983AA82AB83794B1249DB8B
:1049D300124F2C740202407A121E628518828519C6
:1049E3008322C082C083794A121E620240A474F6F5
:1049F3001207BF9003DCE0FE04F0EEF91211308BD6
:104A030009EA450970EDEE60EAF9024B3174F012E0
:104A130007BFEAFEEBFF8C088D09890A7410120E9A
:104A2300E3E0F50B7411120EE3E0F50C12125CEAED
:104A33004B7013E50C7042A90AAC08AD09EEFAEF0E
:104A4300FB121274806EE50A6021EA2402F582EB00
:104A5300122E94850A082508F8E4340013E813F0AD
:104A630070098A828B83A3A37401F0E50C6045E58A
:104A73000B70068A828B83E4F07401650C7035E554
:104A83000B9003E37004E4F0802AE004F0900D9DA2
:104A9300E0F89003E3E0C398401AE4F0900359E090
:104AA3006E7003A3E06F700CEEFAEFFB7901120F47
:104AB300CE124ABA0252EA7A017B009003B0E0F9BF
:104AC30012178422C082C08374016A7001EB7007DD
:104AD3007A01124AF18012900D94124B00EA4B6056
:104AE3000512276F8003124ABA0240A47A207B0082
:104AF3009003B0E0F9121688223400F583EAF0A39C
:104B0300EBF022C082C083900D960236A1C082C012
:104B130083900D980236A11256DB22EE240CF58207
:104B2300EF3400F58312409BE84922120C467F02C2
:104B3300020A1FA2F0E433851882851983124B52AF
:104B43007952121E6822124B527942121E6822F0C9
:104B5300AA82AB8322AA82AB831210E27AB37B03CD
:104B63007945121E682274F71207BF74ED120CC543
:104B7300E9FE9003AF124F48124B957412120EE3E5
:104B8300EE124BA2851882851983124B58741302B7
:104B9300516F900D64E0F97AB37B031210E822F0B1
:104BA300900D64E0F97CB37D0322AA08AB0990035E
:104BB300B0E0F912165E223400F9E508241DF582EF
:104BC300E509123CF1E8F0A3E9F0221253B9A3A3DB
:104BD300E022A3F0EE2415124BDE22F582EF34001F
:104BE300F583E022124BEB223400F583E0F8A3E0D7
:104BF300F98882898322E0F8124BFF22A3E0F98E21
:104C0300828F83A3A322F0EE2418123CEE22F0EE4F
:104C13002416123CEE2274F41207BFEAFEEBFF7A6D
:104C2300007B04124ABE124CA8124BC89003657451
:104C330009F012118A8A088B09AC08AD09EE241316
:104C4300122DC4124F2C124DFC640170487A0F12BE
:104C53004C9B60418A828B837402124CB2FAA3E0AC
:104C6300FB8A828B83A3E0FC8A828B83A3A3E0FB72
:104C7300EC850882850983A3A3124B01888289836B
:104C8300124F301244C9124BD5FAA3E0FB794A12F2
:104C93001E68124BAD022E897B001216528A088BB6
:104CA30009EA45092290033612409B900D9822F0A1
:104CB300EE241DF8EF124CBC221241DCE022124C10
:104CC300C5223400F5837401F022F582E509123C14
:104CD300F1E8F0A3E922124CDD22124CE122F08527
:104CE3000882850983A322124CE1A3A3A3A3221262
:104CF3004CEAA3A3E0221251031211E422EE24177B
:104D0300F582EF124CC512118AEE241A123CEEEA18
:104D1300F0A3EBF02274F41207BF74F3120CC589ED
:104D230008EAFEEBFF7C0D7D00790085188285196A
:104D330083AA82AB83121640EE241D122DC4125691
:104D4300CCA3E0F8741F58600A7901121E38790069
:104D5300024DF3E8A2E55008740C120EE37401F05F
:104D6300E8A2E75008740B120EE37401F0E8A2E620
:104D7300740A5008120EE37401F08008120EE3E087
:104D830064017005EE24138003EE241512542B7472
:104D930002120EE3AA82AB83121E50122DC1124ED1
:104DA30001124BC8740A120EE3E064017033122738
:104DB300A2703B1211968A0A8B0BA80AA90BEE2448
:104DC3000B122E91687003A3E069702212118AEA14
:104DD300FCEBFD7402120EE3AA82AB83124DFC605E
:104DE3000D851882851983AA82AB83120FC8A9087F
:104DF300740D022E86EEFAEFFB121E4AE922E01230
:104E03004E0622F8A3E0F98518828519832274F6E9
:104E13001207BF74F3120CC58A088B09ECFEEDFF71
:104E23007C0D7D007900851882851983AA82AB8366
:104E330012587FA3A3A3A3A3A3A3A3A3124E9B12BE
:104E43004EA4F8A2E55008740B120EE37401F0E8C7
:104E5300A2E75008740A120EE37401F0E8A2E6EE2A
:104E6300500424138002241512542B7402120EE3EF
:104E7300124E8DA3A3E0C0E0740C120EE3D0E01237
:104E830050FB120FC2740D024B2EAA82AB83121E6B
:104E93005085088285098322E0124E06E8F0A3E9D3
:104EA30022F0123CEB1256D0A3E02274F71207BF94
:104EB30074E1120CC5EAFEEBFF8E828F83124F3032
:104EC300A3A3A3E0A2E050518E828F831229028A0A
:104ED300828B83A3A3A3A3A3A3E054FE124F488A08
:104EE300828B83124F41E0F98A828B83E0241CFA80
:104EF300A3E0123904124F2C121184E9701B741DA4
:104F0300120EE3124F3B7011851882851983AC8210
:104F1300AD83EEFAEFFB1211D202516D8E828F83B5
:104F2300A3A3A3A3A3A3A3A3A3122E7F22124F344D
:104F3300221256D4A3A3A322123D23640422E02405
:104F43001B1241D522124083AC82AD8322E9F8794A
:104F530000740468600A740A686005740368700169
:104F630009020BF874F61207BF8A828B837420F050
:104F7300A3A37401F0120F6E8A088B09AE08AF0960
:104F8300EE4F60108E828F837401F09003A3E07064
:104F930003124D00EEFAEFFB024B31C082C0839047
:104FA30003C87401F0E9A2E350037403F0E9A2E13A
:104FB3005004E0D2E2F00240A474F61207BF790075
:104FC3007C008A088B0978081209D9F8FF07EF4F8C
:104FD300ED4FED4FED4FED4FE64FEA4FEF4FE34F00
:104FE3000C80097C0480050C80F67C089003C8E0E3
:104FF3005C6003098003EC600109024B3174F61213
:1050030007BF8A828B83E07012A3124B28600C8A3D
:10501300828B83124F2B121F7680047A007B00024F
:105023004B3174F51207BF74F3120CC58A088B0950
:10503300ECFEEDFF750A12EA45097005790002508E
:10504300F4900356E065087004A3E0650970141238
:10505300118AEAFCEBFD124DF87005750A01800315
:10506300750A00851882851983E4F004120EE3E5BE
:1050730008F0A3E5091250FB120F32E9602774030D
:10508300120EE3AA82AB83120F14E9640170167542
:105093000A017403120EE3AC82AD83124DF8602152
:1050A300750A00801C7412650A70169003A2E064EE
:1050B30002700EEEFCEFFDAA08AB09120F4AE9706D
:1050C300DFEEFCEFFDAA08AB09121262E9F8740ADD
:1050D300687005750A01801774A0687012EEFCEF02
:1050E300FDAA08AB0912126EAA08AB09121280A915
:1050F3000A740D025BE774021250FF22125103225D
:10510300124083AA82AB832274F71207BFEAFEEB35
:10511300FF8E828F83A3A3A3A3A3A3A3A3E06015FE
:10512300EE2415122DC4122E6F1211FCE9640170C6
:1051330004790180258E828F83A3A3A3A3A3A3A3B2
:10514300E06015EE2413122DC412515FFAA3E0FBA5
:105153001211FCE9640160D9790080131239F0A3BC
:10516300A3A3A3A3A3A3A3A3E022741F120C467FAC
:1051730001020A1F74F01207BF74FD120CC58A08DE
:105183008B09ECFEEDFF890B7413120EE3E0F50CB3
:10519300750A017401120EE374041257046048E5A2
:1051A3000C601DEA2417F582EB1259551256F28A48
:1051B300828B83E0D2E7F0EA2414F582EB123FA856
:1051C3001252FAEB124BE77403125C78EE88828971
:1051D30083A3A3F0EF88828983A3A3123A9A123A96
:1051E300A1120F68E9F50AA90A74030252E774ECE5
:1051F3001207BF74F5120CC58A0A8B0B890C8C0E2F
:105203008D0F741F120EE3E0F50D7420120EE3E010
:10521300F510A3E0F5117E01EE120EE3740AF0E936
:105223007007E50DC333240AF01253CC7003025206
:10523300CE1253E17409F0A3E50CC43354E0450DD9
:105243001253F3E50C702D7C008023ECC333F8E498
:1052530033F9E51028F8E51139F988828983125268
:10526300DB888289831230E1F0A30EAF830CECC399
:10527300950D40D7E5082417F582E509124CC112B4
:10528300118AE508241AF582E509124AFC7403120F
:105293000EE3AC82AD83AA0AAB0B120F1AE96019B5
:1052A300E5082416F582E5091252D5120EE3A88209
:1052B300A983E5082418124BC18508828509831246
:1052C3005C74AA08AB09120F68E9FEEEF9740B02CD
:1052D30053C4124CC5740322E08E828F83F0A3AEB5
:1052E30082AF8322120C467F08020A1F123D4BF93C
:1052F300EA2400E439FB22EA240BF5822274EE123D
:1053030007BF8A0C8B0D890E8C088D097412120E3F
:10531300E3E0F50F7413120EE31253AD9005EF1291
:105323004B286077E50FC333F8E433F9E8240EFA2A
:10533300E93400FB1216528A108B11AE10AF11EE36
:105343004F60588E828F8374D4F0A3A3E50CF0A32F
:10535300E50D1253B5E50EF0AC08AD09EE2405FAE0
:10536300EF12570DEE240D122DC4E50FF0850A0838
:10537300850B09750A007808120C14E50FC333FC7A
:10538300E433FDEE240EFAEF1253A4120C46EEFAA8
:10539300EFFB9005EF1256CC12093A0243D3FAE51C
:1053A300093400FB121634740322E0F50AA3E0F576
:1053B3000B221253B9221253BD22123FBCA3A3A343
:1053C30022120C467F0C020A1F851882851983AAB4
:1053D30082AB831211E48A088B09EA450922EA2485
:1053E3000BF582EB124BE1FEA3E0FF8E828F83224B
:1053F300F0A3AE82AF83AC0EAD0FEEFAEFFB125407
:105403000522121E5012540C22EE2408FEEF340023
:10541300FF22E0FA8E828F83A3A3E022FEA3E0346F
:1054230000FF8E828F83E022123CEE12543222E080
:10543300FCA3E0FD22122E7F1211722274F71207D1
:10544300BFE9FE7C007D0078007900800D1254FDD9
:10545300E02CFCA3E03DFD125B17125B80502CE8AF
:10546300FAE9FBEA75F012A4FAAFF075F012EBA4B7
:105473002F125B20F460E0125504123C0960D8EE51
:1054830060CB1254FDE4F0A3F080CC780079008067
:105493000D1254DDE02CFCA3E03DFD125B17125B03
:1054A300735030E8FAE9FBEA75F017A4FAAFF07528
:1054B300F017EBA42F125B4F7003A3E0F460DC1230
:1054C30054E4123C0960D4EE60C71254DDE4F0A347
:1054D300F080C8ECFAEDFB0251721254E43BF58301
:1054E30022E8FAE9FBEA75F017A4FA75F017EBA4C2
:1054F3002FFB74032AF582740B221255043BF583A8
:1055030022E8FAE9FBEA75F012A4FA75F012EBA4AB
:105513002FFB74842AF58274092274F61207BFEAFA
:10552300FEEBFF9003C9801388828983E06E7003CA
:10553300A3E06F603A88828983A3A3124B2870E8A3
:105543007A047B001220308A088B09A808A909E88D
:1055530049601C888289831255799003C9124F2CA4
:1055630088828983A3A3124B009003C9124BC802FC
:105573004B318A828B83EEF0A3EFF02274F412078F
:10558300BF7E009003C980070E88828983A3A3127C
:105593004B2870F4EEC333FAE433FB125627607ED4
:1055A3007F009003C980248882898312542EEFC31D
:1055B30033FAE433FBE5082AF582E5093BF583EC8E
:1055C300F0A3EDF00F88828983A3A3124B2870D731
:1055D3009003AB1227DC7003A3E0697808701912FB
:1055E3000C18EEF50A780A120C1C7C777D037900FF
:1055F3009003AB125632801A120C18EEF50A780A91
:10560300120C1C7C777D0379009003AB124F2C1294
:10561300120E7403120C46AA08AB091216D6120F07
:1056230080022E891220308A088B09EA450922124A
:105633002E7F12121422C082C08380128A828B832F
:10564300A3A3123CFC9003C9124BC81216D69003B5
:10565300C9123C0C70E60240A474F61207BF900313
:1056630063123D289003DD1256BB124BC87ADD7BD3
:10567300037950121E689003DD1229FBFAEFFB1227
:10568300127A9003DD123D289005F1124B28602514
:105693007A067B00121652EA4B601A8A828B837455
:1056A300D5F0A3A3E41256E1041256F29005F112C9
:1056B30056CC12093A024B311256BF22E0F8A3E04E
:1056C300F9900363228E828F831256D0221256D40E
:1056D30022E0F81256DA22A3E0F5838882221256DA
:1056E300E5221256E922F08A828B83A3A3A3221216
:1056F30056E5A3EEF0A3EFF022F582EF124BE1F9AA
:1057030022124CF9EA4B22FAE5093400FB121E502F
:1057130022124C00A3A3A3A3A3A3A3229023A2E436
:10572300932401F8E43400F97A027B002274F7121F
:1057330007BF7E008004125D2B0E12584F40F77E88
:1057430000EE12575C74FEF0A304125771E4F00EDE
:10575300EEC3940340EB02517275F003A4F8A9F071
:1057630074CB28F8740339F988828983A3221257EA
:105773007522F0888289832274F71207BF7F008025
:10578300010F90239FE493F8EFC3985026EF12592B
:105793003B6A7003A3E06B70E8125CD86C7003A3E0
:1057A300E06D600A74FF6C700374FF6D70D3125860
:1057B3003880047A007B0002517274F61207BF7CB2
:1057C300FF7DFF7AFE7BFF12123EEA4B70407508A5
:1057D300008036E50875F017A4F8A9F074FD28F5E4
:1057E30082740A12594D600C74FC28F582740A12F3
:1057F300594D701374EE28FE740A39FF8E828F831D
:1058030012595AEEFAEFFB05081258B540C5024B80
:105813003174F41207BF8A088B09ECFEEDFF800B8D
:10582300121250EEFCEFFDAA08AB0912123EEA4B2E
:1058330070EE022E8974EE28FA740A39FB22EE7593
:10584300F017A4F8A9F012594664FE2290239FE4AE
:1058530093F8EEC3982274F71207BFEAFEEBFFEE4C
:105863004F601012587974FEF0A304125C7E14F09A
:10587300A304F00251727C177D0079001216408E4A
:10588300828F832274F71207BFEAFEEBFF750800CD
:105893008018E50875F017A4F8A9F0125CE370030B
:1058A300A3E06F6003125D3305081258B540E302AD
:1058B300517290239FE493F8E508C3982274F6127B
:1058C30007BF12123E8A088B09A808A909E8496094
:1058D3000AE8240DFAE93400FB80047A007B000215
:1058E3004B3174F41207BF8A0A8B0BECFEEDFF7584
:1058F3000800750900802EE50975F017A4F8A9F0D2
:10590300125D1E601EE50912593B650A7004A3E08F
:10591300650B700375080AEEFCEFFD125BDA60039A
:105923004308A0050990239FE493F8E509C3985021
:1059330004E50860C20229F375F017A4F8A9F01270
:1059430059462274EE28F582740A39F583E022F56C
:1059530082EF123CF1E422122E7F121064221257BE
:1059630075A3A3A3A3A3A3A3A32274F21207BF8ABD
:10597300088B09ECFEEDFF740E120EE31253AD75A6
:105983000C007C007D01801012164CE50CF5F0EA4A
:1059930084ACF0750C007D00780079008003125B05
:1059A30017125B734003025A39E8FAE9FBEA75F010
:1059B30017A4FA85F00D75F017EBA4250D125B4FB4
:1059C3007003A3E0F460D7125B2D65087004A3E0B5
:1059D300650960CA125B2D6E7003A3E06F60BF128E
:1059E3005B2D650A7004A3E0650B60B2E8FAE9FB7E
:1059F300EA75F017A4FA75F017EBA4250DFB74FCF8
:105A03002AF582740A125B0E509474016D050C60C2
:105A13008DE50CC39C4087E875F017A4F8AAF075D0
:105A2300F017E9A42AF974EE28F582740A39F5838C
:105A3300124F2C025B0B780079008003125B171264
:105A43005B804003025AF2E8FAE9FBEA75F012A41C
:105A5300FA85F00D125B5F64FE7003A3E0F460DC73
:105A6300125B5565087004A3E0650960CF125B55AE
:105A73006E7003A3E06F60C4125B55650A7004A3E4
:105A8300E0650B60B7E8FAE9FBEA75F012A4FA7572
:105A9300F012EBA4250DFB747D2AF5827409125BC9
:105AA3000E5099E8FAE9FBEA75F012A4FA75F012C0
:105AB300EBA4250D125B2064016081E06402700396
:105AC300025A3F74016D050C7003025A3FE50CC383
:105AD3009C5003025A3FE875F012A4F8AAF075F03F
:105AE30012E9A42AF9747428F5827409025A30E57C
:105AF3000C6011EC700E7401650C600302598B7C11
:105B0300010259967AFE7BFF0227E83BF583E014F6
:105B1300C3940622E8240108E93400F922FB7478CF
:105B23002AF58274093BF583E022E8FAE9FBEA757A
:105B3300F017A4FA75F017EBA4250D125B4222FBB4
