:020000040000FA
:06000000020A1D0201A529
:03002B0002073099
:030043000206EBC7
:030053000200E4C4
:03006B0002082365
:100083000201410101FF01010503010F10FEFF8F72
:10009300128F128F128F124B1145118F12C21F0034
:1000A3000000008620000000000C0000000C00018E
:1000B300FFFF01010200F60500000069066400026B
:1000C3000200100000050203051E02051E020A0AB3
:1000D30002B80B0260EA010278119651180002027D
:1000E30006C0E074F21203BEA2AFE433FED2AFE562
:1000F300A7FFE5A1F5085F54106006121A8D75A1DC
:10010300EFE5085F54086008121A9375A1F780247D
:10011300E508A2E092F0EFA2E082F0501790619818
:10012300E0F8900949E0C398A2D265D0335002E8C1
:10013300F075A1FEEEA2E092AF7F0102041DC0E0C4
:1001430074F21203BEA2AFE433FED2AF9061A4E017
:10015300F8759B00E59158540860087591F7121AD9
:10016300DB8023E59158541060087591EF121AE172
:100173008014E591A2E092F0E8A2E082F05007E05B
:10018300C2E0F0121C259061A3E0F8E5E95854049D
:10019300600E121BFB75E9FB906193E0A2E640F24F
:1001A3008092C0E074F21203BEA2AFE433FED2AF7A
:1001B3009061A5E0F8E5BF585404600675BFFB12D3
:1001C3001C3D020137C3E498F8E499F9120209804F
:1001D30026C3E49AFAE49BFBE920E7E9120209E467
:1001E30098F8E499F922C3E498F8E499F91202091A
:1001F300E498F8E499F9C3E49AFAE49BFB22EB2030
:10020300E7CFE920E7E0B90010BB0008E88AF084F3
:10021300F8AAF022E4FBC8FA22EB70227B10C83361
:10022300C8C933C9335007C39AC3DBF280069A5057
:10023300012ADBEAC833F4C8C933F4C9FA2275F0DA
:1002430008E4C833C8C933C933C99AC99B5004C920
:100253002AC93BD5F0ECFBC833F4C8E4C9FA220839
:100263000808EAC0E0EBC0E086F0E7A4FA180986C4
:10027300F0E7A42AFA180986F0E7A42AFA180986EF
:10028300F0E7A42AFA1986F0E7A4FBE5F02AFA19A5
:100293000886F0E7A42BFBE5F03AFA190886F0E7A5
:1002A300A42BFBE5F03AFA18180986F0E7A4C5F089
:1002B3002BFBE43AFA1908E7C5F0C6A426F6E5F0E5
:1002C3003BFBE43AFA1886F0E7A4F6E5F00826F6D5
:1002D300E43B08F6E43A08F6D0E0FBD0E0FA22E487
:1002E300CFC0E0E4CEC0E0E4CDC0E0E4CCC0E07534
:1002F300F020C3E633F608E633F608E633F608E6FD
:1003030033F6181818EC33FCED33FDEE33FEEF3300
:10031300FFC3EC9709ED9709EE9709EF97191919A0
:10032300400FFFEC97FC09ED97FD09EE97FE1919B5
:1003330006D5F0BEECF709EDF709EEF709EFF7196B
:100343001919D0E0FCD0E0FDD0E0FED0E0FF22257B
:1003530018C582C0E0E51934FFC583C0E0E518C3C2
:10036300958224F810AF0885831985821880088543
:100373008319858218D2AFCEF0A3E520F0A37808C5
:10038300E608F0A3DEFAEFF0A3E58124FAF8E60825
:10039300F0A3E608F0A3E608F0A30808E608F0A334
:1003A300E608F0A315811581D0E0FED0E0F81581B1
:1003B30015811581E8C0E0EEC0E022C0D02518C544
:1003C30082C0E0E51934FFC583C0E0E518C3958218
:1003D30024F310AF08858319858218800885831953
:1003E300858218D2AFC8F0A3E9F0A3EAF0A3EBF03B
:1003F300A37908E709F0A3D8FAECF0A3EDF0A3EE94
:10040300F0A3EFF0A3D0E0F0A3D0E0F0A3D0E0F0AE
:10041300A3E520F0A3E5F0F0A322851983851882D4
:10042300E0C0E0A3E0F9A3E0FAA3E0FBA37808E0CF
:10043300F608A3DFFAE0FCA3E0FDA3E0FEA3E0FFE0
:10044300A3E0C0E0A3E0C0E0A3E0F5D0A3E0F52083
:10045300A3E0A3F5F010AF088583198582188008FF
:10046300858319858218D2AFD082D083D0E0F8D0AB
:10047300E032120A7FB900030204B7E49003017863
:1004830010790D8002F0A3D8FCD9FA900F10AA823C
:10049300AB83900086785F79018015E493A3AC82E7
:1004A300AD838A828B83F0A3AA82AB838C828D83F4
:1004B300D8E9D9E77582597583E074031207CF75BC
:1004C30082CB75831E74001207CFE4730975F01095
:1004D3008E1A8F1B85821F85831E8518828519833B
:1004E300E0CEA3E0CF851F82851E83EBC9EAC8ED6A
:1004F300CBECCAC3E833C8E933C9EA33CAEB33CB1D
:10050300C3EA9EF51DEB9FF51CB35004AB1CAA1D5B
:10051300EC33CCED33CDD5F0DAAE1AAF1B22D0835A
:10052300D082ECC0E0EDC0E0E493A3FCE493A3FD30
:10053300ED4C600D1205F9EC24FFFCED34FFFD805A
:10054300EFE493A3FCE493A3FDED4C600D12069638
:10055300EC24FFFCED34FFFD80EFD0E0FDD0E0FCA8
:10056300E493A3C0E0E493C0E022D083D082E9C047
:10057300E0E493A3C386F0C5F095F0F908E493A3F0
:1005830086F0C5F095F0700BE493A3C3994005E999
:10059300048002A3E475F002A42582F582E5F03518
:1005A30083F583D0E0F9E493A3C0E0E493C0E022B1
:1005B300851983851882E0A3FEE0A3F5207808E07F
:1005C300A3F608DFFAE0A3FFE0A3C0E0E0A3C0E0E6
:1005D300E0A3C0E0E0A3C0E0E0A3C0E010AF088563
:1005E30082188583198008858218858319D2AFD034
:1005F30083D0820207D5C0E0C3E4939608740193C5
:100603009618400FE4936670080874019366187097
:10061300007019A3A3C3E49396087401939618A3D7
:10062300A3400DD0E0D0E0D0E002055DA3A3A3A3D7
:10063300A3A3D0E0227404800474028000CCC0E041
:10064300EDC0E0E518C39CCCAD1950011D10AF06F9
:100653008C188D1980068C188D19D2AF120751D0C2
:10066300E0FDD0E0FC2274028000CCC0E0EDC0E0ED
:10067300E518C39CCCAD1950011D10AF068C188D25
:100683001980068C188D19D2AF12070ED0E0FDD059
:10069300E0FC22C0E0C0F088F0E4936670080874C0
:1006A300019366187000A8F0A3A3700BD0F0D0E0FC
:1006B300D0E0D0E002055DA3A3D0F0D0E022D08348
:1006C300D082CCC0E0E493A360061207721470FAE0
:1006D300E493A360061208B81470FAD0E0FCE49324
:1006E300A3C0E0E493C0E022C0E074F21203BEA210
:1006F300AFE433FED2AFC2C0E5D1A2E45003121A75
:1007030003EEA2E092AF7F0102041DCAC0E0E493AE
:10071300A3C582CCC582C583CDC583F0A3C582CCD6
:10072300C582C583CDC583DAE5D0E0CA22C0E0C067
:10073300D0E8C0E0E9C0E0E5A8D2AFC2C7A2E7A213
:10074300E792AFD0E0F9D0E0F8D0D0D0E032CAC021
:10075300E0E0A3C582CCC582C583CDC583F0A3C524
:1007630082CCC582C583CDC583DAE6D0E0CA22C078
:10077300E0E493A3D39C5010E493A3C39C400AD01A
:10078300E0D0E0D0E00206DEA3A3A3D0E022C008BD
:10079300C3E096F50808A3E096420808A3E0964252
:1007A3000808A3E09645087001D3D0082270090811
:1007B3000808226016181818C6C333C608C633C6FD
:1007C30008C633C608C633C6D5E0EA22C09FF59FE4
:1007D300E473D09F22D083D082C09FE493C0E0749F
:1007E3000193C0E0740293F59F227404800A74039A
:1007F3008006740280027401C0E0F404120808D079
:10080300E0120A5A222518F58210AF08F5184002A3
:1008130015198008F51840021519D2AF85198322DE
:10082300C0E074F21203BEE589A2E7500312196D0A
:10083300758900C2E87F0102041DBB0102E722C0E3
:1008430082C08389828A83BB0003E08002E493D061
:1008530083D08222C0D0251810AF08F518500205A6
:10086300198008F51850020519D2AFD0D0226016AE
:10087300080808C6C313C618C613C618C613C61875
:10088300C613C6D5E0EA22C3E0C696F608A3E0C6BF
:1008930096F608A3E0C696F608A3E0C696F62225C8
:1008A3001810AF08F518400215198008F518400212
:1008B3001519D2AF22C0E0E493A36C7009D0E0D045
:1008C300E0D0E00206DEA3A3D0E022C3E09608A3B3
:1008D300E09608A3E09608A3E096A2D265D033225F
:1008E300E066701008A3E066700A08A3E06670046F
:1008F30008A3E06622E76670100809E766700A0835
:1009030009E76670040809E76622C3E096F008A3C6
:10091300E096F008A3E096F008A3E096F022E02624
:10092300F008A3E036F008A3E036F008A3E036F0C1
:1009330022E627F60809E637F60809E637F6080936
:10094300E637F622E026F608A3E036F608A3E036FB
:10095300F608A3E036F622C0E0E8C0E0E58124FC17
:10096300F8E6A2E7D0E0F8D0E022700422600D1888
:10097300C6C333C608C633C6D5E0F41822E657F615
:100983000809E657F60809E657F60809E657F62276
:10099300E056F608A3E056F608A3E056F608A3E0EF
:1009A30056F622E056F008A3E056F008A3E056F00E
:1009B30008A3E056F022E647F60809E647F60809D9
:1009C300E647F60809E647F622E4C396F608E496F6
:1009D300F608E496F608E496F622C3E7960809E7D4
:1009E300960809E7960809E79622C6F4C608C6F4EE
:1009F300C608C6F4C608C6F4C622600D08C6A2E738
:100A030013C618C613C6D5E0F322C3E09608A3E0C5
:100A13009608A3E09608A3E0962275D0007581405E
:100A230075180175190300020475E0F608A3E0F6D2
:100A330008A3E0F608A3E0F622600C08C6C313C6B9
:100A430018C613C6D5E0F422E6F008A3E6F008A31F
:100A5300E6F008A3E6F022CAC0E0E6F0A308DAFA5B
:100A6300D0E0FA22E0FAA3E0FBA3E0FCA3E0FD223E
:100A7300EAF0A3EBF0A3ECF0A3EDF022E5C754F802
:100A83004401F5C77901222518F582E43519F58368
:100A930022C2AF75D69F020000221207D823E402B8
:100AA3001207D841E4021207D8D522001207D8E76B
:100AB30022001207D83923001207D89A23001207FD
:100AC300D82424001207D8C824001207D81C2500F4
:100AD3001207D83525001207D85B25001207D896D0
:100AE30025001207D8DA25001207D80126001207BD
:100AF300D85226001207D80227001207D8BA2700B7
:100B03001207D88228001207D84229001207D88674
:100B130029001207D8AB29001207D8EE29001207C3
:100B2300D83B2A001207D8932B001207D8192C00A0
:100B33001207D8372C001207D8612C001207D87B74
:100B43002C001207D88A2C001207D8952C00120704
:100B5300D8552D001207D8AE2D001207D8702E00DD
:100B63001207D8782E001207D83C2F001207D8A8F6
:100B73002F001207D8D330001207D8F8300012071D
:100B8300D86E31001207D80032001207D8C03200E5
:100B93001207D8DF32001207D8EE33001207D8004D
:100BA30034001207D87034001207D89A34001207A1
:100BB300D82835001207D86135001207D8AD3500A3
:100BC3001207D8C936001207D81239001207D81DE8
:100BD30039001207D82839001207D8333900120711
:100BE300D83D39001207D84839001207D8623900B6
:100BF3001207D86C39001207D87639001207D8814A
:100C030039001207D8A939001207D8043A0012078D
:100C1300D80E3A001207D8323A001207D8563A00D3
:100C23001207D8B43A001207D8F83A001207D814BA
:100C33003B001207D88B3B001207D8C33B001207B7
:100C4300D80F3C001207D86C3C001207D8263D0091
:100C53001207D80A3F001207D8633F001207D89340
:100C630040001207D8B940001207D84242001207C9
:100C7300D8BE45001207D89047001207D85949003B
:100C83001207D8064A001207D8714B001207D81072
:100C93004C001207D8554C001207D8BF4C0012075E
:100CA300D8CE4C001207D8554F001207D807510071
:100CB3001207D87451001207D85352001207D86C88
:100CC30053001207D8E954001207D8085500120739
:100CD300D85D55001207D86256001207D88A56000D
:100CE3001207D8E256001207D8C157001207D805D9
:100CF30058001207D85058001207D8BB58001207E3
:100D0300D8FC59001207D8605A001207D8AE5B000E
:100D13001207D80E5E001207D83F5E001207D8F7FD
:100D23005F001207D84C60001207D8506100120709
:100D3300D8ED61001207D84662001207D8F96200A5
:100D43001207D89B63001207D83B64001207D8E050
:100D530064001207D88580011207D8C480011207E6
:100D6300D80B83011207D85583011207D870840169
:100D73001207D8D884011207D80D85011207D8812C
:100D830086011207D80489011207D82D8A01120798
:100D9300D8C38A011207D8CB93011207D8609401F4
:100DA3001207D84797011207D83A98011207D8A813
:100DB30098011207D8EE99011207D8D09A011207A9
:100DC300D8B59C011207D8C69E011207D8309F01DF
:100DD3001207D802A0011207D830A0011207D8EDDC
:100DE300A0011207D8C4A1011207D88BA2011207D0
:100DF300D82FA3011207D858A3011207D87AA30149
:100E03001207D8D0A5011207D8A8A6011207D8EC5B
:100E1300A6011207D854A7011207D80CA80112077C
:100E2300D83EA8011207D882A8011207D8B8A80192
:100E33001207D804A9011207D859A9011207D85ECD
:100E4300A9011207D8B1A9011207D8D6A90112071F
:100E5300D8E5AA011207D849AB011207D8B9AB01EB
:100E63001207D845AC011207D812AF011207D8F602
:100E7300AF011207D879B1011207D8AFB301120736
:100E8300D85DB4011207D80DB5011207D84EB701CA
:100E93001207D8F1B7011207D838B8011207D8E4FE
:100EA300B9011207D8F8B9011207D802BA0112071B
:100EB300D82ABA011207D836BA011207D855BA018F
:100EC3001207D875BC011207D8C4BD011207D80890
:100ED300BE011207D8B0BE011207D893BF01120793
:100EE300D83EC0011207D88AC1011207D888C201AF
:100EF3001207D82EC3011207D8BEC3011207D8D5D3
:100F0300C3011207D80CC4011207D816C401120773
:100F1300D821C4011207D83FC4011207D883C401E2
:100F23001207D8E0C4011207D805C5011207D81F5C
:100F3300C5011207D8ABC5011207D8C8C6011207ED
:100F4300D835C7011207D81CC8011207D843C801F6
:100F53001207D8B7C8011207D832C9011207D83609
:100F6300CA011207D82CCB011207D8DBCB01120719
:100F7300D8EECC011207D88ACD011207D817CE01BB
:100F83001207D8F5CE011207D82DCF011207D88545
:100F9300CF011207D84ED0011207D86FD001120724
:100FA300D8F6D0011207D81AD1011207D83CD101C3
:100FB3001207D885D1011207D89BD3011207D88213
:100FC300D4011207D833D5011207D869D701120704
:100FD300D8B9D7011207D8F9D7011207D83BD801DE
:100FE3001207D897D8011207D8C5D8011207D8E934
:100FF300D8011207D83CD9011207D86AD9011207C0
:10100300D8A3D9011207D8F8D9011207D85EDA019B
:101013001207D8B2DB011207D8D5DD011207D84277
:10102300DE011207D86BDE011207D8F6DE011207C4
:10103300D85DDF011207D8A8DF011207D8CCDF0182
:101043001207D8F0DF011207D84BE0011207D86668
:10105300E0011207D81FE1011207D80BF8031207AA
:10106300D84AF8031207D87880021207D8BE800244
:101073001207D89E81021207D8A082021207D8A3B2
:1010830083021207D82F85021207D88D8502120713
:10109300D84A86021207D86887021207D8D987026E
:1010A3001207D81588021207D86388021207D86D71
:1010B30088021207D8B188021207D80D89021207D5
:1010C300D8A889021207D8258A021207D8F48A02FF
:1010D3001207D88D8B021207D8AD8B021207D8E303
:1010E3008B021207D8148C021207D8D58C02120770
:1010F300D8E58C021207D8398D021207D8548D0215
:101103001207D8668D021207D86F8D021207D8C94D
:101113008D021207D8258E021207D8718E0212078C
:10112300D88C8E021207D8BD8E021207D8DA8E022F
:101133001207D8E68E021207D85A90021207D87304
:1011430090021207D8DA90021207D8ED9002120724
:10115300D8FB90021207D8AF91021207D8939202DC
:101163001207D89993021207D82394021207D82D95
:1011730094021207D89A94021207D8B19402120764
:10118300D8E394021207D81C95021207D846950299
:101193001207D8A795021207D8C795021207D8E5F8
:1011A30095021207D82B96021207D85197021207FD
:1011B300D89E97021207D8CD97021207D8439802F8
:1011C3001207D86B98021207D8A498021207D8B254
:1011D30098021207D80A99021207D85999021207DE
:1011E300D89899021207D8C899021207D8F499021D
:1011F3001207D8FF99021207D81D9A021207D8DFE7
:101203009A021207D8E99A021207D82A9B021207F8
:10121300D87F9B021207D8939B021207D8A19C0286
:101223001207D8B49C021207D8C99C021207D86BC4
:101233009D021207D8EE9D021207D8AC9E02120738
:10124300D8B79E021207D8E39F021207D8FF9F0266
:101253001207D851A0021207D890A0021207D8A5EE
:10126300A0021207D807A1021207D896A1021207FB
:10127300D8E1A1021207D832A4021207D8B0A402FF
:101283001207D825A5021207D847A7021207D85F6D
:10129300A7021207D862A7021207D86EA702120785
:1012A300D882A7021207D88AA7021207D8BDA702BD
:1012B3001207D86DA8021207D8E3A8021207D8565E
:1012C300A9021207D80AAA021207D8BFAA02120754
:1012D300D8DEAA021207D884AB021207D8AFAB023A
:1012E3001207D8B2AB021207D81CAC021207D844BB
:1012F300AD021207D81CAE021207D8A7AE0212071E
:10130300D8C0AF021207D87DB0021207D8B6B00218
:101313001207D8E7B0021207D8A5B1021207D8D531
:10132300B1021207D8B0B2021207D849B3021207AA
:10133300D8D4B3021207D885B4021207D808B5026D
:101343001207D83AB5021207D87BB5021207D88321
:101353008D031207D8E48D031207D8218E031207D9
:10136300D8748E031207D8AB90031207D87B92036D
:101373001207D8EA95031207D82196031207D83F1C
:1013830096031207D8B596031207D8DD9603120702
:10139300D80E97031207D83E97031207D89A9703DC
:1013A3001207D8EEF3021207D86CF4021207D8A280
:1013B300F4021207D80EF5021207D881F6021207BB
:1013C300D89DF6021207D8E2F6021207D86FF70289
:1013D3001207D8C8F7021207D8F4F8021207D80286
:1013E300FA021207D85FFA021207D8CBFA021207E1
:1013F300D82CFB021207D86DFB021207D81AFC0285
:101403001207D8B9D7021207D86FFD021207D8BD49
:10141300FD021207D8F4FD021207D897FE02120745
:10142300D852FF021207D8E7F4031207D890EA0351
:101433001207D89EEA031207D8EFEA031207D8343B
:10144300EB031207D8DCEB031207D8AAF103120748
:10145300D8EDE5031207D845E7031207D8EFE202F8
:101463001207D894E7031207D8B5E7031207D8ABDE
:10147300E8031207D8D5E8031207D8F2D3031207FB
:10148300D86BD4031207D876D4031207D897D403A2
:101493001207D82379001207D82D79001207D879BB
:1014A30079001207D8E779001207D8087A001207E3
:1014B300D8B87A001207D8C17A001207D8147B0073
:1014C3001207D83D7B001207D89B7B001207D82C4C
:1014D3007C001207D8687C001207D8B47C0012077E
:1014E300D81B7D001207D8547D001207D8DA7D007F
:1014F3001207D8197E001207D85A7E001207D89116
:101503007E001207D8A37E001207D8B57E0012070B
:10151300D8D47E001207D8DD7E001207D8957F004D
:101523001207D8D57F001207D89DF2031207D827D8
:10153300DE031207D85DDE031207D8A8DE03120705
:10154300D8F6DF031207D82C65001207D877660098
:101553001207D8B366001207D86A68001207D89337
:1015630068001207D82B6B001207D86B6B001207A9
:10157300D80C6D001207D8A66D001207D80E6E00A6
:101583001207D89B6E001207D8D36E001207D81328
:101593006F001207D8A670001207D8457200120711
:1015A300D89474001207D8C274001207D8EE7400DE
:1015B3001207D8F774001207D87575001207D89E62
:1015C30078001207D8F6F8031207D80CF9031207AC
:1015D300D891CD031207D8A6CD031207D843CE0363
:1015E3001207D87FCE031207D896CE031207D8BDB1
:1015F300CE031207D802CF031207D833CF03120743
:10160300D86BCF031207D8F3D0031207D86EF703B2
:101613001207D83DF4031207D873F4031207D88FC7
:10162300F4031207D8D1F4031207D8DDF403120729
:10163300D894A8031207D8A7A9031207D8F1AA03BD
:101643001207D8AAAB031207D8F9AB031207D89D28
:10165300AC031207D85EAD031207D870AD031207AF
:10166300D82AAE031207D89EAE031207D82AAF03B7
:101673001207D80080031207D85580031207D841F8
:1016830081031207D8E381031207D82D82031207BF
:10169300D88E82031207D8A282031207D8D48203FA
:1016A3001207D8D283031207D86184031207D878AC
:1016B30084031207D8C384031207D8D984031207FB
:1016C300D8E684031207D81A85031207D83A85038C
:1016D3001207D8D585031207D82F86031207D8829D
:1016E30086031207D8B386031207D8228903120789
:1016F300D85389031207D8EE89031207D86C8A03DB
:101703001207D8718A031207D8AD8A031207D806C5
:101713008B031207D8CA8B031207D8F48B03120763
:10172300D8FE8B031207D8018C031207D8898C03C8
:101733001207D8B28C031207D8C58C031207D8003E
:101743008D031207D8038D031207D80E8D031207DA
:10175300D84A8D031207D8BEF7031207D8D6F7036A
:101763001207D83DA1031207D88CA1031207D83B57
:10177300A3031207D800A5031207D844A503120731
:10178300D831A6031207D862A7031207D884A70388
:101793001207D8E0A7031207D864A8031207D85981
:1017A300E1011207D87AE1011207D8F7E101120724
:1017B300D87DE2011207D8F9E2011207D862E301EA
:1017C3001207D8AAE3011207D834E4011207D8C9D3
:1017D300E4011207D85CE5011207D89DE501120761
:1017E300D801EA011207D88FEB011207D821EC01C7
:1017F3001207D86AEC011207D88CEE011207D82F12
:10180300F1011207D8FFF1011207D82DF3011207D6
:10181300D891F6011207D8A1F6011207D8E7F7010C
:101823001207D88DF8011207D89DF9011207D83F86
:10183300FA011207D838FB011207D8BBFB011207C4
:10184300D868E4021207D824E5021207D8A1E502FA
:101853001207D863E6021207D8CFE6021207D89C14
:10186300E9021207D83DEA021207D8A1EA021207D9
:10187300D837EC021207D8EFEC021207D869ED0251
:101883001207D86CEE021207D802F0021207D81220
:10189300F1021207D8B7F1021207D888F202120731
:1018A300D82ECA031207D87ECA031207D8DACA038E
:1018B3001207D825CB031207D880CB031207D8FB16
:1018C300CB031207D890CC031207D8D4CC0312074A
:1018D300D8EACC031207D845CD031207D882CD032B
:1018E3001207D864E2031207D895E2031207D84F10
:1018F300E3031207D8B5E3031207D8D8E0031207AE
:10190300D872F3031207D883F3031207D823F4031F
:101913001207D83EE4031207D84CE4031207D83465
:10192300F9031207D82DF6031207D83DF603120761
:10193300D858F6031207D8B9F6031207D8A6F0034E
:101943001207D82BF1031207D891F1031207D8F924
:10195300EB031207D818EC031207D86EEC03120737
:10196300D883EC031207D8D1EC031207D82FED0369
:101973001207D800D1031207D815D1031207D8379D
:10198300D2031207D89AD2031207D8B2D20312078E
:10199300D8D9D2031207D8EDD2031207D806D3033E
:1019A3001207D825D3031207D849D3031207D86CDB
:1019B300D3031207D8BDD3031207D810C3031207EA
:1019C300D81EC3031207D898C3031207D87CC403D5
:1019D3001207D835C6031207D8D4F8031207D8C79D
:1019E300AF031207D834B0031207D8F5B0031207B8
:1019F300D865B1031207D870B2031207D8F1B30345
:101A03001207D855B4031207D8AAB4031207D8B3E0
:101A1300B4031207D8C2B4031207D8D5B40312070C
:101A2300D8EBB4031207D8F4B4031207D807B503ED
:101A33001207D85CB5031207D858B7031207D88A20
:101A4300B7031207D8ACB7031207D8C5B7031207F9
:101A5300D8DEB7031207D8E8B8031207D883B9034F
:101A63001207D825E9031207D849E9031207D862F8
:101A7300E9031207D8A1E9031207D8D4E90312072F
:101A8300D804EA031207D86CEA031207D86FEA03F3
:101A93001207D879EA031207D886EA031207D8C3D4
:101AA300D6031207D8EBD6031207D82CD703120795
:101AB300D83ED7031207D859D7031207D8C1D70383
:101AC3001207D8CDD7031207D82CD8031207D85042
:101AD300D8031207D811D9031207D81ED903120746
:101AE300D82FD9031207D898F8031207D8B5F803EB
:101AF3001207D806BA031207D866BB031207D86CBD
:101B0300BB031207D883BB031207D8A4BB03120776
:101B1300D8BABB031207D8CEBB031207D84DBC03F8
:101B23001207D8B2BC031207D848BD031207D82145
:101B3300BE031207D831BE031207D840BE031207F3
:101B4300D894F5031207D8B8F5031207D8E0F503C4
:101B53001207D808F6031207D85DD9031207D884F1
:101B6300D9031207D8A5D9031207D817DA03120726
:101B7300D8C9DB031207D8E2DB031207D8F9DB036A
:101B83001207D802DC031207D820DC031207D82A75
:101B9300DC031207D834DC031207D847DC0312072F
:101BA300D89CDC031207D8D5DC031207D803DD0366
:101BB3001207D854DD031207D8A0DD031207D8BBE0
:101BC300DD031207D8C5DD031207D8D6DD031207DC
:101BD300D81CDE031207D81DF7031207D8E69703B4
:101BE3001207D81298031207D83098031207D84364
:101BF30098031207D85E98031207D8BD98031207FB
:101C0300D8EB98031207D8FA9C031207D83F9E0318
:101C13001207D8719E031207D8DD9E031207D82638
:101C2300A0031207D84EA0031207D863A00312071C
:101C3300D873A0031207D8B3A0031207D8FFA003D9
:101C43001207D80FA1031207D84FED031207D85F6D
:101C5300ED031207D87DED031207D898ED031207A1
:101C6300D8BFED031207D8E0ED031207D8FAED034E
:101C73001207D832EE031207D855EE031207D854D1
:101C8300F8031207D89AC6031207D8A1C60312078E
:101C9300D8BEC7031207D8EEC7031207D814C80368
:101CA3001207D847C8031207D859C8031207D89593
:101CB300C8031207D8FBC8031207D837C903120792
:101CC300D87EC9031207D8ABC9031207D8CCC903FE
:101CD3001207D89AEF031207D8B2EF031207D8A05E
:101CE300F0031207D8A3F0031207D887EE031207F5
:101CF300D8F9EE031207D837EF031207D878EF03AA
:101D03001207D84BFC011207D86AFC011207D8B995
:101D1300FC011207D8D5FC011207D806FD011207F2
:101D2300D813FD011207D820FD011207D808FE01C0
:101D33001207D846FE011207D859FF011207D864CB
:101D4300FF011207D876FF011207D87FFF011207A0
:101D5300D889FF011207D871BE031207D898C203AE
:101D63001207D8A6C2031207D8C9FF021207D81652
:101D7300F9031207D882D6021207D8D6D502120762
:101D8300D81CD4021207D8CCD1021207D853D102DF
:101D93001207D8FAD0021207D88AD0021207D861E4
:101DA300D0021207D841CE021207D80DCE02120775
:101DB300D8DACD021207D8BECD021207D8D7CC028B
:101DC3001207D88FCC021207D8DACA021207D85AE0
:101DD300CA021207D857CA021207D858C9021207F3
:101DE300D826C9021207D863C8021207D88EC602C2
:101DF3001207D81FC6021207D84CE2021207D8FFF7
:101E0300E0021207D8AADE021207D840DE02120748
:101E1300D8F8DD021207D8F1C5021207D8EEC502C1
:101E23001207D8DBC5021207D886C5021207D86A83
:101E3300DD021207D875C5021207D867C40212075C
:101E4300D831C4021207D8DFC3021207D85DDD02FE
:101E53001207D8C3F6031207D880C3021207D84F5C
:101E6300C3021207D817C0021207D8D7BF0212073E
:101E7300D8CBBF021207D82BBF021207D86BBE0202
:101E83001207D8EDBB021207D87EB9021207D83C5D
:101E9300B9021207D810B8021207D8C5B702120741
:101EA300D804B7021207D8D7B6021207D81AB60257
:101EB3001207D8B0B5021207D8EAB5021207D857ED
:101EC300DA021207D82CFD0200000080FB00013665
:101ED30036010100010201000103010001040106B2
:101EE3000605020000070100340801000F09040180
:101EF300010D0100FF0E0800001702000019010088
:101F0300FF1A0100011B0100FE1C0100081D020055
:101F1300001F010001200100012102000023010034
:101F23000F240200002601000127010008280200F7
:101F3300FF2A0100072B0102402C0100002D0100A4
:101F4300012E0100012F0100FF30010B1C3108009D
:101F5300003A0100083B01000F2F0100000302714A
:101F630002300160021102700201020202020280C9
:101F730002100261023A00410063027302720262BC
:101F8300024302000213023800000200020402129C
:101F930002000200020002000204020402370037BA
:101FA300003C024402000239000002000265020004
:101FB300023502810200020502820283020002034B
:101FC30000710030016000110070003102200350E5
:101FD30004800010006100000014006300730072AD
:101FE300006200430000001300060000000000042C
:101FF300001200000000000000000004000400378D
:102003000037003C024400000000000000000065AF
:10201300000000350081000000050000008300007F
:102023000003047104020460041104700402040236
:10203300040104020410046104000414046304731F
:10204300047204620443040004130406040004003D
:102053000404041204000400040004000451046492
:10206300000004000400044404000400040004000D
:10207300046504000435048104640005040004833A
:1020830004000401037103010301030103010301BC
:1020930003220302030103100300030003000300F0
:1020A30003000300030003420300032403060300A9
:1020B300030003040312032503230325032303045B
:1020C300030403000300030003440300030003238A
:1020D30003000365032100350381030003050300A7
:1020E3000300030003010171010101010111010159
:1020F300013101010101018001100161013B001463
:1021030000630173017201620143010001130106BF
:10211300013D01350004011201000100010001002D
:102123000104010401330133013C0144013201364E
:102133000000010001650100013500810100010576
:102143000182018301000136000100060000000F37
:102153000000000000000000000000000003FFFF7B
:1021630000000403FFFF0000FFFF0FF4010005C49C
:10217300040320000100000B000000000000000029
:1021830003010F000059181300F317010059180237
:1021930000BD170300C3170400C9170500CF1706B6
:1021A30000DB17FFFF0000019D0D06CD0D08C70DD5
:1021B3000BD90D10190D02A30D05BB0D07A90D0CAD
:1021C3007F0D0D910DFF000003EAF5E5D5D5C5B5EB
:1021D300A5959585857575656555554545353525AC
:1021E30025151505A511D511AB11B111CF11C311CA
:1021F300BD11DB11E111E711F311B7119F11991112
:1022030000160F00000B150B020002220F32000014
:10221300068F12A112A7126F11AD1269117511A9C0
:1022230010A310DF10E510D9109110E91207130D58
:1022330013EF12FB12F512303016181920231A1C53
:102243001E300C0E020B040B0A0708000F00383C6B
:102253003E363B3B352B432C303017181921301BAE
:102263001D1F30000119161816161523030000034D
:102273004948424D1817250502DD12B312B912C59C
:1022830012BF12C911ED110113F911FF110204025A
:10229300010101010902B510BB10AF10EB100000E2
:1022A30000000000C110D31000BE040A0E00150088
:1022B30004007F00E8030C0028000000000003086E
:1022C300100C0A03080900040001FF1E1E0C05047C
:1022D3000F08C082C0838A828B83E0D2E7F0121793
:1022E3002102344CC082C08379001227A11254B852
:1022F300C082C08390033412423ED083D082C3E0B5
:102303009CA3E09D500C125B8CFAA3E0122318608F
:10231300010902344CFBEA75F00BA4FAA8F075F03E
:102323000BEBA428FB900336E02AF8A3E03B88825A
:10233300F583E0540F2274F712035289081227A180
:10234300122847ACF075F00BE9A42CF9900336E0A2
:1023530028FEA3E039FF740165086006740265086E
:1023630070208A828B8312283312351A740265080F
:10237300701B1226F212287A70138E828F83E4F078
:10238300800BEA2403FCEB122815122821EEFAEF46
:10239300FB120AA902348474F41203521264B3794F
:1023A300008E828F83E06076890A890B8065E50A57
:1023B30075F00BA4FAA8F075F00BE50B122325704A
:1023C30046E50A75F00BA4F8AAF075F00BE50B12BD
:1023D30028598E828F83E085088285098312293BE1
:1023E300850882850983A312351AEE2403FCEF12B4
:1023F300281E123453124F32AA08AB09120AA979C4
:1024030001900334124947E50A2401F50AE50B3428
:1024130000F50B1226FAE50A9AE50B9B409002366B
:10242300C474F5120352EAFEEBFF740B120A8A120C
:102433003458750A01EC4D602BEC1264CFED125445
:10244300B81235127901120AB5E5084509606F859E
:102453000882850983A31264BD7902AA08AB091215
:102463000AB5805AE5084509602B1254BC123B8615
:10247300123454122864700CEEFAEFFB120ABBE913
:10248300F50A80CBEE2403FA12279C70317903EE10
:10249300FAEFFB80CA8E828F83A3E064FE7003A3EE
:1024A300E0F4700BEE24030A0A0A12279C700CEE68
:1024B300FAEFFB120ABBE9F50A8003750A00A90AC1
:1024C3007F030205B374F71203529003341234945A
:1024D300EA4B602FEA75F00BA4FAA8F075F00BEB4A
:1024E300A428FBEAFEEBFF12153B9003361234944B
:1024F30090033612478C6012EEFCEFFD7900121444
:10250300A58007900336E4F0A3F0023484900334EB
:10251300123EF6C3EE98EF9922C082C083EC4D6061
:1025230005121CFD80097C087D0079001214A502A8
:10253300344C74F61203527900EA4B601878008821
:10254300081257FFEB125B8860047901780808E8EA
:10255300C3940840EA02352374F712035274F3124A
:1025630008A2ECFEEDFF851882851983E4F00412BE
:102573000A8AEAF0A3EB124CB87403120A8AAC82FB
:10258300AD83EEFAEFFB120ACDEEFAEFFB120AD39C
:1025930002347F74F712035274F31208A2ECFEEDB7
:1025A300FF851882851983E4F0EAFCEBFD740312BE
:1025B3000A8A1229347401120A8A12350E8E828F06
:1025C3008312351A74FE68700374FF69600479011D
:1025D3008002790002347F74F7120352EAFEEBFFA4
:1025E30012263870141226438E828F83E0F4F88A01
:1025F300828B83E058F0120AA9A90802348474F785
:10260300120352EAFEEBFF7508008E828F83E060AF
:1026130022122638701D1226438A828B83E08F8311
:102623008E82F8E058700CE0F88A828B83E048F0E1
:10263300120AA980C4120AAFE9F5087401650822D9
:102643001264C812284B12278DFAA3E039FB2274B7
:10265300F41203528A088B097C007D001226F212C1
:1026630028211227B21264BA79008508828509836A
:10267300A3E064FE7003A3E0F460717E007F00803A
:1026830062EEFAEF1223186057EEFAEFFBEA75F0E9
:102693000BA4FAA8F075F00BEBA428FB900336E02B
:1026A3002AF50AA3E03BF50B850882850983A3126B
:1026B3004C06850A82850B83A3E06A7003A3E06B53
:1026C300701EE50A2403FAE50B12279D700AE50A3A
:1026D3002403FCE50B12281E1227A679011254CEFF
:1026E3001230911226FAEE9AEF9B40950236C4EA15
:1026F30024030A0A0AEB229003341250A5C322745E
:10270300F31203528A088B098A828B83A31264BD56
:102713001227A11264BA750C001226F212279D70BB
:10272300547E007F00804912277FFAA3E0398A8212
:10273300F583E0540F603612277FF50AA3E039F5DD
:102743000BE50A2403FCE50B1228283400FB121CBA
:10275300F7E964017017850A82850B83A31251661A
:10276300A312351A1227A6750C011254CE123091FA
:1027730012251040B2A90C7F050205B3EEF8EFF95C
:10278300E875F00BA4F812278D22AAF075F00BE977
:10279300A42AF9900336E02822EF12287422126447
:1027A300CEEB221227B21254C9EEF0A3EFF022E5CA
:1027B300081264CFE5092274F5120352EAFEEBFF17
:1027C3008E828F83A31264BD7C007D00EE24030AF6
:1027D3000A0AEF122821EEFAEFFB120AAFE9F50A13
:1027E3007401650A70291264C8122847AAF075F0AB
:1027F3000BE9122859850882F583122833122864BD
:10280300700DE5082403FCE509122815122821029E
:1028130024C13400FDEE2403FAEF221228283400E9
:10282300FB120ACD223400FDE5082403FAE5092250
:10283300A31228382212283C22E0F8A3E0F98E8262
:102843008F83A32212284B223400F583123EFAE829
:1028530075F00BA4F822122793F508A3E039F509C4
:1028630022E8F0A3E9F0E5082403FAE50912287445
:102873002212287A6401223400FB120AD3E922745B
:10288300F312035274E61208A21264B3750C0175B5
:102893000800750900750A00750B008518828519F3
:1028A30083E4F0EE2403FCEF3400FD7403120A8A80
:1028B300122934E964017023740B120A8A12351247
:1028C3007401120A8A124C0A7003A3E069605185ED
:1028D3001882851983858208858309740D120A8AF3
:1028E300E412293B740E120A8A12351A740D120A65
:1028F3008AAA82AB83120AF1E96401700B740D1288
:102903000A8A85820A85830B780A1207F5AC08AD1B
:1029130009EEFAEFFB120AC17402120857E9F50C2B
:10292300EEFAEFFB120AEBA90C741A1208570227EE
:102933007A122C07120AF72212348F123EF622C0A3
:1029430082C083780079008003122A321226FAE8C3
:102953009AE99B5029E8FAE9FBEA75F00BA4FAAC73
:10296300F075F00BEBA42CFB900336E02AFCA3E0FC
:102973003B8C82F583E0540F70CF7900800279019C
:1029830002344CC082C0839022B1123F4CEC75F0EC
:1029930012A4FCA8F075F012EDA428FD79FF7AB813
:1029A3007B091214A502344C74F7120352E9FEEAB0
:1029B300FF7A007B00780079008028E8FCE9FDECD1
:1029C30075F012A4FC85F00875F012EDA425081229
:1029D3002E47C39E400AE0FCEFC39C4003122F66C0
:1029E300122A32122E3B40D3023484C082C0837831
:1029F3000079008003122A32122A26501F122E4B0E
:102A0300F470F2E875F012A4F8AAF075F012E9A4D4
:102A13002AF974B828FA740939FB80047A007B0018
:102A230002344C9022B1122EFCC3E89AE99B22E8AF
:102A3300240108E93400F92274F012035274F312EA
:102A430008A28A0A8B0B8C0C8D0D8908EC450D604E
:102A530016AA0CAB0D120B458A0E8B0FAE0EAF0FE1
:102A6300EE4F6003022AF9120B1B8A0E8B0FA80E7E
:102A7300A90FE8FEE9FFE849607C9022BF122B5BB7
:102A830060227403650860067404650870167A048E
:102A93007903120B159022BF122B7240077A007B29
:102AA30000022B589022BD122B5B601B740165083A
:102AB300600674026508700F7A027901120B159093
:102AC30022BD122B7250D68518828519837401F0AA
:102AD300120A8A124F32AC0CAD0D7403120A8A1219
:102AE3002C00740B120A8A1234601238FAE4124F63
:102AF3001A120FE98004EE4F604A780074FF25082C
:102B0300C39404500278048E828F83124F328E82D4
:102B13008F83A3A3A3A3E508F0E88E828F83A3A3E7
:102B2300A3A3A3124F3A120201122F138E828F8393
:102B3300A3A3A3A3A3A3A3F0122F0A120A671254F9
:102B4300B2120A73122B604005900F14E4F0120EB8
:102B5300C3EEFAEFFB023F0012505449227A047984
:102B630000120B159022B1125B6EEA98EB992212B8
:102B73002B8B7583227582B1E493C398F8A3E493F6
:102B830099F9C3EA98EB9922E493F8740193F92233
:102B930074F212035274F31208A28A088B09ECFE32
:102BA300EDFF750A00EEFAEFFB120B458A0C8B0D55
:102BB300A80CA90DE849603E88828983E065087006
:102BC30004A3E06509602F88828983A3A3A3A3E0FC
:102BD300C3940550211253608518828519837401AB
:102BE300F0120A8A125364EEFCEFFD7403120A8A90
:102BF300122C00750A01A90A740D0249FE122C0752
:102C0300120B0322AA82AB83120ACD85188285197F
:102C130083AA82AB832274F6120352122C55600FDF
:102C2300A3A3A3A3E014C3940450047901800279FD
:102C33000002352374F6120352122C55600FA3A31E
:102C4300A3A3E014C3940250047901800279000223
:102C53003523120B3F8A828B83E58245832274F6E8
:102C6300120352122C55600BA3A3A3A3E0700479A3
:102C73000180027900023523C082C083EAFCEBFDA8
:102C83007A007B00023449C082C0837C007D00024D
:102C9300344974F412035274F31208A2EAFEEBFFF0
:102CA3008C0A8D0BC3EC94F8ED94FF4007EE4F7044
:102CB30003022D4E750800750900802E8518828544
:102CC30019837401F01230B9120A8A1230C76013E3
:102CD3007403120A8AAC82AD83EEFAEFFB121CF77F
:102CE300E97049E5082401122EE79022B1E412505D
:102CF3005CE50898E509995052E50875F012A4F8C7
:102D0300AAF075F012E509A42AF9125BA160D4EECA
:102D13004F70A974FF650A700474FF650B60C412D9
:102D230030A9650A7004A3E0650B70B7E50875F078
:102D330012A4F508A8F075F012E509A428F50974A2
:102D4300B82508FA74093509FB80047A007B000270
:102D530036BF74F412035274F31208A275080012FA
:102D63000B458A0A8B0BAE0AAF0BEE4F602A851810
:102D7300828519837401123489F8A3E0F9740B1264
:102D83000A8A12359D120AE57C127D0079FFEEFA5C
:102D9300EFFB1214A5750801122B605009900F1454
:102DA3007401F0120EC3A9080236BF74F71203525E
:102DB300E9FE74FE6A700374FF6B78007900700596
:102DC3008052122A32122E3B504AE8FCE9FDEC7580
:102DD300F012A4FCAFF075F012EDA42F122E47F4FD
:102DE30060E0E8FCE9FDEC75F012A4FC75F012ED6F
:102DF300A42FFD74B82CF58274093DF583E06A7045
:102E030003A3E06B70BC8009122E4B14C3940440DF
:102E130017122A32122A265018EE70EC122E4B6427
:102E2300016005E0640370E912309AFAA3E0FB80C5
:102E3300047AFE7BFF0234849022B1123F50C3E830
:102E43009CE99D22122F9B22E8FAE9FBEA75F01216
:102E5300A4FAACF075F012EBA42CFB74BC2AF58237
:102E630074093BF583E022120B5702344CC082C035
:102E730083790180F274F01203528A0A8B0B7A046D
:102E83007901120B158A0C8B0DEA450D603EEAC3DE
:102E930033FAEB33FB12153B8A088B09AE08AF09F3
:102EA300EE4F60237AFE7BFF120B5D74FE6A7003A4
:102EB30074FF6B601B850882850983123494E508CF
:102EC3002402122EE780E1750C0080047E007F004F
:102ED300850A82850B83E50CF0EEFAEFFB023F05D2
:102EE300E5082407F508E5093400F509229022B125
:102EF300123F50C3EA9CEB9D22E493FA740193FBC7
:102F0300221214997403221254C3E4F090806222B3
:102F1300E88E828F83A3A3A3A3A3A3A3A3122F3516
:102F23007401122F35A3F0EE24101254C6E4F0A35B
:102F3300F022123906A3A3A322C082C0837A007BA6
:102F430000800419122F66122EF05010122F85C321
:102F5300940550F0E970EC122F6F80047A007B0027
:102F630002344CEA24010AEB3400FB22EA75F01226
:102F7300A4FA75F012EBA428FB74B82AFA74093B7F
:102F8300FB22EAFCEBFDEC75F012A4FCA8F075F053
:102F930012EDA428122F9B22FD74BC2CF582740918
:102FA3003DF583E02274F712035274F31208A27EF4
:102FB300007F0002304DE50875F017A4F8A9F01260
:102FC3005E02FAA3E0FBEEF8EFF9E875F012A4F85D
:102FD300ACF075F012E9A42C1230A86A7003A3E0D8
:102FE3006B603FE50875F017A4F8AAF0EA125E01DA
:102FF300F8A3E0F97401120A8AE0687003A3E06998
:103003006020E50875F017A4F8EAF9743428FC7415
:103013000B39FD7403120A8AAA82AB83121CF7E9E7
:103023006014E50875F017A4F8A9F0743228FA744F
:103033000B39FB120FF505089022C3E493F8E5085A
:10304300C3985003022FB91230919022B1126148F4
:103053005039EEF8EFF912309AF47003A3E0F460FC
:10306300E68518828519837401F0EEF8EFF9E875A7
:10307300F012A4F875F012E9A42AF91230B9120A71
:103083008A1230C760C175080080AD02347FEE2418
:10309300010EEF3400FF22E875F012A4F8AAF075D0
:1030A300F012E9A42AF91230AD2274B828F582741B
:1030B3000939F583E02274BA28F582740939123E7E
:1030C300F4740B22E8F0A3E91235A5120AFDE922F4
:1030D300C082C08390033D74B5F0A3740DF09003D8
:1030E3003F74AFF0A3740DF090034374CFF0A37457
:1030F3000BF002344C74F7120352EAFEEBFF900319
:1031030077E06408601BE0640460168E828F83E0BE
:103113005403640170481234531239FBE06406709F
:103123003D8E828F83A3A3E064FE7003A3E0F4606B
:103133002D8E828F83A3A312350E900368E06870EF
:1031430003A3E069700BEE2415F582EF125B886030
:1031530008120E63E9F5088008120E6980F67508F7
:10316300C2EEFAEFFB1215410225FC74F41203526E
:103173008A088B098A828B83E0F8A3E0FAE82AFAAB
:10318300E43400FB12153B8A0A8B0BAE0AAF0BEE3D
:103193004F6063850882850983E0FC7D0079001216
:1031A30014A58E828F83A3A31264BD120EA58E82F3
:1031B3008F83A3A3A3A3123494850882850983E094
:1031C300F8EE28F8EF340012351685088285098356
:1031D300A3E0C0E0EE240D1254B5D0E0F0120EB718
:1031E300EE240E1254B5E9124B67E0C0E0EE241151
:1031F3001254B5D0E0F0EEFAEFFB0236C474F612C7
:10320300035274EB1208A2EAFEEBFF124789600334
:103213000232A47A077B0012153B900339123494CF
:1032230012478960788E828F83120A6790033A125D
:1032330039FE120A73126381C0E01232B0D0E0F09B
:10324300EE2405FAEF3400FB8A088B098A82F583A2
:10325300E0C0E01232ABD0E01236BBE0C0E0123285
:10326300ABA3D0E0123500120A6785188285198353
:10327300120A7388828983E0C0E07405120A8AD037
:10328300E0F0850882850983E0C0E07404120A8AAD
:10329300D0E0F07407120A8A1233E68006791080B0
:1032A30002790174150235201232B0A3229003393A
:1032B300E0FAA3E0F5838A82A3A3A3A322C082C07A
:1032C30083124789600D900339125093900339E4B8
:1032D300F0A3F0120DD3120F9502344C74F01203C5
:1032E3005274EB1208A2ECFEEDFF89087425120A52
:1032F3008A780C120A2D7429120A8AE0F9742A12A8
:103303000A8AE0FC742B120A8AE0FD740F697005C7
:10331300740F6C6012900F5AE06402700579C10259
:1033230033E1E9C39C40F6900378780C120A4BE52D
:103333000890037EF0E990037CF0ECA3F0ED90039A
:103343007FF074FF6A700374FF6B701D900F65E06C
:10335300F47003A3E0F470051214B1800C900F65B0
:10336300123469E8F0A3E98007900375EAF0A3EB50
:10337300F0EE4F6017EEFAEFFB121055E96401709F
:103383000BEEFCEFFD7A897B03121CFD900368E4CE
:10339300F0A3F090036BF0A3F0900388F0900F5A22
:1033A300E06402700890037C740FF0A3F09003773D
:1033B3007405F014120A8AE4F0900378120A678500
:1033C3001882851983120A7390037EE0C0E07405A6
:1033D300120A8AD0E0F07407120A8A1233E67415CF
:1033E300023F02E41235A5121D2722C082C083903A
:1033F3000338E070031217ED120B9F804CC082C09C
:1034030083900338E0900F137004E4F0802D74016F
:10341300F0900338E0F460237C41E0C39441500210
:10342300E0FCECF8E0C398F0EC75F0E8A4CCA8F06D
:1034330075F003A428FD7A80123F587A137B0F7925
:1034430041121D158003120B4BD083D0820207D586
:10345300EE1254C422E0F508A3E0F5092212346405
:103463002212283CA322123EF69003752274F7120F
:103473000352EB90037FF0120DC18005740D120807
:10348300577F010205B312348FA3E022123500A344
:1034930022EAF0A3EBF02274F712035274F8120835
:1034A300A2EAFEEBFF7900900377E064087044859D
:1034B300188285198374FDF0A374FFF0120E9F74B4
:1034C30002120A8A1234947405120A8AE412348F9F
:1034D300E0C0E07404120A8AD0E01234FBC0E07446
:1034E30006120A8AD0E0F07407120A8AE41235A1A0
:1034F300120EE17408023481123500E022F08E824C
:103503008F8322F085188285198322123EF622E0EA
:10351300F8A3E0F91254C3E8F0A3E9F02212085724
:103523007F020205B3C082C083900349745FF0A396
:10353300740CF09003EF743BF0A3740FF090034D01
:103543007495F0A3740CF090034F745FF0A3740CA4
:10355300F0900351749BF0A3740CF002344C74F498
:1035630012035274F91208A28A088B098C0A8D0B74
:103573008518828519837808120A4B7404120A8A03
:10358300E9F07405120A8AE4F07406120A8AE41256
:1035930035A1120B8774070236C1E8F0A3E912358F
:1035A300A522123506AA82AB832274F41203528A2F
:1035B300088B098A828B831254D1EE4F7003023633
:1035C300B990031212478C60158A828B83A3A3E000
:1035D300F9EEFAEFFB9003131239FE1204CD8E823B
:1035E3008F83A3A3A3A3A3A3A3A3A3E064027074E1
:1035F3008E828F83A3A3A3A3A3A3E0540270030229
:10360300368B850882850983A3A3E064E960798EFC
:10361300828F83A3A3A3A3A3A3A3A3A3A3E0701451
:10362300900F5DE0048E828F83A3A3A3A3A3A3A320
:10363300A3A3A3F08E828F83A3A3A3A3A3A3A3A374
:10364300A3A3E0141236BBA3A3A37404F0900F5EEC
:10365300124F0CE8F0A3E9125FE58B0BEA450B7000
:10366300031259C38E828F83A3A3A3A3A3A3A3A3EC
:10367300A3E0640260128E828F83A3A3A3A3A3A3F8
:10368300A3A3A3E06406702E8E828F83A3A3A3A3B8
:10369300A3A3E0A2E0501F850882850983A3A3E0CA
:1036A300F9EEFAEFFB121DB18E828F83A3A3A3A3BE
:1036B300A3A3E054FEF0800912390222740D12080C
:1036C300577F040205B374EC12035274DD1208A28F
:1036D300EAFEEBFF8C088D097437120A8A780C1204
:1036E3000A2D750A007405120A8AAC82AD83121E74
:1036F300057412120A8AE070087415120A8AE060CF
:10370300207405120A8AE0A2E6501E8E828F83A3DC
:10371300A3A3A3A3A3A3A3A3124C06120F17E960A9
:10372300087903121CE50238E87405120A8AE0548A
:103733000C64047005750B018003750B00E0A2E5B2
:103743005035750A01E50BA2E0402C120EA58A1034
:103753008B11A810A911123453E0687003A3E06918
:1037630060157405120A8A1264C4124C02121DBD3C
:10377300E96004790480AC7405120A8AE0A2E65079
:10378300227406120A8AE0540370187405120A8A16
:10379300E0540C640C600CE0540C64086005751074
:1037A3000180037510007405120A8AE05403F8744B
:1037B3000268700C1264C4124C0212145D0238E8E1
:1037C300740168703AE510A2E050031238F07405F2
:1037D300120A8AA882A9837403120A8AE8F0A3E969
:1037E300123EEA8518828519831238FAE0C0E07424
:1037F30002120A8AD0E01235A1121EA10238E8E8AB
:1038030060030238E890035FE0640170108E828FDA
:1038130083A3A3A3A3A3A3E07003023776742212A6
:103823000A8A7402123EEA741A120A8A12351AE5D7
:1038330010A2E050087405120A8A1238F0E50BA2B0
:10384300E0506AEE240FF582EF125B88C0E0741734
:10385300120A8AD0E0F090031412478C70030238E6
:10386300E8120EA58A128B13A812A913741A120A4E
:103873008AE0687003A3E069706B780C1207ED7837
:103883000A1207F978081207F5A910740C120A8AAC
:10389300AC82AD837421120A8AAA82AB839003148B
:1038A3001239FB1204CD74071208578038780C12B2
:1038B30007ED780A1207F978081207F590037512D5
:1038C300063CEE2412F582EF1258B67423120A8ACC
:1038D300AC82AD83740E120A8AAA82AB83121DA531
:1038E30074091208577423120857025FB01264C494
:1038F3001250A1121DFF22E8F0A3E912390222128D
:10390300390622F08E828F83A3A3A3A3A3A32274D9
:10391300F71203521216D902348474F712035212A7
:1039230016DF02348474F71203521216EB02348446
:10393300C082C0831216E502344C74F7120352128C
:1039430016F102348474F71203527409120A8AE0DE
:10395300F50878081207F91216FD7401023481C0C4
:1039630082C08312170902344CC082C08312170F1E
:1039730002344C74F712035212171502348474F78D
:10398300120352EAFEEBFF8908740165087014798B
:1039930000120CD79022CEE493FC7900EEFAEFFBF1
:1039A300120C4D02348474F412035274F91208A2F7
:1039B300E9FE8A088B098C0A8D0B7413120A8A128A
:1039C3004C0690062912478C6027EE8518828519CC
:1039D30083F07401120A8A7808120A4BEAF8EBF9A9
:1039E3007405120A8A12359D9006291239FB1204B6
:1039F300CD023598FB90034BE0F8A3E0F583888272
:103A030022C082C08312174502344C74F71203524A
:103A1300900F16E0F97E00800B125B74540D640165
:103A23007001190E123C085003E970ED02348474DE
:103A3300F7120352900F17E0F97E00800B125B74AC
:103A4300548D64817001190E123C085003E970ED26
:103A530002348474F2120352890BE975F006A4242C
:103A63000CF508E5F0122EEB8A0CE508250CFAE5B7
:103A7300093400FB12153B8A0C8B0DAE0CAF0DEE17
:103A83004F6027AC08AD0979001214A5123453E531
:103A93000BF0EE2508F8EF3509F98E828F83A3A387
:103AA300A3A3A3A3A3A3A312351AEEFAEFFB024A1F
:103AB3000174F6120352EAFEEBFF120C29900F1564
:103AC300E0F8E9C3984009900345124C06120C2F05
:103AD300EE2402F8EF1252169003471250D09003CF
:103AE30047E004F0EEFAEFFB120C358508828509F6
:103AF30083E00256CCC082C08379009003458001E5
:103B030009124C068A828B83E582458370F2023464
:103B13004C74F7120352EAFEEBFFEE4F605690032C
:103B23004512478C604E888289837A007B00EE655C
:103B3300827003EF6583600FAA82AB83123B7AE541
:103B4300824583602F80E7900345123B86687002AD
:103B5300EF698E828F83700812350E9003458003C0
:103B6300125FC212351AEEFAEFFB121E71EEFAEF74
:103B7300FB121541023484123B7E22123EFA8882E4
:103B8300898322123EF6EE22C082C08390034580D1
:103B9300048882898312478C600B8882898312424E
:103BA3003EEC4D70EC8A828B83E4F0A3F0E849602D
:103BB3000688828983800390034512349402344C2F
:103BC30074F712035290034580048A828B83123C5C
:103BD300034B60257E0080010E123C0850ECEE750D
:103BE300F006A4FCADF0EA2CFCEB3DFDEC2410F553
:103BF30082ED123C5870E180047A007B0002348429
:103C03001250A5EA22123C61EEC3982274F7120304
:103C1300527D0080010D123C5DEDC3985034ED756B
:103C2300F006A4FEA8F0E8FFEA2EFEEB3FFFEE2429
:103C330010F582EF123C5870DCED75F006A4FEE837
:103C4300FFEA2EFAEB3FFBEA2411F582EB125B88C5
:103C53004CF0023484125B946922123C6122126498
:103C6300CEEB3400F583E0F82274F6120352120D02
:103C73004F7A007B008025EAF8EBF9E875F006A49B
:103C8300F8ACF075F006E9A42C12507A12638FA3F6
:103C9300E4125170F0A312639512650C9022B912CD
:103CA3002B6A40D37A007B00801C8A088B0974033B
:103CB300780812096D124B2EA374FEF0A304124F61
:103CC30050A3E412650C9022C2123D0B40DC7A0033
:103CD3007B00801D8A088B097403780812096D74B0
:103CE3005A125800740E12604774FEF0A304126552
:103CF3000C9022C8123D0B40DB9022CCE49390033E
:103D030053F0123D15023523E493F8C3EA98EB947C
:103D130000227CE87D037A107B009003C2E0F91255
:103D230015EF2274F012035274F51208A28A088B5D
:103D330009890A8C0BE9A2E050147508FC7509FF88
:103D4300A2E15005D2E4023DE8D2E3023DE8124984
:103D5300ED7003A3E06970057900023EB5AC0A7902
:103D630002AA08AB09120D2BE960EDE50AF50C7800
:103D73000C1207F979027CFE7DFFAA08AB091247F2
:103D830068120857E96003023EB3E50AC2E5F50A83
:103D93009003B5E07051E50AA2E6404B7403120AA2
:103DA3008AAC82AD83AA08AB09120AD9E970321230
:103DB30040898A0C8B0DA80CA90DE8FEE9FFE849A0
:103DC3006025EE24020A0AEF12287A601AEE240212
:103DD300FCEF3400FD7403120A8AAA82AB83121C1F
:103DE300FDE50AD2E5F50A900348E0F50C90036877
:103DF300E0F50EA3E0F50F780E1207F57D017C00C8
:103E0300900348E0F9AA0EAB0F120CE374021208F8
:103E130057E9F8900348E004F0E86003023EB3E595
:103E23000AA2E55004740E80027406C0E074011205
:103E33000A8AD0E01254E28A0E8B0FAE0EAF0FEE59
:103E43004F6069123ED3123EEA888289837401F07F
:103E53007478550AA31264D4E50C1264D4A3E5085C
:103E6300F0E509123EC2E4F0E50AA2E5500F74033F
:103E7300120A8AAC82AD83E82406123EB98E828F81
:103E830083A3A374FDF0A374FFF0E50B60159022E8
:103E9300CFE493F8E50BC3985009EE24131254B5FD
:103EA300E50BF0EEFAEFFB120B7B80067910800234
:103EB30079C7740B8049FAE93400FB121CFD228890
:103EC300828983A3A3A3A3123ECE22125249A32223
:103ED300EE24171254C67401F0120E9FEE241A1228
:103EE30054C6EAF0A3EB22F01264C83400123EF485
:103EF30022F583123EFA22E0F8A3E0F922740D12B0
:103F030008577F080205B374F61203527A007B1038
:103F13001259D060089003D47401F080299006CA26
:103F2300E06401900F5B7006E0FC79018004E0FC23
:103F330079037A007B00120C4D9022B7123F4C7A22
:103F4300007B10123F5A023523123F5022E493FCA8
:103F5300740193FD227B009003C2E0F91215E9225C
:103F630074EC1203528A088B098C0C8D0D890E7424
:103F730014120A8A1249477416120A8AE0F510A32A
:103F8300E0F511120F17E960077AFF7BFF02408605
:103F9300900F5AE0640260030240797900AA08ABEB
:103FA30009120D31A90E120D258A128B13AE12AF11
:103FB30013EE4F70030240618E828F83A3A3A3A3EA
:103FC300A3E064018E828F83A3A37069124C068ED3
:103FD300828F83A3A3A3A3A3A3E0541860439022D7
:103FE300CDE4938E828F83A3A3A3A3F0EA650C7021
:103FF30003EB650D6014EA650A7003EB650B600A59
:10400300EA65107003EB6511701F78101207F5ACA9
:104013000AAD0BAA0CAB0D121013740212085780D1
:10402300089003671259BAA3F074FE6A700374FF11
:104033006B601D804EA3A3A3E0640360298E828F6F
:1040430083A3A3A3A3A3E0640470057AFE023F8EB7
:104053008E828F83A3A3A3A3A3E0640270089003BB
:10406300B4E0640270101240898B0BEA450B6006C2
:10407300AA08AB09800DAA08AB099003491239FBC2
:104083001204CD025FB090037512476E120FD72250
:1040930074F7120352EAFEEBFF120B2DE9700AEEDE
:1040A300FAEFFB120B39E96006EEFAEFFB80047AB4
:1040B300FE7BFF02348474F01203528A0A8B0B8C4A
:1040C3000E8D0F8909750800120F17E97900600337
:1040D300024230AA0AAB0B120D31A909120D258A2F
:1040E3000C8B0DAE0CAF0DEE4F60198E828F83A338
:1040F300A3A3A3A3E0640270559003B4E064027029
:104103000302422EAA0AAB0B90034F1239FB12048F
:10411300CD120B3F8A0C8B0DA80CA90DE849700337
:1041230002422E88828983A3A3A3A3A3E0A2E04033
:104133000302422E750C01A2E150687901AC0AAD6D
:104143000BAA0EAB0F120C7DE9706402422E8E8215
:104153008F83A3A3A3A3A3E064037005750C02805C
:10416300528E828F83A3A3A3A3A3E06401600302FF
:10417300422E90037512423E8E828F831245938A9C
:104183000C8B0DA80CA90DE84960D19022C6E493CD
:10419300FA88828983E0C39A50C2A3E06003024293
:1041A3002E80B988828983A3A3A3A3A3D2E1F0EECF
:1041B3004F603A8E828F83A3A3A3A3A3A3E05418D3
:1041C300602B7508018E828F83A3A312063C750CA6
:1041D300FE750DFF780C1207F57900AC0AAD0BAA3A
:1041E3000EAB0F120D437404120857803E90036800
:1041F300E0650E7004A3E0650F70149022CEE49383
:10420300FCA909AA0AAB0B120C4D750801801CA965
:104213000CAC0AAD0BAA0EAB0F120C7DE9700C753A
:104223000801A909AA0AAB0B120CD7A908023F057A
:10423300E50C2415F582E50D1254C9124F2622749C
:10424300EA12035274F01208A28A0C8B0D8C088DAB
:10425300097426120A8AE0F514A3E0F5157512060F
:104263009003F512478C602390037512423EAA080F
:10427300AB091210018A108B11EA4511600D8A8275
:104283008B83A3E07005790002457BE50C241DF5C3
:104293000EE50D3400F50F850E82124778F513886D
:1042A300828983A3A3A3E0FA88828983A3A3A3A318
:1042B300E0F9EA2400FEE439FFAA08AB09120CDD99
:1042C300850E82850F831245B6E029F50BE50AA218
:1042D300E5500375120E7487550A70177418550A42
:1042E3006418600FE50C2417F582E50D125B8865F1
:1042F3001260077901121CE5808C530A78C3EE948F
:10430300F8EF94FF501D7900EEFAEFFB124585603C
:104313001288828983A3A3A3A3A3A3E054186003F1
:1043230002428978081207F57D001245A912085741
:10433300E9F87403687003024289E860030243F4F6
:104343007418550A70030244A9E50AD2E0F50AA2DB
:10435300E45004D2E1F50AA90A124BFF1245856025
:104363005388828983A3A3A3A3A3A3E0541860441F
:1043730088828983A3A3A3A3A3E064017036E51015
:104383004511603090037512423E8882898312453D
:10439300938A0E8B0FA80EA90FE8496017888289AC
:1043A30083A3E0600F851082851183A31256D75033
:1043B30003024289E50AF50E780E1207F912459CAD
:1043C300120857E9702B7C007D00851482851583C4
:1043D30074FFF0A3F0850C82850D83A3A3A3A3A38D
:1043E300A3A3A3E06003124233A90B124BFF1217DE
:1043F30003851482851583E0F47003A3E0F4603928
:104403009003B4E064027003024289124938E0FA6F
:10441300A3E01239F71204CDEA65087003EB6509CE
:104423006003024289EEFAEF1239F71204CD8514C4
:1044330082851583EAF0A3EBF078081207F57D0176
:104443001245A9120857A90AEEFAEFFB120D318A99
:10445300088B09A808A909900368E0687003A3E022
:1044630069600302456CEEFAEFFB120B3F8A088B7F
:1044730009A808A909E849606E88828983A3A3A3D0
:10448300A3E06401600D88828983A3A3A3A3E064EE
:10449300027054851882851983AC82AD83EEFAEFDE
:1044A300FB120AD98055900361E0600FE50AF50E0F
:1044B300780E1207F912459C120857E50AF50E7893
:1044C3000E1207F979027CFE7DFFEEFAEFFB12472D
:1044D30068120857E960030243F485148285158343
:1044E30074FFF0A302443B120E9FEAFCEBFD851818
:1044F30082851983AA82AB83121CFD850C82850DEC
:1045030083A3A3A3A3A3A3A3A3E06401700F1242F5
:10451300337408120A8AAA82AB83121CFD12474223
:1045230012534E4430F50878081207F97401120A41
:104533008A85820885830978081207F5740B120AA5
:104543008A85820885830978081207F5E513F5083B
:1045530078081207F97900EEFCEFFD124BFF120CFD
:104563007774061208570242891247421254B8124E
:1045730045B6E50BF0120EB774101208577F0E0202
:1045830005B3120D258A0E8B0FA80EA90FE8492239
:10459300A3A31250A5121001227901AC08AD091290
:1045A300509A12476822AC0BA91312509A120CE3CB
:1045B300740222125356A3A3A3A32274F01203522C
:1045C30074F01208A28A0C8B0DECFAEDFB750F0840
:1045D3009003F512478C60141256D08A828B83E5C0
:1045E3008245836007A3E0700302473D12474234CC
:1045F30000124778F50B8882898312474BE0FBEC66
:104603002400FEE43BFF88828983A3A312474BA3C4
:10461300A3E0FBECF508E43BF50988828983A3A3B7
:10462300A3A3A3A3A3E0F50EE50AA2E45003750F29
:1046330010A2E550067408250FF50F748F550A7004
:104643000FE50C2417F582E50D125B88650F6008F2
:104653007901121CE502473D530A707800E50AA26E
:10466300E45022124742125B882408FCA3E0340082
:10467300FD7408120A8AAA82AB83121CFD7808E52E
:104683000AC2E4F50AE50AA2E55028124742125B82
:104693008828F8A3E03400F9E82408FCE93400FD95
:1046A300851882851983AA82AB83121CFDE50AC291
:1046B300E5F50AAC0EA90BEEFAEFFB120CE9E9F8EB
:1046C3007403686075900368E06E7003A3E06F6025
:1046D3005EE87054E50AF50F780F1207F91247598F
:1046E300120857E97054780A1207F97401120A8AFA
:1046F30085820C85830D780C1207F5740B120A8AD8
:1047030085820C85830D780C1207F5E50BF50A7885
:104713000A1207F9A90EAC08AD09EEFAEFFB120C69
:104723007774061208578012740468700D80B77886
:104733000A1207F91247591208577410023F02E58B
:104743000C241DF582E50D22A3A3A3E0FC88828936
:1047530083A3A3A3A322790112493F1254C9124789
:104763006E12476822120CA1740122E0FCA3E0FD43
:10477300AA08AB0922F583123B7EA3E0F50A8882DF
:104783008983A3A3E0229003391251012274E81212
:10479300035274F51208A2EAFEEBFF8C088D098917
:1047A300147423120A8AE0F50F7424120A8AE0F5BE
:1047B30012A3E0F5137426120A8AE0F516A3E0F5B6
:1047C300177428120A8AE0F50EA90F120CEF8A104B
:1047D3008B117401120A8A7408F0E50EA2E45003E7
:1047E3007410F0E50EA2E55004E02408F085188269
:1047F300851983AA82AB83120EFF8A0C8B0DEA45BF
:104803000D700302491FEA2417F582EB1249311296
:104813000E9FE50C241AF582E50D1254B812349458
:104823007403120A8AAC82AD83AA10AB11120AD99F
:10483300E9601D1249297403120A8AA882A983E533
:104843000C2418F582E50D1254B8E8F0A3E980248E
:10485300E50EA2E4501FE5106E7003E5116F7015AD
:10486300124929E50C2418F582E50D1254B8E51216
:10487300F0A3E513F0124938124947850A82F583FC
:104883007402F0A3E50E12494FE50FF0EE850A829C
:10489300850B83A3A3A3F0EF850A82850B83A3A3D0
:1048A300A3A312494FA3A3A3E508F0E509850A8250
:1048B300850B83A3A3A3A3A3A3F0AA10AB11120C8C
:1048C300DDE92514850A82850B83A3A3A3A3A3A3F0
:1048D300A3F0750800E50EA2E45011AC12AD13E588
:1048E3000A2408FAE50B123EBB750808E50EA2E59B
:1048F3005014AC16AD17E50A2508F8E50B3400F99A
:10490300E82408123EB9850C82850D83A3A3E51024
:10491300F0A3E511F0AA0CAB0D120B7B740B12087C
:10492300577F100205B3E50C2416F582E50D1254EA
:10493300C97401F02212493F1254C922E50C1264D2
:10494300CFE50D22E0F50AA3E0F50B22F0850A82FC
:10495300850B83A3A32274F21203528A088B09ECFA
:10496300FEEDFF890A79001249ED7003A3E0697037
:104973000479018073750B01900368E06508700486
:10498300A3E06509601F750B00780B1207F9A90AEC
:10499300EEFCEFFDAA08AB09120F5374011208577E
:1049A300E9F50B80417900EEFAEFFB120D25EA4B96
:1049B300602B8A828B83A3A3A3A3A3A3E0541860D1
:1049C3001C7508FE7509FF78081207F58A828B8328
:1049D300A3A312063C1262E412085780097901EE80
:1049E300FAEFFB120BFFA90B8014120D318A0C8B0B
:1049F3000DA80CA90D900368E068221208577F06E2
:104A03000205B374F41203527508A275090C7A10E7
:104A1300125FEC8B0BEA450B7003123D15900353A9
:104A2300E014F0700C9022CCE493900353F0120D39
:104A33003D7E007F00806C850882850983A3A3A344
:104A4300A3E06059F46056E5082404F582E50912F1
:104A530059B47049850882850983A3A3A3A3A3E05E
:104A630064037019790285088285098312423E85A1
:104A73000882850983A3A3124C06120C7D85088244
:104A8300850983A3A3A3A3A3E0640160108508821F
:104A930085098374FEF0A304124B60E4F012309195
:104AA300122EE39022BB126148408C7E007F00806F
:104AB30039120E458E088F097403780812096D7434
:104AC3001A2508FC740E3509FD7A897B0C120E3306
:104AD300EA4B70DD8E088F097403780812096D1292
:104AE3004B2E12638FE4F01230919022C2E493F8BC
:104AF300C3EE98EF9400501B8E088F097403780857
:104B030012096D124B36E82407F582E91259B47085
:104B1300D680A17E007F00800A124B41600214F010
:104B230012309112614540F10236C4124B3688822D
:104B3300898322741A2508F8740E3509F922EEF8D0
:104B4300EFF9E875F006A4F8AAF075F006E9A42ACF
:104B5300F974BA28F582740D39F583E022124B6794
:104B6300A3A3A322F0850882850983A3A32274F754
:104B730012035274E11208A2ECFEEDFF750800EE79
:104B83004F60728A828B83E0241C1259E512478C92
:104B930060638A828B83124C06851882851983ACE5
:104BA30082AD83EA241BF582EB1258B6EA241CF586
:104BB30082EB124C02120E87740B120A8A124C0AF1
:104BC3007003A3E069702E7402120A8AE064017014
:104BD30024741D120A8A1239FBE064017017741DD4
:104BE300120A8A1239FDA3A3E0F88E828F83E0684C
:104BF3007003750801A908741F02348112493F34F8
:104C030000F5831250A522122838E0682274F412AA
:104C13000352E97024790090034D1239FB1204CD3D
:104C23008A0A8B0BAE0AAF0B74FE6E700374FF6FB0
:104C3300701A9022C9E4936013790190034D1239DD
:104C4300FB1204CD8A0A8B0BAE0AAF0B120EC30202
:104C530031F974F612035274F31208A21214B18AD2
:104C6300088B09AE08AF09900368E06E7003A3E0F8
:104C73006F60E9120EABEA6E7002EB6F60DEEEFA64
:104C8300EFFB120F17E970D4EE4F60D085188285C1
:104C93001983E4F004120A8AEEF0A3EF124CB8E988
:104CA30070BA74FE6E700374FF6F60B0EEFAEFFBC0
:104CB300740D0235201235A5120AF122C082C08379
:104CC300120EC302344C7F0A0205B374F21203526C
:104CD300EAFEEBFF8C0A8D0B8908740E120A8AE038
:104CE300F50974FC6E700374FF6F70057900024A56
:104CF300017900120D318A0C8B0DAE0CAF0D9003B0
:104D030068E06E7003A3E06F7006E509A2E650DC6D
:104D1300A9091261D2706179007AFE7BFF1261D218
:104D23007056741855097003024E05780079008097
:104D330003122A329022BB122A294003024E05E8AD
:104D4300FAE9FBEA75F007A4FAACF075F007EBA4F7
:104D53002CFB74A82AF582740C3BF583E05418707D
:104D6300D0E875F007A4F8AAF075F007E9A42AF9CA
:104D730074A228F8740C39F988828983A3A3A3A3A6
:104D8300A3A3E054186009741855097003024CEF8B
:104D930088828983EEF0A3EFF074FE650A700474D1
:104DA300FF650B6003124F2C88828983A3A3A3A3FF
:104DB300A3A3E509F0A2E0500D88828983A3A3A3EE
:104DC300A3A3A3D2E2F07401650888828983A3A315
:104DD300A3A3A370387401124F50E05418602890B5
:104DE30022CDE49388828983A3A3A3A3124F1A122B
:104DF30010018B0DEA450D6003024CEF780079003A
:104E030080397902024CF1900367E080D7E06401B6
:104E13007003024CEF88828983A3A3A3A3A3A3E017
:104E2300541860079022CDE4938004900366E01247
:104E33003EC2E508F0024CEF122A329022C3E493FB
:104E4300FAC3E89AE994004003024CEF7A007B002E
:104E5300804BEAFCEBFDEC75F007A4FCAEF075F0BB
:104E630007EDA42EFD74A42CF582740C3DF583127A
:104E730054D1E8FCE9FDEC75F017A4FC85F0097545
:104E8300F017EDA42509FD74322CF582740B3DF562
:104E930083E06E7003A3E06F609E122F669022BBC7
:104EA300122EF340AD123F4CEC6A7002ED6B70882A
:104EB300E875F017A4F8AAF075F017E9A42AF974B5
:104EC3003228FE740B39FF7C177D007900EEFAEF70
:104ED300FB1214A58E828F83124F32900375124FEB
:104EE3000CA3A3A3A3A3A3E8F0A3E9124F12740195
:104EF300F0EE240E1254B57401124F3A120201EE71
:104F0300240D1254B5E8024E37123464A3A322F0E1
:104F1300EE240F1254C622F0124F23AA0AAB0B221F
:104F2300900375E0FCA3E0FD2288828983A3A3E5B7
:104F33000AF0A3E50BF022F0124F3F229022C6E4C1
:104F4300932401F8E43400F97A027B0022123ECE66
:104F5300A32274ED1203528A088B09890E1250831F
:104F63004005790502505112174BAA08AB0912519B
:104F7300559022B9125054650A7003E9650B700706
:104F83007AFE7BFF1251559022B9E412505CE50A78
:104F930098E50B99400302504F1250606012E50AE6
:104FA30075F006A4F875F006E50B1250AB12154127
:104FB300E50E6018E50A75F006A4F8AAF075F00688
:104FC300E50B1250D7701A7901025051E50A75F0BA
:104FD30006A4F8AAF075F006E50B1250B8E4F0A3A6
:104FE300F0E50A75F006A4F8AAF075F006E50B12D1
:104FF3005078A312536488828983A3AA82AB831255
:1050030050C68A828B83E0603F125060603A8E10F4
:105013008F1175120078101207F1E50EC333FCE40B
:1050230033FDE50A75F006A4F50AA8F075F006E568
:105033000BA428F50B74BE250AF582740D350B12EB
:105043004C04122F04120857790080027907026179
:10505300E8122B8BE8229022B1125B6F22E50A75CE
:10506300F006A4F8AAF075F006E50B1250B3F8A306
:10507300E0F9E84922A42A12520C88828983A322E8
:10508300ECFEEDFF9022C4E493F8E9C39822F58384
:105093001250A512154122E50C1264CFE50D340020
:1050A300F583E0FAA3E0FB221250B3FAA3E0FB225C
:1050B3001250B8E022A42AF974BE28F582740D397F
:1050C300F58322E50EF0900F5C1250D022E0888227
:1050D3008983F022125230F50CE93400F50DE50E08
:1050E300C333FAE433FB12153B850C82850D83EA47
:1050F300F0A3EBF0850C82850D8312510122123E41
:10510300FAE8492274F4120352ECFEEDFF740C1218
:105113000A8A12350E88088909125155AC0AAD0B5B
:10512300ECF8EDF99022B912515D5021E875F006C3
:10513300A4F8AAF075F006E9125078E08E828F8306
:1051430012517012516612351A79008002790402E5
:1051530036C4120CB38A0A8B0B22122EFCC3EC9AB0
:10516300ED9B22123EF68508828509832212524561
:105173002274F61203527E007F008028EEF8EFF9C6
:10518300E875F006A4F8ACF075F006E9A42CF97400
:10519300BC28F582740D125DF36A7003A3E06B60A3
:1051A3005712309112614540D31261407002E96F8A
:1051B300704674FE6A700374FF6B703C7E007F0060
:1051C3008003123091126145502E124B4170F3EE61
:1051D300F8EFF9E875F006A4F8125202125237609C
:1051E3001712521EF8E9125216888212509185083E
:1051F30082850983E4F0A3F0EEFAEFFB0235237511
:10520300F006E912520A22A42AF974BA28F8740D96
:1052130039F9223400F98808890922EEF8EFF9E810
:1052230075F006A4F875F006E91252302212520AFC
:10523300E8240422A3A374FE12524212510122F065
:10524300A30412524922F088828983A3A3A3A32231
:1052530074F6120352EA241DF582EB12534EF960E1
:105263004BEA241DF582EB125B882402FCA3E03495
:1052730000FD1250874003025341780080298C823D
:105283008D83E0F508A3E0FFE5082400E43FF5097A
:10529300E833FEE433FF74022EF582740E3FF58388
:1052A30012536412534408E8C39940D28A828B8311
:1052B300A3A3A3A3A3A3A3A3A312423E900368E0C3
:1052C3006C7003A3E06D700F7C027D0E1227A11298
:1052D3004C02120CA78067EA2411F582EB125B885B
:1052E300605CFC74FF2CF075080178081207F975EF
:1052F300080275090E78081207F5E9F5087808120F
:1053030007F9EA2412F582EB125B88F50878081294
:1053130007F9EA2415F582EB1254B812063CECF9AE
:105323001227A112423B8A828B83A3A3A3A3A3A325
:10533300A3A3A3124C06120CBF740712085702351D
:1053430023EC24020C0CED3400FD221254C9125339
:1053530056E022E0F8A3E0F5838882A322888289BD
:1053630083E508F0A3E509F02274EA12035274FD01
:105373001208A28A148B158C0E8D0F890D741912C5
:105383000A8A1254D1741B120A8AE0F511741C1292
:105393000A8AE0F50C741D120A8A124947741F1217
:1053A3000A8AE0F5106008E50CC333240480027414
:1053B30002C0E07401120A8AD0E01254E28A088B18
:1053C30009EA450970030254AD8A828B83A3A3E5DE
:1053D30014F0A3E515125FDBE50EF0A3E50FF0EA89
:1053E3002413F582EB1254B8E50DF0EA2414F58288
:1053F300EB1254B8E511F0EA2417F582EB125B883F
:1054030064017040120EA58A0E8B0FA80EA90F859A
:105413000882850983A3A3A3A3E0687003A3E069BB
:105423006022EE4F6011E508241AF582E509125453
:10543300B8EEF0A3EF800CE5082417F582E5091216
:1054430054B8E4F01254BC1254D18E828F83740585
:10545300F0A3E5107004E50C80487401250C125488
:10546300DB7A008028850A82850B83E01254D78576
:105473000A82850B83A3E08E828F83F0E50A2402E0
:10548300F50AE50B3400F50BA30EAF830AEAC395C7
:105493000C40D2120EA5EA1254D7120EA5EB8E823F
:1054A3008F83F0AA08AB09120B7B740302457DEED0
:1054B300240CF582EF1254C9221227B21254C922C6
:1054C300EE240BF582EF3400F58322900334E0FEE3
:1054D300A3E0FF228E828F83F0A3AE82AF832212DA
:1054E30035A5120EFF22C082C083E9C333FCE43327
:1054F300FDEA2CFAEB3DFBEA24FEF582EB34FF12C6
:105503004C0402344C74F212035289098A0A125071
:105513008340047900804075080080020508E5088F
:10552300C39509502AE508C333F8E433F9EE28F5A7
:1055330082EF39F583C082C083120EA58A0C8B0DCE
:10554300D083D082E0650C7004A3E0650D70CDE5D7
:105553000A650870BE7901024A0174F0120352749D
:10556300F31208A28A088B098C0A8D0B890C750D1E
:1055730000120F17E97900600302565FAA08AB090E
:10558300120D31A90C120D258A0E8B0FAE0EAF0F23
:10559300EE4F700302565D8E828F83A3A3A3A3A352
:1055A300A3E0A2E2400302565D120EA5EA650A706B
:1055B30003EB650B7011780D1207F9E4F50EF50F87
:1055C300780E1207F58044AA0AAB0B120B33E96479
:1055D3000170688518828519837404F07401120AB6
:1055E3008A124F32851882851983AA82AB83120AE5
:1055F300F1E964017045750D01780D1207F9E4F5C1
:105603000EF50F780E1207F5750D00780D1207F9D8
:10561300780D1207F97408120A8A85820E85830FA2
:10562300780E1207F59022CFE493F9AC0AAD0BAADA
:1056330008AB09120CBF74071208578E828F83A31D
:10564300A3A3A3A3A3E0A2E1400D8E828F83A3A310
:10565300A3A3A3A3C2E2F0750D01A90D023F007439
:10566300F6120352E9FE7900120D31EEF9120D25FF
:105673008A088B09A808A909E8496006126516F982
:105683008002790402352374F61203527E079003D5
:105693005CE070341256D08A088B09A808A909E87F
:1056A300496025900361E0640188828983A3A37024
:1056B3000B1256D7888289835001A3A3E0F91210F5
:1056C3001FE9FEEE70027E07EEF9023523124F2327
:1056D30012100122E0FA88828983A3E0C39A22741C
:1056E300EE120352EAFEEBFF890A8C0C8D0B741247
:1056F300120A8A1234581257AC12508A5051890E2A
:10570300750F007403780E12096D7420250EF5824F
:10571300740E350FF583E0F8E50CC398502DE50BB7
:1057230060247511007403781012096D741A251022
:10573300F8740E3511F988828983A3A3A3A3A3A3C5
:10574300E50C1257B6F07900024CC9790380F97958
:10575300007AFE7BFF1257ACE49365107004790264
:1057630080E6E50B60E0890E750F007403780E1276
:10577300096D741A250EF8740E350FF98882898322
:10578300A3EEF0A3EF1257B6124F50E50C123ECA28
:1057930074FF126395E50AF0900366E088828983BB
:1057A300A3A3A3A3A3A3A3809C120D1FE9F51090A9
:1057B30022C2221264D8A3E508F0A3E5092274F6F5
:1057C300120352ECFF120D1F9022C212508A50276F
:1057D30089087509007403780812096D741F12583B
:1057E30000740E126047E0F8EFC3985006EFF079AB
:1057F300008006790380027904023523EA2508F53F
:10580300822274F4120352EAFEEBFF120D1FE9F534
:105813000A9022C212508A5019750B007403780A39
:1058230012096D741D250AF582740E350B124C0492
:10583300801890034B12478C600CEEFAEFFB123981
:10584300FE1204CD80047AFE7BFF0236C474F61286
:1058530003528A828B83A3A3A3A3A3E4F0F880015A
:10586300089022C8E493F9E8C399501E8808125897
:10587300AE8C828D83A3A3A3A3A3A3A3A3E0697088
:10588300DFECFAEDFB120E4B801EE4936870198C6B
:10589300828D83A3A3A3A3A3A3A3A3A37406F07AD4
:1058A300008C828D831259D902352374A22508F501
:1058B30082740E125B94F92274F4120352EAFEEB23
:1058C300FF8E828F83A3A3E0141259F0A3E0F91291
:1058D3000E278A088B09EA450970030259B18E82A3
:1058E3008F83A3A3E070358A828B83A3A3A3A3A38F
:1058F300A3A3A3A3E064028A828B83A3A3A3A3A38A
:10590300A3A3A3A360107406F07AF08508828B83A7
:105913001259D90259B17406F00259B18E828F839C
:10592300A3A3A3A3A3A3E060738E828F83A3A3A3E4
:10593300A3E0607AEE2403F582EF1259B4706F90FE
:1059430003551259BA1259F0E014125FD2E06403FE
:10595300705C8E828F83A3A3A3A3E0700DAC08AD0C
:1059630009EEFAEFFB120CF580448A828B83A3A322
:10597300A3A3A3A3A3A3A37404F01214B1EA540F23
:1059830004850882850983A3A3A3A3F0A3E4F07A83
:1059930020FB1259D070171259C380128A828B834D
:1059A300A3A3A3A3A3A3A3A3A3E0640360AF0236AB
:1059B300C4125B9414F022E08E828F83A3A3A322EC
:1059C3007A207B009003C2E0F91214F322125FEEF7
:1059D3008B09EA450922E0240C1259E5E0F9120D7E
:1059E3006D22F8A3E03400F988828983221259F5E5
:1059F300A322123500A3A3A32274F6120352790043
:105A03007E0080258E087509007403780812096DDD
:105A1300745A2508FA740E3509FB8A828B83A3A373
:105A2300E06005120CFB79010E9022C8E493F8EEB6
:105A3300C39840D0E9A2E07A407B009003C2E0F92A
:105A430050151215FB8B09EA4509700E7C647D0025
:105A53007A40123D1B80031215F502352374F412AC
:105A63000352ECFEEDFF75085A75090E7C00804564
:105A7300850882850983A3A3A3A3A3A3A3E0F8EACC
:105A83002412F582EB125B8868701F8508828509F2
:105A93008312350E125B8C687003A3E069700B856B
:105AA3000882850983A3A3E070200CE5082408F885
:105AB300E5091252169022C8E493F8ECC39840B05B
:105AC300E4936C700579000236C4850882850983E6
:105AD300A3A3A3A3A3A3E07004790180EA1261E066
:105AE300120FD78B0BEA450B600F8508828509835C
:105AF300A3A3A3A3A3A3E014F07C0080010C8C0A4E
:105B0300125B625020EC125B9A60F21230A96E7045
:105B130003A3E06F70E7850882850983A3A3A3A38A
:105B2300A3A3E014F09022C3E493F89022B1E4938A
:105B330028F8A3E4933400F9850882850983A3A395
