:020000040000FA
:06000000020A1E0201BB12
:03002B0002074485
:030043000206FFB3
:030053000200FAAE
:03006B0002085137
:100083000201570101FF0503010FF60FF60FF60FEB
:10009300F60FB20EAC0EF60F7B1E00000000DD1E45
:1000A300000000000C0000000C00010000CA110059
:1000B30000000000008412000000000000000000A7
:1000C30000FFFF330101010093050000000706E86C
:1000D3000364006400B8010202001000000502037B
:1000E300051E02051E0A03B80B0201021111029636
:1000F30051180002020612C0E074F21203D4A2AF38
:10010300E433FED2AFE5A7FFE5A1F5085F54106025
:100113000612195675A1EFE5085F54086008121915
:100123005C75A1F78024E508A2E092F0EFA2E082DB
:10013300F05017906198E0F89008E2E0C398A2D2DB
:1001430065D0335002E8F075A1FEEEA2E092AF7FD6
:1001530001020433C0E074F21203D4A2AFE433FE0D
:10016300D2AF9061A4E0F8759B00E5915854086004
:10017300087591F71219A48023E59158541060086B
:100183007591EF1219AA8014E591A2E092F0E8A20A
:10019300E082F05007E0C2E0F0121AEE9061A3E0B3
:1001A300F8E5E9585404600E121AC475E9FB90612E
:1001B30093E0A2E640F28092C0E074F21203D4A26C
:1001C300AFE433FED2AF9061A5E0F8E5BF58540425
:1001D300600675BFFB121B0602014DC3E498F8E4E9
:1001E30099F912021F8026C3E49AFAE49BFBE920E3
:1001F300E7E912021FE498F8E499F922C3E498F8B6
:10020300E499F912021FE498F8E499F9C3E49AFA1D
:10021300E49BFB22EB20E7CFE920E7E0B90010BB2A
:100223000008E88AF084F8AAF022E4FBC8FA22EB7B
:1002330070227B10C833C8C933C9335007C39AC36C
:10024300DBF280069A50012ADBEAC833F4C8C933CB
:10025300F4C9FA2275F008E4C833C8C933C933C9ED
:100263009AC99B5004C92AC93BD5F0ECFBC833F4A7
:10027300C8E4C9FA22080808EAC0E0EBC0E086F047
:10028300E7A4FA180986F0E7A42AFA180986F0E722
:10029300A42AFA180986F0E7A42AFA1986F0E7A433
:1002A300FBE5F02AFA190886F0E7A42BFBE5F03A00
:1002B300FA190886F0E7A42BFBE5F03AFA181809B7
:1002C30086F0E7A4C5F02BFBE43AFA1908E7C5F07A
:1002D300C6A426F6E5F03BFBE43AFA1886F0E7A459
:1002E300F6E5F00826F6E43B08F6E43A08F6D0E033
:1002F300FBD0E0FA22E4CFC0E0E4CEC0E0E4CDC01E
:10030300E0E4CCC0E075F020C3E633F608E633F64C
:1003130008E633F608E633F6181818EC33FCED3329
:10032300FDEE33FEEF33FFC3EC9709ED9709EE972C
:1003330009EF97191919400FFFEC97FC09ED97FD89
:1003430009EE97FE191906D5F0BEECF709EDF7098A
:10035300EEF709EFF7191919D0E0FCD0E0FDD0E072
:10036300FED0E0FF222518C582C0E0E51934FFC5A1
:1003730083C0E0E518C3958224F810AF088583197C
:100383008582188008858319858218D2AFCEF0A3A1
:10039300E520F0A37808E608F0A3DEFAEFF0A3E582
:1003A3008124FAF8E608F0A3E608F0A3E608F0A330
:1003B3000808E608F0A3E608F0A315811581D0E04C
:1003C300FED0E0F8158115811581E8C0E0EEC0E0AC
:1003D30022C0D02518C582C0E0E51934FFC583C00B
:1003E300E0E518C3958224F310AF0885831985824D
:1003F300188008858319858218D2AFC8F0A3E9F065
:10040300A3EAF0A3EBF0A37908E709F0A3D8FAEC89
:10041300F0A3EDF0A3EEF0A3EFF0A3D0E0F0A3D0B0
:10042300E0F0A3D0E0F0A3E520F0A3E5F0F0A322F1
:10043300851983851882E0C0E0A3E0F9A3E0FAA35D
:10044300E0FBA37808E0F608A3DFFAE0FCA3E0FDF5
:10045300A3E0FEA3E0FFA3E0C0E0A3E0C0E0A3E0CD
:10046300F5D0A3E0F520A3E0A3F5F010AF08858352
:10047300198582188008858319858218D2AFD082A6
:10048300D083D0E0F8D0E032120A80B9000302042E
:10049300CDE49003017839790B8002F0A3D8FCD91D
:1004A300FA900D39AA82AB83900086787579018022
:1004B30015E493A3AC82AD838A828B83F0A3AA82D3
:1004C300AB838C828D83D8E9D9E77582FE7583A4CB
:1004D30074031207E375828275831D74001207E3A8
:1004E3000875F0108E1A8F1B85821F85831E851851
:1004F30082851983E0CEA3E0CF851F82851E83EB1F
:10050300C9EAC8EDCBECCAC3E833C8E933C9EA3357
:10051300CAEB33CBC3EA9EF51DEB9FF51CB3500426
:10052300AB1CAA1DEC33CCED33CDD5F0DAAE1AAF4C
:100533001B22D083D082ECC0E0EDC0E0E493A3FCA7
:10054300E493A3FDED4C600D12060DEC24FFFCEDCE
:1005530034FFFD80EFE493A3FCE493A3FDED4C6033
:100563000D1206AAEC24FFFCED34FFFD80EFD0E072
:10057300FDD0E0FCE493A3C0E0E493C0E022D08389
:10058300D082E9C0E0E493A3C386F0C5F095F0F907
:1005930008E493A386F0C5F095F0700BE493A3C32E
:1005A300994005E9048002A3E475F002A42582F5CD
:1005B30082E5F03583F583D0E0F9E493A3C0E0E46A
:1005C30093C0E022851983851882E0A3FEE0A3F59A
:1005D300207808E0A3F608DFFAE0A3FFE0A3C0E079
:1005E300E0A3C0E0E0A3C0E0E0A3C0E0E0A3C0E07C
:1005F30010AF088582188583198008858218858342
:1006030019D2AFD083D0820207E9C0E0C3E4939646
:10061300087401939618400FE493667008087401F8
:1006230093661870007019A3A3C3E493960874012A
:10063300939618A3A3400DD0E0D0E0D0E00205715B
:10064300A3A3A3A3A3A3D0E0227404800474028011
:1006530000CCC0E0EDC0E0E518C39CCCAD1950015F
:100663001D10AF068C188D1980068C188D19D2AF0A
:10067300120765D0E0FDD0E0FC2274028000CCC0FC
:10068300E0EDC0E0E518C39CCCAD1950011D10AFDF
:10069300068C188D1980068C188D19D2AF1207227B
:1006A300D0E0FDD0E0FC22C0E0C0F088F0E4936627
:1006B30070080874019366187000A8F0A3A3700B68
:1006C300D0F0D0E0D0E0D0E0020571A3A3D0F0D009
:1006D300E022D083D082CCC0E0E493A3600612076B
:1006E300861470FAE493A360061208B61470FAD065
:1006F300E0FCE493A3C0E0E493C0E022C0E074F222
:100703001203D4A2AFE433FED2AFC2C0E5D1A2E458
:1007130050031218CCEEA2E092AF7F01020433CA59
:10072300C0E0E493A3C582CCC582C583CDC583F065
:10073300A3C582CCC582C583CDC583DAE5D0E0CA23
:1007430022C0E0C0D0E8C0E0E9C0E0E5A8D2AFC273
:10075300C7A2E7A2E792AFD0E0F9D0E0F8D0D0D0BB
:10076300E032CAC0E0E0A3C582CCC582C583CDC553
:1007730083F0A3C582CCC582C583CDC583DAE6D019
:10078300E0CA22C0E0E493A3D39C5010E493A3C334
:100793009C400AD0E0D0E0D0E00206F2A3A3A3D0AD
:1007A300E022C008C3E096F50808A3E096420808D3
:1007B300A3E096420808A3E09645087001D3D00849
:1007C300227009080808226016181818C6C333C611
:1007D30008C633C608C633C608C633C6D5E0EA2200
:1007E300C09FF59FE473D09F22D083D082C09FE443
:1007F30093C0E0740193C0E0740293F59F2225181F
:10080300F58210AF08F518400215198008F5184055
:10081300021519D2AF851983227404800A740380E8
:1008230006740280027401C0E0F404120801D0E0EF
:10083300120A5B22C0D0251810AF08F51850020524
:10084300198008F51850020519D2AFD0D022C0E0A4
:1008530074F21203D4E589A2E7500312183675899E
:1008630000C2E87F01020433BB0102E722C082C059
:100873008389828A83BB0003E08002E493D083D020
:1008830082226016080808C6C313C618C613C61802
:10089300C613C618C613C6D5E0EA22C3E0C696F649
:1008A30008A3E0C696F608A3E0C696F608A3E0C63A
:1008B30096F622C0E0E493A36C7009D0E0D0E0D0B8
:1008C300E00206F2A3A3D0E022251810AF08F51822
:1008D300400215198008F51840021519D2AF22C33A
:1008E300E09608A3E09608A3E09608A3E096A2D2B8
:1008F30065D03322E066701008A3E066700A08A38F
:10090300E066700408A3E06622E76670100809E752
:1009130066700A0809E76670040809E76622C3E0FF
:1009230096F008A3E096F008A3E096F008A3E096FB
:10093300F022E026F008A3E036F008A3E036F00842
:10094300A3E036F022700422600D18C6C333C60834
:10095300C633C6D5E0F41822E647F60809E647F69B
:100963000809E647F60809E647F622E026F608A353
:10097300E036F608A3E036F608A3E036F622E627CB
:10098300F60809E637F60809E637F60809E637F602
:1009930022E657F60809E657F60809E657F6080966
:1009A300E657F622E056F608A3E056F608A3E0560B
:1009B300F608A3E056F622E056F008A3E056F00846
:1009C300A3E056F008A3E056F022E4C396F608E449
:1009D30096F608E496F608E496F622C3E796080925
:1009E300E7960809E7960809E79622C6F4C608C6FB
:1009F300F4C608C6F4C608C6F4C622600D08C6A22B
:100A0300E713C618C613C6D5E0F322C3E09608A3BE
:100A1300E09608A3E09608A3E0962275D0007581BE
:100A2300407518017519030002048BE0F608A3E072
:100A3300F608A3E0F608A3E0F622600C08C6C31389
:100A4300C618C613C6D5E0F422E6F008A3E6F008FC
:100A5300A3E6F008A3E6F022CAC0E0E6F0A308DAB2
:100A6300FAD0E0FA22E0FAA3E0FBA3E0FCA3E0FD66
:100A730022EAF0A3EBF0A3ECF0A3EDF022E5C754D8
:100A8300F84401F5C77901222518F582E43519F5F3
:100A93008322C2AF75D69F020000221207EC1FAD5E
:100AA300011207EC72AE011207EC15AF011207EC4D
:100AB3004DB0011207EC6BB0011207ECFA5A0012A9
:100AC30007EC0C5B001207EC5E5B001207ECBF5BEC
:100AD300001207EC495C001207ECED5C001207EC16
:100AE300415D001207EC5A5D001207EC805D0012B5
:100AF30007ECBB5D001207ECFF5D001207EC265EFE
:100B0300001207EC775E001207EC275F001207EC78
:100B1300DF5F001207ECA760001207EC846100128C
:100B230007EC0A62001207EC1962001207EC246258
:100B3300001207EC2D63001207EC3E63001207EC72
:100B4300B463001207EC4664001207EC9E640012C3
:100B530007EC6465001207EC9565001207ECDA6593
:100B6300001207ECE765001207EC7B67001207EC45
:100B7300DE68001207EC1A69001207EC366A0012ED
:100B830007ECA06C001207ECAB6C001207ECB56C21
:100B9300001207ECC06C001207ECCA6C001207ECE1
:100BA300D46C001207ECDF6C001207ECEA6C001245
:100BB30007EC1B6D001207EC3F6D001207EC636D31
:100BC300001207ECC86D001207EC0C6E001207EC64
:100BD300286E001207EC9F6E001207ECD76E00120E
:100BE30007EC236F001207EC806F001207EC6271B1
:100BF300001207ECE871001207ECB972001207EC5F
:100C0300C975001207EC1E76001207EC4A76001233
:100C130007EC9677001207ECE677001207EC3B78B7
:100C2300001207EC3C79001207ECD479001207ECB0
:100C3300567A001207ECF67A001207EC052100122F
:100C430007EC3E21001207EC1823001207EC572390
:100C5300001207ECA123001207EC4624001207EC54
:100C6300A524001207ECD924001207EC4625001234
:100C730007EC6326001207EC6B27001207EC012830
:100C8300001207EC482B001207ECF12B001207ECC3
:100C9300CD2C001207EC2E2D001207EC4B2E001268
:100CA30007EC7530001207EC2C31001207EC3631DB
:100CB300001207EC6431001207EC3B32001207EC20
:100CC3000233001207EC9D33001207EC02340012CA
:100CD30007EC2B34001207EC4D34001207EC7C3682
:100CE300001207EC5337001207EC9737001207EC9A
:100CF3000438001207ECBF38001207ECF138001279
:100D030007EC3539001207EC6B39001207ECC039D8
:100D1300001207EC153A001207ECA93A001207EC8F
:100D23000B3B001207EC733B001207EC1C3D001257
:100D330007EC043E001207EC463F001207EC744137
:100D4300001207EC3442001207EC6944001207EC6E
:100D53000C45001207EC4A45001207ECF646001258
:100D630007EC0A47001207EC1447001207EC3E4752
:100D7300001207EC4A47001207EC6947001207EC20
:100D83002048001207EC5F48001207EC6948001284
:100D930007ECC248001207EC7249001207EC714AD3
:100DA300001207EC6A4B001207EC074C001207EC29
:100DB300A94C001207ECC04C001207ECF74C0012D0
:100DC30007EC154D001207EC594D001207EC7E4D50
:100DD300001207EC644E001207ECD04E001207EC31
:100DE3004A4F001207EC5950001207EC98510012B9
:100DF30007EC7652001207ECD852001207EC92531C
:100E0300001207ECB553001207EC8954001207ECEB
:100E1300D454001207EC1655001207EC6D5500125E
:100E230007ECB255001207ECE055001207EC195617
:100E3300001207EC3E56001207ECC656001207ECF0
:100E4300E958001207EC4859001207ECDC5900126C
:100E530007EC485A001207EC935A001207ECC05AE9
:100E6300001207ECA3B9031207ECE2B9031207EC73
:100E7300B0B1011207EC0AB2011207EC66B201121B
:100E830007ECB2B2011207ECCDB2011207ECFEB2CD
:100E9300011207EC1BB3011207EC27B3011207EC95
:100EA3009BB4011207ECB4B4011207EC1BB5011299
:100EB30007EC2EB5011207EC3CB5011207ECF0B5B7
:100EC300011207ECD4B6011207ECDAB7011207ECF2
:100ED30060B8011207EC6AB8011207ECD7B8011227
:100EE30007ECEEB8011207EC20B9011207EC59B96F
:100EF300011207EC83B9011207ECE4B9011207EC04
:100F030004BA011207EC22BA011207EC68BA011203
:100F130007EC8EBB011207ECDBBB011207EC0ABC2A
:100F2300011207EC80BC011207ECA8BC011207EC0C
:100F3300E1BC011207ECEFBC011207EC47BD011243
:100F430007EC96BD011207ECD5BD011207EC05BEF7
:100F5300011207EC31BE011207EC3CBE011207EC93
:100F63005ABE011207EC1CBF011207EC26BF011287
:100F730007EC61BF011207EC77BF011207EC80BFDA
:100F8300011207ECD5BF011207ECE9BF011207EC10
:100F9300F7C0011207EC0AC1011207EC1FC10112CD
:100FA30007ECC1C1011207EC44C2011207EC02C3F2
:100FB300011207EC0DC3011207EC33C4011207EC55
:100FC3004FC4011207ECA1C4011207ECE0C40112E3
:100FD30007ECF5C4011207EC37C5011207EC84C70F
:100FE300011207EC02C8011207EC75C8011207ECE5
:100FF30097CA011207ECAFCA011207ECB2CA011279
:1010030007ECBECA011207ECD2CA011207ECDACA16
:10101300011207EC0DCB011207ECBDCB011207EC5B
:1010230033CC011207ECA6CC011207EC5ACD011206
:1010330007EC0FCE011207EC2ECE011207ECCECE39
:10104300011207ECDACE011207EC05CF011207EC0F
:1010530008CF011207EC72CF011207EC9AD00112EC
:1010630007EC72D1011207ECFDD1011207EC16D384
:10107300011207ECD3D3011207EC0CD4011207ECD5
:101083003DD4011207ECDDD4011207EC0DD501129A
:1010930007ECE8D5011207EC81D6011207EC0CD757
:1010A300011207ECBDD7011207EC3FD8011207EC80
:1010B30071D8011207ECB2D8011207EC06BB021279
:1010C30007EC67BB021207ECA4BB021207ECF7BBE9
:1010D300021207EC2EBE021207ECFEBF021207EC4F
:1010E3006DC3021207ECA4C3021207ECC2C30212BF
:1010F30007EC38C4021207EC60C4021207EC91C477
:10110300021207ECC1C4021207EC1DC5021207EC60
:101113002BAF021207ECA9AF021207ECDFAF0212EA
:1011230007EC4BB0021207ECBEB1021207ECDAB1C6
:10113300021207EC1FB2021207ECACB2021207EC68
:1011430005B3021207EC31B4021207EC3FB50212E9
:1011530007EC9CB5021207EC08B6021207EC69B65D
:10116300021207ECAAB6021207EC57B7021207ECF9
:1011730069B8021207ECACB8021207ECFAB8021213
:1011830007EC31B9021207ECD4B9021207EC8FBA9B
:10119300021207ECF2B6031207ECD9AD031207EC07
:1011A300EAAD031207EC3BAE031207EC80AE031269
:1011B30007EC28AF031207EC55B5031207EC32AC6A
:1011C300031207EC8AAD031207EC69C5021207ECA0
:1011D30018C6021207EC38C6021207EC58C60212F0
:1011E30007EC6CC6021207ECCCC6021207ECFCC675
:1011F300021207EC86C8021207EC2FC9021207EC91
:1012030011CA021207EC64CA021207ECA8CA02123E
:1012130007ECEBCA021207EC56CB021207EC77CBB2
:10122300021207ECFACB021207EC2FCC021207ECE6
:101233009FCC021207EC36CE021207EC0CCF02123F
:1012430007EC4ECF021207ECA8CF021207EC09A756
:10125300031207EC2AA7031207EC60A8031207EC9A
:101263008AA8031207EC2196031207EC9A9603123D
:1012730007ECA596031207ECC696031207EC16A318
:10128300021207EC19A3021207ECD3A3021207EC14
:10129300FEA3021207EC44A4021207EC69A4021293
:1012A30007EC8AA4021207ECBEA4021207ECF6A410
:1012B300021207EC1FA6021207EC4EA6021207EC5D
:1012C3006EA6021207EC06A7021207ECC9A70212C8
:1012D30007ECFEA7021207EC66A9021207EC09AAA3
:1012E300021207EC01AB021207EC36AB021207EC59
:1012F30096AB021207EC56AC021207EC84AC021256
:1013030007EC0BAE021207EC8CAE021207ECBFAE79
:10131300021207EC23E8021207EC2DE8021207EC95
:1013230079E8021207ECE7E8021207EC08E9021277
:1013330007EC1FE9021207ECCFE9021207ECD8E928
:10134300021207EC2BEA021207EC54EA021207EC32
:10135300B2EA021207EC43EB021207EC7FEB021234
:1013630007EC48A0011207EC3DEC021207ECC3ECBA
:10137300021207EC02ED021207EC43ED021207EC36
:101383007AED021207EC8CED021207EC9EED0212CD
:1013930007ECBDED021207ECC6ED021207EC7EEE80
:1013A300021207ECBEEE021207EC9684031207EC5E
:1013B3006B85031207EC8585031207ECD0AA011293
:1013C30007ECAF87031207ECCE87031207ECCCA21E
:1013D300031207EC02A3031207EC4DA3031207EC5D
:1013E3009BA4031207ECE7D8011207EC32DA0112CF
:1013F30007EC6EDA011207EC25DC011207EC4EDC78
:10140300011207ECE6DE011207EC26DF011207ECFE
:10141300C7E0011207EC61E1011207ECC9E1011217
:1014230007EC56E2011207EC8EE2011207ECCEE262
:10143300011207EC61E4011207EC00E6011207EC6C
:101443004FE8011207EC7DE8011207ECA9E801124D
:1014530007ECB2E8011207EC0DE9011207ECA3E96E
:10146300011207ECCCEC011207EC51ED011207EC71
:10147300E8FF011207ECAE8C031207ECC38C0312D6
:1014830007EC608D031207EC9C8D031207ECB38D00
:10149300031207ECDA8D031207EC1F8E031207EC1D
:1014A300508E031207EC888E031207EC1090031280
:1014B30007EC53B9031207EC48B6031207EC7EB6E8
:1014C300031207EC9AB6031207ECDCB6031207EC1F
:1014D300E8B6031207EC13D9021207EC26DA02125C
:1014E30007EC54DB021207EC15DC021207EC44DCB8
:1014F300021207EC69DC021207EC8DDC021207EC26
:101503004EDD021207EC64DD021207EC1EDE02124E
:1015130007EC8BDE021207EC39DF021207ECCCDF9B
:10152300021207ECF9DF021207EC3193021207EC07
:101533008993021207EC3B94021207ECDF94021228
:1015430007EC3995021207ECB295021207ECC69527
:10155300021207ECA997021207EC2A98021207EC71
:101563006198021207EC0D9A021207EC249A0212F8
:1015730007EC6F9A021207EC859A021207EC929A13
:10158300021207ECC69A021207ECDC9A021207EC6D
:10159300629B021207EC6D9B021207ECC69B0212C0
:1015A30007EC209C021207EC739C021207EC7D9D52
:1015B300021207ECDB9F021207EC80A0021207EC79
:1015C300C2A0021207EC4BA1021207EC6DA102129A
:1015D30007EC70A1021207EC73A1021207EC06A23A
:1015E300021207EC2FA2021207EC42A2021207EC2E
:1015F3006EA2021207ECA9A2021207ECACA202121D
:1016030007ECBFA2021207ECE6A2021207ECCEB867
:10161300031207ECDAB8031207EC16B9031207EC4E
:10162300CCE0021207EC1BE1021207ECCAE2021241
:1016330007EC8FE4021207ECD3E4021207ECC0E5D7
:10164300021207ECF1E6021207EC13E7021207ECB1
:101653006FE7021207ECF3E7021207EC00800212B5
:1016630007EC2B80021207ECEC80021207EC72816C
:10167300021207ECDB81021207EC2382021207EC51
:10168300AD82021207EC4283021207ECD5830212E9
:1016930007EC1684021207EC7A88021207EC088A18
:1016A300021207EC418A021207ECEF8A021207ECDE
:1016B300B08B021207ECFA8C021207ECF08E0212C6
:1016C30007EC9E8F021207ECB990021207EC5B91B4
:1016D300021207EC1E92021207ECA192021207EC0F
:1016E300AEED011207EC6AEE011207ECE7EE011210
:1016F30007ECF6EE011207EC7FEF011207ECF7EFB0
:10170300011207EC06F1011207EC2FF1011207ECAD
:10171300D7F1011207EC2AF2011207EC96F201123B
:1017230007ECD4F3011207EC75F4011207ECDDF4B6
:10173300011207EC73F6011207EC27F7011207EC0D
:10174300C4F7011207EC25F8011207EC9FF8011208
:1017530007ECA4F9011207EC2CFB011207EC47FC80
:10176300011207ECE1FC011207EC52FD011207EC38
:101773002CFE011207EC999B031207ECE99B031261
:1017830007EC459C031207EC909C031207ECEB9CBF
:10179300031207EC939D031207ECFC9D031207EC65
:1017A300099E031207EC76A0031207ECA7A003120D
:1017B30007EC61A1031207ECC7A1031207EC38A2DF
:1017C300031207EC7DA5031207EC337F001207EC2D
:1017D300447F001207ECE47F001207ECDAA803123F
:1017E30007ECE8A8031207ECD8BA031207EC38B8E1
:1017F300031207EC48B8031207EC63B8031207ECB3
:10180300C4B8031207EC51B4031207ECD6B40312A5
:1018130007EC3CB5031207ECB0B0031207ECCFB0F2
:10182300031207EC25B1031207EC3AB1031207ECDC
:1018330088B1031207ECE6B1031207EC2F930312EE
:1018430007EC4493031207EC6694031207ECC99464
:10185300031207ECE194031207EC0895031207EC5B
:101863001C95031207EC3595031207EC54950312EC
:1018730007EC7895031207EC9B95031207ECEC95A4
:10188300031207ECA97B001207ECB77B001207ECED
:10189300317C001207EC157D001207ECCE7E00129E
:1018A30007EC98BA031207ECE7EE021207EC54EFC9
:1018B300021207EC15F0021207EC85F0021207EC96
:1018C30090F1021207EC08F3021207EC6CF3021218
:1018D30007ECC1F3021207ECCAF3021207ECD9F3C7
:1018E300021207ECECF3021207EC02F4021207EC0B
:1018F3000BF4021207EC1EF4021207EC73F402124B
:1019030007EC6FF6021207ECA1F6021207ECC3F61E
:10191300021207ECDCF6021207ECF5F6021207ECF2
:10192300FFF7021207EC9AF8021207EC45AF031215
:1019330007EC69AF031207EC82AF031207ECC1AFE8
:10194300031207ECF4AF031207EC24B0031207EC05
:101953008CB0031207EC8FB0031207EC99B003129B
:1019630007ECA6B0031207ECF298031207EC1A99DE
:10197300031207EC5B99031207EC6D99031207EC52
:101983008899031207ECF099031207ECFC990312F0
:1019930007EC5B9A031207EC7F9A031207EC409B58
:1019A300031207EC4D9B031207EC5E9B031207EC3B
:1019B30030BA031207EC4DBA031207EC1DF90212F9
:1019C30007EC7DFA021207EC83FA021207EC9AFA8B
:1019D300021207ECBBFA021207ECD1FA021207EC6F
:1019E300E5FA021207EC64FB021207ECC9FB0212D0
:1019F30007EC5FFC021207EC38FD021207EC48FD0E
:101A0300021207EC57FD021207EC9FB7031207EC13
:101A1300C3B7031207ECEBB7031207EC13B80312B7
:101A230007EC88FD021207ECAFFD021207ECD0FDB4
:101A3300021207EC42FE021207EC189E031207EC97
:101A4300319E031207EC489E031207EC519E0312CA
:101A530007EC6F9E031207EC799E031207EC839E3B
:101A6300031207EC969E031207ECEB9E031207EC9E
:101A7300249F031207EC529F031207ECA39F031248
:101A830007ECEF9F031207EC0AA0031207EC14A064
:101A9300031207EC25A0031207EC6BA0031207EC5B
:101AA30097FF011207ECBCCF021207ECE8CF02123A
:101AB30007EC06D0021207EC19D0021207EC34D05F
:101AC300021207EC93D0021207ECC1D0021207EC0A
:101AD300D0D4021207EC15D6021207EC47D6021235
:101AE30007ECB3D6021207ECFCD7021207EC24D89A
:101AF300021207EC39D8021207EC49D8021207EC9C
:101B030089D8021207ECD5D8021207ECE5D80212E5
:101B130007EC06B2031207EC16B2031207EC34B259
:101B2300031207EC4FB2031207EC76B2031207EC71
:101B330097B2031207ECB1B2031207ECE9B2031236
:101B430007EC0CB3031207ECECB9031207EC27897B
:101B5300031207EC2E89031207EC4B8A031207ECDE
:101B63007B8A031207ECA18A031207ECD48A0312BF
:101B730007ECE68A031207EC228B031207EC888B2F
:101B8300031207ECC48B031207EC0B8C031207EC54
:101B9300388C031207EC598C031207EC89AA031241
:101BA30007EC9BAA031207EC86AB031207EC2FACDE
:101BB300031207EC3EB3031207ECB0B3031207ECB6
:101BC300EEB3031207EC2FB4031207EC1D900312BC
:101BD30007EC3990031207EC8890031207ECA490EA
:101BE300031207ECD590031207ECE590031207EC00
:101BF300CD91031207ECD791031207ECE491031282
:101C030007ECF792031207EC0B93031207EC149300
:101C1300031207EC0080031207EC2784031207EC7E
:101C23002C84031207EC6CBA031207ECBABA031242
:101C330007EC039E011207EC8A9D011207EC319D0C
:101C4300011207ECC59C011207EC9C9C011207ECE6
:101C53008F9A011207EC5B9A011207EC289A011282
:101C630007EC0C9A011207EC3299011207ECEA987F
:101C7300011207EC1F97011207EC9F96011207EC64
:101C83009C96011207ECA795011207EC75950112BA
:101C930007ECB294011207ECDD92011207EC6E928D
:101CA300011207EC4092011207EC3D92011207EC7E
:101CB3002A92011207EC61AA011207EC19AA011278
:101CC30007EC7CA9011207EC6FA9011207EC7DA6B2
:101CD300011207ECC291011207ECB191011207EC5A
:101CE3009290011207EC5C90011207ECCFA3011252
:101CF30007EC1F90011207ECC08F011207EC8F8FC6
:101D0300011207EC4A8C011207ECA3A2011207ECA3
:101D13009685031207EC3B8B011207ECCA8A01126A
:101D230007EC8F8A011207EC5A8A011207EC4E8ADC
:101D3300011207ECAE89011207ECF588011207ECDA
:101D4300C886011207EC5484011207EC12840112B5
:101D530007ECDD82011207EC9282011207ECC481C9
:101D6300011207EC1B81011207ECB780011207EC8B
:101D7300F180011207ECF7A1011207ECCBEB020093
:101D8300000080FBE473000136360101000102010B
:101D9300000103010001040106060502000007011A
:101DA30000340801000F090401010D0100FF0E08B2
:101DB300000017020000190100FF1A0100011B01B6
:101DC30000FE1C0100081D0200001F01000120018C
:101DD3000001210200002301000F2402000026015C
:101DE300000127010008280200FF2A0100072B0138
:101DF30002402C0100002D0100012E0100012F01E2
:101E030000FF30010B1C310800003A0100083B01C0
:101E1300000F2F01000001017101010101011101F6
:101E230001013101010101018001100161013B0048
:101E33001400630173017201620143010001130184
:101E430006013D01350004011201000100010001FA
:101E5300000104010401330133013C014401320157
:101E63003600000100016501000135008101000118
:101E7300050182018301000103007100300160004C
:101E83001100700031022003500480001000610033
:101E9300000014006300730072006200430000003E
:101EA3001300060000000000040012000000000000
:101EB3000000000004000400370037003C02440027
:101EC30000000000000000006500000035008100F4
:101ED30000000500000083000000010371030103FB
:101EE300010301030103010322030203010310039E
:101EF3000003000300030003000300030003420385
:101F03000003240306030003000304031203250351
:101F13002303250323030403040300030003000333
:101F23004403000300032303000365032100350377
:101F3300810300030503000300030003030271028E
:101F430030016002110270020102020202028002E9
:101F5300100261023A0041006302730272026202DC
:101F630043020002130238000002000204021202BC
:101F730000020002000200020402040237003700DC
:101F83003C02440200023900000200026502000222
:101F9300350281020002050282028302000236003A
:101FA3000100060000000F00000000000000000018
:101FB3000000000003FFFF00000403FFFF0000FF19
:101FC300FF0FF4010005C4040320000100000B000F
:101FD3000000000000000003010F00001C171300A5
:101FE300B61601001C170200741603007A160400CB
:101FF300801605008616060092161100AA16140014
:10200300B0161500A416FFFF00000C0F3C0F120FB3
:10201300180F360F2A0F240F420F480F4E0F5A0F77
:102023001E0F060F000F03EAF5E5D5D5C5B5A59537
:10203300958585757565655555454535352525154D
:1020430015050AC60C028A0C059C0C07900C0C6C37
:102053000C0D7E0CFF000000160F00000B150B0289
:102063000002220F32000006F60F08100E10D60EE3
:102073001410D00EDC0E561074107A105C10681019
:1020830062100C0E020B040B0A0708000F00383C09
:102093003E363B3B352B432C0001191618161615FB
:1020A30023030000034948424D1817250502303029
:1020B30017181921301B1D1F303030161819202313
:1020C3001A1C1E304A101A1020102C102610300F24
:1020D300540F6E10600F660F020402010101010923
:1020E3000200000000000000BE040AE8030400151B
:1020F300000E002800040C0A030908FF1E1E0F042B
:102103000C0574F7120368E99003B0F0900365E4DB
:10211300F0121B9C9003C4E4F0A3F09003B1F0A36E
:10212300F0120E0A121BA2900334E4F0A3F09021E4
:102133000193FA7902121C02024ECB74F212036865
:10214300EAFEEBFF548060699003B0E0F91213508C
:102153008A088B09EA4509604F7C0080010CEC7505
:10216300F003A4F8A9F0744528F582742039F583A7
:10217300E493F4602CE493F88508828B83E0687021
:10218300DCAA08EC75F003A4F8744628F5827420E1
:1021930039F583E493C0E0740193F583D082121D73
:1021A30087AA08AB09121344EEFAEF6480FB0223FB
:1021B3000BEF5420601D120D208A088B09EA450994
:1021C300600A120C7EAA08AB09121344EEFAEF64FC
:1021D3002080DAEEA2E0501A90036AE0640F700BDD
:1021E3007900120C48E9600312230EEE6401FAEF42
:1021F30080BB542070030222D9750C001238B28BB5
:1022030009EA450970107C027D007A207B00900367
:10221300B0E0F91214947C0079047A007B00120C6C
:10222300FC8A088B098018850882850983A3A3A3E8
:10223300A3A3A3A3A3A37401F0850A08850B09E54F
:10224300084509606D7C007904AA08AB09120CFCEF
:102253008A0A8B0B750C01E5082404F8E50912368C
:102263005624FFF0A3E034FF125AB770CC850882DE
:10227300850983A3A3A3A3A3A3A3A3A3A3E06401A7
:1022830070A5850882850983A3A3A3A3A3A3E05410
:10229300047094850882850983A3A3A3A3A3A3A39E
:1022A300A3A37406F07AB785088285098312243ABA
:1022B3008087120CCC7C0079017A007B00120CFC25
:1022C3008B09EA45097009E50C70057A2012481557
:1022D300EE64200221F1EF5402600B120E04EEFAB9
:1022E300EF64020221B0EF54046019124A0112494B
:1022F300217901900363124C85120B8EEEFAEF6481
:10230300040221B07A007B00022541900D85122B37
:10231300D8120C6022C082C08374EA1208CC8518DC
:1023230082851983AA82AB83794B121BD874081256
:102333000A8B7402F07409120A8BAA82AB83795058
:10234300121BD87413120A8BE4124E54121BF67428
:1023530016023DD374F712036874E11208CCEAFE47
:10236300EBFFEE4F6033851882851983AC82AD8312
:10237300120D447406120A8BE0601E7417120A8B46
:10238300E0FD7401120A8BE0FCEEFAEFFB79001218
:102393000AB0E9600479A480027900024EC674F69B
:1023A300120368EAFEEBFF8E828F83A3A3A3A3A38A
:1023B300A3E05440601B12542112250860067AFFE3
:1023C3007BFF801A8E828F83123A5FFAA3E0FB8031
:1023D30003120D6874FE6A700374FF6B604112543C
:1023E30021124859120DC2E98E828F83600612248E
:1023F30033E480051224337401F07C4E7D0C8E820D
:102403008F83124C85121BFCE9F5087015EE4F60A3
:10241300097901EEFAEFFB120CD8A90802488A7574
:1024230008CDAA088E828F8312243AE960DF80EAFE
:10243300E0240D123F2E22E0240C123F2EE0F9126D
:102443000C5A2274F6120368E9FEEAFF7A0F7B0046
:1024530012133EEA4B60198A828B83740CF0EEA34D
:10246300A3F0EF8A828B83A3F012490A7900802FAD
:10247300EEF9120D028A088B09A808A909E8496038
:102483001C88828983A3A3A3A3A3A3A3A3A37406E2
:102493001256BAE0F9120C12EEF9120CDE791002A0
:1024A300488AC082C08390036AE0640F7014EA4BC9
:1024B3006010900365E064086005E0640470031233
:1024C30024C8023DFDEAFCEBFD7A017B009003B0DA
:1024D300E0F912148E22C082C0837900EA241DF52C
:1024E30082EB123A5C24FD600B14600824FD600447
:1024F30024FD700109023DFD8E828F83A3A3A3A354
:10250300A3A3A3A3A312250C22123AA4FB120DC268
:10251300E9228E828F83A3A3A3A3A3A3A3A3A312BE
:10252300250C6402228E828F83A3A3A3A3A3A3A358
:10253300A3A3123DF4900356E068221208377F06E6
:102543000205C774F412036874FD1208CC8A088B61
:10255300098A828B83A3A3E0F9120D028A0A8B0BEB
:10256300AE0AAF0BEE4F700302264D850882850934
:1025730083A3E064F16030850882850983A3E06466
:10258300CD6024850882850983A3E0641A601885D9
:102593000882850983A3E064E9600C8508828509C4
:1025A30083A3E064E170087900120CD8E9706C85AC
:1025B3000882850983A3E0C0E07402120A8BD0E08D
:1025C300123DD8EEF0A3EF12302E851882851983C1
:1025D300AA82AB837005120B768003120DAA7402D4
:1025E300120A8BE064E970338E828F831226597549
:1025F3000A01780A120828750AE9780A120828E5F8
:1026030008240CF582E509122B2012300BFCA3E001
:10261300FD8A828B831230251208378E828F83A323
:10262300A3A3A3A3A3A3A3A3E0640270108E828F2A
:1026330083A3A3A3A3A3A3A3A3A37406F0850882E0
:10264300850983A3A3E0F9120CDE120CCC900D894B
:10265300122311022BDDE0F8A3E0F9E8FAE9FB22EB
:1026630074F4120368EAFEEBFF7508008E828F8311
:10267300A3A3A3A3A3E060427508088E828F83A35C
:10268300A3A3A3A3A3A3A3123D078B0BEA450B604C
:102693001075082C8E828F83A3A3A3A3A3E0D2E09B
:1026A300F08E828F83A3A3A3A3A3E05403640160EA
:1026B3000302274C43081102274CEE2418122BEA7D
:1026C3006033EE241A122BEA700F1225287003A32D
:1026D300E06970757508228070EE241BF582EF1295
:1026E3002751241AF582EF123036EE24191254556D
:1026F300120C008054122515700375080112252849
:102703007003A3E0697006E508D2E1F508E5086007
:10271300158E828F83A3A3E07006E508D2E58004BB
:10272300E508D2E6F5081224FB64017006E508D239
:10273300E0F5088E828F83A3A3E0600D12275F6408
:10274300016006E508C2E0F508A908022BE2123A87
:102753004A12275822E0FCA3E0FDEE22123A44126B
:102763003A7CF9120DB0E922C082C08379018A82D2
:102773008B83A3A3E0C394024001198A828B83A3B2
:10278300A3A3A3E0C39402400279008A828B83A3AC
:10279300A3A3A3A3A3A3A3A3E064F87003A3E0F4F8
:1027A30060458A828B83A3A3A3A3A3A3A3A3A3E0CC
:1027B30064F97003A3E0F4602E8A828B83A3A3A33E
:1027C300A3A3A3A3A3A3E064FA7003A3E0F4601795
:1027D3008A828B83A3A3A3A3A3A3A3A3A3E064FBE2
:1027E3007003A3E0F4700279008A828B83A3A3A30E
:1027F300E0F8900353E06860027900023DFD74F055
:1028030012036874DE1208CCEAFEEBFF8E828F831C
:10281300A3A3A3A3E0600E900D87124881600690E6
:102823000D871223117403120A8BAC82AD838E823F
:102833008F83A3A3A3124958125191E9600F740324
:10284300120A8BAA82AB83120C78E9700879011201
:102853001BAE022B15EE241B123A4F7410120A8B77
:102863001249217409120A8BE06021741A120A8B2F
:10287300E0FD7404120A8BE0FC8E828F83124C837A
:102883007901120AB0E96004790280C37403120A61
:102893008BAA82AB83120C72E9F50A7409120A8BB4
:1028A300E0702A90034DE060247422550A6422608C
:1028B3001C7442550A644270CF7420120A8B122B87
:1028C30033600A7420120A8B122B2C70BBE9A2E628
:1028D30050417403120A8BAA82AB83120C66E9700F
:1028E300030228507420120A8B123A5F6403700F9C
:1028F3007420120A8BA3124873A3E0640D6014744E
:1029030003120A8BAA82AB83120DD4E9640170030C
:10291300022B15EE242C122B1D122E417003A3E063
:1029230069701C75080078081208287808120828AE
:10293300EE242E125455122B3912302512083774F7
:1029430009120A8BE070030229F2122B39124C850B
:10295300120E2E8A088B09EA45097003022A8F7426
:1029630004120A8BE0F88E828F83A3A3E028F8A3D6
:10297300E03400F9E8240D122B248A828B83A3A36D
:10298300A3E068601CE88A828B83A3A3A3F09080F2
:102993008A120A68850882850983A3A3A3A3120A5E
:1029A300747904E9120A8B12516E2AF8A3E03400F9
:1029B3008882F583A3AA82AB831213328A0C8B0D10
:1029C3008C0E8D0F850882850983A3A3A3A3780C9E
:1029D3001207A54003022B15908082780C12096E12
:1029E300850882850983A3A3A3A3780C120A4C90BC
:1029F3000365E064046008E064096003022B15E5E5
:102A03000AA2E54003022ACDEE242E122BEA8518F2
:102A130082851983F0EE242F122BEAC0E074011291
:102A23000A8BD0E0F0EE2430122BEAC0E0740212DD
:102A33000A8BD0E0F07414120A8BE06401702774DF
:102A43000E120A8B123A55EE2412122BEA68700307
:102A5300A3E0697011740C120A8B1225227007749B
:102A630014120A8BE4F0EE2424122B1D12064C746C
:102A730004120A8BAC82AD837407120A8BAA82AB51
:102A830083120B7C7404120837022B159003AAE0FF
:102A9300640160030229F27420120A8B122B337033
:102AA30009E50AA2E650030229F27410120A8BE028
:102AB300F47003A3E0F4605AEEFCEFFD7403120A12
:102AC3008BAA82AB83120C848048A2E65044742004
:102AD300120A8B124C94701A741A120A8BE0640255
:102AE30070307403120A8BAA82AB837900120D9E95
:102AF30080207420120A8B122B2C7016741A120A5F
:102B03008BE06404700C7403120A8BAA82AB8312E9
:102B13000D987422025040EE240BF582EF123A4ACC
:102B230022F582E912493AF822125433E06407226B
:102B3300123A7C640622EE242A123A4712275824BA
:102B430012123A472274F4120368EAFEEBFF8C0870
:102B53008D09900664E0600F1225287003A3E069D5
:102B63007005120BEE804F7900124C78120C1E8AFE
:102B7300828B83E58245836035A3A3A3A3A3A3E04C
:102B83005418602AE508241BF582E509122B20124C
:102B930006501232F0122B20120650EE2418125453
:102BA30055122BBB120C30740412083780087900BD
:102BB300122BBB120BF480278E828F83A3A3A3A3B4
:102BC300A3A3A3A3A3122758240BF582EF122BD49C
:102BD300223400F583123AA4FB2274031208377FD0
:102BE300040205C7EE2417F582EF12493A2274F75F
:102BF30012036874F71208CCEAFEEBFF900365E05A
:102C03006403600DE064016008E064096003022C62
:102C1300BB8E828F83A3E0707E7C007D007A027B73
:102C230000121BA8EE2402FAEF12365D123A5590F9
:102C330003561249217953121BDE7900122CC0E08E
:102C43006409600312305385188285198374011255
:102C530048A29003657404F07401120A8BAA82AB34
:102C630083794A121BD87401120A8BAC82AD837A22
:102C73005B7B03121BC69003561251877A031230F3
:102C83005D900350E0A2E35004D2F08002C2F01240
:102C9300488F12230E801E8E828F83A3AE82AF8352
:102CA300FC7D007A037B10121BA88E828F83E0F9D0
:102CB300122CC0E4F0120CAE7409024EC8900363E8
:102CC300122BD8120B8E90036522C082C08390030F
:102CD30034124881701F900365E014600924FC607E
:102CE3000A14600C800F90033C8032900338802DCF
:102CF30090033A8028E84960089003351230057044
:102D03000C8A828B83A3E0F9120B82801B9003351C
:102D130012338C7005120DF8800E9003E112488176
:102D23006006124873121D87023DFD74F412036896
:102D330074FB1208CC8A088B097A0F7B0012133EAE
:102D43008A0A8B0BAE0AAF0BEE4F7003022E358E41
:102D5300828F83124E527950121BD88508828509BF
:102D630083A3E06003022E1D900363E0F47003A3CA
:102D7300E0F46034900363E064FE7003A3E0F46066
:102D830027851882851983122E417003A3E0696099
:102D930017850882850983A374EA12303B7A637B23
:102DA300037950121BDE80728518828519831254B1
:102DB300141249217A567B037953121BD890035678
:102DC3001249521249217A597B03794B121BD87A43
:102DD300587B0379E1121BD890036AE0C3940F5028
:102DE30021900358E0C0E07402120A8BD0E0F07423
:102DF30004120A8B7401F004120A8BAA82AB8312A9
:102E03001BF0750A00780A120828780A120828901D
:102E13000DABE0F912301C1208378508828509834F
:102E2300122E3AA3F09003657403F0EEFAEFFB124F
:102E3300490A7405022BDFA3E08E828F832212548A
:102E430018E06822123F352274F512036874D81211
:102E530008CC8A088B098A828B83A3A3A3123A81A5
:102E63007415120A8BAC82AD838A828B83A3A3A3CE
:102E7300A3A3A3A3A312300BFAA3E0FB120CBA740F
:102E830015120A8BE0706B850882850983A3A3A3BF
:102E9300A3A3A3A3A3E0C3940B40578E828F83A362
:102EA300A3A3A3A3A3A3A3E064027046EE240B127F
:102EB3002BEAF4703D900365E06402603AE0640637
:102EC30060359003341248816005123005604F90DD
:102ED3000365E064086005E0640470167417120A61
:102EE3008BE0F9741C120A8BAC82AD83124C7812FE
:102EF3000CC07428025940900334124881701F7526
:102F0300080078081208287808120828EE241012FE
:102F13002B1D12546D1237451230251208378E823D
:102F23008F83124BF412366F123A557402120A8BC6
:102F3300124921EE240D122BEAC0E07404120A8B0D
:102F4300D0E012302EF508A3E0F509740F780812CB
:102F53000A3D7405120A8BE508F07419120A8BE016
:102F6300C0E07406120A8BD0E0F0741B120A8BE0E7
:102F7300C0E07407120A8BD0E0F07416120A8BE0DB
:102F8300C0E07409120A8BD0E0F07417120A8BE0C8
:102F9300C0E07408120A8BD0E0F0EE2410122BEA82
:102FA300C0E0740A120A8BD0E0F0741A120A8BE0A4
:102FB300C0E0740B120A8BD0E0F07427120A8BE086
:102FC300C0E0740C120A8BD0E0F0741C120A8BA9B7
:102FD30082AA8389088A09750A0078081208207C66
:102FE300087D007410120A8BAA82AB83124430123C
:102FF3000837851882851983AA82AB83120B88024E
:103003002EF5123392640122E0F98A828B83A3A303
:10301300A3A3A3A3A3A3A3E02290036312518B90C2
:103023000359122BD8120D7A740222F0EE240B12DC
:1030330049372212493AFA22F07A567B037953121E
:10304300304622121BDE7A597B03794B121BDE2298
:10305300900363122BD8120E28227B00121BA89018
:10306300035912518B7A047B00121BA822F01254CD
:10307300782274F212036874F81208CCEAFEEBFFAC
:103083008C0A8D0B890C851882851983AC82AD83DC
:103093007583807582467408120765F50DEEFCEFA3
:1030A300FD851882851983AA82AB83124B55700361
:1030B300750D019003B1803BEEFCEFFDE508240B99
:1030C300FAE5093400124B54601E85088285098392
:1030D300A3A3E0650C7011850882850983E0650A66
:1030E3007004A3E0650B6038E5082414F582E50954
:1030F300122B20123667E50845096024E50DA2E08E
:1031030040B6850882850983E0650A7004A3E065FB
:103113000B70D5850882850983A3A3E0650C70C86D
:10312300AA08AB09740802253EC082C0839003B18C
:10313300023DFA74F71203689003B1123AA48012A5
:10314300EA2414F582EB122B20123A811213E0EEDB
:10315300FAEFFBEA4B70E99003B1E4F0A3F0024EFF
:10316300CB74F11203688A088B09ECFEEDFF890A20
:103173008A828B831250348A828B83122E3A1232C4
:10318300228A828B83A3A3E0C454F0FA88828983C2
:10319300E04A123232122E3A12322CE0333354FC0C
:1031A300F88E828F83E04812322CA3E033333354FA
:1031B300F8F88E828F83E0481232228508828B834F
:1031C300A3A3A3A3A3A3E0A2E0E4331313FA888287
:1031D3008983E04AF0E5082407F50CEB1244361224
:1031E30008207C0812442A120837125165E5082486
:1031F3000FF50CE5093400F50D780C1208207C035B
:1032030012442A120837E50AC3940F400D1232F014
:10321300122B20122E3BA3A3A3F07F070205C7F0B6
:10322300EEF8EFF9A30EAF8322123232A3A322F0FA
:103233008508828B83A3A32274F1120368EAFEEB51
:10324300FF890A8C088D098E828F83E08C828D839F
:10325300123D11AE82AF83E01244F0124461C412F6
:1032630044F01232F9E054038C828D8312445FA23E
:10327300E2E4338C828D8312445E131313541F12C2
:1032830044F012445DA2E7E4338C828D83A3A3A3AD
:10329300A31232F98E0C8F0D750E00780C120820D4
:1032A3007C087D00E50824071250FA1208371251F2
:1032B300658E0C8F0D780C1208207C037D00E508C9
:1032C300240F1250FA120837E50AC3940F40148EE4
:1032D300828F83A3A3A3E0C0E01232F0122B20D08D
:1032E300E080061232F01256AEF002321DE50824D9
:1032F30012F582E50922A3A3123D150EAF832274B2
:10330300F412036874F91208CCEAFEEBFF89089003
:103313000334124881600E12338C7009EEFAEFFB0E
:10332300120DF2805F900363E06E7003A3E06F7091
:10333300537401650860097A777B03124B55704417
:103343007A007B021238B68B0BEA450B703690037A
:1033530066120A68851882851983120A7490036CB1
:10336300E0C0E07404120A8BD0E0F07405120A8BFB
:103373007401F07406120A8B124E52120B4CE96060
:103383009B120B527407022BDF1233926402221238
:103393005434A3A3A3A3A3A3E02274F51203688A5E
:1033A300088B098A828B83A3AE82AF83E0F9120B69
:1033B300A68E828F83E064EB600C85088285098387
:1033C300A3E064E17009850882850983A3E4F01210
:1033D300230E750A01780A12082885088285098355
:1033E300A3E0F5087808120828790012301C1208A7
:1033F30037120CCC025943EAF0A3EBF0023DFD7403
:10340300F61203689003C3E0701B7C0079017A0015
:103413007B00120CFCEA4B600C8A828B831248817E
:103423006003120C5402488AC082C08312389E4043
:103433001079FF120CF6E9F89020F9E493C3985041
:1034430004790180027900023DFD74F01203688A59
:10345300088B09890B750C008A828B83A3A3A3A312
:10346300A3A3A3A3E0F9120D028A0E8B0FAE0EAF36
:103473000F750A01EE4F600302352B85088285091B
:1034830083A3A3A3A3A3A3125187850882850983DA
:10349300A3A3A3A3A3A3A312422A124C85120CEA4B
:1034A3008A0C8B0DAE0CAF0DEE4F700302364E8EB1
:1034B300828F83A3A3A3A3E4F0A3F0E508240B1254
:1034C300365AE0C0E0122B1AD0E0F0120DC8EE24F9
:1034D3000CF582EF124855E508240EF582E5091232
:1034E3003A52EE240EF582EF12491E750C01EE24BA
:1034F30006F8EF123656547FF0A3E054FC1254CA78
:10350300E0540460030235B1900D8D12421B740721
:1035130078081209488E828F83A3A3A3A3A3A3E0F1
:103523004508F0A3E04509F08E828F83A3A3A3A3EC
:1035330012366574077808120A3DE5085407F50842
:10354300E50B607A8E828F83A3A3A3A3A3A3A3A374
:10355300A37402124462240D123F2AE0A2E2500B2C
:10356300900351124952A3A3124921E508700302A3
:103573003623EE2406F8EF3400F9E8FAE9FB8A82F1
:103583008B83E0547FFCA3E054FCFDE50824FFF5A6
:1035930008E434FFF50974077808120948EC450874
:1035A300F8ED4509F98A828B8312492180728E8254
:1035B3008F83A3A3A3A3A3A3E0448002352AE50832
:1035C3007005750A0080598E828F83A3A3A3A3A3DA
:1035D300A3E054206012121338EA547F245F8E82D2
:1035E3008F83A3A3A3A380238E828F83A3A3A3A3E9
:1035F300A3A3E05410600A121338EA540F240A807C
:10360300DD8E828F83A3A3A3A37401F0A3E41236F8
:103613006F74041238AD8B09EA45097003124848E8
:10362300E50CA2E050288E828F83A3A3A3A3124E9E
:10363300B8F9EEFAEFFB120CF0E96012124877606A
:1036430003123A3AEEFAEFFB1213E0750A00A90AE5
:10365300025043124A1522FAE5093400FB8A828B91
:103663008322A3A3E0F508A3E0F50922123673220F
:10367300125116A3A3A3A3A32274F412036874F72D
:103683001208CC7E00120D02EA4B700302373E8A09
:10369300828B83A3A3A3A3A3A3A3A3A3E064066032
:1036A3000302373E8A828B83A3A3A3A3A3A3A3E02E
:1036B300FF8A828B83123F3DE0C0E07408120A8BBD
:1036C300D0E0123A75124B5B124921120D14EF54DC
:1036D3000860668518828519831251877A007B00FA
:1036E300120CE48B0BEA450B704F900363123B659E
:1036F300121C087C007D007A007B0080288E828F5C
:1037030083123A5FF47003A3E0F4602D9003631215
:103713003745124C851218FCE9641A601C7C007D45
:1037230000EEFAEFFB120CE48A0A8B0BAE0AAF0B26
:10373300EE4F70C97900121C0E7E01EEF974090276
:103743002BDF12374922E0FCA3E0FD8E828F832218
:10375300C082C083EA4B70059003C480068A828BC3
:1037630083A3A312396560258A828B83A3A3A3A3B2
:10377300A3A3A3E0540860E5EC4D60158A828B8314
:10378300123A5F6C7003A3E06D70D280047A007B01
:1037930000023DFD74F2120368EAFEEBFF890A8C16
:1037A300088D097A107B001213DAEA4B603F8A8294
:1037B3008B83A3A3A3A3A3A3A3A3A3E4123A63A307
:1037C300E50A12543AA31237FA8A828B83A3A3A37E
:1037D300A3E4F0A3123A6FA3F01252CEEA240CF53D
:1037E30082EB123D011237F3A3A3F0A3F0022541AC
:1037F300A3F08A828B8322A3A3E508F0A3E509F053
:103803002274F4120368EAFEEBFF89088C0A8D0B1D
:10381300EE4F60557401650870147901120CF6E9D6
:10382300F89020FDE493C398500F7911806A7404D3
:103833006508702F12389E40F18E828F83A3A3A355
:10384300A3A3A3A3A3A3E508123D11A31259CD8EED
:10385300828F83A3A3E4F0A3F09003C41248816092
:1038630021800D7402650860D079C1802BE0F8A334
:1038730012494BA3A312396588828983A3A370EDF0
:1038830080039003C4EEF0A3EF1238AD8B0BEA452F
:103893000B70031248487900022BE27904120CF6EC
:1038A300E9F8902104E493C39822F01238B2227A03
:1038B300207B009003B0E0F91214A022C082C083E1
:1038C300E9F879009003C4801D8A828B83A3A3A3A4
:1038D300A3A3A3A3A3A3E068600574FF6870010911
:1038E3008A828B83A3A312396570DE023DFD74F7D0
:1038F300120368EA4B70059003C480068A828B83A7
:10390300A3A312396560248A828B83A3A3A3A3A3F1
:10391300A3A3A3A3E06970E4EC60148A828B83E021
:10392300240D125178A2E240D380047A007B000276
:103933004ECBC082C0839003C480068A828B83A34C
:10394300A312396560128A828B83A3A3A3A3A3A3C3
:10395300A3A3E06970E580047A007B00023DFD3B90
:10396300F583122BD8EA4B2274F21203688A0A8B6E
:103973000B8C0C8D0D750800750900EA450B602E44
:103983009003C480068E828F83A3A31239B8601E6E
:10399300AC0CAD0DEEFAEFFB850A82850B83121D8D
:1039A30087E9640170DFEEF8EFF988088909AA084E
:1039B300AB09022541E0FEA3E0FFEE4F2274F712AC
:1039C30003689003C4123A557C007D00800DE8FC27
:1039D300E9FD88828983A3A3123A55E8496030EA56
:1039E300687002EB6970E79003C4124C85E86A7053
:1039F30002E96B88828983A3A37008123A55900366
:103A0300C48009123A558C828D83A3A312492102E3
:103A13004ECB74F7120368EAFEEBFFEE4F6015120C
:103A23000D0E123A871248776003123A3AEEFAEF14
:103A3300FB1213E0024ECBEE240C123A47123A9CCF
:103A430022EE241DF582EF3400F58322F582EF1276
:103A53003A4A123DF422F582EF123A4A123A7C2294
:103A6300123A6722125442A3A3A3A322123A67A3D2
:103A7300A3221237F4123A7C2212542DE022E0FEE4
:103A8300A3E0FF228E828F83E0241C123F2E123A82
:103A93009C8E828F83123A9C22123AA4FB1213E06B
:103AA30022E0FAA3E022C082C083EAFCEBFDEC4DE6
:103AB300700479058044EC24FBF582ED34FF124851
:103AC3007F7007123B00E0F4600512134480E3901B
:103AD30003B0E0C0E0123B00D0E0F09020FAE493A2
:103AE300F97AC67B0312136EE96401700B7A007BCB
:103AF3002012484C790080027904023DFDEC24FF3A
:103B0300F582ED34FFF5832274F4120368A2AFE467
:103B130033F508C2AF9003C61239B86038EE24FB00
:103B2300F582EF34FF12487F7A007B209003B06068
:103B33000512484F8005E0F912137AE4F50AF50BF4
:103B4300780A120824EEFCEFFD7AC67B0312136891
:103B53007402120837E508A2E092AFEEFAEFFB0217
:103B63002BE212518B851882851983AA82AB83229B
:103B730074F212036874FC1208CCEAFEEBFF750AB8
:103B8300FE750BFF120CD2E960057911023CF6EECB
:103B93002415122BEA6037900DA1E0C43354E0F8EA
:103BA300E0333354FC48C0E0EE2415122B1DD0E063
:103BB300123D11123D078B09EA45096011750AFF91
:103BC300EE240F122BEA440412492FD2E0F08E8226
:103BD3008F831225066006EE2412123CFEEE241398
:103BE300122BEA7010902100E493C0E0EE2413122C
:103BF3002B1DD0E0F08E828F83E0A2E750045403A4
:103C0300801CEE2414122BEA7015900342E0C0E0EE
:103C1300EE2414122B1DD0E0F0900342E004F0EEEA
:103C23002411122BEA6401701690065BE0600D907C
:103C3300034DE0700A8E828F83E07003123CFB8E8B
:103C4300828F83E064017013EE240B123A596402ED
:103C53007009EE240F122BEA4440F085188285196F
:103C630083AC82AD83EEFAEFFB120D388A088B0921
:103C730074FE650A700374FFF470098E828F83A348
:103C8300A3125106EA450960668E828F83E0C0E085
:103C93007401120A8BD0E0F07402120A8B1252D212
:103CA3007401120A8B85820C85830D780C1208240B
:103CB300EE240F122B1D120650EE240E122BEAF5E2
:103CC3000C780C1208289003561206507407120A37
:103CD3008BE0F9AC0AAD0B120D327407120837E909
:103CE300FE74106E700BAA08AB091213E080027EFB
:103CF30010EEF9740402253EEE2411F582EF123A18
:103D03004AE4F022A3122BD879FF121CBC22123DE5
:103D13001522F08E828F83A322C082C08374DE12A9
:103D230008CC8A828B83A3A3A3A3123A55740E12E1
:103D33000A8BE8F0A3E9123DEB740C120A8B123DD7
:103D4300E4240DF582EB122BEDC0E0741A120A8BFA
:103D5300D0E0F0125053EB123A527420120A8B1235
:103D63003DE42415F582EB122BEDC0E07408120A32
:103D73008BD0E0F0EA241CF582EB123A5274121253
:103D83000A8B123DE42411F582EB122BEDC0E07493
:103D930009120A8BD0E0123DD874FFF07401120AA5
:103DA3008B74FFF07402120A8B74FFF090808A12F6
:103DB300064C7404120A8BAC82AD837407120A8B0F
:103DC300AA82AB83120B7C74041208377900742225
:103DD3001208378025123DDC22F08518828519836D
:103DE30022E8F0A3E9F0EA221237F4A3123DF3220A
:103DF300A3E0F8A3E0F922124C85D083D082020716
:103E0300E974EC12036874EE1208CC8A128B13EC7B
:103E1300FEEDFF89097426120A8B125106742812CB
:103E23000A8BE0F5107429120A8B123F1F742B12B0
:103E33000A8BE0F50EA3E0F50F7508107A1E7B00E0
:103E43001213DA7402120A8B1248597402120A8B83
:103E53001248817003023F18851882851983AA824C
:103E6300AB837950124734124C857402120A8B12B9
:103E73003F3DA31248597410120A8B1259CF740292
:103E8300120A8BE0240B123F2A7402F0120A8B12DF
:103E93003F3D7402F0120A8B1254251252D274025F
:103EA300120A8B124C9AE509F07402120A8BE02471
:103EB3000C123F2AE510F07402120A8B123F27E519
:103EC30012F0A3E513F07408120A8BE50CF0A3E5D6
:103ED3000DF0740A120A8BE510F0850E82850F83AC
:103EE300C082C083740D120A8BAC82AD83D083D0A1
:103EF300827403120765F97402120A8BAA82AB83D8
:103F0300120CD8E964017005750800800874021268
:103F13000A8B123A40A908741202511DE0F50CA352
:103F2300E0F50D22E0241C123F2E22F8A3E0123FFD
:103F330035223400F98882898322124C8DA3A3A3EE
:103F4300A3A32274EE120368EAFEEBFF8C088D092B
:103F53008E828F83A3740812496AE060088E828F71
:103F630083A37410F0122BE760098E828F83A3E082
:103F73002408F0EE2415122BEA60088E828F83A3A7
:103F8300E004F08E828F83A3A3A3A3A3A3E060190D
:103F93008E828F83A3A3A3A3A3A3A3E0C33324028B
:103FA300F88E828F83A3E028F0EE2411122BEA60AF
:103FB30005750B0E8003750B008E828F83A3C08261
:103FC300C083EE240D122BEAD083D082F8E028259B
:103FD3000B8C828D83F0EE2411122BEA60051244C0
:103FE3004028F0850882850983E0C39475400975EC
:103FF3000800750900024128E0FA7B001253807023
:1040030003024128EEFAEFFB120D3EEA8508828592
:10401300098312485AEE2402F8EF122E4712422265
:10402300124164F0EE24040808EF122E4712466A88
:10403300A3124164A3A3F0EE241312414AF0EE2429
:104043001412414AA3F0750A08EE2416122BEA60F3
:1040530010EE2418125184E5082408125463750ADB
:1040630010122BE76016EE241A125184850A0CE510
:1040730008250C1254637408250AF50A8E828F836F
:10408300A3A3A3A3A3A3E06059EE2407F510EF3481
:1040930000F511851082F583E0C0E0124131122B47
:1040A30020D0E0124154E0C0E0124131122B20D065
:1040B300E0124154A312413D12082085108285115C
:1040C30083E0C333FCE433FD850A0CE508250C12B9
:1040D30050FA120837851082851183E0C333250A0D
:1040E300F50AEE2415122BEA600BC0E012413112DF
:1040F3002B20D0E0F0122B1A12413D120820EE249F
:104103000D122BEAFC7D00850B0A8E828F83A3E0C0
:10411300F8E50828F8E5093400F9E8250AFAE91270
:1041230050FD120837AA08AB097F0A0205C7850AA2
:104133000CE508250CF582E50922E0F50CA3E0F572
:104143000D750E00780C22123A4712416EA3A3A3F9
:1041530022F0050A8E828F83A3A3A3A3A3A3A3A301
:1041630022A3A31254CEA312416E2212466EA3A31E
:104173002274F61203688A828B83E0FC9003531245
:10418300421B74027808120948EC4508FCAD09EAA1
:10419300241212421574067808120948EC4508FCEB
:1041A300ED4509FDEA2415F582EB122BED60047849
:1041B3000180027800E4C8F9ED49FDEA2411F58293
:1041C300EB122BEDF508880974097808120948EDFC
:1041D3004509FDEA2416124215740B7808120948A2
:1041E300ED4509FDEA2417124215740C78081209EB
:1041F30048ED4509FD8A828B83A3A3A3A3A3A3123E
:10420300421B740A7808120948ECFAED4509FB02CF
:10421300488AF582EB123A4AE0F50875090022E074
:1042230085088285098322A3E0F9850882850983AD
:104233002274EE1203688A0A8B0BECFEEDFF750FF6
:1042430001E9C39408500579000244278E828F83C5
:10425300E9F0124693E96003750F001246778E82E8
:104263008F831246C1EE125054EF1246B6C0E0EEF1
:104273002411122B1DD0E01246AEC0E0EE24121220
:104283002B1DD0E0123D11740812510EA3A3A3E01D
:10429300601512465FEE2413F582EF12491E8E82DB
:1042A3008F83A3E02408F08E828F83A3A3A3A3A309
:1042B300A3A3A3E060218E828F83A38582088583D5
:1042C300091246A2EE2415F582EF12491E850882D3
:1042D300850983E02408F08E828F83A3A3A3A3A37D
:1042E300E0601A8E828F83A3858208858309124634
:1042F300868E828F83A3A3A3A3A3124452EE241911
:10430300123CFEEE241B123CFEA3124962E0700332
:104313000243BBEE2419F8EF3400F98E828F83A396
:10432300858208858309E0FAE50A2AF582E50B12FE
:104333002BED88828983124452FAE50A2AF582E535
:104343000B122BEDC0E0EE241A122B1DD0E0124409
:104353005288828983E06059F8902103E493C398DB
:10436300500575110C8008EE2419122BEAF5118EF5
:10437300828F83A3E0F8E50A28F50CE50B12443697
:10438300120820E511C333FCE433FD7A3D7B0C12A4
:104393004430120837EE241B122B1D743DF0A37416
:1043A3000CF0E511C333F8850882850983E0288082
:1043B30006EE24181256ABF08E828F83A3E0F88E9C
:1043C300828F83E0C398500302424AA3E0FA8A082B
:1043D300E50A2508F8E50B3400F9EE241DF582EF14
:1043E300124A2A124462C39AC0E0EE2417122B1D0C
:1043F300D0E0124927602BEE2417F8EF3400F98838
:104403000889098882F583E024F2124A0B240EFA04
:10441300A3E03400FB88828983124859124440C3C5
:1044230098F0A90F02412C7D00EEFAEFFB12131A4C
:104433007403223400F50D750E00780C2290034EA0
:10444300E0F9120AB6E9F8850882850983E022F0CB
:10445300850882850983E004F022A3A3A3A3A3F024
:104463008E828F83E02274F41203688A088B09EA30
:104473001244F7F0EA1313543F1244F0A3A3A3F03A
:10448300EAC413131244F7A3A3F0EB1244E9124551
:10449300017409780A120A3D1244E7124500740AAE
:1044A300780A120A3DE50A5401C0E0EC2418F582AB
:1044B300ED122B20D0E0124506740B780A120A3D48
:1044C3001244E7A3124500740C780A120A3D124401
:1044D300E7A3A3A3A3A3A3A3A3F0740D7808120ACD
:1044E3003D02274CE50A54018C828D8322540F8CA4
:1044F300828D832254038C828D83A3A322A3A3A33F
:10450300A3A3A3F08A0A8B0B22C082C08379008AFB
:10451300828B83A3A3A3A3A3A3E090034D600FE027
:1045230070228A828B83A3A3E07019098016E0604E
:10453300138A828B83124C7C900356E06A7003A328
:10454300E06B70E7023DFD74F01203688A0A8B0B7F
:10455300890C8C088D09124693124677850882854B
:1045630009831246C1E508125054E5091246B6C044
:10457300E0E5082411F582E509122B20D0E012466C
:10458300AEC0E01232F0122B20D0E0124A3274088F
:10459300124A4B601112465FE5082413124A261291
:1045A3004A32E02408F0850882850983A3A3A3A3E4
:1045B300A3A3A3A3E06017850882850983A31246FA
:1045C3009EE5082415124A261244622408F0850841
:1045D30082850983A3A3A3A3A3E060198508828529
:1045E3000983A3AE82AF8312468685088285098339
:1045F30012445D04F0AA08AB09120D50E9F50D70E1
:1046030056850882850983A3A3A3A3A3A312466A9D
:104613007014E0FA8A0EE50A250EF8E50B12491329
:10462300E50CC39A802112469EE8240EF8E912494C
:104633001390034EE0F9120AB68E828F83E0F8E5F9
:104643000CC39824F2C399C0E0E5082417F582E56A
:1046530009122B20D0E0F0A90D025043E50A2408EB
:10466300F8E50B3400F92212466E22E085088285B4
:104673000983A322850A82850B83A3A31246D7E06D
:10468300F9EA22E0F8E50A28F582E50B12493A2215
:104693008A828B83125048120D4A22AE82AF83E086
:1046A300F8E50A28F8E50B3400F9221246EAA3A339
:1046B300A3E022123A4AE81246E3A3A3E022A3A30B
:1046C300A3A3A3A3A3A3A31246E31246D7A3A3E0E2
:1046D300F9EAF822E0FA850A82850B83A3A3A322D1
:1046E300F0A3E91246EA22F0850A82850B83A3A38D
:1046F300A3A322C082C0837AD47B0379E2121BD89E
:104703007AD47B03023DFDC082C083900356023DF1
:10471300FAC082C08374FE1208CC8518828519837F
:10472300AA82AB83794B124734124C857402023D43
:10473300D3121BD885188285198322C082C083793E
:104743004A121BD8023DFD74F61203689003DCE0A5
:10475300FE04F0EEF9120D028B09EA450970EDEE45
:1047630060EAF902488A74F0120368EAFEEBFF8CF0
:10477300088D09890A7410120A8BE0F50B74111263
:104783000A8BE0F50C120E2EEA4B7013E50C704207
:10479300A90AAC08AD09EEFAEFFB120E46806EE5EE
:1047A3000A6021EA2402F582EB122BED850A082523
:1047B30008F8E4340013E813F070098A828B83A3AA
:1047C300A37401F0E50C6045E50B70068A828B83C8
:1047D300E4F07401650C7035E50B9003E37004E4B9
:1047E300F0802AE004F0900D8EE0F89003E3E0C33C
:1047F30098401AE4F0900359E06E7003A3E06F70E1
:104803000CEEFAEFFB7901120BA01248130250438E
:104813007A017B009003B0E0F912149A22C082C09F
:104823008374016A7001EB70077A0112484A80129F
:10483300900D85124859EA4B60051224C880031273
:104843004813023DFD7A207B009003B0E0F9121378
:1048530074223400F583EAF0A3EBF022C082C08314
:10486300900D870233FAC082C083900D890233FA18
:1048730012543422EE240CF582EF3400F583123DFA
:10488300F4E849221208377F020205C7A2F0E43395
:104893008518828519831248AB7952121BDE2212C6
:1048A30048AB7942121BDE22F0AA82AB8322AA8292
:1048B300AB83120CB47AB37B037945121BDE2274EB
:1048C300F712036874ED1208CCE9FE9003AF124CA3
:1048D300A11248EE7412120A8BEE1248FB8518825D
:1048E3008519831248B17413024EC8900D3FE0F945
:1048F3007AB37B03120CBA22F0900D3FE0F97CB33C
:104903007D0322AA08AB099003B0E0F912134A22EF
:104913003400F9E508241DF582E509123A4AE8F066
:10492300A3E9F022125112A3A3E022A3F0EE24156F
:1049330012493722F582EF3400F583E0221249440D
:10494300223400F583E0F8A3E0F98882898322E02A
:10495300F812495822A3E0F98E828F83A3A322F091
:10496300EE2418123A4722F0EE2416123A47227424
:10497300F4120368EAFEEBFF7A007B041248171275
:104983004A011249219003657409F0120D5C8A08EB
:104993008B09AC08AD09EE2413122B1D124C8512A2
:1049A3004B55640170487A0F1249F460418A828B37
:1049B300837402124A0BFAA3E0FB8A828B83A3E07F
:1049C300FC8A828B83A3A3E0FBEC850882850983A1
:1049D300A3A312485A88828983124C891242221255
:1049E300492EFAA3E0FB794A121BDE124906022B79
:1049F300E27B0012133E8A088B09EA4509229003E1
:104A030036123DF4900D8922F0EE241DF8EF124A80
:104A13001522123F35E022124A1E223400F5837418
:104A230001F022F582E509123A4AE8F0A3E92212DD
:104A33004A3622124A3A22F0850882850983A32244
:104A4300124A3AA3A3A3A322124A43A3A3E0221226
:104A53004E5C120DB622EE2417F582EF124A1E1297
:104A63000D5CEE241A123A47EAF0A3EBF02274F439
:104A730012036874F31208CC8908EAFEEBFF7C0D7D
:104A83007D007900851882851983AA82AB8312136E
:104A930026EE241D122B1D125425A3E0F8741F5873
:104AA300600A7901121BAE7900024B4CE8A2E55073
:104AB30008740C120A8B7401F0E8A2E75008740B17
:104AC300120A8B7401F0E8A2E6740A5008120A8BEA
:104AD3007401F08008120A8BE064017005EE241360
:104AE3008003EE24151251847402120A8BAA82AB3E
:104AF30083121BC6122B1A124B5A124921740A1223
:104B03000A8BE0640170331224FB703B120D688A38
:104B13000A8B0BA80AA90BEE240B122BEA6870036D
:104B2300A3E0697022120D5CEAFCEBFD7402120A29
:104B33008BAA82AB83124B55600D8518828519832E
:104B4300AA82AB83120B9AA908740D022BDFEEFA2B
:104B5300EFFB121BC0E922E0124B5F22F8A3E0F93E
:104B63008518828519832274F612036874F3120878
:104B7300CC8A088B09ECFEEDFF7C0D7D0079008566
:104B83001882851983AA82AB831255D8A3A3A3A342
:104B9300A3A3A3A3A3124BF4124BFDF8A2E5500861
:104BA300740B120A8B7401F0E8A2E75008740A121E
:104BB3000A8B7401F0E8A2E6EE5004241380022469
:104BC300151251847402120A8B124BE6A3A3E0C0A0
:104BD300E0740C120A8BD0E0124E54120B94740D35
:104BE300024887AA82AB83121BC685088285098384
:104BF30022E0124B5FE8F0A3E922F0123A44125488
:104C030029A3E02274F712036874E11208CCEAFEC8
:104C1300EBFF8E828F83124C89A3A3A3E0A2E05003
:104C2300518E828F8312265B8A828B83A3A3A3A3D5
:104C3300A3A3E054FE124CA18A828B83124C9AE008
:104C4300F98A828B83E0241CFAA3E012365D124CAE
:104C530085120D56E9701B741D120A8B124C947049
:104C630011851882851983AC82AD83EEFAEFFB12AE
:104C73000DA4024EC68E828F83A3A3A3A3A3A3A3D3
:104C8300A3A3122BD822124C8D2212542DA3A3A31B
:104C930022123A7C640422E0241B123F2E22123D8E
:104CA300DCAC82AD8322E9F87900740468600A748D
:104CB3000A6860057403687001090207E974F61253
:104CC30003688A828B837420F0A3A37401F0120B10
:104CD300408A088B09AE08AF09EE4F60108E828FB1
:104CE300837401F09003A3E07003124A59EEFAEFC4
:104CF300FB02488AC082C0839003C87401F0E9A212
:104D0300E350037403F0E9A2E15004E0D2E2F002BD
:104D13003DFD74F612036879007C008A088B0978DC
:104D230008120581F8FF07484D464D464D464D464E
:104D33004D3F4D434D484D3C4D0C80097C0480054F
:104D43000C80F67C089003C8E05C6003098003ECE8
:104D530060010902488A74F61203688A828B83E031
:104D63007012A3124881600C8A828B83124C8412C6
:104D73001CE080047A007B0002488A74F512036801
:104D830074F31208CC8A088B09ECFEEDFF750A1246
:104D9300EA450970057900024E4D900356E0650817
:104DA3007004A3E065097014120D5CEAFCEBFD12BC
:104DB3004B517005750A018003750A0085188285B9
:104DC3001983E4F004120A8BE508F0A3E509124EF7
:104DD30054120B04E960277403120A8BAA82AB8373
:104DE300120AE6E964017016750A017403120A8B4C
:104DF300AC82AD83124B516021750A00801C741282
:104E0300650A70169003A2E06402700EEEFCEFFDDB
:104E1300AA08AB09120B1CE970DFEEFCEFFDAA0830
:104E2300AB09120E34E9F8740A687005750A01803B
:104E33001774A0687012EEFCEFFDAA08AB09120EFE
:104E430040AA08AB09120E52A90A740D0259407404
:104E530002124E5822124E5C22123DDCAA82AB8310
:104E63002274F7120368EAFEEBFF8E828F83A3A3FB
:104E7300A3A3A3A3A3A3E06015EE2415122B1D1275
:104E83002BC8120DCEE964017004790180258E824E
:104E93008F83A3A3A3A3A3A3A3E06015EE241312FC
:104EA3002B1D124EB8FAA3E0FB120DCEE96401608C
:104EB300D979008013123749A3A3A3A3A3A3A3A360
:104EC300A3E022741F1208377F010205C774F01292
:104ED300036874FD1208CC8A088B09ECFEEDFF8988
:104EE3000B7413120A8BE0F50C750A017401120A94
:104EF3008B740412545D6048E50C601DEA2417F5B9
:104F030082EB1256AE12544B8A828B83E0D2E7F0C7
:104F1300EA2414F582EB123D01125053EB1249407F
:104F230074031259D1EE88828983A3A3F0EF888298
:104F33008983A3A31237F31237FA120B3AE9F50A5E
:104F4300A90A740302504074EC12036874F5120842
:104F5300CC8A0A8B0B890C8C0E8D0F741F120A8B53
:104F6300E0F50D7420120A8BE0F510A3E0F5117E35
:104F730001EE120A8B740AF0E97007E50DC33324BE
:104F83000AF0125125700302502712513A7409F0A6
:104F9300A3E50CC43354E0450D12514CE50C702DC0
:104FA3007C008023ECC333F8E433F9E51028F8E5FB
:104FB3001139F98882898312503488828983122EA9
:104FC3003AF0A30EAF830CECC3950D40D7E508244C
:104FD30017F582E509124A1A120D5CE508241AF541
:104FE30082E5091248557403120A8BAC82AD83AA79
:104FF3000AAB0B120AECE96019E5082416F582E501
:105003000912502E120A8BA882A983E508241812CC
:10501300491A8508828509831259CDAA08AB09125A
:105023000B3AE9FEEEF9740B02511D124A1E74038A
:1050330022E08E828F83F0A3AE82AF8322120837E1
:105043007F080205C7123AA4F9EA2400E439FB22D7
:10505300EA240BF5822274EE1203688A0C8B0D8905
:105063000E8C088D097412120A8BE0F50F7413125B
:105073000A8B1251069005CA1248816077E50FC367
:1050830033F8E433F9E8240EFAE93400FB12133E53
:105093008A108B11AE10AF11EE4F60588E828F8342
:1050A30074D4F0A3A3E50CF0A3E50D12510EE50EA5
:1050B300F0AC08AD09EE2405FAEF125466EE240DA8
:1050C300122B1DE50FF0850A08850B09750A007878
:1050D30008120820E50FC333FCE433FDEE240EFA77
:1050E300EF1250FD120837EEFAEFFB9005CA125487
:1050F30025121D8702412CFAE5093400FB12131A0D
:10510300740322E0F50AA3E0F50B221251122212D6
:10511300511622123D15A3A3A3221208377F0C02B6
:1051230005C7851882851983AA82AB83120DB68AB7
:10513300088B09EA450922EA240BF582EB12493A66
:10514300FEA3E0FF8E828F8322F0A3AE82AF83ACF7
:105153000EAD0FEEFAEFFB12515E22121BC6125177
:105163006522EE2408FEEF3400FF22E0FA8E828FE0
:1051730083A3A3E022FEA3E03400FF8E828F83E0AB
:1051830022123A4712518B22E0FCA3E0FD22122B9C
:10519300D8120D442274F7120368E9FE7C007D00E7
:1051A30078007900800D125256E02CFCA3E03DFDFF
:1051B3001258701258D9502CE8FAE9FBEA75F0122C
:1051C300A4FAAFF075F012EBA42F125879F460E053
:1051D30012525D12396260D8EE60CB125256E4F07F
:1051E300A3F080CC78007900800D125236E02CFCBD
:1051F300A3E03DFD1258701258CC5030E8FAE9FB99
:10520300EA75F017A4FAAFF075F017EBA42F125854
:10521300A87003A3E0F460DC12523D12396260D43B
:10522300EE60C7125236E4F0A3F080C8ECFAEDFB4F
:10523300024ECB12523D3BF58322E8FAE9FBEA75B5
:10524300F017A4FA75F017EBA42FFB74DE2AF5828E
:10525300740A2212525D3BF58322E8FAE9FBEA75F0
:10526300F012A4FA75F012EBA42FFB745F2AF582F7
:1052730074092274F6120368EAFEEBFF9003C980F7
:105283001388828983E06E7003A3E06F603A88829B
:105293008983A3A312488170E87A047B001213DA8E
:1052A3008A088B09A808A909E849601C88828983B0
:1052B3001252D29003C9124C8588828983A3A31208
:1052C30048599003C912492102488A8A828B83EE86
:1052D300F0A3EFF02274F41203687E009003C980F8
:1052E300070E88828983A3A312488170F4EEC33327
:1052F300FAE433FB125380607E7F009003C980245D
:1053030088828983125187EFC333FAE433FBE508BC
:105313002AF582E5093BF583ECF0A3EDF00F8882D3
:105323008983A3A312488170D79003AB12253570EC
:1053330003A3E06978087019120824EEF50A780AC5
:105343001208287C777D0379009003AB12538B807E
:105353001A120824EEF50A780A1208287C777D03CE
:1053630079009003AB124C85120DE07403120837D9
:10537300AA08AB091213E0120B52022BE21213DA42
:105383008A088B09EA450922122BD8120DE622C09E
:1053930082C08380128A828B83A3A3123A5590031F
:1053A300C91249211213E09003C912396570E6024C
:1053B3003DFD74F6120368900363123A819003DD96
:1053C3001254141249217ADD7B037950121BDE90AB
:1053D30003DD122754FAEFFB120E4C9003DD123A51
:1053E300819005CC12488160257A067B0012133E1A
:1053F300EA4B601A8A828B8374D5F0A3A3E4125418
:105403003A0412544B9005CC125425121D870248BE
:105413008A12541822E0F8A3E0F9900363228E82E3
:105423008F831254292212542D22E0F8125433226E
:10543300A3E0F58388822212543E2212544222F0C2
:105443008A828B83A3A3A32212543EA3EEF0A3EF7D
:10545300F022F582EF12493AF922124A52EA4B221C
:10546300FAE5093400FB121BC622124959A3A3A370
:10547300A3A3A3A3229020FBE4932401F8E4340024
:10548300F97A027B002274F71203687E008004120B
:105493005A840E1255A840F77E00EE1254B574FEDE
:1054A300F0A3041254CAE4F00EEEC3940340EB02DB
:1054B3004ECB75F003A4F8A9F074CB28F874033924
:1054C300F988828983A3221254CE22F088828983A9
:1054D3002274F71203687F0080010F9020F8E49391
:1054E300F8EFC3985026EF1256946A7003A3E06B4B
:1054F30070E8125A316C7003A3E06D600A74FF6C9C
:10550300700374FF6D70D312559180047A007B0091
:10551300024ECB74F61203687CFF7DFF7AFE7BFF9D
:10552300120E10EA4B70407508008036E50875F0DE
:1055330017A4F8A9F074D828F582740A1256A66045
:105543000C74D728F582740A1256A6701374C928EE
:10555300FE740A39FF8E828F831256B3EEFAEFFB85
:10556300050812560E40C502488A74F41203688A6D
:10557300088B09ECFEEDFF800B120E22EEFCEFFD13
:10558300AA08AB09120E10EA4B70EE022BE274C9A3
:1055930028FA740A39FB22EE75F017A4F8A9F01261
:1055A300569F64FE229020F8E493F8EEC398227489
:1055B300F7120368EAFEEBFFEE4F60101255D27448
:1055C300FEF0A3041259D714F0A304F0024ECB7CCF
:1055D300177D0079001213268E828F832274F712AF
:1055E3000368EAFEEBFF7508008018E50875F017FD
:1055F300A4F8A9F0125A3C7003A3E06F6003125A97
:105603008C050812560E40E3024ECB9020F8E4932B
:10561300F8E508C3982274F6120368120E108A087C
:105623008B09A808A909E849600AE8240DFAE934B6
:1056330000FB80047A007B0002488A74F41203683A
:105643008A0A8B0BECFEEDFF750800750900802EAE
:10565300E50975F017A4F8A9F0125A77601EE50959
:10566300125694650A7004A3E0650B700375080A6B
:10567300EEFCEFFD12593360034308A005099020A7
:10568300F8E493F8E509C3985004E50860C20227DB
:105693004C75F017A4F8A9F012569F2274C928F587
:1056A30082740A39F583E022F582EF123A4AE42242
:1056B300122BD8120C36221254CEA3A3A3A3A3A356
:1056C300A3A32274F21203688A088B09ECFEEDFF90
:1056D300740E120A8B125106750C007C007D01803A
:1056E30010121338E50CF5F0EA84ACF0750C007D6C
:1056F300007800790080031258701258CC400302DE
:105703005792E8FAE9FBEA75F017A4FA85F00D75EC
:10571300F017EBA4250D1258A87003A3E0F460D78B
:1057230012588665087004A3E0650960CA1258869A
:105733006E7003A3E06F60BF125886650A7004A3FE
:10574300E0650B60B2E8FAE9FBEA75F017A4FA75B5
:10575300F017EBA4250DFB74D72AF582740A1258AF
:1057630067509474016D050C608DE50CC39C4087F4
:10577300E875F017A4F8AAF075F017E9A42AF974EC
:10578300C928F582740A39F583124C850258647866
:1057930000790080031258701258D9400302584B05
:1057A300E8FAE9FBEA75F012A4FA85F00D1258B88D
:1057B30064FE7003A3E0F460DC1258AE6508700465
:1057C300A3E0650960CF1258AE6E7003A3E06F606B
:1057D300C41258AE650A7004A3E0650B60B7E8FA1B
:1057E300E9FBEA75F012A4FA75F012EBA4250DFBA0
:1057F30074582AF58274091258675099E8FAE9FB3C
:10580300EA75F012A4FA75F012EBA4250D1258797B
:1058130064016081E06402700302579874016D05AE
:105823000C7003025798E50CC39C5003025798E889
:1058330075F012A4F8AAF075F012E9A42AF9744FCE
:1058430028F5827409025789E50C6011EC700E7417
:1058530001650C60030256E47C010256EF7AFE7B7D
:10586300FF0225413BF583E014C3940622E824019B
:1058730008E93400F922FB74532AF58274093BF5D5
:1058830083E022E8FAE9FBEA75F017A4FA75F0174A
:10589300EBA4250D12589B22FB74C92AF582740AC6
:1058A3003BF583E02212589B64FE22E8FAE9FBEA07
:1058B30075F012A4FA75F012EBA4250DFB744F2AB0
:1058C300F58274093BF583E0229020F8E493FAC350
:1058D300E89AE99400229020F2E493FA740193FB8E
:1058E300C3E89AE99B2274F51203688A088B09ECD2
:1058F300FEEDFF750A008002050A9020F8E493F894
:10590300E50AC3985028EEFCEFFDE50A75F017A4ED
:10591300F8A9F012593360E0E50A75F017A4F8A965
:10592300F074C928F582740A39F5831237FC8010A4
:1059330074CB28FA740A39FB121BC0E92212083708
:105943007F030205C774F01203688A088B098C0A67
:105953008D0B890C120E168A0E8B0FAE0EAF0FEE47
:105963004F60551255D2E508F0A3E5091259D71235
:1059730059CFE50C600AEE240F122B1DE50C8006AF
:10598300EE240F1259C7F09003DF124881601A907A
:1059930003AAE064017008EE240E1256AB8010EEE9
:1059A300240E122B1D74078006EE240E1259C71203
:1059B30030701202171259BE025043EE240D123AF0
:1059C30047E8F022123A47740122A3A3E50AF0A3A1
:1059D300E50BF022123673A32274F51203688A08CA
:1059E3008B09ECFEEDFF750A00800F125A3C700321
:1059F300A3E06F6003125A8C050A9020F8E493F831
:105A0300E50AC3985025E50A75F017A4F8A9F01222
:105A13005A3165087004A3E0650970CF74D328F583
:105A230082740A39F5831252D280CD02594374D35A
:105A330028F582740A1256A62274D328F582740AB2
:105A43001256A66E2274F7120368EAFEEBFF75087E
:105A5300008019E5081256946E7003A3E06F700A74
:105A6300125A777005E508125A85050812560E403A
:105A7300E2024ECB74CB28FA740A39FB120AE6E928
:105A830022EE75F017A4F8A9F0125591120E2222F6
:105A930074F71203687E00801312559A7003A3E013
:105AA300F46008125A777003125A840E1255A840F4
:105AB300E8024ECB1254CE123DF4E84922C082C014
:105AC3008374F81208CC851882851983AC82AD8360
:105AD30075838075824E740812076585188285194F
:105AE30083AC82AD83124B5564017004790080024C
:105AF30079017408023DD3C082C0838A828B83E01C
:105B0300D2E7F01215D202658EC082C083790012EB
:105B13005FC61275A3C082C0839003301271C5D0D3
:105B230083D082C3E09CA3E09D500C127772FAA34A
:105B3300E0125B3D60010902658EFBEA75F00BA480
